{
  "contracts/Governance/GovernorBravoInterfaces.sol": {
    "GovernorBravoDelegateStorageV1": {
      "abi": [
        {
          "constant": true,
          "inputs": [],
          "name": "admin",
          "outputs": [
            {
              "internalType": "address",
              "name": "",
              "type": "address"
            }
          ],
          "payable": false,
          "stateMutability": "view",
          "type": "function"
        },
        {
          "constant": true,
          "inputs": [],
          "name": "implementation",
          "outputs": [
            {
              "internalType": "address",
              "name": "",
              "type": "address"
            }
          ],
          "payable": false,
          "stateMutability": "view",
          "type": "function"
        },
        {
          "constant": true,
          "inputs": [],
          "name": "initialProposalId",
          "outputs": [
            {
              "internalType": "uint256",
              "name": "",
              "type": "uint256"
            }
          ],
          "payable": false,
          "stateMutability": "view",
          "type": "function"
        },
        {
          "constant": true,
          "inputs": [
            {
              "internalType": "address",
              "name": "",
              "type": "address"
            }
          ],
          "name": "latestProposalIds",
          "outputs": [
            {
              "internalType": "uint256",
              "name": "",
              "type": "uint256"
            }
          ],
          "payable": false,
          "stateMutability": "view",
          "type": "function"
        },
        {
          "constant": true,
          "inputs": [],
          "name": "pendingAdmin",
          "outputs": [
            {
              "internalType": "address",
              "name": "",
              "type": "address"
            }
          ],
          "payable": false,
          "stateMutability": "view",
          "type": "function"
        },
        {
          "constant": true,
          "inputs": [],
          "name": "proposalCount",
          "outputs": [
            {
              "internalType": "uint256",
              "name": "",
              "type": "uint256"
            }
          ],
          "payable": false,
          "stateMutability": "view",
          "type": "function"
        },
        {
          "constant": true,
          "inputs": [
            {
              "internalType": "uint256",
              "name": "",
              "type": "uint256"
            }
          ],
          "name": "proposals",
          "outputs": [
            {
              "internalType": "uint256",
              "name": "id",
              "type": "uint256"
            },
            {
              "internalType": "address",
              "name": "proposer",
              "type": "address"
            },
            {
              "internalType": "uint256",
              "name": "eta",
              "type": "uint256"
            },
            {
              "internalType": "bool",
              "name": "canceled",
              "type": "bool"
            },
            {
              "internalType": "bool",
              "name": "executed",
              "type": "bool"
            }
          ],
          "payable": false,
          "stateMutability": "view",
          "type": "function"
        },
        {
          "constant": true,
          "inputs": [],
          "name": "timelock",
          "outputs": [
            {
              "internalType": "contract TimelockInterface",
              "name": "",
              "type": "address"
            }
          ],
          "payable": false,
          "stateMutability": "view",
          "type": "function"
        }
      ],
      "evm": {
        "bytecode": {
          "linkReferences": {},
          "object": "608060405234801561001057600080fd5b50610348806100206000396000f3fe608060405234801561001057600080fd5b50600436106100885760003560e01c8063d33219b41161005b578063d33219b4146100f7578063da35c6641461010c578063f851a44014610114578063fc4eee421461011c57610088565b8063013cf08b1461008d57806317977c61146100ba57806326782247146100da5780635c60da1b146100ef575b600080fd5b6100a061009b3660046101fd565b610124565b6040516100b195949392919061026f565b60405180910390f35b6100cd6100c83660046101d7565b610161565b6040516100b19190610261565b6100e2610173565b6040516100b19190610245565b6100e2610182565b6100ff610191565b6040516100b19190610253565b6100cd6101a0565b6100e26101a6565b6100cd6101b5565b600660205260009081526040902080546001820154600283015460079093015491926001600160a01b039091169160ff8082169161010090041685565b60076020526000908152604090205481565b6001546001600160a01b031681565b6002546001600160a01b031681565b6005546001600160a01b031681565b60045481565b6000546001600160a01b031681565b60035481565b80356101c6816102e5565b92915050565b80356101c6816102fc565b6000602082840312156101e957600080fd5b60006101f584846101bb565b949350505050565b60006020828403121561020f57600080fd5b60006101f584846101cc565b610224816102bb565b82525050565b610224816102c6565b610224816102da565b610224816102d7565b602081016101c6828461021b565b602081016101c68284610233565b602081016101c6828461023c565b60a0810161027d828861023c565b61028a602083018761021b565b610297604083018661023c565b6102a4606083018561022a565b6102b1608083018461022a565b9695505050505050565b60006101c6826102cb565b151590565b6001600160a01b031690565b90565b60006101c6826102bb565b6102ee816102bb565b81146102f957600080fd5b50565b6102ee816102d756fea365627a7a723158201f57df320708aa1977dd1aa11ecf7509ed661fe633539747401ce3c97e6b49296c6578706572696d656e74616cf564736f6c63430005100040",
          "opcodes": "PUSH1 0x80 PUSH1 0x40 MSTORE CALLVALUE DUP1 ISZERO PUSH2 0x10 JUMPI PUSH1 0x0 DUP1 REVERT JUMPDEST POP PUSH2 0x348 DUP1 PUSH2 0x20 PUSH1 0x0 CODECOPY PUSH1 0x0 RETURN INVALID PUSH1 0x80 PUSH1 0x40 MSTORE CALLVALUE DUP1 ISZERO PUSH2 0x10 JUMPI PUSH1 0x0 DUP1 REVERT JUMPDEST POP PUSH1 0x4 CALLDATASIZE LT PUSH2 0x88 JUMPI PUSH1 0x0 CALLDATALOAD PUSH1 0xE0 SHR DUP1 PUSH4 0xD33219B4 GT PUSH2 0x5B JUMPI DUP1 PUSH4 0xD33219B4 EQ PUSH2 0xF7 JUMPI DUP1 PUSH4 0xDA35C664 EQ PUSH2 0x10C JUMPI DUP1 PUSH4 0xF851A440 EQ PUSH2 0x114 JUMPI DUP1 PUSH4 0xFC4EEE42 EQ PUSH2 0x11C JUMPI PUSH2 0x88 JUMP JUMPDEST DUP1 PUSH4 0x13CF08B EQ PUSH2 0x8D JUMPI DUP1 PUSH4 0x17977C61 EQ PUSH2 0xBA JUMPI DUP1 PUSH4 0x26782247 EQ PUSH2 0xDA JUMPI DUP1 PUSH4 0x5C60DA1B EQ PUSH2 0xEF JUMPI JUMPDEST PUSH1 0x0 DUP1 REVERT JUMPDEST PUSH2 0xA0 PUSH2 0x9B CALLDATASIZE PUSH1 0x4 PUSH2 0x1FD JUMP JUMPDEST PUSH2 0x124 JUMP JUMPDEST PUSH1 0x40 MLOAD PUSH2 0xB1 SWAP6 SWAP5 SWAP4 SWAP3 SWAP2 SWAP1 PUSH2 0x26F JUMP JUMPDEST PUSH1 0x40 MLOAD DUP1 SWAP2 SUB SWAP1 RETURN JUMPDEST PUSH2 0xCD PUSH2 0xC8 CALLDATASIZE PUSH1 0x4 PUSH2 0x1D7 JUMP JUMPDEST PUSH2 0x161 JUMP JUMPDEST PUSH1 0x40 MLOAD PUSH2 0xB1 SWAP2 SWAP1 PUSH2 0x261 JUMP JUMPDEST PUSH2 0xE2 PUSH2 0x173 JUMP JUMPDEST PUSH1 0x40 MLOAD PUSH2 0xB1 SWAP2 SWAP1 PUSH2 0x245 JUMP JUMPDEST PUSH2 0xE2 PUSH2 0x182 JUMP JUMPDEST PUSH2 0xFF PUSH2 0x191 JUMP JUMPDEST PUSH1 0x40 MLOAD PUSH2 0xB1 SWAP2 SWAP1 PUSH2 0x253 JUMP JUMPDEST PUSH2 0xCD PUSH2 0x1A0 JUMP JUMPDEST PUSH2 0xE2 PUSH2 0x1A6 JUMP JUMPDEST PUSH2 0xCD PUSH2 0x1B5 JUMP JUMPDEST PUSH1 0x6 PUSH1 0x20 MSTORE PUSH1 0x0 SWAP1 DUP2 MSTORE PUSH1 0x40 SWAP1 KECCAK256 DUP1 SLOAD PUSH1 0x1 DUP3 ADD SLOAD PUSH1 0x2 DUP4 ADD SLOAD PUSH1 0x7 SWAP1 SWAP4 ADD SLOAD SWAP2 SWAP3 PUSH1 0x1 PUSH1 0x1 PUSH1 0xA0 SHL SUB SWAP1 SWAP2 AND SWAP2 PUSH1 0xFF DUP1 DUP3 AND SWAP2 PUSH2 0x100 SWAP1 DIV AND DUP6 JUMP JUMPDEST PUSH1 0x7 PUSH1 0x20 MSTORE PUSH1 0x0 SWAP1 DUP2 MSTORE PUSH1 0x40 SWAP1 KECCAK256 SLOAD DUP2 JUMP JUMPDEST PUSH1 0x1 SLOAD PUSH1 0x1 PUSH1 0x1 PUSH1 0xA0 SHL SUB AND DUP2 JUMP JUMPDEST PUSH1 0x2 SLOAD PUSH1 0x1 PUSH1 0x1 PUSH1 0xA0 SHL SUB AND DUP2 JUMP JUMPDEST PUSH1 0x5 SLOAD PUSH1 0x1 PUSH1 0x1 PUSH1 0xA0 SHL SUB AND DUP2 JUMP JUMPDEST PUSH1 0x4 SLOAD DUP2 JUMP JUMPDEST PUSH1 0x0 SLOAD PUSH1 0x1 PUSH1 0x1 PUSH1 0xA0 SHL SUB AND DUP2 JUMP JUMPDEST PUSH1 0x3 SLOAD DUP2 JUMP JUMPDEST DUP1 CALLDATALOAD PUSH2 0x1C6 DUP2 PUSH2 0x2E5 JUMP JUMPDEST SWAP3 SWAP2 POP POP JUMP JUMPDEST DUP1 CALLDATALOAD PUSH2 0x1C6 DUP2 PUSH2 0x2FC JUMP JUMPDEST PUSH1 0x0 PUSH1 0x20 DUP3 DUP5 SUB SLT ISZERO PUSH2 0x1E9 JUMPI PUSH1 0x0 DUP1 REVERT JUMPDEST PUSH1 0x0 PUSH2 0x1F5 DUP5 DUP5 PUSH2 0x1BB JUMP JUMPDEST SWAP5 SWAP4 POP POP POP POP JUMP JUMPDEST PUSH1 0x0 PUSH1 0x20 DUP3 DUP5 SUB SLT ISZERO PUSH2 0x20F JUMPI PUSH1 0x0 DUP1 REVERT JUMPDEST PUSH1 0x0 PUSH2 0x1F5 DUP5 DUP5 PUSH2 0x1CC JUMP JUMPDEST PUSH2 0x224 DUP2 PUSH2 0x2BB JUMP JUMPDEST DUP3 MSTORE POP POP JUMP JUMPDEST PUSH2 0x224 DUP2 PUSH2 0x2C6 JUMP JUMPDEST PUSH2 0x224 DUP2 PUSH2 0x2DA JUMP JUMPDEST PUSH2 0x224 DUP2 PUSH2 0x2D7 JUMP JUMPDEST PUSH1 0x20 DUP2 ADD PUSH2 0x1C6 DUP3 DUP5 PUSH2 0x21B JUMP JUMPDEST PUSH1 0x20 DUP2 ADD PUSH2 0x1C6 DUP3 DUP5 PUSH2 0x233 JUMP JUMPDEST PUSH1 0x20 DUP2 ADD PUSH2 0x1C6 DUP3 DUP5 PUSH2 0x23C JUMP JUMPDEST PUSH1 0xA0 DUP2 ADD PUSH2 0x27D DUP3 DUP9 PUSH2 0x23C JUMP JUMPDEST PUSH2 0x28A PUSH1 0x20 DUP4 ADD DUP8 PUSH2 0x21B JUMP JUMPDEST PUSH2 0x297 PUSH1 0x40 DUP4 ADD DUP7 PUSH2 0x23C JUMP JUMPDEST PUSH2 0x2A4 PUSH1 0x60 DUP4 ADD DUP6 PUSH2 0x22A JUMP JUMPDEST PUSH2 0x2B1 PUSH1 0x80 DUP4 ADD DUP5 PUSH2 0x22A JUMP JUMPDEST SWAP7 SWAP6 POP POP POP POP POP POP JUMP JUMPDEST PUSH1 0x0 PUSH2 0x1C6 DUP3 PUSH2 0x2CB JUMP JUMPDEST ISZERO ISZERO SWAP1 JUMP JUMPDEST PUSH1 0x1 PUSH1 0x1 PUSH1 0xA0 SHL SUB AND SWAP1 JUMP JUMPDEST SWAP1 JUMP JUMPDEST PUSH1 0x0 PUSH2 0x1C6 DUP3 PUSH2 0x2BB JUMP JUMPDEST PUSH2 0x2EE DUP2 PUSH2 0x2BB JUMP JUMPDEST DUP2 EQ PUSH2 0x2F9 JUMPI PUSH1 0x0 DUP1 REVERT JUMPDEST POP JUMP JUMPDEST PUSH2 0x2EE DUP2 PUSH2 0x2D7 JUMP INVALID LOG3 PUSH6 0x627A7A723158 KECCAK256 0x1F JUMPI 0xDF ORIGIN SMOD ADDMOD 0xAA NOT PUSH24 0xDD1AA11ECF7509ED661FE633539747401CE3C97E6B49296C PUSH6 0x78706572696D PUSH6 0x6E74616CF564 PUSH20 0x6F6C634300051000400000000000000000000000 "
        },
        "methodIdentifiers": {
          "admin()": "f851a440",
          "implementation()": "5c60da1b",
          "initialProposalId()": "fc4eee42",
          "latestProposalIds(address)": "17977c61",
          "pendingAdmin()": "26782247",
          "proposalCount()": "da35c664",
          "proposals(uint256)": "013cf08b",
          "timelock()": "d33219b4"
        }
      }
    }
  }
}