{
  "contracts/Governance/GovernorBravoInterfaces.sol": {
    "GovernorBravoDelegateStorageV2": {
      "abi": [
        {
          "constant": true,
          "inputs": [],
          "name": "admin",
          "outputs": [
            {
              "internalType": "address",
              "name": "",
              "type": "address"
            }
          ],
          "payable": false,
          "stateMutability": "view",
          "type": "function"
        },
        {
          "constant": true,
          "inputs": [],
          "name": "implementation",
          "outputs": [
            {
              "internalType": "address",
              "name": "",
              "type": "address"
            }
          ],
          "payable": false,
          "stateMutability": "view",
          "type": "function"
        },
        {
          "constant": true,
          "inputs": [],
          "name": "initialProposalId",
          "outputs": [
            {
              "internalType": "uint256",
              "name": "",
              "type": "uint256"
            }
          ],
          "payable": false,
          "stateMutability": "view",
          "type": "function"
        },
        {
          "constant": true,
          "inputs": [
            {
              "internalType": "address",
              "name": "",
              "type": "address"
            }
          ],
          "name": "latestProposalIds",
          "outputs": [
            {
              "internalType": "uint256",
              "name": "",
              "type": "uint256"
            }
          ],
          "payable": false,
          "stateMutability": "view",
          "type": "function"
        },
        {
          "constant": true,
          "inputs": [],
          "name": "pendingAdmin",
          "outputs": [
            {
              "internalType": "address",
              "name": "",
              "type": "address"
            }
          ],
          "payable": false,
          "stateMutability": "view",
          "type": "function"
        },
        {
          "constant": true,
          "inputs": [],
          "name": "proposalCount",
          "outputs": [
            {
              "internalType": "uint256",
              "name": "",
              "type": "uint256"
            }
          ],
          "payable": false,
          "stateMutability": "view",
          "type": "function"
        },
        {
          "constant": true,
          "inputs": [
            {
              "internalType": "uint256",
              "name": "",
              "type": "uint256"
            }
          ],
          "name": "proposals",
          "outputs": [
            {
              "internalType": "uint256",
              "name": "id",
              "type": "uint256"
            },
            {
              "internalType": "address",
              "name": "proposer",
              "type": "address"
            },
            {
              "internalType": "uint256",
              "name": "eta",
              "type": "uint256"
            },
            {
              "internalType": "bool",
              "name": "canceled",
              "type": "bool"
            },
            {
              "internalType": "bool",
              "name": "executed",
              "type": "bool"
            }
          ],
          "payable": false,
          "stateMutability": "view",
          "type": "function"
        },
        {
          "constant": true,
          "inputs": [],
          "name": "timelock",
          "outputs": [
            {
              "internalType": "contract TimelockInterface",
              "name": "",
              "type": "address"
            }
          ],
          "payable": false,
          "stateMutability": "view",
          "type": "function"
        },
        {
          "constant": true,
          "inputs": [
            {
              "internalType": "address",
              "name": "",
              "type": "address"
            }
          ],
          "name": "whitelistAccountExpirations",
          "outputs": [
            {
              "internalType": "uint256",
              "name": "",
              "type": "uint256"
            }
          ],
          "payable": false,
          "stateMutability": "view",
          "type": "function"
        },
        {
          "constant": true,
          "inputs": [],
          "name": "whitelistGuardian",
          "outputs": [
            {
              "internalType": "address",
              "name": "",
              "type": "address"
            }
          ],
          "payable": false,
          "stateMutability": "view",
          "type": "function"
        }
      ],
      "evm": {
        "bytecode": {
          "linkReferences": {},
          "object": "608060405234801561001057600080fd5b5061039a806100206000396000f3fe608060405234801561001057600080fd5b506004361061009e5760003560e01c8063c5a8425d11610066578063c5a8425d14610120578063d33219b414610128578063da35c6641461013d578063f851a44014610145578063fc4eee421461014d5761009e565b8063013cf08b146100a357806317977c61146100d057806326782247146100f057806338bd0dda146101055780635c60da1b14610118575b600080fd5b6100b66100b136600461024f565b610155565b6040516100c79594939291906102c1565b60405180910390f35b6100e36100de366004610229565b610192565b6040516100c791906102b3565b6100f86101a4565b6040516100c79190610297565b6100e3610113366004610229565b6101b3565b6100f86101c5565b6100f86101d4565b6101306101e3565b6040516100c791906102a5565b6100e36101f2565b6100f86101f8565b6100e3610207565b600660205260009081526040902080546001820154600283015460079093015491926001600160a01b039091169160ff8082169161010090041685565b60076020526000908152604090205481565b6001546001600160a01b031681565b60086020526000908152604090205481565b6002546001600160a01b031681565b6009546001600160a01b031681565b6005546001600160a01b031681565b60045481565b6000546001600160a01b031681565b60035481565b803561021881610337565b92915050565b80356102188161034e565b60006020828403121561023b57600080fd5b6000610247848461020d565b949350505050565b60006020828403121561026157600080fd5b6000610247848461021e565b6102768161030d565b82525050565b61027681610318565b6102768161032c565b61027681610329565b60208101610218828461026d565b602081016102188284610285565b60208101610218828461028e565b60a081016102cf828861028e565b6102dc602083018761026d565b6102e9604083018661028e565b6102f6606083018561027c565b610303608083018461027c565b9695505050505050565b60006102188261031d565b151590565b6001600160a01b031690565b90565b60006102188261030d565b6103408161030d565b811461034b57600080fd5b50565b6103408161032956fea365627a7a723158206741ac6ca1aaff9689372eee766afd019c2e9997f312feaa55f79e6d5ca4e23c6c6578706572696d656e74616cf564736f6c63430005100040",
          "opcodes": "PUSH1 0x80 PUSH1 0x40 MSTORE CALLVALUE DUP1 ISZERO PUSH2 0x10 JUMPI PUSH1 0x0 DUP1 REVERT JUMPDEST POP PUSH2 0x39A DUP1 PUSH2 0x20 PUSH1 0x0 CODECOPY PUSH1 0x0 RETURN INVALID PUSH1 0x80 PUSH1 0x40 MSTORE CALLVALUE DUP1 ISZERO PUSH2 0x10 JUMPI PUSH1 0x0 DUP1 REVERT JUMPDEST POP PUSH1 0x4 CALLDATASIZE LT PUSH2 0x9E JUMPI PUSH1 0x0 CALLDATALOAD PUSH1 0xE0 SHR DUP1 PUSH4 0xC5A8425D GT PUSH2 0x66 JUMPI DUP1 PUSH4 0xC5A8425D EQ PUSH2 0x120 JUMPI DUP1 PUSH4 0xD33219B4 EQ PUSH2 0x128 JUMPI DUP1 PUSH4 0xDA35C664 EQ PUSH2 0x13D JUMPI DUP1 PUSH4 0xF851A440 EQ PUSH2 0x145 JUMPI DUP1 PUSH4 0xFC4EEE42 EQ PUSH2 0x14D JUMPI PUSH2 0x9E JUMP JUMPDEST DUP1 PUSH4 0x13CF08B EQ PUSH2 0xA3 JUMPI DUP1 PUSH4 0x17977C61 EQ PUSH2 0xD0 JUMPI DUP1 PUSH4 0x26782247 EQ PUSH2 0xF0 JUMPI DUP1 PUSH4 0x38BD0DDA EQ PUSH2 0x105 JUMPI DUP1 PUSH4 0x5C60DA1B EQ PUSH2 0x118 JUMPI JUMPDEST PUSH1 0x0 DUP1 REVERT JUMPDEST PUSH2 0xB6 PUSH2 0xB1 CALLDATASIZE PUSH1 0x4 PUSH2 0x24F JUMP JUMPDEST PUSH2 0x155 JUMP JUMPDEST PUSH1 0x40 MLOAD PUSH2 0xC7 SWAP6 SWAP5 SWAP4 SWAP3 SWAP2 SWAP1 PUSH2 0x2C1 JUMP JUMPDEST PUSH1 0x40 MLOAD DUP1 SWAP2 SUB SWAP1 RETURN JUMPDEST PUSH2 0xE3 PUSH2 0xDE CALLDATASIZE PUSH1 0x4 PUSH2 0x229 JUMP JUMPDEST PUSH2 0x192 JUMP JUMPDEST PUSH1 0x40 MLOAD PUSH2 0xC7 SWAP2 SWAP1 PUSH2 0x2B3 JUMP JUMPDEST PUSH2 0xF8 PUSH2 0x1A4 JUMP JUMPDEST PUSH1 0x40 MLOAD PUSH2 0xC7 SWAP2 SWAP1 PUSH2 0x297 JUMP JUMPDEST PUSH2 0xE3 PUSH2 0x113 CALLDATASIZE PUSH1 0x4 PUSH2 0x229 JUMP JUMPDEST PUSH2 0x1B3 JUMP JUMPDEST PUSH2 0xF8 PUSH2 0x1C5 JUMP JUMPDEST PUSH2 0xF8 PUSH2 0x1D4 JUMP JUMPDEST PUSH2 0x130 PUSH2 0x1E3 JUMP JUMPDEST PUSH1 0x40 MLOAD PUSH2 0xC7 SWAP2 SWAP1 PUSH2 0x2A5 JUMP JUMPDEST PUSH2 0xE3 PUSH2 0x1F2 JUMP JUMPDEST PUSH2 0xF8 PUSH2 0x1F8 JUMP JUMPDEST PUSH2 0xE3 PUSH2 0x207 JUMP JUMPDEST PUSH1 0x6 PUSH1 0x20 MSTORE PUSH1 0x0 SWAP1 DUP2 MSTORE PUSH1 0x40 SWAP1 KECCAK256 DUP1 SLOAD PUSH1 0x1 DUP3 ADD SLOAD PUSH1 0x2 DUP4 ADD SLOAD PUSH1 0x7 SWAP1 SWAP4 ADD SLOAD SWAP2 SWAP3 PUSH1 0x1 PUSH1 0x1 PUSH1 0xA0 SHL SUB SWAP1 SWAP2 AND SWAP2 PUSH1 0xFF DUP1 DUP3 AND SWAP2 PUSH2 0x100 SWAP1 DIV AND DUP6 JUMP JUMPDEST PUSH1 0x7 PUSH1 0x20 MSTORE PUSH1 0x0 SWAP1 DUP2 MSTORE PUSH1 0x40 SWAP1 KECCAK256 SLOAD DUP2 JUMP JUMPDEST PUSH1 0x1 SLOAD PUSH1 0x1 PUSH1 0x1 PUSH1 0xA0 SHL SUB AND DUP2 JUMP JUMPDEST PUSH1 0x8 PUSH1 0x20 MSTORE PUSH1 0x0 SWAP1 DUP2 MSTORE PUSH1 0x40 SWAP1 KECCAK256 SLOAD DUP2 JUMP JUMPDEST PUSH1 0x2 SLOAD PUSH1 0x1 PUSH1 0x1 PUSH1 0xA0 SHL SUB AND DUP2 JUMP JUMPDEST PUSH1 0x9 SLOAD PUSH1 0x1 PUSH1 0x1 PUSH1 0xA0 SHL SUB AND DUP2 JUMP JUMPDEST PUSH1 0x5 SLOAD PUSH1 0x1 PUSH1 0x1 PUSH1 0xA0 SHL SUB AND DUP2 JUMP JUMPDEST PUSH1 0x4 SLOAD DUP2 JUMP JUMPDEST PUSH1 0x0 SLOAD PUSH1 0x1 PUSH1 0x1 PUSH1 0xA0 SHL SUB AND DUP2 JUMP JUMPDEST PUSH1 0x3 SLOAD DUP2 JUMP JUMPDEST DUP1 CALLDATALOAD PUSH2 0x218 DUP2 PUSH2 0x337 JUMP JUMPDEST SWAP3 SWAP2 POP POP JUMP JUMPDEST DUP1 CALLDATALOAD PUSH2 0x218 DUP2 PUSH2 0x34E JUMP JUMPDEST PUSH1 0x0 PUSH1 0x20 DUP3 DUP5 SUB SLT ISZERO PUSH2 0x23B JUMPI PUSH1 0x0 DUP1 REVERT JUMPDEST PUSH1 0x0 PUSH2 0x247 DUP5 DUP5 PUSH2 0x20D JUMP JUMPDEST SWAP5 SWAP4 POP POP POP POP JUMP JUMPDEST PUSH1 0x0 PUSH1 0x20 DUP3 DUP5 SUB SLT ISZERO PUSH2 0x261 JUMPI PUSH1 0x0 DUP1 REVERT JUMPDEST PUSH1 0x0 PUSH2 0x247 DUP5 DUP5 PUSH2 0x21E JUMP JUMPDEST PUSH2 0x276 DUP2 PUSH2 0x30D JUMP JUMPDEST DUP3 MSTORE POP POP JUMP JUMPDEST PUSH2 0x276 DUP2 PUSH2 0x318 JUMP JUMPDEST PUSH2 0x276 DUP2 PUSH2 0x32C JUMP JUMPDEST PUSH2 0x276 DUP2 PUSH2 0x329 JUMP JUMPDEST PUSH1 0x20 DUP2 ADD PUSH2 0x218 DUP3 DUP5 PUSH2 0x26D JUMP JUMPDEST PUSH1 0x20 DUP2 ADD PUSH2 0x218 DUP3 DUP5 PUSH2 0x285 JUMP JUMPDEST PUSH1 0x20 DUP2 ADD PUSH2 0x218 DUP3 DUP5 PUSH2 0x28E JUMP JUMPDEST PUSH1 0xA0 DUP2 ADD PUSH2 0x2CF DUP3 DUP9 PUSH2 0x28E JUMP JUMPDEST PUSH2 0x2DC PUSH1 0x20 DUP4 ADD DUP8 PUSH2 0x26D JUMP JUMPDEST PUSH2 0x2E9 PUSH1 0x40 DUP4 ADD DUP7 PUSH2 0x28E JUMP JUMPDEST PUSH2 0x2F6 PUSH1 0x60 DUP4 ADD DUP6 PUSH2 0x27C JUMP JUMPDEST PUSH2 0x303 PUSH1 0x80 DUP4 ADD DUP5 PUSH2 0x27C JUMP JUMPDEST SWAP7 SWAP6 POP POP POP POP POP POP JUMP JUMPDEST PUSH1 0x0 PUSH2 0x218 DUP3 PUSH2 0x31D JUMP JUMPDEST ISZERO ISZERO SWAP1 JUMP JUMPDEST PUSH1 0x1 PUSH1 0x1 PUSH1 0xA0 SHL SUB AND SWAP1 JUMP JUMPDEST SWAP1 JUMP JUMPDEST PUSH1 0x0 PUSH2 0x218 DUP3 PUSH2 0x30D JUMP JUMPDEST PUSH2 0x340 DUP2 PUSH2 0x30D JUMP JUMPDEST DUP2 EQ PUSH2 0x34B JUMPI PUSH1 0x0 DUP1 REVERT JUMPDEST POP JUMP JUMPDEST PUSH2 0x340 DUP2 PUSH2 0x329 JUMP INVALID LOG3 PUSH6 0x627A7A723158 KECCAK256 PUSH8 0x41AC6CA1AAFF9689 CALLDATACOPY 0x2E 0xEE PUSH23 0x6AFD019C2E9997F312FEAA55F79E6D5CA4E23C6C657870 PUSH6 0x72696D656E74 PUSH2 0x6CF5 PUSH5 0x736F6C6343 STOP SDIV LT STOP BLOCKHASH "
        },
        "methodIdentifiers": {
          "admin()": "f851a440",
          "implementation()": "5c60da1b",
          "initialProposalId()": "fc4eee42",
          "latestProposalIds(address)": "17977c61",
          "pendingAdmin()": "26782247",
          "proposalCount()": "da35c664",
          "proposals(uint256)": "013cf08b",
          "timelock()": "d33219b4",
          "whitelistAccountExpirations(address)": "38bd0dda",
          "whitelistGuardian()": "c5a8425d"
        }
      }
    }
  }
}