{
  "_format": "hh-sol-artifact-1",
  "contractName": "Comptroller",
  "sourceName": "contracts/Comptroller.sol",
  "abi": [
    {
      "inputs": [],
      "payable": false,
      "stateMutability": "nonpayable",
      "type": "constructor"
    },
    {
      "anonymous": false,
      "inputs": [
        {
          "indexed": false,
          "internalType": "string",
          "name": "action",
          "type": "string"
        },
        {
          "indexed": false,
          "internalType": "bool",
          "name": "pauseState",
          "type": "bool"
        }
      ],
      "name": "ActionPaused",
      "type": "event"
    },
    {
      "anonymous": false,
      "inputs": [
        {
          "indexed": false,
          "internalType": "contract CToken",
          "name": "cToken",
          "type": "address"
        },
        {
          "indexed": false,
          "internalType": "string",
          "name": "action",
          "type": "string"
        },
        {
          "indexed": false,
          "internalType": "bool",
          "name": "pauseState",
          "type": "bool"
        }
      ],
      "name": "ActionPausedMarket",
      "type": "event"
    },
    {
      "anonymous": false,
      "inputs": [
        {
          "indexed": true,
          "internalType": "address",
          "name": "user",
          "type": "address"
        },
        {
          "indexed": false,
          "internalType": "uint256",
          "name": "oldCompAccrued",
          "type": "uint256"
        },
        {
          "indexed": false,
          "internalType": "uint256",
          "name": "newCompAccrued",
          "type": "uint256"
        }
      ],
      "name": "CompAccruedAdjusted",
      "type": "event"
    },
    {
      "anonymous": false,
      "inputs": [
        {
          "indexed": true,
          "internalType": "contract CToken",
          "name": "cToken",
          "type": "address"
        },
        {
          "indexed": false,
          "internalType": "uint256",
          "name": "newSpeed",
          "type": "uint256"
        }
      ],
      "name": "CompBorrowSpeedUpdated",
      "type": "event"
    },
    {
      "anonymous": false,
      "inputs": [
        {
          "indexed": false,
          "internalType": "address",
          "name": "recipient",
          "type": "address"
        },
        {
          "indexed": false,
          "internalType": "uint256",
          "name": "amount",
          "type": "uint256"
        }
      ],
      "name": "CompGranted",
      "type": "event"
    },
    {
      "anonymous": false,
      "inputs": [
        {
          "indexed": true,
          "internalType": "address",
          "name": "user",
          "type": "address"
        },
        {
          "indexed": false,
          "internalType": "uint256",
          "name": "oldCompReceivable",
          "type": "uint256"
        },
        {
          "indexed": false,
          "internalType": "uint256",
          "name": "newCompReceivable",
          "type": "uint256"
        }
      ],
      "name": "CompReceivableUpdated",
      "type": "event"
    },
    {
      "anonymous": false,
      "inputs": [
        {
          "indexed": true,
          "internalType": "contract CToken",
          "name": "cToken",
          "type": "address"
        },
        {
          "indexed": false,
          "internalType": "uint256",
          "name": "newSpeed",
          "type": "uint256"
        }
      ],
      "name": "CompSupplySpeedUpdated",
      "type": "event"
    },
    {
      "anonymous": false,
      "inputs": [
        {
          "indexed": true,
          "internalType": "address",
          "name": "contributor",
          "type": "address"
        },
        {
          "indexed": false,
          "internalType": "uint256",
          "name": "newSpeed",
          "type": "uint256"
        }
      ],
      "name": "ContributorCompSpeedUpdated",
      "type": "event"
    },
    {
      "anonymous": false,
      "inputs": [
        {
          "indexed": true,
          "internalType": "contract CToken",
          "name": "cToken",
          "type": "address"
        },
        {
          "indexed": true,
          "internalType": "address",
          "name": "borrower",
          "type": "address"
        },
        {
          "indexed": false,
          "internalType": "uint256",
          "name": "compDelta",
          "type": "uint256"
        },
        {
          "indexed": false,
          "internalType": "uint256",
          "name": "compBorrowIndex",
          "type": "uint256"
        }
      ],
      "name": "DistributedBorrowerComp",
      "type": "event"
    },
    {
      "anonymous": false,
      "inputs": [
        {
          "indexed": true,
          "internalType": "contract CToken",
          "name": "cToken",
          "type": "address"
        },
        {
          "indexed": true,
          "internalType": "address",
          "name": "supplier",
          "type": "address"
        },
        {
          "indexed": false,
          "internalType": "uint256",
          "name": "compDelta",
          "type": "uint256"
        },
        {
          "indexed": false,
          "internalType": "uint256",
          "name": "compSupplyIndex",
          "type": "uint256"
        }
      ],
      "name": "DistributedSupplierComp",
      "type": "event"
    },
    {
      "anonymous": false,
      "inputs": [
        {
          "indexed": false,
          "internalType": "uint256",
          "name": "error",
          "type": "uint256"
        },
        {
          "indexed": false,
          "internalType": "uint256",
          "name": "info",
          "type": "uint256"
        },
        {
          "indexed": false,
          "internalType": "uint256",
          "name": "detail",
          "type": "uint256"
        }
      ],
      "name": "Failure",
      "type": "event"
    },
    {
      "anonymous": false,
      "inputs": [
        {
          "indexed": false,
          "internalType": "contract CToken",
          "name": "cToken",
          "type": "address"
        },
        {
          "indexed": false,
          "internalType": "address",
          "name": "account",
          "type": "address"
        }
      ],
      "name": "MarketEntered",
      "type": "event"
    },
    {
      "anonymous": false,
      "inputs": [
        {
          "indexed": false,
          "internalType": "contract CToken",
          "name": "cToken",
          "type": "address"
        },
        {
          "indexed": false,
          "internalType": "address",
          "name": "account",
          "type": "address"
        }
      ],
      "name": "MarketExited",
      "type": "event"
    },
    {
      "anonymous": false,
      "inputs": [
        {
          "indexed": false,
          "internalType": "contract CToken",
          "name": "cToken",
          "type": "address"
        }
      ],
      "name": "MarketListed",
      "type": "event"
    },
    {
      "anonymous": false,
      "inputs": [
        {
          "indexed": true,
          "internalType": "contract CToken",
          "name": "cToken",
          "type": "address"
        },
        {
          "indexed": false,
          "internalType": "uint256",
          "name": "newBorrowCap",
          "type": "uint256"
        }
      ],
      "name": "NewBorrowCap",
      "type": "event"
    },
    {
      "anonymous": false,
      "inputs": [
        {
          "indexed": false,
          "internalType": "address",
          "name": "oldBorrowCapGuardian",
          "type": "address"
        },
        {
          "indexed": false,
          "internalType": "address",
          "name": "newBorrowCapGuardian",
          "type": "address"
        }
      ],
      "name": "NewBorrowCapGuardian",
      "type": "event"
    },
    {
      "anonymous": false,
      "inputs": [
        {
          "indexed": false,
          "internalType": "uint256",
          "name": "oldCloseFactorMantissa",
          "type": "uint256"
        },
        {
          "indexed": false,
          "internalType": "uint256",
          "name": "newCloseFactorMantissa",
          "type": "uint256"
        }
      ],
      "name": "NewCloseFactor",
      "type": "event"
    },
    {
      "anonymous": false,
      "inputs": [
        {
          "indexed": false,
          "internalType": "contract CToken",
          "name": "cToken",
          "type": "address"
        },
        {
          "indexed": false,
          "internalType": "uint256",
          "name": "oldCollateralFactorMantissa",
          "type": "uint256"
        },
        {
          "indexed": false,
          "internalType": "uint256",
          "name": "newCollateralFactorMantissa",
          "type": "uint256"
        }
      ],
      "name": "NewCollateralFactor",
      "type": "event"
    },
    {
      "anonymous": false,
      "inputs": [
        {
          "indexed": false,
          "internalType": "uint256",
          "name": "oldLiquidationIncentiveMantissa",
          "type": "uint256"
        },
        {
          "indexed": false,
          "internalType": "uint256",
          "name": "newLiquidationIncentiveMantissa",
          "type": "uint256"
        }
      ],
      "name": "NewLiquidationIncentive",
      "type": "event"
    },
    {
      "anonymous": false,
      "inputs": [
        {
          "indexed": false,
          "internalType": "address",
          "name": "oldPauseGuardian",
          "type": "address"
        },
        {
          "indexed": false,
          "internalType": "address",
          "name": "newPauseGuardian",
          "type": "address"
        }
      ],
      "name": "NewPauseGuardian",
      "type": "event"
    },
    {
      "anonymous": false,
      "inputs": [
        {
          "indexed": false,
          "internalType": "contract PriceOracle",
          "name": "oldPriceOracle",
          "type": "address"
        },
        {
          "indexed": false,
          "internalType": "contract PriceOracle",
          "name": "newPriceOracle",
          "type": "address"
        }
      ],
      "name": "NewPriceOracle",
      "type": "event"
    },
    {
      "constant": false,
      "inputs": [
        {
          "internalType": "contract Unitroller",
          "name": "unitroller",
          "type": "address"
        }
      ],
      "name": "_become",
      "outputs": [],
      "payable": false,
      "stateMutability": "nonpayable",
      "type": "function"
    },
    {
      "constant": true,
      "inputs": [],
      "name": "_borrowGuardianPaused",
      "outputs": [
        {
          "internalType": "bool",
          "name": "",
          "type": "bool"
        }
      ],
      "payable": false,
      "stateMutability": "view",
      "type": "function"
    },
    {
      "constant": false,
      "inputs": [
        {
          "internalType": "address",
          "name": "recipient",
          "type": "address"
        },
        {
          "internalType": "uint256",
          "name": "amount",
          "type": "uint256"
        }
      ],
      "name": "_grantComp",
      "outputs": [],
      "payable": false,
      "stateMutability": "nonpayable",
      "type": "function"
    },
    {
      "constant": true,
      "inputs": [],
      "name": "_mintGuardianPaused",
      "outputs": [
        {
          "internalType": "bool",
          "name": "",
          "type": "bool"
        }
      ],
      "payable": false,
      "stateMutability": "view",
      "type": "function"
    },
    {
      "constant": false,
      "inputs": [
        {
          "internalType": "address",
          "name": "newBorrowCapGuardian",
          "type": "address"
        }
      ],
      "name": "_setBorrowCapGuardian",
      "outputs": [],
      "payable": false,
      "stateMutability": "nonpayable",
      "type": "function"
    },
    {
      "constant": false,
      "inputs": [
        {
          "internalType": "contract CToken",
          "name": "cToken",
          "type": "address"
        },
        {
          "internalType": "bool",
          "name": "state",
          "type": "bool"
        }
      ],
      "name": "_setBorrowPaused",
      "outputs": [
        {
          "internalType": "bool",
          "name": "",
          "type": "bool"
        }
      ],
      "payable": false,
      "stateMutability": "nonpayable",
      "type": "function"
    },
    {
      "constant": false,
      "inputs": [
        {
          "internalType": "uint256",
          "name": "newCloseFactorMantissa",
          "type": "uint256"
        }
      ],
      "name": "_setCloseFactor",
      "outputs": [
        {
          "internalType": "uint256",
          "name": "",
          "type": "uint256"
        }
      ],
      "payable": false,
      "stateMutability": "nonpayable",
      "type": "function"
    },
    {
      "constant": false,
      "inputs": [
        {
          "internalType": "contract CToken",
          "name": "cToken",
          "type": "address"
        },
        {
          "internalType": "uint256",
          "name": "newCollateralFactorMantissa",
          "type": "uint256"
        }
      ],
      "name": "_setCollateralFactor",
      "outputs": [
        {
          "internalType": "uint256",
          "name": "",
          "type": "uint256"
        }
      ],
      "payable": false,
      "stateMutability": "nonpayable",
      "type": "function"
    },
    {
      "constant": false,
      "inputs": [
        {
          "internalType": "contract CToken[]",
          "name": "cTokens",
          "type": "address[]"
        },
        {
          "internalType": "uint256[]",
          "name": "supplySpeeds",
          "type": "uint256[]"
        },
        {
          "internalType": "uint256[]",
          "name": "borrowSpeeds",
          "type": "uint256[]"
        }
      ],
      "name": "_setCompSpeeds",
      "outputs": [],
      "payable": false,
      "stateMutability": "nonpayable",
      "type": "function"
    },
    {
      "constant": false,
      "inputs": [
        {
          "internalType": "address",
          "name": "contributor",
          "type": "address"
        },
        {
          "internalType": "uint256",
          "name": "compSpeed",
          "type": "uint256"
        }
      ],
      "name": "_setContributorCompSpeed",
      "outputs": [],
      "payable": false,
      "stateMutability": "nonpayable",
      "type": "function"
    },
    {
      "constant": false,
      "inputs": [
        {
          "internalType": "uint256",
          "name": "newLiquidationIncentiveMantissa",
          "type": "uint256"
        }
      ],
      "name": "_setLiquidationIncentive",
      "outputs": [
        {
          "internalType": "uint256",
          "name": "",
          "type": "uint256"
        }
      ],
      "payable": false,
      "stateMutability": "nonpayable",
      "type": "function"
    },
    {
      "constant": false,
      "inputs": [
        {
          "internalType": "contract CToken[]",
          "name": "cTokens",
          "type": "address[]"
        },
        {
          "internalType": "uint256[]",
          "name": "newBorrowCaps",
          "type": "uint256[]"
        }
      ],
      "name": "_setMarketBorrowCaps",
      "outputs": [],
      "payable": false,
      "stateMutability": "nonpayable",
      "type": "function"
    },
    {
      "constant": false,
      "inputs": [
        {
          "internalType": "contract CToken",
          "name": "cToken",
          "type": "address"
        },
        {
          "internalType": "bool",
          "name": "state",
          "type": "bool"
        }
      ],
      "name": "_setMintPaused",
      "outputs": [
        {
          "internalType": "bool",
          "name": "",
          "type": "bool"
        }
      ],
      "payable": false,
      "stateMutability": "nonpayable",
      "type": "function"
    },
    {
      "constant": false,
      "inputs": [
        {
          "internalType": "address",
          "name": "newPauseGuardian",
          "type": "address"
        }
      ],
      "name": "_setPauseGuardian",
      "outputs": [
        {
          "internalType": "uint256",
          "name": "",
          "type": "uint256"
        }
      ],
      "payable": false,
      "stateMutability": "nonpayable",
      "type": "function"
    },
    {
      "constant": false,
      "inputs": [
        {
          "internalType": "address",
          "name": "newOracle",
          "type": "address"
        }
      ],
      "name": "_setPriceOracle",
      "outputs": [
        {
          "internalType": "uint256",
          "name": "",
          "type": "uint256"
        }
      ],
      "payable": false,
      "stateMutability": "nonpayable",
      "type": "function"
    },
    {
      "constant": false,
      "inputs": [
        {
          "internalType": "bool",
          "name": "state",
          "type": "bool"
        }
      ],
      "name": "_setSeizePaused",
      "outputs": [
        {
          "internalType": "bool",
          "name": "",
          "type": "bool"
        }
      ],
      "payable": false,
      "stateMutability": "nonpayable",
      "type": "function"
    },
    {
      "constant": false,
      "inputs": [
        {
          "internalType": "bool",
          "name": "state",
          "type": "bool"
        }
      ],
      "name": "_setTransferPaused",
      "outputs": [
        {
          "internalType": "bool",
          "name": "",
          "type": "bool"
        }
      ],
      "payable": false,
      "stateMutability": "nonpayable",
      "type": "function"
    },
    {
      "constant": false,
      "inputs": [
        {
          "internalType": "contract CToken",
          "name": "cToken",
          "type": "address"
        }
      ],
      "name": "_supportMarket",
      "outputs": [
        {
          "internalType": "uint256",
          "name": "",
          "type": "uint256"
        }
      ],
      "payable": false,
      "stateMutability": "nonpayable",
      "type": "function"
    },
    {
      "constant": true,
      "inputs": [
        {
          "internalType": "address",
          "name": "",
          "type": "address"
        },
        {
          "internalType": "uint256",
          "name": "",
          "type": "uint256"
        }
      ],
      "name": "accountAssets",
      "outputs": [
        {
          "internalType": "contract CToken",
          "name": "",
          "type": "address"
        }
      ],
      "payable": false,
      "stateMutability": "view",
      "type": "function"
    },
    {
      "constant": true,
      "inputs": [],
      "name": "admin",
      "outputs": [
        {
          "internalType": "address",
          "name": "",
          "type": "address"
        }
      ],
      "payable": false,
      "stateMutability": "view",
      "type": "function"
    },
    {
      "constant": true,
      "inputs": [
        {
          "internalType": "uint256",
          "name": "",
          "type": "uint256"
        }
      ],
      "name": "allMarkets",
      "outputs": [
        {
          "internalType": "contract CToken",
          "name": "",
          "type": "address"
        }
      ],
      "payable": false,
      "stateMutability": "view",
      "type": "function"
    },
    {
      "constant": false,
      "inputs": [
        {
          "internalType": "address",
          "name": "cToken",
          "type": "address"
        },
        {
          "internalType": "address",
          "name": "borrower",
          "type": "address"
        },
        {
          "internalType": "uint256",
          "name": "borrowAmount",
          "type": "uint256"
        }
      ],
      "name": "borrowAllowed",
      "outputs": [
        {
          "internalType": "uint256",
          "name": "",
          "type": "uint256"
        }
      ],
      "payable": false,
      "stateMutability": "nonpayable",
      "type": "function"
    },
    {
      "constant": true,
      "inputs": [],
      "name": "borrowCapGuardian",
      "outputs": [
        {
          "internalType": "address",
          "name": "",
          "type": "address"
        }
      ],
      "payable": false,
      "stateMutability": "view",
      "type": "function"
    },
    {
      "constant": true,
      "inputs": [
        {
          "internalType": "address",
          "name": "",
          "type": "address"
        }
      ],
      "name": "borrowCaps",
      "outputs": [
        {
          "internalType": "uint256",
          "name": "",
          "type": "uint256"
        }
      ],
      "payable": false,
      "stateMutability": "view",
      "type": "function"
    },
    {
      "constant": true,
      "inputs": [
        {
          "internalType": "address",
          "name": "",
          "type": "address"
        }
      ],
      "name": "borrowGuardianPaused",
      "outputs": [
        {
          "internalType": "bool",
          "name": "",
          "type": "bool"
        }
      ],
      "payable": false,
      "stateMutability": "view",
      "type": "function"
    },
    {
      "constant": false,
      "inputs": [
        {
          "internalType": "address",
          "name": "cToken",
          "type": "address"
        },
        {
          "internalType": "address",
          "name": "borrower",
          "type": "address"
        },
        {
          "internalType": "uint256",
          "name": "borrowAmount",
          "type": "uint256"
        }
      ],
      "name": "borrowVerify",
      "outputs": [],
      "payable": false,
      "stateMutability": "nonpayable",
      "type": "function"
    },
    {
      "constant": true,
      "inputs": [
        {
          "internalType": "address",
          "name": "account",
          "type": "address"
        },
        {
          "internalType": "contract CToken",
          "name": "cToken",
          "type": "address"
        }
      ],
      "name": "checkMembership",
      "outputs": [
        {
          "internalType": "bool",
          "name": "",
          "type": "bool"
        }
      ],
      "payable": false,
      "stateMutability": "view",
      "type": "function"
    },
    {
      "constant": false,
      "inputs": [
        {
          "internalType": "address",
          "name": "holder",
          "type": "address"
        },
        {
          "internalType": "contract CToken[]",
          "name": "cTokens",
          "type": "address[]"
        }
      ],
      "name": "claimComp",
      "outputs": [],
      "payable": false,
      "stateMutability": "nonpayable",
      "type": "function"
    },
    {
      "constant": false,
      "inputs": [
        {
          "internalType": "address[]",
          "name": "holders",
          "type": "address[]"
        },
        {
          "internalType": "contract CToken[]",
          "name": "cTokens",
          "type": "address[]"
        },
        {
          "internalType": "bool",
          "name": "borrowers",
          "type": "bool"
        },
        {
          "internalType": "bool",
          "name": "suppliers",
          "type": "bool"
        }
      ],
      "name": "claimComp",
      "outputs": [],
      "payable": false,
      "stateMutability": "nonpayable",
      "type": "function"
    },
    {
      "constant": false,
      "inputs": [
        {
          "internalType": "address",
          "name": "holder",
          "type": "address"
        }
      ],
      "name": "claimComp",
      "outputs": [],
      "payable": false,
      "stateMutability": "nonpayable",
      "type": "function"
    },
    {
      "constant": true,
      "inputs": [],
      "name": "closeFactorMantissa",
      "outputs": [
        {
          "internalType": "uint256",
          "name": "",
          "type": "uint256"
        }
      ],
      "payable": false,
      "stateMutability": "view",
      "type": "function"
    },
    {
      "constant": true,
      "inputs": [
        {
          "internalType": "address",
          "name": "",
          "type": "address"
        }
      ],
      "name": "compAccrued",
      "outputs": [
        {
          "internalType": "uint256",
          "name": "",
          "type": "uint256"
        }
      ],
      "payable": false,
      "stateMutability": "view",
      "type": "function"
    },
    {
      "constant": true,
      "inputs": [
        {
          "internalType": "address",
          "name": "",
          "type": "address"
        }
      ],
      "name": "compBorrowSpeeds",
      "outputs": [
        {
          "internalType": "uint256",
          "name": "",
          "type": "uint256"
        }
      ],
      "payable": false,
      "stateMutability": "view",
      "type": "function"
    },
    {
      "constant": true,
      "inputs": [
        {
          "internalType": "address",
          "name": "",
          "type": "address"
        }
      ],
      "name": "compBorrowState",
      "outputs": [
        {
          "internalType": "uint224",
          "name": "index",
          "type": "uint224"
        },
        {
          "internalType": "uint32",
          "name": "block",
          "type": "uint32"
        }
      ],
      "payable": false,
      "stateMutability": "view",
      "type": "function"
    },
    {
      "constant": true,
      "inputs": [
        {
          "internalType": "address",
          "name": "",
          "type": "address"
        },
        {
          "internalType": "address",
          "name": "",
          "type": "address"
        }
      ],
      "name": "compBorrowerIndex",
      "outputs": [
        {
          "internalType": "uint256",
          "name": "",
          "type": "uint256"
        }
      ],
      "payable": false,
      "stateMutability": "view",
      "type": "function"
    },
    {
      "constant": true,
      "inputs": [
        {
          "internalType": "address",
          "name": "",
          "type": "address"
        }
      ],
      "name": "compContributorSpeeds",
      "outputs": [
        {
          "internalType": "uint256",
          "name": "",
          "type": "uint256"
        }
      ],
      "payable": false,
      "stateMutability": "view",
      "type": "function"
    },
    {
      "constant": true,
      "inputs": [],
      "name": "compInitialIndex",
      "outputs": [
        {
          "internalType": "uint224",
          "name": "",
          "type": "uint224"
        }
      ],
      "payable": false,
      "stateMutability": "view",
      "type": "function"
    },
    {
      "constant": true,
      "inputs": [],
      "name": "compRate",
      "outputs": [
        {
          "internalType": "uint256",
          "name": "",
          "type": "uint256"
        }
      ],
      "payable": false,
      "stateMutability": "view",
      "type": "function"
    },
    {
      "constant": true,
      "inputs": [
        {
          "internalType": "address",
          "name": "",
          "type": "address"
        }
      ],
      "name": "compReceivable",
      "outputs": [
        {
          "internalType": "uint256",
          "name": "",
          "type": "uint256"
        }
      ],
      "payable": false,
      "stateMutability": "view",
      "type": "function"
    },
    {
      "constant": true,
      "inputs": [
        {
          "internalType": "address",
          "name": "",
          "type": "address"
        }
      ],
      "name": "compSpeeds",
      "outputs": [
        {
          "internalType": "uint256",
          "name": "",
          "type": "uint256"
        }
      ],
      "payable": false,
      "stateMutability": "view",
      "type": "function"
    },
    {
      "constant": true,
      "inputs": [
        {
          "internalType": "address",
          "name": "",
          "type": "address"
        },
        {
          "internalType": "address",
          "name": "",
          "type": "address"
        }
      ],
      "name": "compSupplierIndex",
      "outputs": [
        {
          "internalType": "uint256",
          "name": "",
          "type": "uint256"
        }
      ],
      "payable": false,
      "stateMutability": "view",
      "type": "function"
    },
    {
      "constant": true,
      "inputs": [
        {
          "internalType": "address",
          "name": "",
          "type": "address"
        }
      ],
      "name": "compSupplySpeeds",
      "outputs": [
        {
          "internalType": "uint256",
          "name": "",
          "type": "uint256"
        }
      ],
      "payable": false,
      "stateMutability": "view",
      "type": "function"
    },
    {
      "constant": true,
      "inputs": [
        {
          "internalType": "address",
          "name": "",
          "type": "address"
        }
      ],
      "name": "compSupplyState",
      "outputs": [
        {
          "internalType": "uint224",
          "name": "index",
          "type": "uint224"
        },
        {
          "internalType": "uint32",
          "name": "block",
          "type": "uint32"
        }
      ],
      "payable": false,
      "stateMutability": "view",
      "type": "function"
    },
    {
      "constant": true,
      "inputs": [],
      "name": "comptrollerImplementation",
      "outputs": [
        {
          "internalType": "address",
          "name": "",
          "type": "address"
        }
      ],
      "payable": false,
      "stateMutability": "view",
      "type": "function"
    },
    {
      "constant": false,
      "inputs": [
        {
          "internalType": "address[]",
          "name": "cTokens",
          "type": "address[]"
        }
      ],
      "name": "enterMarkets",
      "outputs": [
        {
          "internalType": "uint256[]",
          "name": "",
          "type": "uint256[]"
        }
      ],
      "payable": false,
      "stateMutability": "nonpayable",
      "type": "function"
    },
    {
      "constant": false,
      "inputs": [
        {
          "internalType": "address",
          "name": "cTokenAddress",
          "type": "address"
        }
      ],
      "name": "exitMarket",
      "outputs": [
        {
          "internalType": "uint256",
          "name": "",
          "type": "uint256"
        }
      ],
      "payable": false,
      "stateMutability": "nonpayable",
      "type": "function"
    },
    {
      "constant": false,
      "inputs": [
        {
          "internalType": "address[]",
          "name": "affectedUsers",
          "type": "address[]"
        },
        {
          "internalType": "uint256[]",
          "name": "amounts",
          "type": "uint256[]"
        }
      ],
      "name": "fixBadAccruals",
      "outputs": [],
      "payable": false,
      "stateMutability": "nonpayable",
      "type": "function"
    },
    {
      "constant": true,
      "inputs": [
        {
          "internalType": "address",
          "name": "account",
          "type": "address"
        }
      ],
      "name": "getAccountLiquidity",
      "outputs": [
        {
          "internalType": "uint256",
          "name": "",
          "type": "uint256"
        },
        {
          "internalType": "uint256",
          "name": "",
          "type": "uint256"
        },
        {
          "internalType": "uint256",
          "name": "",
          "type": "uint256"
        }
      ],
      "payable": false,
      "stateMutability": "view",
      "type": "function"
    },
    {
      "constant": true,
      "inputs": [],
      "name": "getAllMarkets",
      "outputs": [
        {
          "internalType": "contract CToken[]",
          "name": "",
          "type": "address[]"
        }
      ],
      "payable": false,
      "stateMutability": "view",
      "type": "function"
    },
    {
      "constant": true,
      "inputs": [
        {
          "internalType": "address",
          "name": "account",
          "type": "address"
        }
      ],
      "name": "getAssetsIn",
      "outputs": [
        {
          "internalType": "contract CToken[]",
          "name": "",
          "type": "address[]"
        }
      ],
      "payable": false,
      "stateMutability": "view",
      "type": "function"
    },
    {
      "constant": true,
      "inputs": [],
      "name": "getBlockNumber",
      "outputs": [
        {
          "internalType": "uint256",
          "name": "",
          "type": "uint256"
        }
      ],
      "payable": false,
      "stateMutability": "view",
      "type": "function"
    },
    {
      "constant": true,
      "inputs": [],
      "name": "getCompAddress",
      "outputs": [
        {
          "internalType": "address",
          "name": "",
          "type": "address"
        }
      ],
      "payable": false,
      "stateMutability": "view",
      "type": "function"
    },
    {
      "constant": true,
      "inputs": [
        {
          "internalType": "address",
          "name": "account",
          "type": "address"
        },
        {
          "internalType": "address",
          "name": "cTokenModify",
          "type": "address"
        },
        {
          "internalType": "uint256",
          "name": "redeemTokens",
          "type": "uint256"
        },
        {
          "internalType": "uint256",
          "name": "borrowAmount",
          "type": "uint256"
        }
      ],
      "name": "getHypotheticalAccountLiquidity",
      "outputs": [
        {
          "internalType": "uint256",
          "name": "",
          "type": "uint256"
        },
        {
          "internalType": "uint256",
          "name": "",
          "type": "uint256"
        },
        {
          "internalType": "uint256",
          "name": "",
          "type": "uint256"
        }
      ],
      "payable": false,
      "stateMutability": "view",
      "type": "function"
    },
    {
      "constant": true,
      "inputs": [],
      "name": "isComptroller",
      "outputs": [
        {
          "internalType": "bool",
          "name": "",
          "type": "bool"
        }
      ],
      "payable": false,
      "stateMutability": "view",
      "type": "function"
    },
    {
      "constant": true,
      "inputs": [
        {
          "internalType": "contract CToken",
          "name": "cToken",
          "type": "address"
        }
      ],
      "name": "isDeprecated",
      "outputs": [
        {
          "internalType": "bool",
          "name": "",
          "type": "bool"
        }
      ],
      "payable": false,
      "stateMutability": "view",
      "type": "function"
    },
    {
      "constant": true,
      "inputs": [
        {
          "internalType": "address",
          "name": "",
          "type": "address"
        }
      ],
      "name": "lastContributorBlock",
      "outputs": [
        {
          "internalType": "uint256",
          "name": "",
          "type": "uint256"
        }
      ],
      "payable": false,
      "stateMutability": "view",
      "type": "function"
    },
    {
      "constant": false,
      "inputs": [
        {
          "internalType": "address",
          "name": "cTokenBorrowed",
          "type": "address"
        },
        {
          "internalType": "address",
          "name": "cTokenCollateral",
          "type": "address"
        },
        {
          "internalType": "address",
          "name": "liquidator",
          "type": "address"
        },
        {
          "internalType": "address",
          "name": "borrower",
          "type": "address"
        },
        {
          "internalType": "uint256",
          "name": "repayAmount",
          "type": "uint256"
        }
      ],
      "name": "liquidateBorrowAllowed",
      "outputs": [
        {
          "internalType": "uint256",
          "name": "",
          "type": "uint256"
        }
      ],
      "payable": false,
      "stateMutability": "nonpayable",
      "type": "function"
    },
    {
      "constant": false,
      "inputs": [
        {
          "internalType": "address",
          "name": "cTokenBorrowed",
          "type": "address"
        },
        {
          "internalType": "address",
          "name": "cTokenCollateral",
          "type": "address"
        },
        {
          "internalType": "address",
          "name": "liquidator",
          "type": "address"
        },
        {
          "internalType": "address",
          "name": "borrower",
          "type": "address"
        },
        {
          "internalType": "uint256",
          "name": "actualRepayAmount",
          "type": "uint256"
        },
        {
          "internalType": "uint256",
          "name": "seizeTokens",
          "type": "uint256"
        }
      ],
      "name": "liquidateBorrowVerify",
      "outputs": [],
      "payable": false,
      "stateMutability": "nonpayable",
      "type": "function"
    },
    {
      "constant": true,
      "inputs": [
        {
          "internalType": "address",
          "name": "cTokenBorrowed",
          "type": "address"
        },
        {
          "internalType": "address",
          "name": "cTokenCollateral",
          "type": "address"
        },
        {
          "internalType": "uint256",
          "name": "actualRepayAmount",
          "type": "uint256"
        }
      ],
      "name": "liquidateCalculateSeizeTokens",
      "outputs": [
        {
          "internalType": "uint256",
          "name": "",
          "type": "uint256"
        },
        {
          "internalType": "uint256",
          "name": "",
          "type": "uint256"
        }
      ],
      "payable": false,
      "stateMutability": "view",
      "type": "function"
    },
    {
      "constant": true,
      "inputs": [],
      "name": "liquidationIncentiveMantissa",
      "outputs": [
        {
          "internalType": "uint256",
          "name": "",
          "type": "uint256"
        }
      ],
      "payable": false,
      "stateMutability": "view",
      "type": "function"
    },
    {
      "constant": true,
      "inputs": [
        {
          "internalType": "address",
          "name": "",
          "type": "address"
        }
      ],
      "name": "markets",
      "outputs": [
        {
          "internalType": "bool",
          "name": "isListed",
          "type": "bool"
        },
        {
          "internalType": "uint256",
          "name": "collateralFactorMantissa",
          "type": "uint256"
        },
        {
          "internalType": "bool",
          "name": "isComped",
          "type": "bool"
        }
      ],
      "payable": false,
      "stateMutability": "view",
      "type": "function"
    },
    {
      "constant": true,
      "inputs": [],
      "name": "maxAssets",
      "outputs": [
        {
          "internalType": "uint256",
          "name": "",
          "type": "uint256"
        }
      ],
      "payable": false,
      "stateMutability": "view",
      "type": "function"
    },
    {
      "constant": false,
      "inputs": [
        {
          "internalType": "address",
          "name": "cToken",
          "type": "address"
        },
        {
          "internalType": "address",
          "name": "minter",
          "type": "address"
        },
        {
          "internalType": "uint256",
          "name": "mintAmount",
          "type": "uint256"
        }
      ],
      "name": "mintAllowed",
      "outputs": [
        {
          "internalType": "uint256",
          "name": "",
          "type": "uint256"
        }
      ],
      "payable": false,
      "stateMutability": "nonpayable",
      "type": "function"
    },
    {
      "constant": true,
      "inputs": [
        {
          "internalType": "address",
          "name": "",
          "type": "address"
        }
      ],
      "name": "mintGuardianPaused",
      "outputs": [
        {
          "internalType": "bool",
          "name": "",
          "type": "bool"
        }
      ],
      "payable": false,
      "stateMutability": "view",
      "type": "function"
    },
    {
      "constant": false,
      "inputs": [
        {
          "internalType": "address",
          "name": "cToken",
          "type": "address"
        },
        {
          "internalType": "address",
          "name": "minter",
          "type": "address"
        },
        {
          "internalType": "uint256",
          "name": "actualMintAmount",
          "type": "uint256"
        },
        {
          "internalType": "uint256",
          "name": "mintTokens",
          "type": "uint256"
        }
      ],
      "name": "mintVerify",
      "outputs": [],
      "payable": false,
      "stateMutability": "nonpayable",
      "type": "function"
    },
    {
      "constant": true,
      "inputs": [],
      "name": "oracle",
      "outputs": [
        {
          "internalType": "contract PriceOracle",
          "name": "",
          "type": "address"
        }
      ],
      "payable": false,
      "stateMutability": "view",
      "type": "function"
    },
    {
      "constant": true,
      "inputs": [],
      "name": "pauseGuardian",
      "outputs": [
        {
          "internalType": "address",
          "name": "",
          "type": "address"
        }
      ],
      "payable": false,
      "stateMutability": "view",
      "type": "function"
    },
    {
      "constant": true,
      "inputs": [],
      "name": "pendingAdmin",
      "outputs": [
        {
          "internalType": "address",
          "name": "",
          "type": "address"
        }
      ],
      "payable": false,
      "stateMutability": "view",
      "type": "function"
    },
    {
      "constant": true,
      "inputs": [],
      "name": "pendingComptrollerImplementation",
      "outputs": [
        {
          "internalType": "address",
          "name": "",
          "type": "address"
        }
      ],
      "payable": false,
      "stateMutability": "view",
      "type": "function"
    },
    {
      "constant": true,
      "inputs": [],
      "name": "proposal65FixExecuted",
      "outputs": [
        {
          "internalType": "bool",
          "name": "",
          "type": "bool"
        }
      ],
      "payable": false,
      "stateMutability": "view",
      "type": "function"
    },
    {
      "constant": false,
      "inputs": [
        {
          "internalType": "address",
          "name": "cToken",
          "type": "address"
        },
        {
          "internalType": "address",
          "name": "redeemer",
          "type": "address"
        },
        {
          "internalType": "uint256",
          "name": "redeemTokens",
          "type": "uint256"
        }
      ],
      "name": "redeemAllowed",
      "outputs": [
        {
          "internalType": "uint256",
          "name": "",
          "type": "uint256"
        }
      ],
      "payable": false,
      "stateMutability": "nonpayable",
      "type": "function"
    },
    {
      "constant": false,
      "inputs": [
        {
          "internalType": "address",
          "name": "cToken",
          "type": "address"
        },
        {
          "internalType": "address",
          "name": "redeemer",
          "type": "address"
        },
        {
          "internalType": "uint256",
          "name": "redeemAmount",
          "type": "uint256"
        },
        {
          "internalType": "uint256",
          "name": "redeemTokens",
          "type": "uint256"
        }
      ],
      "name": "redeemVerify",
      "outputs": [],
      "payable": false,
      "stateMutability": "nonpayable",
      "type": "function"
    },
    {
      "constant": false,
      "inputs": [
        {
          "internalType": "address",
          "name": "cToken",
          "type": "address"
        },
        {
          "internalType": "address",
          "name": "payer",
          "type": "address"
        },
        {
          "internalType": "address",
          "name": "borrower",
          "type": "address"
        },
        {
          "internalType": "uint256",
          "name": "repayAmount",
          "type": "uint256"
        }
      ],
      "name": "repayBorrowAllowed",
      "outputs": [
        {
          "internalType": "uint256",
          "name": "",
          "type": "uint256"
        }
      ],
      "payable": false,
      "stateMutability": "nonpayable",
      "type": "function"
    },
    {
      "constant": false,
      "inputs": [
        {
          "internalType": "address",
          "name": "cToken",
          "type": "address"
        },
        {
          "internalType": "address",
          "name": "payer",
          "type": "address"
        },
        {
          "internalType": "address",
          "name": "borrower",
          "type": "address"
        },
        {
          "internalType": "uint256",
          "name": "actualRepayAmount",
          "type": "uint256"
        },
        {
          "internalType": "uint256",
          "name": "borrowerIndex",
          "type": "uint256"
        }
      ],
      "name": "repayBorrowVerify",
      "outputs": [],
      "payable": false,
      "stateMutability": "nonpayable",
      "type": "function"
    },
    {
      "constant": false,
      "inputs": [
        {
          "internalType": "address",
          "name": "cTokenCollateral",
          "type": "address"
        },
        {
          "internalType": "address",
          "name": "cTokenBorrowed",
          "type": "address"
        },
        {
          "internalType": "address",
          "name": "liquidator",
          "type": "address"
        },
        {
          "internalType": "address",
          "name": "borrower",
          "type": "address"
        },
        {
          "internalType": "uint256",
          "name": "seizeTokens",
          "type": "uint256"
        }
      ],
      "name": "seizeAllowed",
      "outputs": [
        {
          "internalType": "uint256",
          "name": "",
          "type": "uint256"
        }
      ],
      "payable": false,
      "stateMutability": "nonpayable",
      "type": "function"
    },
    {
      "constant": true,
      "inputs": [],
      "name": "seizeGuardianPaused",
      "outputs": [
        {
          "internalType": "bool",
          "name": "",
          "type": "bool"
        }
      ],
      "payable": false,
      "stateMutability": "view",
      "type": "function"
    },
    {
      "constant": false,
      "inputs": [
        {
          "internalType": "address",
          "name": "cTokenCollateral",
          "type": "address"
        },
        {
          "internalType": "address",
          "name": "cTokenBorrowed",
          "type": "address"
        },
        {
          "internalType": "address",
          "name": "liquidator",
          "type": "address"
        },
        {
          "internalType": "address",
          "name": "borrower",
          "type": "address"
        },
        {
          "internalType": "uint256",
          "name": "seizeTokens",
          "type": "uint256"
        }
      ],
      "name": "seizeVerify",
      "outputs": [],
      "payable": false,
      "stateMutability": "nonpayable",
      "type": "function"
    },
    {
      "constant": false,
      "inputs": [
        {
          "internalType": "address",
          "name": "cToken",
          "type": "address"
        },
        {
          "internalType": "address",
          "name": "src",
          "type": "address"
        },
        {
          "internalType": "address",
          "name": "dst",
          "type": "address"
        },
        {
          "internalType": "uint256",
          "name": "transferTokens",
          "type": "uint256"
        }
      ],
      "name": "transferAllowed",
      "outputs": [
        {
          "internalType": "uint256",
          "name": "",
          "type": "uint256"
        }
      ],
      "payable": false,
      "stateMutability": "nonpayable",
      "type": "function"
    },
    {
      "constant": true,
      "inputs": [],
      "name": "transferGuardianPaused",
      "outputs": [
        {
          "internalType": "bool",
          "name": "",
          "type": "bool"
        }
      ],
      "payable": false,
      "stateMutability": "view",
      "type": "function"
    },
    {
      "constant": false,
      "inputs": [
        {
          "internalType": "address",
          "name": "cToken",
          "type": "address"
        },
        {
          "internalType": "address",
          "name": "src",
          "type": "address"
        },
        {
          "internalType": "address",
          "name": "dst",
          "type": "address"
        },
        {
          "internalType": "uint256",
          "name": "transferTokens",
          "type": "uint256"
        }
      ],
      "name": "transferVerify",
      "outputs": [],
      "payable": false,
      "stateMutability": "nonpayable",
      "type": "function"
    },
    {
      "constant": false,
      "inputs": [
        {
          "internalType": "address",
          "name": "contributor",
          "type": "address"
        }
      ],
      "name": "updateContributorRewards",
      "outputs": [],
      "payable": false,
      "stateMutability": "nonpayable",
      "type": "function"
    }
  ],
  "bytecode": "0x608060405234801561001057600080fd5b50600080546001600160a01b03191633179055615b2a80620000336000396000f3fe608060405234801561001057600080fd5b506004361061048a5760003560e01c8063731f0c2b11610262578063b21be7fd11610151578063dce15449116100ce578063e9af029211610092578063e9af0292146114e0578063eabe7d9114611506578063ede4edd01461153c578063f00a7a9214611562578063f4a433c01461156a578063f851a440146115905761048a565b8063dce1544914611470578063dcfbc0c71461149c578063e4028eee146114a4578063e6653f3d146114d0578063e8755446146114d85761048a565b8063c488847b11610115578063c488847b14611351578063ca0af043146113a0578063cc7ebdc4146113ce578063d02f7351146113f4578063da3d454c1461143a5761048a565b8063b21be7fd14611218578063bb82aa5e14611246578063bdcdc2581461124e578063bea6b8b81461128a578063c2998238146112b05761048a565b806394b2294b116101df578063a8b43948116101a3578063a8b4394814610fe5578063aa9007541461118a578063abfceffc14611192578063ac0b0bb714611208578063b0772d0b146112105761048a565b806394b2294b14610f65578063986ab83814610f6d5780639d1b5a0a14610f93578063a76b3fda14610f9b578063a7f0e23114610fc15761048a565b80638c57804e116102265780638c57804e14610e845780638e8f294b14610eaa5780638ebf636414610ef2578063929fe9a114610f1157806394543c1514610f3f5761048a565b8063731f0c2b14610e02578063741b252514610e285780637dc0d1d014610e4e57806385b7beb814610e5657806387f7630314610e7c5761048a565b80634a5844321161037e5780635ec88c79116102fb5780636a56947e116102bf5780636a56947e14610ce65780636aa875b514610d225780636b79c38d14610d485780636d154ea514610d965780636d35bf9114610dbc5761048a565b80635ec88c7914610a6a5780635f5af1aa14610a905780635fc7e71e14610ab6578063607ef6c114610afc5780636810dfa614610bba5761048a565b806351dff9891161034257806351dff9891461098957806352d84d1e146109c557806355ee1fe1146109e2578063598ee1cb14610a085780635c77860514610a345761048a565b80634a584432146108ae5780634ada90af146108d45780634e79238f146108dc5780634ef4c3e1146109365780634fd42e171461096c5761048a565b8063267822471161040c5780633bcf7ec1116103d05780633bcf7ec1146107e85780633c94786f1461081657806341c728b91461081e57806342cbb15c1461085a57806347ef3b3b146108625761048a565b8063267822471461075257806327efe3cb1461075a5780632d70db7814610786578063317b0b77146107a5578063391957d7146107c25761048a565b80631d7b33d7116104535780631d7b33d7146106705780631ededc91146106a857806321af4569146106ea57806324008a621461070e57806324a3d6221461074a5761048a565b80627e3dd21461048f57806316b95e8f146104ab57806318c882a51461056b5780631c3db2e0146105995780631d504dc61461064a575b600080fd5b610497611598565b604080519115158252519081900360200190f35b610569600480360360408110156104c157600080fd5b810190602081018135600160201b8111156104db57600080fd5b8201836020820111156104ed57600080fd5b803590602001918460208302840111600160201b8311171561050e57600080fd5b919390929091602081019035600160201b81111561052b57600080fd5b82018360208201111561053d57600080fd5b803590602001918460208302840111600160201b8311171561055e57600080fd5b50909250905061159d565b005b6104976004803603604081101561058157600080fd5b506001600160a01b03813516906020013515156117f3565b610569600480360360408110156105af57600080fd5b6001600160a01b038235169190810190604081016020820135600160201b8111156105d957600080fd5b8201836020820111156105eb57600080fd5b803590602001918460208302840111600160201b8311171561060c57600080fd5b919080806020026020016040519081016040528093929190818152602001838360200280828437600092019190915250929550611993945050505050565b6105696004803603602081101561066057600080fd5b50356001600160a01b03166119f5565b6106966004803603602081101561068657600080fd5b50356001600160a01b0316611b54565b60408051918252519081900360200190f35b610569600480360360a08110156106be57600080fd5b506001600160a01b03813581169160208101358216916040820135169060608101359060800135611b66565b6106f2611b6d565b604080516001600160a01b039092168252519081900360200190f35b6106966004803603608081101561072457600080fd5b506001600160a01b03813581169160208101358216916040820135169060600135611b7c565b6106f2611c43565b6106f2611c52565b6105696004803603604081101561077057600080fd5b506001600160a01b038135169060200135611c61565b6104976004803603602081101561079c57600080fd5b50351515611d64565b610696600480360360208110156107bb57600080fd5b5035611e9e565b610569600480360360208110156107d857600080fd5b50356001600160a01b0316611f4b565b610497600480360360408110156107fe57600080fd5b506001600160a01b0381351690602001351515611ff7565b610497612192565b6105696004803603608081101561083457600080fd5b506001600160a01b038135811691602081013590911690604081013590606001356121a2565b6106966121a8565b610569600480360360c081101561087857600080fd5b506001600160a01b0381358116916020810135821691604082013581169160608101359091169060808101359060a001356121ad565b610696600480360360208110156108c457600080fd5b50356001600160a01b03166121b5565b6106966121c7565b610918600480360360808110156108f257600080fd5b506001600160a01b038135811691602081013590911690604081013590606001356121cd565b60408051938452602084019290925282820152519081900360600190f35b6106966004803603606081101561094c57600080fd5b506001600160a01b03813581169160208101359091169060400135612207565b6106966004803603602081101561098257600080fd5b50356122ad565b6105696004803603608081101561099f57600080fd5b506001600160a01b0381358116916020810135909116906040810135906060013561231d565b6106f2600480360360208110156109db57600080fd5b5035612371565b610696600480360360208110156109f857600080fd5b50356001600160a01b0316612398565b61056960048036036040811015610a1e57600080fd5b506001600160a01b03813516906020013561241c565b61056960048036036060811015610a4a57600080fd5b506001600160a01b03813581169160208101359091169060400135612517565b61091860048036036020811015610a8057600080fd5b50356001600160a01b031661251c565b61069660048036036020811015610aa657600080fd5b50356001600160a01b0316612551565b610696600480360360a0811015610acc57600080fd5b506001600160a01b03813581169160208101358216916040820135811691606081013590911690608001356125d5565b61056960048036036040811015610b1257600080fd5b810190602081018135600160201b811115610b2c57600080fd5b820183602082011115610b3e57600080fd5b803590602001918460208302840111600160201b83111715610b5f57600080fd5b919390929091602081019035600160201b811115610b7c57600080fd5b820183602082011115610b8e57600080fd5b803590602001918460208302840111600160201b83111715610baf57600080fd5b50909250905061278c565b61056960048036036080811015610bd057600080fd5b810190602081018135600160201b811115610bea57600080fd5b820183602082011115610bfc57600080fd5b803590602001918460208302840111600160201b83111715610c1d57600080fd5b9190808060200260200160405190810160405280939291908181526020018383602002808284376000920191909152509295949360208101935035915050600160201b811115610c6c57600080fd5b820183602082011115610c7e57600080fd5b803590602001918460208302840111600160201b83111715610c9f57600080fd5b91908080602002602001604051908101604052809392919081815260200183836020028082843760009201919091525092955050505080351515915060200135151561291c565b61056960048036036080811015610cfc57600080fd5b506001600160a01b038135811691602081013582169160408201351690606001356121a2565b61069660048036036020811015610d3857600080fd5b50356001600160a01b0316612b5f565b610d6e60048036036020811015610d5e57600080fd5b50356001600160a01b0316612b71565b604080516001600160e01b03909316835263ffffffff90911660208301528051918290030190f35b61049760048036036020811015610dac57600080fd5b50356001600160a01b0316612b9b565b610569600480360360a0811015610dd257600080fd5b506001600160a01b0381358116916020810135821691604082013581169160608101359091169060800135611b66565b61049760048036036020811015610e1857600080fd5b50356001600160a01b0316612bb0565b61056960048036036020811015610e3e57600080fd5b50356001600160a01b0316612bc5565b6106f2612c88565b61069660048036036020811015610e6c57600080fd5b50356001600160a01b0316612c97565b610497612ca9565b610d6e60048036036020811015610e9a57600080fd5b50356001600160a01b0316612cb9565b610ed060048036036020811015610ec057600080fd5b50356001600160a01b0316612ce3565b6040805193151584526020840192909252151582820152519081900360600190f35b61049760048036036020811015610f0857600080fd5b50351515612d09565b61049760048036036040811015610f2757600080fd5b506001600160a01b0381358116916020013516612e42565b61049760048036036020811015610f5557600080fd5b50356001600160a01b0316612e75565b610696612f37565b61069660048036036020811015610f8357600080fd5b50356001600160a01b0316612f3d565b6106f2612f4f565b61069660048036036020811015610fb157600080fd5b50356001600160a01b0316612f67565b610fc96130cc565b604080516001600160e01b039092168252519081900360200190f35b61056960048036036060811015610ffb57600080fd5b810190602081018135600160201b81111561101557600080fd5b82018360208201111561102757600080fd5b803590602001918460208302840111600160201b8311171561104857600080fd5b9190808060200260200160405190810160405280939291908181526020018383602002808284376000920191909152509295949360208101935035915050600160201b81111561109757600080fd5b8201836020820111156110a957600080fd5b803590602001918460208302840111600160201b831117156110ca57600080fd5b9190808060200260200160405190810160405280939291908181526020018383602002808284376000920191909152509295949360208101935035915050600160201b81111561111957600080fd5b82018360208201111561112b57600080fd5b803590602001918460208302840111600160201b8311171561114c57600080fd5b9190808060200260200160405190810160405280939291908181526020018383602002808284376000920191909152509295506130de945050505050565b6106966131db565b6111b8600480360360208110156111a857600080fd5b50356001600160a01b03166131e1565b60408051602080825283518183015283519192839290830191858101910280838360005b838110156111f45781810151838201526020016111dc565b505050509050019250505060405180910390f35b61049761326a565b6111b861327a565b6106966004803603604081101561122e57600080fd5b506001600160a01b03813581169160200135166132dc565b6106f26132f9565b6106966004803603608081101561126457600080fd5b506001600160a01b03813581169160208101358216916040820135169060600135613308565b610696600480360360208110156112a057600080fd5b50356001600160a01b0316613398565b6111b8600480360360208110156112c657600080fd5b810190602081018135600160201b8111156112e057600080fd5b8201836020820111156112f257600080fd5b803590602001918460208302840111600160201b8311171561131357600080fd5b9190808060200260200160405190810160405280939291908181526020018383602002808284376000920191909152509295506133aa945050505050565b6113876004803603606081101561136757600080fd5b506001600160a01b03813581169160208101359091169060400135613441565b6040805192835260208301919091528051918290030190f35b610696600480360360408110156113b657600080fd5b506001600160a01b0381358116916020013516613669565b610696600480360360208110156113e457600080fd5b50356001600160a01b0316613686565b610696600480360360a081101561140a57600080fd5b506001600160a01b0381358116916020810135821691604082013581169160608101359091169060800135613698565b6106966004803603606081101561145057600080fd5b506001600160a01b0381358116916020810135909116906040013561384c565b6106f26004803603604081101561148657600080fd5b506001600160a01b038135169060200135613c26565b6106f2613c5b565b610696600480360360408110156114ba57600080fd5b506001600160a01b038135169060200135613c6a565b610497613e1a565b610696613e2a565b610569600480360360208110156114f657600080fd5b50356001600160a01b0316613e30565b6106966004803603606081101561151c57600080fd5b506001600160a01b03813581169160208101359091169060400135613e94565b6106966004803603602081101561155257600080fd5b50356001600160a01b0316613ecf565b6104976141e2565b6106966004803603602081101561158057600080fd5b50356001600160a01b03166141eb565b6106f26141fd565b600181565b6000546001600160a01b031633146115e65760405162461bcd60e51b8152600401808060200182810382526021815260200180615a856021913960400191505060405180910390fd5b601b5460ff16156116285760405162461bcd60e51b81526004018080602001828103825260268152602001806159b86026913960400191505060405180910390fd5b82811461166c576040805162461bcd60e51b815260206004820152600d60248201526c125b9d985b1a59081a5b9c1d5d609a1b604482015290519081900360640190fd5b6000808080805b878110156117db5788888281811061168757fe5b905060200201356001600160a01b0316945060146000866001600160a01b03166001600160a01b031681526020019081526020016000205493508686828181106116cd57fe5b90506020020135925083831115611767576001600160a01b0385166000908152601c602052604081205485850391611705828461420c565b6001600160a01b0389166000818152601c60209081526040918290208490558151868152908101849052815193945091927f17fea09d9a7ca41b2f9f9118f18f44848a62e9c70d55dd4385131eb2cf1b7e479281900390910190a28695505050505b82156117d3576117778484614242565b6001600160a01b0386166000818152601460209081526040918290208490558151888152908101849052815193955091927f4a5c134e28b537a76546993ea37f3b60d9190476df7356d3842aa40902e20f049281900390910190a25b600101611673565b5050601b805460ff1916600117905550505050505050565b6001600160a01b03821660009081526009602052604081205460ff1661184a5760405162461bcd60e51b81526004018080602001828103825260288152602001806159686028913960400191505060405180910390fd5b600a546001600160a01b031633148061186d57506000546001600160a01b031633145b6118a85760405162461bcd60e51b81526004018080602001828103825260278152602001806159de6027913960400191505060405180910390fd5b6000546001600160a01b03163314806118c357506001821515145b61190d576040805162461bcd60e51b81526020600482015260166024820152756f6e6c792061646d696e2063616e20756e706175736560501b604482015290519081900360640190fd5b6001600160a01b0383166000818152600c6020908152604091829020805486151560ff199091168117909155825193845283830152606090830181905260069083015265426f72726f7760d01b6080830152517fae9bd19d6b7dcb722457462ed82420131e5740c4283e4f5b0c8332e96becd5569181900360a00190a150805b92915050565b6040805160018082528183019092526060916020808301908038833901905050905082816000815181106119c357fe5b60200260200101906001600160a01b031690816001600160a01b0316815250506119f0818360018061291c565b505050565b806001600160a01b031663f851a4406040518163ffffffff1660e01b815260040160206040518083038186803b158015611a2e57600080fd5b505afa158015611a42573d6000803e3d6000fd5b505050506040513d6020811015611a5857600080fd5b50516001600160a01b03163314611aa05760405162461bcd60e51b8152600401808060200182810382526027815260200180615acf6027913960400191505060405180910390fd5b806001600160a01b031663c1e803346040518163ffffffff1660e01b8152600401602060405180830381600087803b158015611adb57600080fd5b505af1158015611aef573d6000803e3d6000fd5b505050506040513d6020811015611b0557600080fd5b505115611b51576040805162461bcd60e51b815260206004820152601560248201527418da185b99d9481b9bdd08185d5d1a1bdc9a5e9959605a1b604482015290519081900360640190fd5b50565b600f6020526000908152604090205481565b5050505050565b6015546001600160a01b031681565b6001600160a01b03841660009081526009602052604081205460ff16611ba457506009611c3b565b611bac6158a8565b6040518060200160405280876001600160a01b031663aa5af0fd6040518163ffffffff1660e01b815260040160206040518083038186803b158015611bf057600080fd5b505afa158015611c04573d6000803e3d6000fd5b505050506040513d6020811015611c1a57600080fd5b505190529050611c2a868261427c565b611c3586858361448f565b60009150505b949350505050565b600a546001600160a01b031681565b6001546001600160a01b031681565b611c69614623565b611cba576040805162461bcd60e51b815260206004820152601960248201527f6f6e6c792061646d696e2063616e206772616e7420636f6d7000000000000000604482015290519081900360640190fd5b6000611cc6838361464c565b90508015611d1b576040805162461bcd60e51b815260206004820152601b60248201527f696e73756666696369656e7420636f6d7020666f72206772616e740000000000604482015290519081900360640190fd5b604080516001600160a01b03851681526020810184905281517f98b2f82a3a07f223a0be64b3d0f47711c64dccd1feafb94aa28156b38cd9695c929181900390910190a1505050565b600a546000906001600160a01b0316331480611d8a57506000546001600160a01b031633145b611dc55760405162461bcd60e51b81526004018080602001828103825260278152602001806159de6027913960400191505060405180910390fd5b6000546001600160a01b0316331480611de057506001821515145b611e2a576040805162461bcd60e51b81526020600482015260166024820152756f6e6c792061646d696e2063616e20756e706175736560501b604482015290519081900360640190fd5b600a8054831515600160b81b810260ff60b81b1990921691909117909155604080516020810192909252808252600582820152645365697a6560d81b6060830152517fef159d9a32b2472e32b098f954f3ce62d232939f1c207070b584df1814de2de09181900360800190a150805b919050565b600080546001600160a01b03163314611efe576040805162461bcd60e51b815260206004820152601f60248201527f6f6e6c792061646d696e2063616e2073657420636c6f736520666163746f7200604482015290519081900360640190fd5b6005805490839055604080518281526020810185905281517f3b9670cf975d26958e754b57098eaa2ac914d8d2a31b83257997b9f346110fd9929181900390910190a160005b9392505050565b6000546001600160a01b03163314611f945760405162461bcd60e51b8152600401808060200182810382526026815260200180615a056026913960400191505060405180910390fd5b601580546001600160a01b038381166001600160a01b0319831681179093556040805191909216808252602082019390935281517feda98690e518e9a05f8ec6837663e188211b2da8f4906648b323f2c1d4434e29929181900390910190a15050565b6001600160a01b03821660009081526009602052604081205460ff1661204e5760405162461bcd60e51b81526004018080602001828103825260288152602001806159686028913960400191505060405180910390fd5b600a546001600160a01b031633148061207157506000546001600160a01b031633145b6120ac5760405162461bcd60e51b81526004018080602001828103825260278152602001806159de6027913960400191505060405180910390fd5b6000546001600160a01b03163314806120c757506001821515145b612111576040805162461bcd60e51b81526020600482015260166024820152756f6e6c792061646d696e2063616e20756e706175736560501b604482015290519081900360640190fd5b6001600160a01b0383166000818152600b6020908152604091829020805486151560ff199091168117909155825193845283830152606090830181905260049083015263135a5b9d60e21b6080830152517fae9bd19d6b7dcb722457462ed82420131e5740c4283e4f5b0c8332e96becd5569181900360a00190a150919050565b600a54600160a01b900460ff1681565b50505050565b435b90565b505050505050565b60166020526000908152604090205481565b60065481565b6000806000806000806121e28a8a8a8a614786565b9250925092508260118111156121f457fe5b95509093509150505b9450945094915050565b6001600160a01b0383166000908152600b602052604081205460ff1615612266576040805162461bcd60e51b815260206004820152600e60248201526d1b5a5b9d081a5cc81c185d5cd95960921b604482015290519081900360640190fd5b6001600160a01b03841660009081526009602052604090205460ff166122905760095b9050611f44565b61229984614abe565b6122a38484614c52565b6000949350505050565b600080546001600160a01b031633146122d3576122cc6001600b614e0e565b9050611e99565b6006805490839055604080518281526020810185905281517faeba5a6c40a8ac138134bff1aaa65debf25971188a58804bad717f82f0ec1316929181900390910190a16000611f44565b8015801561232b5750600082115b156121a2576040805162461bcd60e51b815260206004820152601160248201527072656465656d546f6b656e73207a65726f60781b604482015290519081900360640190fd5b600d818154811061237e57fe5b6000918252602090912001546001600160a01b0316905081565b600080546001600160a01b031633146123b7576122cc60016010614e0e565b600480546001600160a01b038481166001600160a01b0319831617928390556040805192821680845293909116602083015280517fd52b2b9b7e9ee655fcb95d2e5b9e0c9f69e7ef2b8e9d2d0ea78402d576d22e229281900390910190a16000611f44565b612424614623565b612475576040805162461bcd60e51b815260206004820152601d60248201527f6f6e6c792061646d696e2063616e2073657420636f6d70207370656564000000604482015290519081900360640190fd5b61247e82612bc5565b806124a1576001600160a01b0382166000908152601860205260408120556124c3565b6124a96121a8565b6001600160a01b0383166000908152601860205260409020555b6001600160a01b038216600081815260176020908152604091829020849055815184815291517f386537fa92edc3319af95f1f904dcf1900021e4f3f4e08169a577a09076e66b39281900390910190a25050565b6119f0565b600080600080600080612533876000806000614786565b92509250925082601181111561254557fe5b97919650945092505050565b600080546001600160a01b03163314612570576122cc60016013614e0e565b600a80546001600160a01b038481166001600160a01b0319831617928390556040805192821680845293909116602083015280517f0613b6ee6a04f0d09f390e4d9318894b9f6ac7fd83897cd8d18896ba579c401e9281900390910190a16000611f44565b6001600160a01b03851660009081526009602052604081205460ff16158061261657506001600160a01b03851660009081526009602052604090205460ff16155b156126255760095b9050612783565b6000866001600160a01b03166395dd9193856040518263ffffffff1660e01b815260040180826001600160a01b03166001600160a01b0316815260200191505060206040518083038186803b15801561267d57600080fd5b505afa158015612691573d6000803e3d6000fd5b505050506040513d60208110156126a757600080fd5b505190506126b487612e75565b156126fd57828110156126f85760405162461bcd60e51b81526004018080602001828103825260288152602001806159906028913960400191505060405180910390fd5b61277d565b60008061270986614e74565b9193509091506000905082601181111561271f57fe5b1461273a5781601181111561273057fe5b9350505050612783565b80612746576003612730565b6000612762604051806020016040528060055481525085614e94565b905080861115612779576011945050505050612783565b5050505b60009150505b95945050505050565b6000546001600160a01b03163314806127af57506015546001600160a01b031633145b6127ea5760405162461bcd60e51b8152600401808060200182810382526035815260200180615a2b6035913960400191505060405180910390fd5b828181158015906127fa57508082145b61283b576040805162461bcd60e51b815260206004820152600d60248201526c1a5b9d985b1a59081a5b9c1d5d609a1b604482015290519081900360640190fd5b60005b828110156129135784848281811061285257fe5b905060200201356016600089898581811061286957fe5b905060200201356001600160a01b03166001600160a01b03166001600160a01b03168152602001908152602001600020819055508686828181106128a957fe5b905060200201356001600160a01b03166001600160a01b03167f6f1951b2aad10f3fc81b86d91105b413a5b3f847a34bbc5ce1904201b14438f68686848181106128ef57fe5b905060200201356040518082815260200191505060405180910390a260010161283e565b50505050505050565b60005b8351811015612ac157600084828151811061293657fe5b6020908102919091018101516001600160a01b0381166000908152600990925260409091205490915060ff166129ab576040805162461bcd60e51b81526020600482015260156024820152741b585c9ad95d081b5d5cdd081899481b1a5cdd1959605a1b604482015290519081900360640190fd5b60018415151415612a71576129be6158a8565b6040518060200160405280836001600160a01b031663aa5af0fd6040518163ffffffff1660e01b815260040160206040518083038186803b158015612a0257600080fd5b505afa158015612a16573d6000803e3d6000fd5b505050506040513d6020811015612a2c57600080fd5b505190529050612a3c828261427c565b60005b8751811015612a6e57612a6683898381518110612a5857fe5b60200260200101518461448f565b600101612a3f565b50505b60018315151415612ab857612a8581614abe565b60005b8651811015612ab657612aae82888381518110612aa157fe5b6020026020010151614c52565b600101612a88565b505b5060010161291f565b5060005b8451811015611b6657612b23858281518110612add57fe5b602002602001015160146000888581518110612af557fe5b60200260200101516001600160a01b03166001600160a01b031681526020019081526020016000205461464c565b60146000878481518110612b3357fe5b6020908102919091018101516001600160a01b0316825281019190915260400160002055600101612ac5565b601a6020526000908152604090205481565b6010602052600090815260409020546001600160e01b03811690600160e01b900463ffffffff1682565b600c6020526000908152604090205460ff1681565b600b6020526000908152604090205460ff1681565b6001600160a01b03811660009081526017602052604081205490612be76121a8565b6001600160a01b03841660009081526018602052604081205491925090612c0f908390614242565b9050600081118015612c215750600083115b156121a2576000612c328285614eb3565b6001600160a01b03861660009081526014602052604081205491925090612c59908361420c565b6001600160a01b0387166000908152601460209081526040808320939093556018905220849055505050505050565b6004546001600160a01b031681565b601c6020526000908152604090205481565b600a54600160b01b900460ff1681565b6011602052600090815260409020546001600160e01b03811690600160e01b900463ffffffff1682565b60096020526000908152604090208054600182015460039092015460ff91821692911683565b600a546000906001600160a01b0316331480612d2f57506000546001600160a01b031633145b612d6a5760405162461bcd60e51b81526004018080602001828103825260278152602001806159de6027913960400191505060405180910390fd5b6000546001600160a01b0316331480612d8557506001821515145b612dcf576040805162461bcd60e51b81526020600482015260166024820152756f6e6c792061646d696e2063616e20756e706175736560501b604482015290519081900360640190fd5b600a8054831515600160b01b810260ff60b01b1990921691909117909155604080516020810192909252808252600882820152672a3930b739b332b960c11b6060830152517fef159d9a32b2472e32b098f954f3ce62d232939f1c207070b584df1814de2de09181900360800190a15090565b6001600160a01b038082166000908152600960209081526040808320938616835260029093019052205460ff1692915050565b6001600160a01b038116600090815260096020526040812060010154158015612ebb57506001600160a01b0382166000908152600c602052604090205460ff1615156001145b801561198d5750816001600160a01b031663173b99046040518163ffffffff1660e01b815260040160206040518083038186803b158015612efb57600080fd5b505afa158015612f0f573d6000803e3d6000fd5b505050506040513d6020811015612f2557600080fd5b5051670de0b6b3a76400001492915050565b60075481565b60176020526000908152604090205481565b7314b3f74f86c4de775112124c08caf7a439f3083b90565b600080546001600160a01b03163314612f86576122cc60016012614e0e565b6001600160a01b03821660009081526009602052604090205460ff1615612fb3576122cc600a6011614e0e565b816001600160a01b031663fe9c44ae6040518163ffffffff1660e01b815260040160206040518083038186803b158015612fec57600080fd5b505afa158015613000573d6000803e3d6000fd5b505050506040513d602081101561301657600080fd5b5050604080516060810182526001808252600060208381018281528486018381526001600160a01b03891684526009909252949091209251835490151560ff1991821617845593519183019190915551600390910180549115159190921617905561308082614ef5565b61308982614fd3565b604080516001600160a01b038416815290517fcf583bb0c569eb967f806b11601c4cb93c10310485c67add5f8362c2f212321f9181900360200190a1600061198d565b6a0c097ce7bc90715b34b9f160241b81565b6130e6614623565b613137576040805162461bcd60e51b815260206004820152601d60248201527f6f6e6c792061646d696e2063616e2073657420636f6d70207370656564000000604482015290519081900360640190fd5b82518251811480156131495750815181145b6131845760405162461bcd60e51b8152600401808060200182810382526029815260200180615aa66029913960400191505060405180910390fd5b60005b81811015611b66576131d385828151811061319e57fe5b60200260200101518583815181106131b257fe5b60200260200101518584815181106131c657fe5b6020026020010151615091565b600101613187565b600e5481565b60608060086000846001600160a01b03166001600160a01b0316815260200190815260200160002080548060200260200160405190810160405280929190818152602001828054801561325d57602002820191906000526020600020905b81546001600160a01b0316815260019091019060200180831161323f575b5093979650505050505050565b600a54600160b81b900460ff1681565b6060600d8054806020026020016040519081016040528092919081815260200182805480156132d257602002820191906000526020600020905b81546001600160a01b031681526001909101906020018083116132b4575b5050505050905090565b601260209081526000928352604080842090915290825290205481565b6002546001600160a01b031681565b600a54600090600160b01b900460ff161561335f576040805162461bcd60e51b81526020600482015260126024820152711d1c985b9cd9995c881a5cc81c185d5cd95960721b604482015290519081900360640190fd5b600061336c868685615274565b9050801561337b579050611c3b565b61338486614abe565b61338e8686614c52565b611c358685614c52565b60186020526000908152604090205481565b60606000825190506060816040519080825280602002602001820160405280156133de578160200160208202803883390190505b50905060005b828110156134395760008582815181106133fa57fe5b6020026020010151905061340e8133615320565b601181111561341957fe5b83838151811061342557fe5b6020908102919091010152506001016133e4565b509392505050565b600480546040805163fc57d4df60e01b81526001600160a01b038781169482019490945290516000938493849391169163fc57d4df91602480820192602092909190829003018186803b15801561349757600080fd5b505afa1580156134ab573d6000803e3d6000fd5b505050506040513d60208110156134c157600080fd5b5051600480546040805163fc57d4df60e01b81526001600160a01b038a8116948201949094529051939450600093929091169163fc57d4df91602480820192602092909190829003018186803b15801561351a57600080fd5b505afa15801561352e573d6000803e3d6000fd5b505050506040513d602081101561354457600080fd5b50519050811580613553575080155b1561356857600d935060009250613661915050565b6000866001600160a01b031663182df0f56040518163ffffffff1660e01b815260040160206040518083038186803b1580156135a357600080fd5b505afa1580156135b7573d6000803e3d6000fd5b505050506040513d60208110156135cd57600080fd5b5051905060006135db6158a8565b6135e36158a8565b6135eb6158a8565b613613604051806020016040528060065481525060405180602001604052808a815250615416565b925061363b604051806020016040528088815250604051806020016040528088815250615416565b91506136478383615455565b9050613653818b614e94565b600099509750505050505050505b935093915050565b601360209081526000928352604080842090915290825290205481565b60146020526000908152604090205481565b600a54600090600160b81b900460ff16156136ec576040805162461bcd60e51b815260206004820152600f60248201526e1cd95a5e99481a5cc81c185d5cd959608a1b604482015290519081900360640190fd5b6001600160a01b03861660009081526009602052604090205460ff16158061372d57506001600160a01b03851660009081526009602052604090205460ff16155b1561373957600961261e565b846001600160a01b0316635fe3b5676040518163ffffffff1660e01b815260040160206040518083038186803b15801561377257600080fd5b505afa158015613786573d6000803e3d6000fd5b505050506040513d602081101561379c57600080fd5b505160408051635fe3b56760e01b815290516001600160a01b0392831692891691635fe3b567916004808301926020929190829003018186803b1580156137e257600080fd5b505afa1580156137f6573d6000803e3d6000fd5b505050506040513d602081101561380c57600080fd5b50516001600160a01b03161461382357600261261e565b61382c86614abe565b6138368684614c52565b6138408685614c52565b60009695505050505050565b6001600160a01b0383166000908152600c602052604081205460ff16156138ad576040805162461bcd60e51b815260206004820152601060248201526f189bdc9c9bddc81a5cc81c185d5cd95960821b604482015290519081900360640190fd5b6001600160a01b03841660009081526009602052604090205460ff166138d4576009612289565b6001600160a01b038085166000908152600960209081526040808320938716835260029093019052205460ff166139c457336001600160a01b0385161461395a576040805162461bcd60e51b815260206004820152601560248201527439b2b73232b91036bab9ba1031329031aa37b5b2b760591b604482015290519081900360640190fd5b60006139663385615320565b9050600081601181111561397657fe5b1461398f5780601181111561398757fe5b915050611f44565b6001600160a01b038086166000908152600960209081526040808320938816835260029093019052205460ff166139c257fe5b505b600480546040805163fc57d4df60e01b81526001600160a01b03888116948201949094529051929091169163fc57d4df91602480820192602092909190829003018186803b158015613a1557600080fd5b505afa158015613a29573d6000803e3d6000fd5b505050506040513d6020811015613a3f57600080fd5b5051613a4c57600d612289565b6001600160a01b0384166000908152601660205260409020548015613b39576000856001600160a01b03166347bd37186040518163ffffffff1660e01b815260040160206040518083038186803b158015613aa657600080fd5b505afa158015613aba573d6000803e3d6000fd5b505050506040513d6020811015613ad057600080fd5b505190506000613ae0828661420c565b9050828110613b36576040805162461bcd60e51b815260206004820152601960248201527f6d61726b657420626f72726f7720636170207265616368656400000000000000604482015290519081900360640190fd5b50505b600080613b498688600088614786565b91935090915060009050826011811115613b5f57fe5b14613b7a57816011811115613b7057fe5b9350505050611f44565b8015613b87576004613b70565b613b8f6158a8565b6040518060200160405280896001600160a01b031663aa5af0fd6040518163ffffffff1660e01b815260040160206040518083038186803b158015613bd357600080fd5b505afa158015613be7573d6000803e3d6000fd5b505050506040513d6020811015613bfd57600080fd5b505190529050613c0d888261427c565b613c1888888361448f565b600098975050505050505050565b60086020528160005260406000208181548110613c3f57fe5b6000918252602090912001546001600160a01b03169150829050565b6003546001600160a01b031681565b600080546001600160a01b03163314613c9057613c8960016006614e0e565b905061198d565b6001600160a01b0383166000908152600960205260409020805460ff16613cc557613cbd60096007614e0e565b91505061198d565b613ccd6158a8565b506040805160208101909152838152613ce46158a8565b506040805160208101909152670c7d713b49da00008152613d058183615491565b15613d2057613d1660066008614e0e565b935050505061198d565b8415801590613da95750600480546040805163fc57d4df60e01b81526001600160a01b038a8116948201949094529051929091169163fc57d4df91602480820192602092909190829003018186803b158015613d7b57600080fd5b505afa158015613d8f573d6000803e3d6000fd5b505050506040513d6020811015613da557600080fd5b5051155b15613dba57613d16600d6009614e0e565b60018301805490869055604080516001600160a01b03891681526020810183905280820188905290517f70483e6592cd5182d45ac970e05bc62cdcc90e9d8ef2c2dbe686cf383bcd7fc59181900360600190a16000979650505050505050565b600a54600160a81b900460ff1681565b60055481565b611b5181600d805480602002602001604051908101604052809291908181526020018280548015613e8a57602002820191906000526020600020905b81546001600160a01b03168152600190910190602001808311613e6c575b5050505050611993565b600080613ea2858585615274565b90508015613eb1579050611f44565b613eba85614abe565b613ec48585614c52565b600095945050505050565b6000808290506000806000836001600160a01b031663c37f68e2336040518263ffffffff1660e01b815260040180826001600160a01b03166001600160a01b0316815260200191505060806040518083038186803b158015613f3057600080fd5b505afa158015613f44573d6000803e3d6000fd5b505050506040513d6080811015613f5a57600080fd5b508051602082015160409092015190945090925090508215613fad5760405162461bcd60e51b8152600401808060200182810382526025815260200180615a606025913960400191505060405180910390fd5b8015613fca57613fbf600c6002614e0e565b945050505050611e99565b6000613fd7873385615274565b90508015613ff857613fec600e600383615498565b95505050505050611e99565b6001600160a01b0385166000908152600960209081526040808320338452600281019092529091205460ff166140375760009650505050505050611e99565b3360009081526002820160209081526040808320805460ff1916905560088252918290208054835181840281018401909452808452606093928301828280156140a957602002820191906000526020600020905b81546001600160a01b0316815260019091019060200180831161408b575b5050835193945083925060009150505b828110156140fe57896001600160a01b03168482815181106140d757fe5b60200260200101516001600160a01b031614156140f6578091506140fe565b6001016140b9565b5081811061410857fe5b33600090815260086020526040902080548190600019810190811061412957fe5b9060005260206000200160009054906101000a90046001600160a01b031681838154811061415357fe5b600091825260209091200180546001600160a01b0319166001600160a01b0392909216919091179055805461418c8260001983016158bb565b50604080516001600160a01b038c16815233602082015281517fe699a64c18b07ac5b7301aa273f36a2287239eb9501d81950672794afba29a0d929181900390910190a160009c9b505050505050505050505050565b601b5460ff1681565b60196020526000908152604090205481565b6000546001600160a01b031681565b6000611f448383604051806040016040528060118152602001706164646974696f6e206f766572666c6f7760781b8152506154fe565b6000611f448383604051806040016040528060158152602001747375627472616374696f6e20756e646572666c6f7760581b815250615599565b6001600160a01b0382166000908152601160209081526040808320601990925282205490916142e76142ac6121a8565b6040518060400160405280601c81526020017f626c6f636b206e756d62657220657863656564732033322062697473000000008152506155f3565b83549091506000906143099063ffffffff80851691600160e01b900416614242565b905060008111801561431b5750600083115b15614464576000614390876001600160a01b03166347bd37186040518163ffffffff1660e01b815260040160206040518083038186803b15801561435e57600080fd5b505afa158015614372573d6000803e3d6000fd5b505050506040513d602081101561438857600080fd5b505187615650565b9050600061439e8386614eb3565b90506143a86158a8565b600083116143c557604051806020016040528060008152506143cf565b6143cf828461566e565b604080516020810190915288546001600160e01b03168152909150614432906143f890836156a2565b5160408051808201909152601a81527f6e657720696e646578206578636565647320323234206269747300000000000060208201526156c7565b87546001600160e01b0319166001600160e01b039182161716600160e01b63ffffffff871602178755506121ad915050565b80156121ad57835463ffffffff8316600160e01b026001600160e01b03909116178455505050505050565b6001600160a01b03838116600090815260116020908152604080832080546013845282852095881685529490925290912080546001600160e01b03909316908190559091801580156144ef57506a0c097ce7bc90715b34b9f160241b8210155b1561450557506a0c097ce7bc90715b34b9f160241b5b61450d6158a8565b60405180602001604052806145228585614242565b81525090506000614582886001600160a01b03166395dd9193896040518263ffffffff1660e01b815260040180826001600160a01b03166001600160a01b0316815260200191505060206040518083038186803b15801561435e57600080fd5b90506000614590828461571c565b6001600160a01b038916600090815260146020526040812054919250906145b7908361420c565b6001600160a01b03808b1660008181526014602090815260409182902085905581518781529081018b905281519495509193928e16927f1fc3ecc087d8d2d15e23d0032af5a47059c3892d003d8e139fdcb6bb327c99a69281900390910190a350505050505050505050565b600080546001600160a01b031633148061464757506002546001600160a01b031633145b905090565b600080614657612f4f565b604080516370a0823160e01b815230600482015290519192506000916001600160a01b038416916370a08231916024808301926020929190829003018186803b1580156146a357600080fd5b505afa1580156146b7573d6000803e3d6000fd5b505050506040513d60208110156146cd57600080fd5b5051905083158015906146e05750808411155b1561477d57816001600160a01b031663a9059cbb86866040518363ffffffff1660e01b815260040180836001600160a01b03166001600160a01b0316815260200182815260200192505050602060405180830381600087803b15801561474557600080fd5b505af1158015614759573d6000803e3d6000fd5b505050506040513d602081101561476f57600080fd5b506000935061198d92505050565b50919392505050565b60008060006147936158df565b6001600160a01b038816600090815260086020908152604080832080548251818502810185019093528083526060938301828280156147fb57602002820191906000526020600020905b81546001600160a01b031681526001909101906020018083116147dd575b50939450600093505050505b8151811015614a7f57600082828151811061481e57fe5b60200260200101519050806001600160a01b031663c37f68e28d6040518263ffffffff1660e01b815260040180826001600160a01b03166001600160a01b0316815260200191505060806040518083038186803b15801561487e57600080fd5b505afa158015614892573d6000803e3d6000fd5b505050506040513d60808110156148a857600080fd5b508051602082015160408084015160609485015160808b01529389019390935291870191909152935083156148ed5750600f9650600095508594506121fd9350505050565b60408051602080820183526001600160a01b0380851660008181526009845285902060010154845260c08a01939093528351808301855260808a0151815260e08a015260048054855163fc57d4df60e01b815291820194909452935192169263fc57d4df9260248083019392829003018186803b15801561496d57600080fd5b505afa158015614981573d6000803e3d6000fd5b505050506040513d602081101561499757600080fd5b505160a086018190526149ba5750600d9650600095508594506121fd9350505050565b604080516020810190915260a0860151815261010086015260c085015160e08601516149f4916149e991615416565b866101000151615416565b610120860181905260408601518651614a0e92919061574a565b855261010085015160608601516020870151614a2b92919061574a565b60208601526001600160a01b03818116908c161415614a7657614a588561012001518b876020015161574a565b60208601819052610100860151614a70918b9061574a565b60208601525b50600101614807565b50602083015183511115614aa557505060208101519051600094500391508290506121fd565b50508051602090910151600094508493500390506121fd565b6001600160a01b0381166000908152601060209081526040808320601a9092528220549091614aee6142ac6121a8565b8354909150600090614b109063ffffffff80851691600160e01b900416614242565b9050600081118015614b225750600083115b15614c28576000856001600160a01b03166318160ddd6040518163ffffffff1660e01b815260040160206040518083038186803b158015614b6257600080fd5b505afa158015614b76573d6000803e3d6000fd5b505050506040513d6020811015614b8c57600080fd5b505190506000614b9c8386614eb3565b9050614ba66158a8565b60008311614bc35760405180602001604052806000815250614bcd565b614bcd828461566e565b604080516020810190915288546001600160e01b03168152909150614bf6906143f890836156a2565b87546001600160e01b0319166001600160e01b039182161716600160e01b63ffffffff87160217875550611b66915050565b8015611b6657835463ffffffff8316600160e01b026001600160e01b039091161784555050505050565b6001600160a01b03828116600090815260106020908152604080832080546012845282852095871685529490925290912080546001600160e01b0390931690819055909180158015614cb257506a0c097ce7bc90715b34b9f160241b8210155b15614cc857506a0c097ce7bc90715b34b9f160241b5b614cd06158a8565b6040518060200160405280614ce58585614242565b81525090506000866001600160a01b03166370a08231876040518263ffffffff1660e01b815260040180826001600160a01b03166001600160a01b0316815260200191505060206040518083038186803b158015614d4257600080fd5b505afa158015614d56573d6000803e3d6000fd5b505050506040513d6020811015614d6c57600080fd5b505190506000614d7c828461571c565b6001600160a01b03881660009081526014602052604081205491925090614da3908361420c565b6001600160a01b03808a1660008181526014602090815260409182902085905581518781529081018b905281519495509193928d16927f2caecd17d02f56fa897705dcc740da2d237c373f70686f4e0d9bd3bf0400ea7a9281900390910190a3505050505050505050565b60007f45b96fe442630264581b197e84bbada861235052c5a1aadfff9ea4e40a969aa0836011811115614e3d57fe5b836013811115614e4957fe5b604080519283526020830191909152600082820152519081900360600190a1826011811115611f4457fe5b6000806000614e87846000806000614786565b9250925092509193909250565b6000614e9e6158a8565b614ea88484615772565b9050611c3b81615793565b6000611f4483836040518060400160405280601781526020017f6d756c7469706c69636174696f6e206f766572666c6f770000000000000000008152506157a2565b60005b600d54811015614f8057816001600160a01b0316600d8281548110614f1957fe5b6000918252602090912001546001600160a01b03161415614f78576040805162461bcd60e51b81526020600482015260146024820152731b585c9ad95d08185b1c9958591e48185919195960621b604482015290519081900360640190fd5b600101614ef8565b50600d80546001810182556000919091527fd7b6990105719101dabeb77144f2a3385c8033acd3af97e9423a695e81ad1eb50180546001600160a01b0319166001600160a01b0392909216919091179055565b6000614fe06142ac6121a8565b6001600160a01b03831660009081526010602090815260408083206011909252909120815492935090916001600160e01b03166150365781546001600160e01b0319166a0c097ce7bc90715b34b9f160241b1782555b80546001600160e01b03166150645780546001600160e01b0319166a0c097ce7bc90715b34b9f160241b1781555b805463ffffffff909316600160e01b026001600160e01b0393841681179091558154909216909117905550565b6001600160a01b0383166000908152600960205260409020805460ff166150ff576040805162461bcd60e51b815260206004820152601960248201527f636f6d70206d61726b6574206973206e6f74206c697374656400000000000000604482015290519081900360640190fd5b6001600160a01b0384166000908152601a602052604090205483146151785761512784614abe565b6001600160a01b0384166000818152601a6020908152604091829020869055815186815291517fdeafccd0c0b768b2529f7dcbbe58e155d6023059150b7490ed4535cc3744b92d9281900390910190a25b6001600160a01b03841660009081526019602052604090205482146121a25761519f6158a8565b6040518060200160405280866001600160a01b031663aa5af0fd6040518163ffffffff1660e01b815260040160206040518083038186803b1580156151e357600080fd5b505afa1580156151f7573d6000803e3d6000fd5b505050506040513d602081101561520d57600080fd5b50519052905061521d858261427c565b6001600160a01b038516600081815260196020908152604091829020869055815186815291517f20af8e791cc98f74b2d7a391c80980ca8e5aebf3d4060bf581997b6acae2e5379281900390910190a25050505050565b6001600160a01b03831660009081526009602052604081205460ff1661529b576009612289565b6001600160a01b038085166000908152600960209081526040808320938716835260029093019052205460ff166152d3576000612289565b6000806152e38587866000614786565b919350909150600090508260118111156152f957fe5b146153135781601181111561530a57fe5b92505050611f44565b801561384057600461530a565b6001600160a01b0382166000908152600960205260408120805460ff1661534b57600991505061198d565b6001600160a01b038316600090815260028201602052604090205460ff1615156001141561537d57600091505061198d565b6001600160a01b0380841660008181526002840160209081526040808320805460ff19166001908117909155600883528184208054918201815584529282902090920180549489166001600160a01b031990951685179055815193845283019190915280517f3ab23ab0d51cccc0c3085aec51f99228625aa1a922b3a8ca89a26b0f2027a1a59281900390910190a15060009392505050565b61541e6158a8565b6040518060200160405280670de0b6b3a764000061544486600001518660000151614eb3565b8161544b57fe5b0490529392505050565b61545d6158a8565b60405180602001604052806154886154818660000151670de0b6b3a7640000614eb3565b8551615818565b90529392505050565b5190511090565b60007f45b96fe442630264581b197e84bbada861235052c5a1aadfff9ea4e40a969aa08460118111156154c757fe5b8460138111156154d357fe5b604080519283526020830191909152818101859052519081900360600190a1836011811115611c3b57fe5b600083830182858210156155905760405162461bcd60e51b81526004018080602001828103825283818151815260200191508051906020019080838360005b8381101561555557818101518382015260200161553d565b50505050905090810190601f1680156155825780820380516001836020036101000a031916815260200191505b509250505060405180910390fd5b50949350505050565b600081848411156155eb5760405162461bcd60e51b815260206004820181815283516024840152835190928392604490910191908501908083836000831561555557818101518382015260200161553d565b505050900390565b600081600160201b84106156485760405162461bcd60e51b815260206004820181815283516024840152835190928392604490910191908501908083836000831561555557818101518382015260200161553d565b509192915050565b6000611f4461566784670de0b6b3a7640000614eb3565b8351615818565b6156766158a8565b604051806020016040528061548861569c866a0c097ce7bc90715b34b9f160241b614eb3565b85615818565b6156aa6158a8565b60405180602001604052806154888560000151856000015161420c565b600081600160e01b84106156485760405162461bcd60e51b815260206004820181815283516024840152835190928392604490910191908501908083836000831561555557818101518382015260200161553d565b60006a0c097ce7bc90715b34b9f160241b61573b848460000151614eb3565b8161574257fe5b049392505050565b60006157546158a8565b61575e8585615772565b905061278361576c82615793565b8461420c565b61577a6158a8565b6040518060200160405280615488856000015185614eb3565b51670de0b6b3a7640000900490565b60008315806157af575082155b156157bc57506000611f44565b838302838582816157c957fe5b041483906155905760405162461bcd60e51b815260206004820181815283516024840152835190928392604490910191908501908083836000831561555557818101518382015260200161553d565b6000611f4483836040518060400160405280600e81526020016d646976696465206279207a65726f60901b815250600081836158955760405162461bcd60e51b815260206004820181815283516024840152835190928392604490910191908501908083836000831561555557818101518382015260200161553d565b5082848161589f57fe5b04949350505050565b6040518060200160405280600081525090565b8154818355818111156119f0576000838152602090206119f0918101908301615949565b60405180610140016040528060008152602001600081526020016000815260200160008152602001600081526020016000815260200161591d6158a8565b815260200161592a6158a8565b81526020016159376158a8565b81526020016159446158a8565b905290565b6121aa91905b80821115615963576000815560010161594f565b509056fe63616e6e6f742070617573652061206d61726b65742074686174206973206e6f74206c697374656443616e206e6f74207265706179206d6f7265207468616e2074686520746f74616c20626f72726f77416c72656164792065786563757465642074686973206f6e652d6f66662066756e6374696f6e6f6e6c7920706175736520677561726469616e20616e642061646d696e2063616e2070617573656f6e6c792061646d696e2063616e2073657420626f72726f772063617020677561726469616e6f6e6c792061646d696e206f7220626f72726f772063617020677561726469616e2063616e2073657420626f72726f772063617073657869744d61726b65743a206765744163636f756e74536e617073686f74206661696c65644f6e6c792061646d696e2063616e2063616c6c20746869732066756e6374696f6e436f6d7074726f6c6c65723a3a5f736574436f6d7053706565647320696e76616c696420696e7075746f6e6c7920756e6974726f6c6c65722061646d696e2063616e206368616e676520627261696e73a265627a7a72315820fc65888a6d621b52e23f4c2da91a1010782328c815d64b478f55628084b2223964736f6c63430005100032",
  "linkReferences": {},
  "deployedLinkReferences": {}
}