{
  "_format": "hh-sol-artifact-1",
  "contractName": "GovernorBravoDelegate",
  "sourceName": "contracts/Governance/GovernorBravoDelegateG2.sol",
  "abi": [
    {
      "anonymous": false,
      "inputs": [
        {
          "indexed": false,
          "internalType": "address",
          "name": "oldAdmin",
          "type": "address"
        },
        {
          "indexed": false,
          "internalType": "address",
          "name": "newAdmin",
          "type": "address"
        }
      ],
      "name": "NewAdmin",
      "type": "event"
    },
    {
      "anonymous": false,
      "inputs": [
        {
          "indexed": false,
          "internalType": "address",
          "name": "oldImplementation",
          "type": "address"
        },
        {
          "indexed": false,
          "internalType": "address",
          "name": "newImplementation",
          "type": "address"
        }
      ],
      "name": "NewImplementation",
      "type": "event"
    },
    {
      "anonymous": false,
      "inputs": [
        {
          "indexed": false,
          "internalType": "address",
          "name": "oldPendingAdmin",
          "type": "address"
        },
        {
          "indexed": false,
          "internalType": "address",
          "name": "newPendingAdmin",
          "type": "address"
        }
      ],
      "name": "NewPendingAdmin",
      "type": "event"
    },
    {
      "anonymous": false,
      "inputs": [
        {
          "indexed": false,
          "internalType": "uint256",
          "name": "id",
          "type": "uint256"
        }
      ],
      "name": "ProposalCanceled",
      "type": "event"
    },
    {
      "anonymous": false,
      "inputs": [
        {
          "indexed": false,
          "internalType": "uint256",
          "name": "id",
          "type": "uint256"
        },
        {
          "indexed": false,
          "internalType": "address",
          "name": "proposer",
          "type": "address"
        },
        {
          "indexed": false,
          "internalType": "address[]",
          "name": "targets",
          "type": "address[]"
        },
        {
          "indexed": false,
          "internalType": "uint256[]",
          "name": "values",
          "type": "uint256[]"
        },
        {
          "indexed": false,
          "internalType": "string[]",
          "name": "signatures",
          "type": "string[]"
        },
        {
          "indexed": false,
          "internalType": "bytes[]",
          "name": "calldatas",
          "type": "bytes[]"
        },
        {
          "indexed": false,
          "internalType": "uint256",
          "name": "startBlock",
          "type": "uint256"
        },
        {
          "indexed": false,
          "internalType": "uint256",
          "name": "endBlock",
          "type": "uint256"
        },
        {
          "indexed": false,
          "internalType": "string",
          "name": "description",
          "type": "string"
        }
      ],
      "name": "ProposalCreated",
      "type": "event"
    },
    {
      "anonymous": false,
      "inputs": [
        {
          "indexed": false,
          "internalType": "uint256",
          "name": "id",
          "type": "uint256"
        }
      ],
      "name": "ProposalExecuted",
      "type": "event"
    },
    {
      "anonymous": false,
      "inputs": [
        {
          "indexed": false,
          "internalType": "uint256",
          "name": "id",
          "type": "uint256"
        },
        {
          "indexed": false,
          "internalType": "uint256",
          "name": "eta",
          "type": "uint256"
        }
      ],
      "name": "ProposalQueued",
      "type": "event"
    },
    {
      "anonymous": false,
      "inputs": [
        {
          "indexed": false,
          "internalType": "uint256",
          "name": "oldProposalThreshold",
          "type": "uint256"
        },
        {
          "indexed": false,
          "internalType": "uint256",
          "name": "newProposalThreshold",
          "type": "uint256"
        }
      ],
      "name": "ProposalThresholdSet",
      "type": "event"
    },
    {
      "anonymous": false,
      "inputs": [
        {
          "indexed": false,
          "internalType": "address",
          "name": "account",
          "type": "address"
        },
        {
          "indexed": false,
          "internalType": "uint256",
          "name": "expiration",
          "type": "uint256"
        }
      ],
      "name": "WhitelistAccountExpirationSet",
      "type": "event"
    },
    {
      "anonymous": false,
      "inputs": [
        {
          "indexed": false,
          "internalType": "address",
          "name": "oldGuardian",
          "type": "address"
        },
        {
          "indexed": false,
          "internalType": "address",
          "name": "newGuardian",
          "type": "address"
        }
      ],
      "name": "WhitelistGuardianSet",
      "type": "event"
    },
    {
      "constant": false,
      "inputs": [],
      "name": "_acceptAdmin",
      "outputs": [],
      "payable": false,
      "stateMutability": "nonpayable",
      "type": "function"
    },
    {
      "constant": false,
      "inputs": [
        {
          "internalType": "address",
          "name": "newPendingAdmin",
          "type": "address"
        }
      ],
      "name": "_setPendingAdmin",
      "outputs": [],
      "payable": false,
      "stateMutability": "nonpayable",
      "type": "function"
    },
    {
      "constant": false,
      "inputs": [
        {
          "internalType": "address",
          "name": "account",
          "type": "address"
        },
        {
          "internalType": "uint256",
          "name": "expiration",
          "type": "uint256"
        }
      ],
      "name": "_setWhitelistAccountExpiration",
      "outputs": [],
      "payable": false,
      "stateMutability": "nonpayable",
      "type": "function"
    },
    {
      "constant": false,
      "inputs": [
        {
          "internalType": "address",
          "name": "account",
          "type": "address"
        }
      ],
      "name": "_setWhitelistGuardian",
      "outputs": [],
      "payable": false,
      "stateMutability": "nonpayable",
      "type": "function"
    },
    {
      "constant": true,
      "inputs": [],
      "name": "admin",
      "outputs": [
        {
          "internalType": "address",
          "name": "",
          "type": "address"
        }
      ],
      "payable": false,
      "stateMutability": "view",
      "type": "function"
    },
    {
      "constant": false,
      "inputs": [
        {
          "internalType": "uint256",
          "name": "proposalId",
          "type": "uint256"
        }
      ],
      "name": "cancel",
      "outputs": [],
      "payable": false,
      "stateMutability": "nonpayable",
      "type": "function"
    },
    {
      "constant": false,
      "inputs": [
        {
          "internalType": "uint256",
          "name": "proposalId",
          "type": "uint256"
        }
      ],
      "name": "execute",
      "outputs": [],
      "payable": true,
      "stateMutability": "payable",
      "type": "function"
    },
    {
      "constant": true,
      "inputs": [
        {
          "internalType": "uint256",
          "name": "proposalId",
          "type": "uint256"
        }
      ],
      "name": "getActions",
      "outputs": [
        {
          "internalType": "address[]",
          "name": "targets",
          "type": "address[]"
        },
        {
          "internalType": "uint256[]",
          "name": "values",
          "type": "uint256[]"
        },
        {
          "internalType": "string[]",
          "name": "signatures",
          "type": "string[]"
        },
        {
          "internalType": "bytes[]",
          "name": "calldatas",
          "type": "bytes[]"
        }
      ],
      "payable": false,
      "stateMutability": "view",
      "type": "function"
    },
    {
      "constant": true,
      "inputs": [],
      "name": "implementation",
      "outputs": [
        {
          "internalType": "address",
          "name": "",
          "type": "address"
        }
      ],
      "payable": false,
      "stateMutability": "view",
      "type": "function"
    },
    {
      "constant": true,
      "inputs": [],
      "name": "initialProposalId",
      "outputs": [
        {
          "internalType": "uint256",
          "name": "",
          "type": "uint256"
        }
      ],
      "payable": false,
      "stateMutability": "view",
      "type": "function"
    },
    {
      "constant": false,
      "inputs": [
        {
          "internalType": "address",
          "name": "timelock_",
          "type": "address"
        }
      ],
      "name": "initialize",
      "outputs": [],
      "payable": false,
      "stateMutability": "nonpayable",
      "type": "function"
    },
    {
      "constant": true,
      "inputs": [
        {
          "internalType": "address",
          "name": "",
          "type": "address"
        }
      ],
      "name": "latestProposalIds",
      "outputs": [
        {
          "internalType": "uint256",
          "name": "",
          "type": "uint256"
        }
      ],
      "payable": false,
      "stateMutability": "view",
      "type": "function"
    },
    {
      "constant": true,
      "inputs": [],
      "name": "name",
      "outputs": [
        {
          "internalType": "string",
          "name": "",
          "type": "string"
        }
      ],
      "payable": false,
      "stateMutability": "view",
      "type": "function"
    },
    {
      "constant": true,
      "inputs": [],
      "name": "pendingAdmin",
      "outputs": [
        {
          "internalType": "address",
          "name": "",
          "type": "address"
        }
      ],
      "payable": false,
      "stateMutability": "view",
      "type": "function"
    },
    {
      "constant": true,
      "inputs": [],
      "name": "proposalCount",
      "outputs": [
        {
          "internalType": "uint256",
          "name": "",
          "type": "uint256"
        }
      ],
      "payable": false,
      "stateMutability": "view",
      "type": "function"
    },
    {
      "constant": true,
      "inputs": [],
      "name": "proposalMaxOperations",
      "outputs": [
        {
          "internalType": "uint256",
          "name": "",
          "type": "uint256"
        }
      ],
      "payable": false,
      "stateMutability": "view",
      "type": "function"
    },
    {
      "constant": true,
      "inputs": [
        {
          "internalType": "uint256",
          "name": "",
          "type": "uint256"
        }
      ],
      "name": "proposals",
      "outputs": [
        {
          "internalType": "uint256",
          "name": "id",
          "type": "uint256"
        },
        {
          "internalType": "address",
          "name": "proposer",
          "type": "address"
        },
        {
          "internalType": "uint256",
          "name": "eta",
          "type": "uint256"
        },
        {
          "internalType": "bool",
          "name": "canceled",
          "type": "bool"
        },
        {
          "internalType": "bool",
          "name": "executed",
          "type": "bool"
        }
      ],
      "payable": false,
      "stateMutability": "view",
      "type": "function"
    },
    {
      "constant": false,
      "inputs": [
        {
          "internalType": "uint256",
          "name": "proposalId",
          "type": "uint256"
        }
      ],
      "name": "queue",
      "outputs": [],
      "payable": false,
      "stateMutability": "nonpayable",
      "type": "function"
    },
    {
      "constant": true,
      "inputs": [
        {
          "internalType": "uint256",
          "name": "proposalId",
          "type": "uint256"
        }
      ],
      "name": "state",
      "outputs": [
        {
          "internalType": "enum GovernorBravoDelegateStorageV1.ProposalState",
          "name": "",
          "type": "uint8"
        }
      ],
      "payable": false,
      "stateMutability": "view",
      "type": "function"
    },
    {
      "constant": true,
      "inputs": [],
      "name": "timelock",
      "outputs": [
        {
          "internalType": "contract TimelockInterface",
          "name": "",
          "type": "address"
        }
      ],
      "payable": false,
      "stateMutability": "view",
      "type": "function"
    },
    {
      "constant": true,
      "inputs": [
        {
          "internalType": "address",
          "name": "",
          "type": "address"
        }
      ],
      "name": "whitelistAccountExpirations",
      "outputs": [
        {
          "internalType": "uint256",
          "name": "",
          "type": "uint256"
        }
      ],
      "payable": false,
      "stateMutability": "view",
      "type": "function"
    },
    {
      "constant": true,
      "inputs": [],
      "name": "whitelistGuardian",
      "outputs": [
        {
          "internalType": "address",
          "name": "",
          "type": "address"
        }
      ],
      "payable": false,
      "stateMutability": "view",
      "type": "function"
    }
  ],
  "bytecode": "0x608060405234801561001057600080fd5b5061359c806100206000396000f3fe6080604052600436106101355760003560e01c806399533365116100ab578063da35c6641161006f578063da35c66414610441578063ddf0b0091461046c578063e9c714f214610495578063f851a440146104ac578063fc4eee42146104d7578063fe0d94c11461050257610135565b80639953336514610370578063b71d1a0c14610399578063c4d66de8146103c2578063c5a8425d146103eb578063d33219b41461041657610135565b806338bd0dda116100fd57806338bd0dda1461024e5780633e4f49e61461028b57806340e58ee5146102c85780634d6733d2146102f15780635c60da1b1461031a5780637bdbe4d01461034557610135565b8063013cf08b1461013a57806306fdde031461017b57806317977c61146101a657806326782247146101e3578063328dd9821461020e575b600080fd5b34801561014657600080fd5b50610161600480360361015c91908101906122b1565b61051e565b6040516101729594939291906130c6565b60405180910390f35b34801561018757600080fd5b5061019061058e565b60405161019d9190612ee9565b60405180910390f35b3480156101b257600080fd5b506101cd60048036036101c89190810190612178565b6105c7565b6040516101da91906130ab565b60405180910390f35b3480156101ef57600080fd5b506101f86105df565b6040516102059190612d08565b60405180910390f35b34801561021a57600080fd5b50610235600480360361023091908101906122b1565b610605565b6040516102459493929190612e37565b60405180910390f35b34801561025a57600080fd5b5061027560048036036102709190810190612178565b6108e2565b60405161028291906130ab565b60405180910390f35b34801561029757600080fd5b506102b260048036036102ad91908101906122b1565b6108fa565b6040516102bf9190612ece565b60405180910390f35b3480156102d457600080fd5b506102ef60048036036102ea91908101906122b1565b610a6f565b005b3480156102fd57600080fd5b50610318600480360361031391908101906121a1565b610d0c565b005b34801561032657600080fd5b5061032f610e74565b60405161033c9190612d08565b60405180910390f35b34801561035157600080fd5b5061035a610e9a565b60405161036791906130ab565b60405180910390f35b34801561037c57600080fd5b5061039760048036036103929190810190612178565b610e9f565b005b3480156103a557600080fd5b506103c060048036036103bb9190810190612178565b610ff5565b005b3480156103ce57600080fd5b506103e960048036036103e49190810190612178565b611129565b005b3480156103f757600080fd5b506104006112fd565b60405161040d9190612d08565b60405180910390f35b34801561042257600080fd5b5061042b611323565b6040516104389190612eb3565b60405180910390f35b34801561044d57600080fd5b50610456611349565b60405161046391906130ab565b60405180910390f35b34801561047857600080fd5b50610493600480360361048e91908101906122b1565b61134f565b005b3480156104a157600080fd5b506104aa61157c565b005b3480156104b857600080fd5b506104c16117ef565b6040516104ce9190612d08565b60405180910390f35b3480156104e357600080fd5b506104ec611814565b6040516104f991906130ab565b60405180910390f35b61051c600480360361051791908101906122b1565b61181a565b005b60066020528060005260406000206000915090508060000154908060010160009054906101000a900473ffffffffffffffffffffffffffffffffffffffff16908060020154908060070160009054906101000a900460ff16908060070160019054906101000a900460ff16905085565b6040518060400160405280601781526020017f436f6d706f756e6420476f7665726e6f7220427261766f00000000000000000081525081565b60076020528060005260406000206000915090505481565b600160009054906101000a900473ffffffffffffffffffffffffffffffffffffffff1681565b606080606080600060066000878152602001908152602001600020905080600301816004018260050183600601838054806020026020016040519081016040528092919081815260200182805480156106b357602002820191906000526020600020905b8160009054906101000a900473ffffffffffffffffffffffffffffffffffffffff1673ffffffffffffffffffffffffffffffffffffffff1681526020019060010190808311610669575b505050505093508280548060200260200160405190810160405280929190818152602001828054801561070557602002820191906000526020600020905b8154815260200190600101908083116106f1575b5050505050925081805480602002602001604051908101604052809291908181526020016000905b828210156107e9578382906000526020600020018054600181600116156101000203166002900480601f0160208091040260200160405190810160405280929190818152602001828054600181600116156101000203166002900480156107d55780601f106107aa576101008083540402835291602001916107d5565b820191906000526020600020905b8154815290600101906020018083116107b857829003601f168201915b50505050508152602001906001019061072d565b50505050915080805480602002602001604051908101604052809291908181526020016000905b828210156108cc578382906000526020600020018054600181600116156101000203166002900480601f0160208091040260200160405190810160405280929190818152602001828054600181600116156101000203166002900480156108b85780601f1061088d576101008083540402835291602001916108b8565b820191906000526020600020905b81548152906001019060200180831161089b57829003601f168201915b505050505081526020019060010190610810565b5050505090509450945094509450509193509193565b60086020528060005260406000206000915090505481565b6000816004541015801561090f575060035482115b61094e576040517f08c379a00000000000000000000000000000000000000000000000000000000081526004016109459061308b565b60405180910390fd5b60006006600084815260200190815260200160002090508060070160009054906101000a900460ff1615610986576000915050610a6a565b8060070160019054906101000a900460ff16156109a7576003915050610a6a565b610a548160020154600560009054906101000a900473ffffffffffffffffffffffffffffffffffffffff1673ffffffffffffffffffffffffffffffffffffffff1663c1a287e26040518163ffffffff1660e01b815260040160206040518083038186803b158015610a1757600080fd5b505afa158015610a2b573d6000803e3d6000fd5b505050506040513d601f19601f82011682018060405250610a4f91908101906122da565b611a68565b4210610a64576002915050610a6a565b60019150505b919050565b600380811115610a7b57fe5b610a84826108fa565b6003811115610a8f57fe5b1415610ad0576040517f08c379a0000000000000000000000000000000000000000000000000000000008152600401610ac79061306b565b60405180910390fd5b6000809054906101000a900473ffffffffffffffffffffffffffffffffffffffff1673ffffffffffffffffffffffffffffffffffffffff163373ffffffffffffffffffffffffffffffffffffffff1614610b5f576040517f08c379a0000000000000000000000000000000000000000000000000000000008152600401610b5690612f0b565b60405180910390fd5b600060066000838152602001908152602001600020905060018160070160006101000a81548160ff02191690831515021790555060008090505b8160030180549050811015610cd057600560009054906101000a900473ffffffffffffffffffffffffffffffffffffffff1673ffffffffffffffffffffffffffffffffffffffff1663591fcdfe836003018381548110610bf557fe5b9060005260206000200160009054906101000a900473ffffffffffffffffffffffffffffffffffffffff16846004018481548110610c2f57fe5b9060005260206000200154856005018581548110610c4957fe5b90600052602060002001866006018681548110610c6257fe5b9060005260206000200187600201546040518663ffffffff1660e01b8152600401610c91959493929190612dd6565b600060405180830381600087803b158015610cab57600080fd5b505af1158015610cbf573d6000803e3d6000fd5b505050508080600101915050610b99565b507f789cf55be980739dad1d0699b93b58e806b51c9d96619bfa8fe0a28abaa7b30c82604051610d0091906130ab565b60405180910390a15050565b6000809054906101000a900473ffffffffffffffffffffffffffffffffffffffff1673ffffffffffffffffffffffffffffffffffffffff163373ffffffffffffffffffffffffffffffffffffffff161480610db45750600960009054906101000a900473ffffffffffffffffffffffffffffffffffffffff1673ffffffffffffffffffffffffffffffffffffffff163373ffffffffffffffffffffffffffffffffffffffff16145b610df3576040517f08c379a0000000000000000000000000000000000000000000000000000000008152600401610dea9061304b565b60405180910390fd5b80600860008473ffffffffffffffffffffffffffffffffffffffff1673ffffffffffffffffffffffffffffffffffffffff168152602001908152602001600020819055507f4e7b7545bc5744d0e30425959f4687475774b6c7edad77d24cb51c7d967d45158282604051610e68929190612d4c565b60405180910390a15050565b600260009054906101000a900473ffffffffffffffffffffffffffffffffffffffff1681565b600a81565b6000809054906101000a900473ffffffffffffffffffffffffffffffffffffffff1673ffffffffffffffffffffffffffffffffffffffff163373ffffffffffffffffffffffffffffffffffffffff1614610f2e576040517f08c379a0000000000000000000000000000000000000000000000000000000008152600401610f2590612fcb565b60405180910390fd5b6000600960009054906101000a900473ffffffffffffffffffffffffffffffffffffffff16905081600960006101000a81548173ffffffffffffffffffffffffffffffffffffffff021916908373ffffffffffffffffffffffffffffffffffffffff1602179055507f80a07e73e552148844a9c216d9724212d609cfa54e9c1a2e97203bdd2c4ad34181600960009054906101000a900473ffffffffffffffffffffffffffffffffffffffff16604051610fe9929190612d23565b60405180910390a15050565b6000809054906101000a900473ffffffffffffffffffffffffffffffffffffffff1673ffffffffffffffffffffffffffffffffffffffff163373ffffffffffffffffffffffffffffffffffffffff1614611084576040517f08c379a000000000000000000000000000000000000000000000000000000000815260040161107b90612f4b565b60405180910390fd5b6000600160009054906101000a900473ffffffffffffffffffffffffffffffffffffffff16905081600160006101000a81548173ffffffffffffffffffffffffffffffffffffffff021916908373ffffffffffffffffffffffffffffffffffffffff1602179055507fca4f2f25d0898edd99413412fb94012f9e54ec8142f9b093e7720646a95b16a9818360405161111d929190612d23565b60405180910390a15050565b600073ffffffffffffffffffffffffffffffffffffffff16600560009054906101000a900473ffffffffffffffffffffffffffffffffffffffff1673ffffffffffffffffffffffffffffffffffffffff16146111ba576040517f08c379a00000000000000000000000000000000000000000000000000000000081526004016111b190612f2b565b60405180910390fd5b6000809054906101000a900473ffffffffffffffffffffffffffffffffffffffff1673ffffffffffffffffffffffffffffffffffffffff163373ffffffffffffffffffffffffffffffffffffffff1614611249576040517f08c379a000000000000000000000000000000000000000000000000000000000815260040161124090612feb565b60405180910390fd5b600073ffffffffffffffffffffffffffffffffffffffff168173ffffffffffffffffffffffffffffffffffffffff1614156112b9576040517f08c379a00000000000000000000000000000000000000000000000000000000081526004016112b090612f8b565b60405180910390fd5b80600560006101000a81548173ffffffffffffffffffffffffffffffffffffffff021916908373ffffffffffffffffffffffffffffffffffffffff16021790555050565b600960009054906101000a900473ffffffffffffffffffffffffffffffffffffffff1681565b600560009054906101000a900473ffffffffffffffffffffffffffffffffffffffff1681565b60045481565b60007330e20d0a642adb85cb6e9da8fb9e3aadb0f593c090506000819050611375611c93565b8173ffffffffffffffffffffffffffffffffffffffff1663f0e147b8856040518263ffffffff1660e01b81526004016113ae91906130ab565b60006040518083038186803b1580156113c657600080fd5b505afa1580156113da573d6000803e3d6000fd5b505050506040513d6000823e3d601f19601f820116820180604052506114039190810190612270565b905060006114b042600560009054906101000a900473ffffffffffffffffffffffffffffffffffffffff1673ffffffffffffffffffffffffffffffffffffffff16636a42b8f86040518163ffffffff1660e01b815260040160206040518083038186803b15801561147357600080fd5b505afa158015611487573d6000803e3d6000fd5b505050506040513d601f19601f820116820180604052506114ab91908101906122da565b611a68565b905060008090505b82606001515181101561153b5761152e836060015182815181106114d857fe5b6020026020010151846080015183815181106114f057fe5b60200260200101518560a00151848151811061150857fe5b60200260200101518660c00151858151811061152057fe5b602002602001015186611abd565b80806001019150506114b8565b507f9a2e42fd6722813d69113e7d0079d3d940171428df7373df9c7f7617cfda2892858260405161156d929190613119565b60405180910390a15050505050565b600160009054906101000a900473ffffffffffffffffffffffffffffffffffffffff1673ffffffffffffffffffffffffffffffffffffffff163373ffffffffffffffffffffffffffffffffffffffff161480156116065750600073ffffffffffffffffffffffffffffffffffffffff163373ffffffffffffffffffffffffffffffffffffffff1614155b611645576040517f08c379a000000000000000000000000000000000000000000000000000000000815260040161163c9061302b565b60405180910390fd5b60008060009054906101000a900473ffffffffffffffffffffffffffffffffffffffff1690506000600160009054906101000a900473ffffffffffffffffffffffffffffffffffffffff169050600160009054906101000a900473ffffffffffffffffffffffffffffffffffffffff166000806101000a81548173ffffffffffffffffffffffffffffffffffffffff021916908373ffffffffffffffffffffffffffffffffffffffff1602179055506000600160006101000a81548173ffffffffffffffffffffffffffffffffffffffff021916908373ffffffffffffffffffffffffffffffffffffffff1602179055507ff9ffabca9c8276e99321725bcb43fb076a6c66a54b7f21c4e8146d8519b417dc826000809054906101000a900473ffffffffffffffffffffffffffffffffffffffff16604051611788929190612d23565b60405180910390a17fca4f2f25d0898edd99413412fb94012f9e54ec8142f9b093e7720646a95b16a981600160009054906101000a900473ffffffffffffffffffffffffffffffffffffffff166040516117e3929190612d23565b60405180910390a15050565b6000809054906101000a900473ffffffffffffffffffffffffffffffffffffffff1681565b60035481565b6001600381111561182757fe5b611830826108fa565b600381111561183b57fe5b1461187b576040517f08c379a000000000000000000000000000000000000000000000000000000000815260040161187290612fab565b60405180910390fd5b600060066000838152602001908152602001600020905060018160070160016101000a81548160ff02191690831515021790555060008090505b8160030180549050811015611a2c57600560009054906101000a900473ffffffffffffffffffffffffffffffffffffffff1673ffffffffffffffffffffffffffffffffffffffff16630825f38f83600401838154811061191157fe5b906000526020600020015484600301848154811061192b57fe5b9060005260206000200160009054906101000a900473ffffffffffffffffffffffffffffffffffffffff1685600401858154811061196557fe5b906000526020600020015486600501868154811061197f57fe5b9060005260206000200187600601878154811061199857fe5b9060005260206000200188600201546040518763ffffffff1660e01b81526004016119c7959493929190612dd6565b6000604051808303818588803b1580156119e057600080fd5b505af11580156119f4573d6000803e3d6000fd5b50505050506040513d6000823e3d601f19601f82011682018060405250611a1e919081019061222f565b5080806001019150506118b5565b507f712ae1383f79ac853f8d882153778e0260ef8f03b504e2866e0593e04d2b291f82604051611a5c91906130ab565b60405180910390a15050565b600080828401905083811015611ab3576040517f08c379a0000000000000000000000000000000000000000000000000000000008152600401611aaa9061300b565b60405180910390fd5b8091505092915050565b600560009054906101000a900473ffffffffffffffffffffffffffffffffffffffff1673ffffffffffffffffffffffffffffffffffffffff1663f2b065378686868686604051602001611b14959493929190612d75565b604051602081830303815290604052805190602001206040518263ffffffff1660e01b8152600401611b469190612e98565b60206040518083038186803b158015611b5e57600080fd5b505afa158015611b72573d6000803e3d6000fd5b505050506040513d601f19601f82011682018060405250611b9691908101906121dd565b15611bd6576040517f08c379a0000000000000000000000000000000000000000000000000000000008152600401611bcd90612f6b565b60405180910390fd5b600560009054906101000a900473ffffffffffffffffffffffffffffffffffffffff1673ffffffffffffffffffffffffffffffffffffffff16633a66f90186868686866040518663ffffffff1660e01b8152600401611c39959493929190612d75565b602060405180830381600087803b158015611c5357600080fd5b505af1158015611c67573d6000803e3d6000fd5b505050506040513d601f19601f82011682018060405250611c8b9190810190612206565b505050505050565b6040518060e00160405280600081526020016060815260200160608152602001606081526020016060815260200160608152602001606081525090565b600081359050611cdf816134fd565b92915050565b600081519050611cf4816134fd565b92915050565b600082601f830112611d0b57600080fd5b8151611d1e611d198261316f565b613142565b91508181835260208401935060208101905083856020840282011115611d4357600080fd5b60005b83811015611d735781611d598882611ce5565b845260208401935060208301925050600181019050611d46565b5050505092915050565b600082601f830112611d8e57600080fd5b8151611da1611d9c82613197565b613142565b9150818183526020840193506020810190508360005b83811015611de75781518601611dcd8882611f12565b845260208401935060208301925050600181019050611db7565b5050505092915050565b600082601f830112611e0257600080fd5b8151611e15611e10826131bf565b613142565b9150818183526020840193506020810190508360005b83811015611e5b5781518601611e418882611fba565b845260208401935060208301925050600181019050611e2b565b5050505092915050565b600082601f830112611e7657600080fd5b8151611e89611e84826131e7565b613142565b91508181835260208401935060208101905083856020840282011115611eae57600080fd5b60005b83811015611ede5781611ec48882612163565b845260208401935060208301925050600181019050611eb1565b5050505092915050565b600081519050611ef781613514565b92915050565b600081519050611f0c8161352b565b92915050565b600082601f830112611f2357600080fd5b8151611f36611f318261320f565b613142565b91508082526020830160208301858383011115611f5257600080fd5b611f5d8382846134ac565b50505092915050565b600082601f830112611f7757600080fd5b8151611f8a611f858261323b565b613142565b91508082526020830160208301858383011115611fa657600080fd5b611fb18382846134ac565b50505092915050565b600082601f830112611fcb57600080fd5b8151611fde611fd982613267565b613142565b91508082526020830160208301858383011115611ffa57600080fd5b6120058382846134ac565b50505092915050565b600060e0828403121561202057600080fd5b61202a60e0613142565b9050600061203a84828501612163565b600083015250602082015167ffffffffffffffff81111561205a57600080fd5b61206684828501611fba565b602083015250604082015167ffffffffffffffff81111561208657600080fd5b61209284828501611fba565b604083015250606082015167ffffffffffffffff8111156120b257600080fd5b6120be84828501611cfa565b606083015250608082015167ffffffffffffffff8111156120de57600080fd5b6120ea84828501611e65565b60808301525060a082015167ffffffffffffffff81111561210a57600080fd5b61211684828501611df1565b60a08301525060c082015167ffffffffffffffff81111561213657600080fd5b61214284828501611d7d565b60c08301525092915050565b60008135905061215d81613542565b92915050565b60008151905061217281613542565b92915050565b60006020828403121561218a57600080fd5b600061219884828501611cd0565b91505092915050565b600080604083850312156121b457600080fd5b60006121c285828601611cd0565b92505060206121d38582860161214e565b9150509250929050565b6000602082840312156121ef57600080fd5b60006121fd84828501611ee8565b91505092915050565b60006020828403121561221857600080fd5b600061222684828501611efd565b91505092915050565b60006020828403121561224157600080fd5b600082015167ffffffffffffffff81111561225b57600080fd5b61226784828501611f66565b91505092915050565b60006020828403121561228257600080fd5b600082015167ffffffffffffffff81111561229c57600080fd5b6122a88482850161200e565b91505092915050565b6000602082840312156122c357600080fd5b60006122d18482850161214e565b91505092915050565b6000602082840312156122ec57600080fd5b60006122fa84828501612163565b91505092915050565b600061230f838361235b565b60208301905092915050565b60006123278383612576565b905092915050565b600061233b8383612695565b905092915050565b600061234f8383612cea565b60208301905092915050565b61236481613411565b82525050565b61237381613411565b82525050565b6000612384826132fd565b61238e8185613389565b935061239983613293565b8060005b838110156123ca5781516123b18882612303565b97506123bc83613355565b92505060018101905061239d565b5085935050505092915050565b60006123e282613308565b6123ec818561339a565b9350836020820285016123fe856132a3565b8060005b8581101561243a578484038952815161241b858261231b565b945061242683613362565b925060208a01995050600181019050612402565b50829750879550505050505092915050565b600061245782613313565b61246181856133ab565b935083602082028501612473856132b3565b8060005b858110156124af5784840389528151612490858261232f565b945061249b8361336f565b925060208a01995050600181019050612477565b50829750879550505050505092915050565b60006124cc8261331e565b6124d681856133bc565b93506124e1836132c3565b8060005b838110156125125781516124f98882612343565b97506125048361337c565b9250506001810190506124e5565b5085935050505092915050565b61252881613423565b82525050565b6125378161342f565b82525050565b600061254882613334565b61255281856133de565b93506125628185602086016134ac565b61256b816134df565b840191505092915050565b600061258182613329565b61258b81856133cd565b935061259b8185602086016134ac565b6125a4816134df565b840191505092915050565b6000815460018116600081146125cc57600181146125f257612636565b607f60028304166125dd81876133de565b955060ff198316865260208601935050612636565b6002820461260081876133de565b955061260b856132d3565b60005b8281101561262d5781548189015260018201915060208101905061260e565b80880195505050505b505092915050565b61264781613476565b82525050565b6126568161349a565b82525050565b60006126678261334a565b6126718185613400565b93506126818185602086016134ac565b61268a816134df565b840191505092915050565b60006126a08261333f565b6126aa81856133ef565b93506126ba8185602086016134ac565b6126c3816134df565b840191505092915050565b60006126d98261333f565b6126e38185613400565b93506126f38185602086016134ac565b6126fc816134df565b840191505092915050565b600081546001811660008114612724576001811461274a5761278e565b607f60028304166127358187613400565b955060ff19831686526020860193505061278e565b600282046127588187613400565b9550612763856132e8565b60005b8281101561278557815481890152600182019150602081019050612766565b80880195505050505b505092915050565b60006127a3603583613400565b91507f476f7665726e6f72427261766f3a3a63616e63656c3a206f6e6c792061646d6960008301527f6e2063616e2063616e63656c2070726f706f73616c00000000000000000000006020830152604082019050919050565b6000612809603383613400565b91507f476f7665726e6f72427261766f3a3a696e697469616c697a653a2063616e206f60008301527f6e6c7920696e697469616c697a65206f6e6365000000000000000000000000006020830152604082019050919050565b600061286f602a83613400565b91507f476f7665726e6f72427261766f3a5f73657450656e64696e6741646d696e3a2060008301527f61646d696e206f6e6c79000000000000000000000000000000000000000000006020830152604082019050919050565b60006128d5605583613400565b91507f476f7665726e6f72427261766f3a3a71756575654f72526576657274496e746560008301527f726e616c3a206964656e746963616c2070726f706f73616c20616374696f6e2060208301527f616c7265616479207175657565642061742065746100000000000000000000006040830152606082019050919050565b6000612961603383613400565b91507f476f7665726e6f72427261766f3a3a696e697469616c697a653a20696e76616c60008301527f69642074696d656c6f636b2061646472657373000000000000000000000000006020830152604082019050919050565b60006129c7604583613400565b91507f476f7665726e6f72427261766f3a3a657865637574653a2070726f706f73616c60008301527f2063616e206f6e6c79206265206578656375746564206966206974206973207160208301527f75657565640000000000000000000000000000000000000000000000000000006040830152606082019050919050565b6000612a53603083613400565b91507f476f7665726e6f72427261766f3a3a5f73657457686974656c6973744775617260008301527f6469616e3a2061646d696e206f6e6c79000000000000000000000000000000006020830152604082019050919050565b6000612ab9602583613400565b91507f476f7665726e6f72427261766f3a3a696e697469616c697a653a2061646d696e60008301527f206f6e6c790000000000000000000000000000000000000000000000000000006020830152604082019050919050565b6000612b1f601183613400565b91507f6164646974696f6e206f766572666c6f770000000000000000000000000000006000830152602082019050919050565b6000612b5f602e83613400565b91507f476f7665726e6f72427261766f3a5f61636365707441646d696e3a2070656e6460008301527f696e672061646d696e206f6e6c790000000000000000000000000000000000006020830152604082019050919050565b6000612bc5603983613400565b91507f476f7665726e6f72427261766f3a3a5f73657457686974656c6973744163636f60008301527f756e7445787069726174696f6e3a2061646d696e206f6e6c79000000000000006020830152604082019050919050565b6000612c2b603683613400565b91507f476f7665726e6f72427261766f3a3a63616e63656c3a2063616e6e6f7420636160008301527f6e63656c2065786563757465642070726f706f73616c000000000000000000006020830152604082019050919050565b6000612c91602983613400565b91507f476f7665726e6f72427261766f3a3a73746174653a20696e76616c696420707260008301527f6f706f73616c20696400000000000000000000000000000000000000000000006020830152604082019050919050565b612cf38161346c565b82525050565b612d028161346c565b82525050565b6000602082019050612d1d600083018461236a565b92915050565b6000604082019050612d38600083018561236a565b612d45602083018461236a565b9392505050565b6000604082019050612d61600083018561236a565b612d6e6020830184612cf9565b9392505050565b600060a082019050612d8a600083018861236a565b612d976020830187612cf9565b8181036040830152612da9818661265c565b90508181036060830152612dbd818561253d565b9050612dcc6080830184612cf9565b9695505050505050565b600060a082019050612deb600083018861236a565b612df86020830187612cf9565b8181036040830152612e0a8186612707565b90508181036060830152612e1e81856125af565b9050612e2d6080830184612cf9565b9695505050505050565b60006080820190508181036000830152612e518187612379565b90508181036020830152612e6581866124c1565b90508181036040830152612e79818561244c565b90508181036060830152612e8d81846123d7565b905095945050505050565b6000602082019050612ead600083018461252e565b92915050565b6000602082019050612ec8600083018461263e565b92915050565b6000602082019050612ee3600083018461264d565b92915050565b60006020820190508181036000830152612f0381846126ce565b905092915050565b60006020820190508181036000830152612f2481612796565b9050919050565b60006020820190508181036000830152612f44816127fc565b9050919050565b60006020820190508181036000830152612f6481612862565b9050919050565b60006020820190508181036000830152612f84816128c8565b9050919050565b60006020820190508181036000830152612fa481612954565b9050919050565b60006020820190508181036000830152612fc4816129ba565b9050919050565b60006020820190508181036000830152612fe481612a46565b9050919050565b6000602082019050818103600083015261300481612aac565b9050919050565b6000602082019050818103600083015261302481612b12565b9050919050565b6000602082019050818103600083015261304481612b52565b9050919050565b6000602082019050818103600083015261306481612bb8565b9050919050565b6000602082019050818103600083015261308481612c1e565b9050919050565b600060208201905081810360008301526130a481612c84565b9050919050565b60006020820190506130c06000830184612cf9565b92915050565b600060a0820190506130db6000830188612cf9565b6130e8602083018761236a565b6130f56040830186612cf9565b613102606083018561251f565b61310f608083018461251f565b9695505050505050565b600060408201905061312e6000830185612cf9565b61313b6020830184612cf9565b9392505050565b6000604051905081810181811067ffffffffffffffff8211171561316557600080fd5b8060405250919050565b600067ffffffffffffffff82111561318657600080fd5b602082029050602081019050919050565b600067ffffffffffffffff8211156131ae57600080fd5b602082029050602081019050919050565b600067ffffffffffffffff8211156131d657600080fd5b602082029050602081019050919050565b600067ffffffffffffffff8211156131fe57600080fd5b602082029050602081019050919050565b600067ffffffffffffffff82111561322657600080fd5b601f19601f8301169050602081019050919050565b600067ffffffffffffffff82111561325257600080fd5b601f19601f8301169050602081019050919050565b600067ffffffffffffffff82111561327e57600080fd5b601f19601f8301169050602081019050919050565b6000819050602082019050919050565b6000819050602082019050919050565b6000819050602082019050919050565b6000819050602082019050919050565b60008190508160005260206000209050919050565b60008190508160005260206000209050919050565b600081519050919050565b600081519050919050565b600081519050919050565b600081519050919050565b600081519050919050565b600081519050919050565b600081519050919050565b600081519050919050565b6000602082019050919050565b6000602082019050919050565b6000602082019050919050565b6000602082019050919050565b600082825260208201905092915050565b600082825260208201905092915050565b600082825260208201905092915050565b600082825260208201905092915050565b600082825260208201905092915050565b600082825260208201905092915050565b600082825260208201905092915050565b600082825260208201905092915050565b600061341c8261344c565b9050919050565b60008115159050919050565b6000819050919050565b6000819050613447826134f0565b919050565b600073ffffffffffffffffffffffffffffffffffffffff82169050919050565b6000819050919050565b600061348182613488565b9050919050565b60006134938261344c565b9050919050565b60006134a582613439565b9050919050565b60005b838110156134ca5780820151818401526020810190506134af565b838111156134d9576000848401525b50505050565b6000601f19601f8301169050919050565b600481106134fa57fe5b50565b61350681613411565b811461351157600080fd5b50565b61351d81613423565b811461352857600080fd5b50565b6135348161342f565b811461353f57600080fd5b50565b61354b8161346c565b811461355657600080fd5b5056fea365627a7a72315820bea019556d56a2f483082c9819abbc22a4b0130d9d0981719bfb9ca309cbc80d6c6578706572696d656e74616cf564736f6c63430005100040",
  "linkReferences": {},
  "deployedLinkReferences": {}
}