{
  "_format": "hh-sol-artifact-1",
  "contractName": "GovernorBravoDelegate",
  "sourceName": "contracts/Governance/GovernorBravoDelegateG2.sol",
  "abi": [
    {
      "anonymous": false,
      "inputs": [
        {
          "indexed": false,
          "internalType": "address",
          "name": "oldAdmin",
          "type": "address"
        },
        {
          "indexed": false,
          "internalType": "address",
          "name": "newAdmin",
          "type": "address"
        }
      ],
      "name": "NewAdmin",
      "type": "event"
    },
    {
      "anonymous": false,
      "inputs": [
        {
          "indexed": false,
          "internalType": "address",
          "name": "oldImplementation",
          "type": "address"
        },
        {
          "indexed": false,
          "internalType": "address",
          "name": "newImplementation",
          "type": "address"
        }
      ],
      "name": "NewImplementation",
      "type": "event"
    },
    {
      "anonymous": false,
      "inputs": [
        {
          "indexed": false,
          "internalType": "address",
          "name": "oldPendingAdmin",
          "type": "address"
        },
        {
          "indexed": false,
          "internalType": "address",
          "name": "newPendingAdmin",
          "type": "address"
        }
      ],
      "name": "NewPendingAdmin",
      "type": "event"
    },
    {
      "anonymous": false,
      "inputs": [
        {
          "indexed": false,
          "internalType": "uint256",
          "name": "id",
          "type": "uint256"
        }
      ],
      "name": "ProposalCanceled",
      "type": "event"
    },
    {
      "anonymous": false,
      "inputs": [
        {
          "indexed": false,
          "internalType": "uint256",
          "name": "id",
          "type": "uint256"
        },
        {
          "indexed": false,
          "internalType": "address",
          "name": "proposer",
          "type": "address"
        },
        {
          "indexed": false,
          "internalType": "address[]",
          "name": "targets",
          "type": "address[]"
        },
        {
          "indexed": false,
          "internalType": "uint256[]",
          "name": "values",
          "type": "uint256[]"
        },
        {
          "indexed": false,
          "internalType": "string[]",
          "name": "signatures",
          "type": "string[]"
        },
        {
          "indexed": false,
          "internalType": "bytes[]",
          "name": "calldatas",
          "type": "bytes[]"
        },
        {
          "indexed": false,
          "internalType": "uint256",
          "name": "startBlock",
          "type": "uint256"
        },
        {
          "indexed": false,
          "internalType": "uint256",
          "name": "endBlock",
          "type": "uint256"
        },
        {
          "indexed": false,
          "internalType": "string",
          "name": "description",
          "type": "string"
        }
      ],
      "name": "ProposalCreated",
      "type": "event"
    },
    {
      "anonymous": false,
      "inputs": [
        {
          "indexed": false,
          "internalType": "uint256",
          "name": "id",
          "type": "uint256"
        }
      ],
      "name": "ProposalExecuted",
      "type": "event"
    },
    {
      "anonymous": false,
      "inputs": [
        {
          "indexed": false,
          "internalType": "uint256",
          "name": "id",
          "type": "uint256"
        },
        {
          "indexed": false,
          "internalType": "uint256",
          "name": "eta",
          "type": "uint256"
        }
      ],
      "name": "ProposalQueued",
      "type": "event"
    },
    {
      "anonymous": false,
      "inputs": [
        {
          "indexed": false,
          "internalType": "uint256",
          "name": "oldProposalThreshold",
          "type": "uint256"
        },
        {
          "indexed": false,
          "internalType": "uint256",
          "name": "newProposalThreshold",
          "type": "uint256"
        }
      ],
      "name": "ProposalThresholdSet",
      "type": "event"
    },
    {
      "anonymous": false,
      "inputs": [
        {
          "indexed": false,
          "internalType": "address",
          "name": "account",
          "type": "address"
        },
        {
          "indexed": false,
          "internalType": "uint256",
          "name": "expiration",
          "type": "uint256"
        }
      ],
      "name": "WhitelistAccountExpirationSet",
      "type": "event"
    },
    {
      "anonymous": false,
      "inputs": [
        {
          "indexed": false,
          "internalType": "address",
          "name": "oldGuardian",
          "type": "address"
        },
        {
          "indexed": false,
          "internalType": "address",
          "name": "newGuardian",
          "type": "address"
        }
      ],
      "name": "WhitelistGuardianSet",
      "type": "event"
    },
    {
      "constant": false,
      "inputs": [],
      "name": "_acceptAdmin",
      "outputs": [],
      "payable": false,
      "stateMutability": "nonpayable",
      "type": "function"
    },
    {
      "constant": false,
      "inputs": [
        {
          "internalType": "address",
          "name": "newPendingAdmin",
          "type": "address"
        }
      ],
      "name": "_setPendingAdmin",
      "outputs": [],
      "payable": false,
      "stateMutability": "nonpayable",
      "type": "function"
    },
    {
      "constant": false,
      "inputs": [
        {
          "internalType": "address",
          "name": "account",
          "type": "address"
        },
        {
          "internalType": "uint256",
          "name": "expiration",
          "type": "uint256"
        }
      ],
      "name": "_setWhitelistAccountExpiration",
      "outputs": [],
      "payable": false,
      "stateMutability": "nonpayable",
      "type": "function"
    },
    {
      "constant": false,
      "inputs": [
        {
          "internalType": "address",
          "name": "account",
          "type": "address"
        }
      ],
      "name": "_setWhitelistGuardian",
      "outputs": [],
      "payable": false,
      "stateMutability": "nonpayable",
      "type": "function"
    },
    {
      "constant": true,
      "inputs": [],
      "name": "admin",
      "outputs": [
        {
          "internalType": "address",
          "name": "",
          "type": "address"
        }
      ],
      "payable": false,
      "stateMutability": "view",
      "type": "function"
    },
    {
      "constant": false,
      "inputs": [
        {
          "internalType": "uint256",
          "name": "proposalId",
          "type": "uint256"
        }
      ],
      "name": "cancel",
      "outputs": [],
      "payable": false,
      "stateMutability": "nonpayable",
      "type": "function"
    },
    {
      "constant": false,
      "inputs": [
        {
          "internalType": "uint256",
          "name": "proposalId",
          "type": "uint256"
        }
      ],
      "name": "execute",
      "outputs": [],
      "payable": true,
      "stateMutability": "payable",
      "type": "function"
    },
    {
      "constant": true,
      "inputs": [
        {
          "internalType": "uint256",
          "name": "proposalId",
          "type": "uint256"
        }
      ],
      "name": "getActions",
      "outputs": [
        {
          "internalType": "address[]",
          "name": "targets",
          "type": "address[]"
        },
        {
          "internalType": "uint256[]",
          "name": "values",
          "type": "uint256[]"
        },
        {
          "internalType": "string[]",
          "name": "signatures",
          "type": "string[]"
        },
        {
          "internalType": "bytes[]",
          "name": "calldatas",
          "type": "bytes[]"
        }
      ],
      "payable": false,
      "stateMutability": "view",
      "type": "function"
    },
    {
      "constant": true,
      "inputs": [],
      "name": "implementation",
      "outputs": [
        {
          "internalType": "address",
          "name": "",
          "type": "address"
        }
      ],
      "payable": false,
      "stateMutability": "view",
      "type": "function"
    },
    {
      "constant": true,
      "inputs": [],
      "name": "initialProposalId",
      "outputs": [
        {
          "internalType": "uint256",
          "name": "",
          "type": "uint256"
        }
      ],
      "payable": false,
      "stateMutability": "view",
      "type": "function"
    },
    {
      "constant": false,
      "inputs": [
        {
          "internalType": "address",
          "name": "timelock_",
          "type": "address"
        }
      ],
      "name": "initialize",
      "outputs": [],
      "payable": false,
      "stateMutability": "nonpayable",
      "type": "function"
    },
    {
      "constant": true,
      "inputs": [
        {
          "internalType": "address",
          "name": "",
          "type": "address"
        }
      ],
      "name": "latestProposalIds",
      "outputs": [
        {
          "internalType": "uint256",
          "name": "",
          "type": "uint256"
        }
      ],
      "payable": false,
      "stateMutability": "view",
      "type": "function"
    },
    {
      "constant": true,
      "inputs": [],
      "name": "name",
      "outputs": [
        {
          "internalType": "string",
          "name": "",
          "type": "string"
        }
      ],
      "payable": false,
      "stateMutability": "view",
      "type": "function"
    },
    {
      "constant": true,
      "inputs": [],
      "name": "pendingAdmin",
      "outputs": [
        {
          "internalType": "address",
          "name": "",
          "type": "address"
        }
      ],
      "payable": false,
      "stateMutability": "view",
      "type": "function"
    },
    {
      "constant": true,
      "inputs": [],
      "name": "proposalCount",
      "outputs": [
        {
          "internalType": "uint256",
          "name": "",
          "type": "uint256"
        }
      ],
      "payable": false,
      "stateMutability": "view",
      "type": "function"
    },
    {
      "constant": true,
      "inputs": [],
      "name": "proposalMaxOperations",
      "outputs": [
        {
          "internalType": "uint256",
          "name": "",
          "type": "uint256"
        }
      ],
      "payable": false,
      "stateMutability": "view",
      "type": "function"
    },
    {
      "constant": true,
      "inputs": [
        {
          "internalType": "uint256",
          "name": "",
          "type": "uint256"
        }
      ],
      "name": "proposals",
      "outputs": [
        {
          "internalType": "uint256",
          "name": "id",
          "type": "uint256"
        },
        {
          "internalType": "address",
          "name": "proposer",
          "type": "address"
        },
        {
          "internalType": "uint256",
          "name": "eta",
          "type": "uint256"
        },
        {
          "internalType": "bool",
          "name": "canceled",
          "type": "bool"
        },
        {
          "internalType": "bool",
          "name": "executed",
          "type": "bool"
        }
      ],
      "payable": false,
      "stateMutability": "view",
      "type": "function"
    },
    {
      "constant": false,
      "inputs": [
        {
          "internalType": "uint256",
          "name": "proposalId",
          "type": "uint256"
        }
      ],
      "name": "queue",
      "outputs": [],
      "payable": false,
      "stateMutability": "nonpayable",
      "type": "function"
    },
    {
      "constant": true,
      "inputs": [
        {
          "internalType": "uint256",
          "name": "proposalId",
          "type": "uint256"
        }
      ],
      "name": "state",
      "outputs": [
        {
          "internalType": "enum GovernorBravoDelegateStorageV1.ProposalState",
          "name": "",
          "type": "uint8"
        }
      ],
      "payable": false,
      "stateMutability": "view",
      "type": "function"
    },
    {
      "constant": true,
      "inputs": [],
      "name": "timelock",
      "outputs": [
        {
          "internalType": "contract TimelockInterface",
          "name": "",
          "type": "address"
        }
      ],
      "payable": false,
      "stateMutability": "view",
      "type": "function"
    },
    {
      "constant": true,
      "inputs": [
        {
          "internalType": "address",
          "name": "",
          "type": "address"
        }
      ],
      "name": "whitelistAccountExpirations",
      "outputs": [
        {
          "internalType": "uint256",
          "name": "",
          "type": "uint256"
        }
      ],
      "payable": false,
      "stateMutability": "view",
      "type": "function"
    },
    {
      "constant": true,
      "inputs": [],
      "name": "whitelistGuardian",
      "outputs": [
        {
          "internalType": "address",
          "name": "",
          "type": "address"
        }
      ],
      "payable": false,
      "stateMutability": "view",
      "type": "function"
    }
  ],
  "bytecode": "0x608060405234801561001057600080fd5b506121ff806100206000396000f3fe6080604052600436106101355760003560e01c806399533365116100ab578063da35c6641161006f578063da35c66414610365578063ddf0b0091461037a578063e9c714f21461039a578063f851a440146103af578063fc4eee42146103c4578063fe0d94c1146103d957610135565b806399533365146102ce578063b71d1a0c146102ee578063c4d66de81461030e578063c5a8425d1461032e578063d33219b41461034357610135565b806338bd0dda116100fd57806338bd0dda146102155780633e4f49e61461023557806340e58ee5146102625780634d6733d2146102845780635c60da1b146102a45780637bdbe4d0146102b957610135565b8063013cf08b1461013a57806306fdde031461017457806317977c611461019657806326782247146101c3578063328dd982146101e5575b600080fd5b34801561014657600080fd5b5061015a6101553660046116ef565b6103ec565b60405161016b959493929190612031565b60405180910390f35b34801561018057600080fd5b50610189610429565b60405161016b9190611f50565b3480156101a257600080fd5b506101b66101b13660046115e9565b610462565b60405161016b9190611f26565b3480156101cf57600080fd5b506101d8610474565b60405161016b9190611dfa565b3480156101f157600080fd5b506102056102003660046116ef565b610483565b60405161016b9493929190611ed9565b34801561022157600080fd5b506101b66102303660046115e9565b610712565b34801561024157600080fd5b506102556102503660046116ef565b610724565b60405161016b9190611f42565b34801561026e57600080fd5b5061028261027d3660046116ef565b610843565b005b34801561029057600080fd5b5061028261029f36600461160f565b6109f6565b3480156102b057600080fd5b506101d8610a82565b3480156102c557600080fd5b506101b6610a91565b3480156102da57600080fd5b506102826102e93660046115e9565b610a96565b3480156102fa57600080fd5b506102826103093660046115e9565b610b15565b34801561031a57600080fd5b506102826103293660046115e9565b610b92565b34801561033a57600080fd5b506101d8610c2d565b34801561034f57600080fd5b50610358610c3c565b60405161016b9190611f34565b34801561037157600080fd5b506101b6610c4b565b34801561038657600080fd5b506102826103953660046116ef565b610c51565b3480156103a657600080fd5b50610282610e09565b3480156103bb57600080fd5b506101d8610ee7565b3480156103d057600080fd5b506101b6610ef6565b6102826103e73660046116ef565b610efc565b600660205260009081526040902080546001820154600283015460079093015491926001600160a01b039091169160ff8082169161010090041685565b6040518060400160405280601781526020017f436f6d706f756e6420476f7665726e6f7220427261766f00000000000000000081525081565b60076020526000908152604090205481565b6001546001600160a01b031681565b6060806060806000600660008781526020019081526020016000209050806003018160040182600501836006018380548060200260200160405190810160405280929190818152602001828054801561050557602002820191906000526020600020905b81546001600160a01b031681526001909101906020018083116104e7575b505050505093508280548060200260200160405190810160405280929190818152602001828054801561055757602002820191906000526020600020905b815481526020019060010190808311610543575b5050505050925081805480602002602001604051908101604052809291908181526020016000905b8282101561062a5760008481526020908190208301805460408051601f60026000196101006001871615020190941693909304928301859004850281018501909152818152928301828280156106165780601f106105eb57610100808354040283529160200191610616565b820191906000526020600020905b8154815290600101906020018083116105f957829003601f168201915b50505050508152602001906001019061057f565b50505050915080805480602002602001604051908101604052809291908181526020016000905b828210156106fc5760008481526020908190208301805460408051601f60026000196101006001871615020190941693909304928301859004850281018501909152818152928301828280156106e85780601f106106bd576101008083540402835291602001916106e8565b820191906000526020600020905b8154815290600101906020018083116106cb57829003601f168201915b505050505081526020019060010190610651565b5050505090509450945094509450509193509193565b60086020526000908152604090205481565b60008160045410158015610739575060035482115b61075e5760405162461bcd60e51b815260040161075590612021565b60405180910390fd5b6000828152600660205260409020600781015460ff161561078357600091505061083e565b6007810154610100900460ff161561079f57600391505061083e565b6002810154600554604080516360d143f160e11b8152905161082893926001600160a01b03169163c1a287e2916004808301926020929190829003018186803b1580156107eb57600080fd5b505afa1580156107ff573d6000803e3d6000fd5b505050506040513d601f19601f820116820180604052506108239190810190611667565b6110b5565b421061083857600291505061083e565b60019150505b919050565b600361084e82610724565b600381111561085957fe5b14156108775760405162461bcd60e51b815260040161075590612011565b6000546001600160a01b031633146108a15760405162461bcd60e51b815260040161075590611f61565b600081815260066020526040812060078101805460ff19166001179055905b60038201548110156109ba576005546003830180546001600160a01b039092169163591fcdfe9190849081106108f257fe5b6000918252602090912001546004850180546001600160a01b03909216918590811061091a57fe5b906000526020600020015485600501858154811061093457fe5b9060005260206000200186600601868154811061094d57fe5b9060005260206000200187600201546040518663ffffffff1660e01b815260040161097c959493929190611e98565b600060405180830381600087803b15801561099657600080fd5b505af11580156109aa573d6000803e3d6000fd5b5050600190920191506108c09050565b507f789cf55be980739dad1d0699b93b58e806b51c9d96619bfa8fe0a28abaa7b30c826040516109ea9190611f26565b60405180910390a15050565b6000546001600160a01b0316331480610a1957506009546001600160a01b031633145b610a355760405162461bcd60e51b815260040161075590612001565b6001600160a01b03821660009081526008602052604090819020829055517f4e7b7545bc5744d0e30425959f4687475774b6c7edad77d24cb51c7d967d4515906109ea9084908490611e23565b6002546001600160a01b031681565b600a81565b6000546001600160a01b03163314610ac05760405162461bcd60e51b815260040161075590611fc1565b600980546001600160a01b038381166001600160a01b031983161792839055604051918116927f80a07e73e552148844a9c216d9724212d609cfa54e9c1a2e97203bdd2c4ad341926109ea9285921690611e08565b6000546001600160a01b03163314610b3f5760405162461bcd60e51b815260040161075590611f81565b600180546001600160a01b038381166001600160a01b03198316179092556040519116907fca4f2f25d0898edd99413412fb94012f9e54ec8142f9b093e7720646a95b16a9906109ea9083908590611e08565b6005546001600160a01b031615610bbb5760405162461bcd60e51b815260040161075590611f71565b6000546001600160a01b03163314610be55760405162461bcd60e51b815260040161075590611fd1565b6001600160a01b038116610c0b5760405162461bcd60e51b815260040161075590611fa1565b600580546001600160a01b0319166001600160a01b0392909216919091179055565b6009546001600160a01b031681565b6005546001600160a01b031681565b60045481565b7330e20d0a642adb85cb6e9da8fb9e3aadb0f593c080610c6f611242565b604051631e1c28f760e31b81526001600160a01b0383169063f0e147b890610c9b908790600401611f26565b60006040518083038186803b158015610cb357600080fd5b505afa158015610cc7573d6000803e3d6000fd5b505050506040513d6000823e601f3d908101601f19168201604052610cef91908101906116ba565b90506000610d4542600560009054906101000a90046001600160a01b03166001600160a01b0316636a42b8f86040518163ffffffff1660e01b815260040160206040518083038186803b1580156107eb57600080fd5b905060005b826060015151811015610dc857610dc083606001518281518110610d6a57fe5b602002602001015184608001518381518110610d8257fe5b60200260200101518560a001518481518110610d9a57fe5b60200260200101518660c001518581518110610db257fe5b6020026020010151866110e3565b600101610d4a565b507f9a2e42fd6722813d69113e7d0079d3d940171428df7373df9c7f7617cfda28928582604051610dfa929190612073565b60405180910390a15050505050565b6001546001600160a01b031633148015610e2257503315155b610e3e5760405162461bcd60e51b815260040161075590611ff1565b60008054600180546001600160a01b038082166001600160a01b03198086168217968790559092169092556040519282169390927ff9ffabca9c8276e99321725bcb43fb076a6c66a54b7f21c4e8146d8519b417dc92610ea2928692911690611e08565b60405180910390a16001546040517fca4f2f25d0898edd99413412fb94012f9e54ec8142f9b093e7720646a95b16a9916109ea9184916001600160a01b031690611e08565b6000546001600160a01b031681565b60035481565b6001610f0782610724565b6003811115610f1257fe5b14610f2f5760405162461bcd60e51b815260040161075590611fb1565b600081815260066020526040812060078101805461ff001916610100179055905b6003820154811015611085576005546004830180546001600160a01b0390921691630825f38f919084908110610f8257fe5b9060005260206000200154846003018481548110610f9c57fe5b6000918252602090912001546004860180546001600160a01b039092169186908110610fc457fe5b9060005260206000200154866005018681548110610fde57fe5b90600052602060002001876006018781548110610ff757fe5b9060005260206000200188600201546040518763ffffffff1660e01b8152600401611026959493929190611e98565b6000604051808303818588803b15801561103f57600080fd5b505af1158015611053573d6000803e3d6000fd5b50505050506040513d6000823e601f3d908101601f1916820160405261107c9190810190611685565b50600101610f50565b507f712ae1383f79ac853f8d882153778e0260ef8f03b504e2866e0593e04d2b291f826040516109ea9190611f26565b6000828201838110156110da5760405162461bcd60e51b815260040161075590611fe1565b90505b92915050565b6005546040516001600160a01b039091169063f2b06537906111119088908890889088908890602001611e3e565b604051602081830303815290604052805190602001206040518263ffffffff1660e01b81526004016111439190611f26565b60206040518083038186803b15801561115b57600080fd5b505afa15801561116f573d6000803e3d6000fd5b505050506040513d601f19601f820116820180604052506111939190810190611649565b156111b05760405162461bcd60e51b815260040161075590611f91565b600554604051633a66f90160e01b81526001600160a01b0390911690633a66f901906111e89088908890889088908890600401611e3e565b602060405180830381600087803b15801561120257600080fd5b505af1158015611216573d6000803e3d6000fd5b505050506040513d601f19601f8201168201806040525061123a9190810190611667565b505050505050565b6040518060e00160405280600081526020016060815260200160608152602001606081526020016060815260200160608152602001606081525090565b80356110dd81612196565b80516110dd81612196565b600082601f8301126112a657600080fd5b81516112b96112b4826120a8565b612081565b915081818352602084019350602081019050838560208402820111156112de57600080fd5b60005b8381101561130a57816112f4888261128a565b84525060209283019291909101906001016112e1565b5050505092915050565b600082601f83011261132557600080fd5b81516113336112b4826120a8565b81815260209384019390925082018360005b8381101561130a578151860161135b8882611454565b8452506020928301929190910190600101611345565b600082601f83011261138257600080fd5b81516113906112b4826120a8565b81815260209384019390925082018360005b8381101561130a57815186016113b88882611454565b84525060209283019291909101906001016113a2565b600082601f8301126113df57600080fd5b81516113ed6112b4826120a8565b9150818183526020840193506020810190508385602084028201111561141257600080fd5b60005b8381101561130a57816114288882611449565b8452506020928301929190910190600101611415565b80516110dd816121aa565b80516110dd816121b3565b600082601f83011261146557600080fd5b81516114736112b4826120c9565b9150808252602083016020830185838301111561148f57600080fd5b61149a83828461214f565b50505092915050565b600060e082840312156114b557600080fd5b6114bf60e0612081565b905060006114cd8484611449565b825250602082015167ffffffffffffffff8111156114ea57600080fd5b6114f684828501611454565b602083015250604082015167ffffffffffffffff81111561151657600080fd5b61152284828501611454565b604083015250606082015167ffffffffffffffff81111561154257600080fd5b61154e84828501611295565b606083015250608082015167ffffffffffffffff81111561156e57600080fd5b61157a848285016113ce565b60808301525060a082015167ffffffffffffffff81111561159a57600080fd5b6115a684828501611371565b60a08301525060c082015167ffffffffffffffff8111156115c657600080fd5b6115d284828501611314565b60c08301525092915050565b80356110dd816121b3565b6000602082840312156115fb57600080fd5b6000611607848461127f565b949350505050565b6000806040838503121561162257600080fd5b600061162e858561127f565b925050602061163f858286016115de565b9150509250929050565b60006020828403121561165b57600080fd5b6000611607848461143e565b60006020828403121561167957600080fd5b60006116078484611449565b60006020828403121561169757600080fd5b815167ffffffffffffffff8111156116ae57600080fd5b61160784828501611454565b6000602082840312156116cc57600080fd5b815167ffffffffffffffff8111156116e357600080fd5b611607848285016114a3565b60006020828403121561170157600080fd5b600061160784846115de565b60006117198383611740565b505060200190565b600061172d83836118d7565b9392505050565b600061171983836118ce565b61174981612110565b82525050565b600061175a82612103565b6117648185612107565b935061176f836120f1565b8060005b8381101561179d578151611787888261170d565b9750611792836120f1565b925050600101611773565b509495945050505050565b60006117b382612103565b6117bd8185612107565b9350836020820285016117cf856120f1565b8060005b8581101561180957848403895281516117ec8582611721565b94506117f7836120f1565b60209a909a01999250506001016117d3565b5091979650505050505050565b600061182182612103565b61182b8185612107565b93508360208202850161183d856120f1565b8060005b85811015611809578484038952815161185a8582611721565b9450611865836120f1565b60209a909a0199925050600101611841565b600061188282612103565b61188c8185612107565b9350611897836120f1565b8060005b8381101561179d5781516118af8882611734565b97506118ba836120f1565b92505060010161189b565b6117498161211b565b61174981612120565b60006118e282612103565b6118ec8185612107565b93506118fc81856020860161214f565b6119058161217f565b9093019392505050565b60008154600181166000811461192c576001811461195257611991565b607f600283041661193d8187612107565b60ff1984168152955050602085019250611991565b600282046119608187612107565b955061196b856120f7565b60005b8281101561198a5781548882015260019091019060200161196e565b8701945050505b505092915050565b61174981612139565b61174981612144565b60006119b8603583612107565b7f476f7665726e6f72427261766f3a3a63616e63656c3a206f6e6c792061646d698152741b8818d85b8818d85b98d95b081c1c9bdc1bdcd85b605a1b602082015260400192915050565b6000611a0f603383612107565b7f476f7665726e6f72427261766f3a3a696e697469616c697a653a2063616e206f8152726e6c7920696e697469616c697a65206f6e636560681b602082015260400192915050565b6000611a64602a83612107565b7f476f7665726e6f72427261766f3a5f73657450656e64696e6741646d696e3a2081526961646d696e206f6e6c7960b01b602082015260400192915050565b6000611ab0605583612107565b7f476f7665726e6f72427261766f3a3a71756575654f72526576657274496e746581527f726e616c3a206964656e746963616c2070726f706f73616c20616374696f6e20602082015274616c7265616479207175657565642061742065746160581b604082015260600192915050565b6000611b2d603383612107565b7f476f7665726e6f72427261766f3a3a696e697469616c697a653a20696e76616c81527269642074696d656c6f636b206164647265737360681b602082015260400192915050565b6000611b82604583612107565b7f476f7665726e6f72427261766f3a3a657865637574653a2070726f706f73616c81527f2063616e206f6e6c7920626520657865637574656420696620697420697320716020820152641d595d595960da1b604082015260600192915050565b6000611bef603083612107565b7f476f7665726e6f72427261766f3a3a5f73657457686974656c6973744775617281526f6469616e3a2061646d696e206f6e6c7960801b602082015260400192915050565b6000611c41602583612107565b7f476f7665726e6f72427261766f3a3a696e697469616c697a653a2061646d696e815264206f6e6c7960d81b602082015260400192915050565b6000611c88601183612107565b706164646974696f6e206f766572666c6f7760781b815260200192915050565b6000611cb5602e83612107565b7f476f7665726e6f72427261766f3a5f61636365707441646d696e3a2070656e6481526d696e672061646d696e206f6e6c7960901b602082015260400192915050565b6000611d05603983612107565b7f476f7665726e6f72427261766f3a3a5f73657457686974656c6973744163636f81527f756e7445787069726174696f6e3a2061646d696e206f6e6c7900000000000000602082015260400192915050565b6000611d64603683612107565b7f476f7665726e6f72427261766f3a3a63616e63656c3a2063616e6e6f742063618152751b98d95b08195e1958dd5d1959081c1c9bdc1bdcd85b60521b602082015260400192915050565b6000611dbc602983612107565b7f476f7665726e6f72427261766f3a3a73746174653a20696e76616c69642070728152681bdc1bdcd85b081a5960ba1b602082015260400192915050565b602081016110dd8284611740565b60408101611e168285611740565b61172d6020830184611740565b60408101611e318285611740565b61172d60208301846118ce565b60a08101611e4c8288611740565b611e5960208301876118ce565b8181036040830152611e6b81866118d7565b90508181036060830152611e7f81856118d7565b9050611e8e60808301846118ce565b9695505050505050565b60a08101611ea68288611740565b611eb360208301876118ce565b8181036040830152611ec5818661190f565b90508181036060830152611e7f818561190f565b60808082528101611eea818761174f565b90508181036020830152611efe8186611877565b90508181036040830152611f128185611816565b90508181036060830152611e8e81846117a8565b602081016110dd82846118ce565b602081016110dd8284611999565b602081016110dd82846119a2565b6020808252810161172d81846118d7565b602080825281016110dd816119ab565b602080825281016110dd81611a02565b602080825281016110dd81611a57565b602080825281016110dd81611aa3565b602080825281016110dd81611b20565b602080825281016110dd81611b75565b602080825281016110dd81611be2565b602080825281016110dd81611c34565b602080825281016110dd81611c7b565b602080825281016110dd81611ca8565b602080825281016110dd81611cf8565b602080825281016110dd81611d57565b602080825281016110dd81611daf565b60a0810161203f82886118ce565b61204c6020830187611740565b61205960408301866118ce565b61206660608301856118c5565b611e8e60808301846118c5565b60408101611e3182856118ce565b60405181810167ffffffffffffffff811182821017156120a057600080fd5b604052919050565b600067ffffffffffffffff8211156120bf57600080fd5b5060209081020190565b600067ffffffffffffffff8211156120e057600080fd5b506020601f91909101601f19160190565b60200190565b60009081526020902090565b5190565b90815260200190565b60006110dd8261212d565b151590565b90565b8061083e81612189565b6001600160a01b031690565b60006110dd82612110565b60006110dd82612123565b60005b8381101561216a578181015183820152602001612152565b83811115612179576000848401525b50505050565b601f01601f191690565b6004811061219357fe5b50565b61219f81612110565b811461219357600080fd5b61219f8161211b565b61219f8161212056fea365627a7a7231582039d465b8974ce9d577048c7b7bb4a56f4966a745cc01b1a63392953054efc1356c6578706572696d656e74616cf564736f6c63430005100040",
  "linkReferences": {},
  "deployedLinkReferences": {}
}