{
  "_format": "hh-sol-artifact-1",
  "contractName": "GovernorBravoDelegator",
  "sourceName": "contracts/Governance/GovernorBravoDelegator.sol",
  "abi": [
    {
      "inputs": [
        {
          "internalType": "address",
          "name": "timelock_",
          "type": "address"
        },
        {
          "internalType": "address",
          "name": "implementation_",
          "type": "address"
        },
        {
          "internalType": "address",
          "name": "admin_",
          "type": "address"
        }
      ],
      "payable": false,
      "stateMutability": "nonpayable",
      "type": "constructor"
    },
    {
      "anonymous": false,
      "inputs": [
        {
          "indexed": false,
          "internalType": "address",
          "name": "oldAdmin",
          "type": "address"
        },
        {
          "indexed": false,
          "internalType": "address",
          "name": "newAdmin",
          "type": "address"
        }
      ],
      "name": "NewAdmin",
      "type": "event"
    },
    {
      "anonymous": false,
      "inputs": [
        {
          "indexed": false,
          "internalType": "address",
          "name": "oldImplementation",
          "type": "address"
        },
        {
          "indexed": false,
          "internalType": "address",
          "name": "newImplementation",
          "type": "address"
        }
      ],
      "name": "NewImplementation",
      "type": "event"
    },
    {
      "anonymous": false,
      "inputs": [
        {
          "indexed": false,
          "internalType": "address",
          "name": "oldPendingAdmin",
          "type": "address"
        },
        {
          "indexed": false,
          "internalType": "address",
          "name": "newPendingAdmin",
          "type": "address"
        }
      ],
      "name": "NewPendingAdmin",
      "type": "event"
    },
    {
      "anonymous": false,
      "inputs": [
        {
          "indexed": false,
          "internalType": "uint256",
          "name": "id",
          "type": "uint256"
        }
      ],
      "name": "ProposalCanceled",
      "type": "event"
    },
    {
      "anonymous": false,
      "inputs": [
        {
          "indexed": false,
          "internalType": "uint256",
          "name": "id",
          "type": "uint256"
        },
        {
          "indexed": false,
          "internalType": "address",
          "name": "proposer",
          "type": "address"
        },
        {
          "indexed": false,
          "internalType": "address[]",
          "name": "targets",
          "type": "address[]"
        },
        {
          "indexed": false,
          "internalType": "uint256[]",
          "name": "values",
          "type": "uint256[]"
        },
        {
          "indexed": false,
          "internalType": "string[]",
          "name": "signatures",
          "type": "string[]"
        },
        {
          "indexed": false,
          "internalType": "bytes[]",
          "name": "calldatas",
          "type": "bytes[]"
        },
        {
          "indexed": false,
          "internalType": "uint256",
          "name": "startBlock",
          "type": "uint256"
        },
        {
          "indexed": false,
          "internalType": "uint256",
          "name": "endBlock",
          "type": "uint256"
        },
        {
          "indexed": false,
          "internalType": "string",
          "name": "description",
          "type": "string"
        }
      ],
      "name": "ProposalCreated",
      "type": "event"
    },
    {
      "anonymous": false,
      "inputs": [
        {
          "indexed": false,
          "internalType": "uint256",
          "name": "id",
          "type": "uint256"
        }
      ],
      "name": "ProposalExecuted",
      "type": "event"
    },
    {
      "anonymous": false,
      "inputs": [
        {
          "indexed": false,
          "internalType": "uint256",
          "name": "id",
          "type": "uint256"
        },
        {
          "indexed": false,
          "internalType": "uint256",
          "name": "eta",
          "type": "uint256"
        }
      ],
      "name": "ProposalQueued",
      "type": "event"
    },
    {
      "anonymous": false,
      "inputs": [
        {
          "indexed": false,
          "internalType": "uint256",
          "name": "oldProposalThreshold",
          "type": "uint256"
        },
        {
          "indexed": false,
          "internalType": "uint256",
          "name": "newProposalThreshold",
          "type": "uint256"
        }
      ],
      "name": "ProposalThresholdSet",
      "type": "event"
    },
    {
      "anonymous": false,
      "inputs": [
        {
          "indexed": false,
          "internalType": "address",
          "name": "account",
          "type": "address"
        },
        {
          "indexed": false,
          "internalType": "uint256",
          "name": "expiration",
          "type": "uint256"
        }
      ],
      "name": "WhitelistAccountExpirationSet",
      "type": "event"
    },
    {
      "anonymous": false,
      "inputs": [
        {
          "indexed": false,
          "internalType": "address",
          "name": "oldGuardian",
          "type": "address"
        },
        {
          "indexed": false,
          "internalType": "address",
          "name": "newGuardian",
          "type": "address"
        }
      ],
      "name": "WhitelistGuardianSet",
      "type": "event"
    },
    {
      "payable": true,
      "stateMutability": "payable",
      "type": "fallback"
    },
    {
      "constant": false,
      "inputs": [
        {
          "internalType": "address",
          "name": "implementation_",
          "type": "address"
        }
      ],
      "name": "_setImplementation",
      "outputs": [],
      "payable": false,
      "stateMutability": "nonpayable",
      "type": "function"
    },
    {
      "constant": true,
      "inputs": [],
      "name": "admin",
      "outputs": [
        {
          "internalType": "address",
          "name": "",
          "type": "address"
        }
      ],
      "payable": false,
      "stateMutability": "view",
      "type": "function"
    },
    {
      "constant": true,
      "inputs": [],
      "name": "implementation",
      "outputs": [
        {
          "internalType": "address",
          "name": "",
          "type": "address"
        }
      ],
      "payable": false,
      "stateMutability": "view",
      "type": "function"
    },
    {
      "constant": true,
      "inputs": [],
      "name": "pendingAdmin",
      "outputs": [
        {
          "internalType": "address",
          "name": "",
          "type": "address"
        }
      ],
      "payable": false,
      "stateMutability": "view",
      "type": "function"
    }
  ],
  "bytecode": "0x60806040523480156200001157600080fd5b506040516200089d3803806200089d833981016040819052620000349162000222565b600080546001600160a01b03191633179055604051620000949083906200006090869060240162000384565b60408051601f198184030181529190526020810180516001600160e01b0390811663189acdbd60e31b17909152620000d116565b620000a8826001600160e01b036200014d16565b600080546001600160a01b0319166001600160a01b039290921691909117905550620004449050565b60006060836001600160a01b031683604051620000ef91906200036f565b600060405180830381855af49150503d80600081146200012c576040519150601f19603f3d011682016040523d82523d6000602084013e62000131565b606091505b5091509150600082141562000147573d60208201fd5b50505050565b6000546001600160a01b03163314620001835760405162461bcd60e51b81526004016200017a90620003c5565b60405180910390fd5b6001600160a01b038116620001ac5760405162461bcd60e51b81526004016200017a90620003b3565b600280546001600160a01b038381166001600160a01b031983161792839055604051918116927fd604de94d45953f9138079ec1b82d533cb2160c906d1076d1f7ed54befbca97a9262000203928592169062000394565b60405180910390a15050565b80516200021c816200042a565b92915050565b6000806000606084860312156200023857600080fd5b60006200024686866200020f565b935050602062000259868287016200020f565b92505060406200026c868287016200020f565b9150509250925092565b6200028181620003e9565b82525050565b60006200029482620003d7565b620002a08185620003db565b9350620002b2818560208601620003fb565b9290920192915050565b6000620002cb604a83620003e0565b6000805160206200087d83398151915281527f656d656e746174696f6e3a20696e76616c696420696d706c656d656e746174696020820152696f6e206164647265737360b01b604082015260600192915050565b60006200032e603683620003e0565b6000805160206200087d83398151915281527f656d656e746174696f6e3a2061646d696e206f6e6c7900000000000000000000602082015260400192915050565b60006200037d828462000287565b9392505050565b602081016200021c828462000276565b60408101620003a4828562000276565b6200037d602083018462000276565b602080825281016200021c81620002bc565b602080825281016200021c816200031f565b5190565b919050565b90815260200190565b60006001600160a01b0382166200021c565b60005b8381101562000418578181015183820152602001620003fe565b83811115620001475750506000910152565b6200043581620003e9565b81146200044157600080fd5b50565b61042980620004546000396000f3fe60806040526004361061003f5760003560e01c806326782247146100ba5780635c60da1b146100e5578063bb913f41146100fa578063f851a4401461011c575b6002546040516000916001600160a01b03169061005f9083903690610347565b600060405180830381855af49150503d806000811461009a576040519150601f19603f3d011682016040523d82523d6000602084013e61009f565b606091505b505090506040513d6000823e8180156100b6573d82f35b3d82fd5b3480156100c657600080fd5b506100cf610131565b6040516100dc9190610354565b60405180910390f35b3480156100f157600080fd5b506100cf610140565b34801561010657600080fd5b5061011a610115366004610229565b61014f565b005b34801561012857600080fd5b506100cf610209565b6001546001600160a01b031681565b6002546001600160a01b031681565b6000546001600160a01b031633146101825760405162461bcd60e51b815260040161017990610394565b60405180910390fd5b6001600160a01b0381166101a85760405162461bcd60e51b815260040161017990610384565b600280546001600160a01b038381166001600160a01b031983161792839055604051918116927fd604de94d45953f9138079ec1b82d533cb2160c906d1076d1f7ed54befbca97a926101fd9285921690610362565b60405180910390a15050565b6000546001600160a01b031681565b8035610223816103cf565b92915050565b60006020828403121561023b57600080fd5b60006102478484610218565b949350505050565b610258816103b2565b82525050565b600061026a83856103a4565b93506102778385846103c3565b50500190565b600061028a604a836103a9565b7f476f7665726e6f72427261766f44656c656761746f723a3a5f736574496d706c81527f656d656e746174696f6e3a20696e76616c696420696d706c656d656e746174696020820152696f6e206164647265737360b01b604082015260600192915050565b60006102fc6036836103a9565b7f476f7665726e6f72427261766f44656c656761746f723a3a5f736574496d706c815275656d656e746174696f6e3a2061646d696e206f6e6c7960501b602082015260400192915050565b600061024782848661025e565b60208101610223828461024f565b60408101610370828561024f565b61037d602083018461024f565b9392505050565b602080825281016102238161027d565b60208082528101610223816102ef565b919050565b90815260200190565b60006001600160a01b038216610223565b82818337506000910152565b6103d8816103b2565b81146103e357600080fd5b5056fea365627a7a723158201904eea39ec139bfeb3d64ab8221cea20671e739e5c822d26e2ce9b0a22fb10e6c6578706572696d656e74616cf564736f6c63430005100040476f7665726e6f72427261766f44656c656761746f723a3a5f736574496d706c",
  "linkReferences": {},
  "deployedLinkReferences": {}
}