{
  "_format": "hh-sol-artifact-1",
  "contractName": "Treasury",
  "sourceName": "contracts/Treasury.sol",
  "abi": [
    {
      "inputs": [
        {
          "internalType": "address",
          "name": "note_",
          "type": "address"
        }
      ],
      "payable": false,
      "stateMutability": "nonpayable",
      "type": "constructor"
    },
    {
      "payable": true,
      "stateMutability": "payable",
      "type": "fallback"
    },
    {
      "constant": true,
      "inputs": [
        {
          "internalType": "uint256",
          "name": "proposalID",
          "type": "uint256"
        }
      ],
      "name": "_queryProposal",
      "outputs": [
        {
          "components": [
            {
              "internalType": "uint256",
              "name": "id",
              "type": "uint256"
            },
            {
              "internalType": "string",
              "name": "title",
              "type": "string"
            },
            {
              "internalType": "string",
              "name": "desc",
              "type": "string"
            },
            {
              "internalType": "address[]",
              "name": "targets",
              "type": "address[]"
            },
            {
              "internalType": "uint256[]",
              "name": "values",
              "type": "uint256[]"
            },
            {
              "internalType": "string[]",
              "name": "signatures",
              "type": "string[]"
            },
            {
              "internalType": "bytes[]",
              "name": "calldatas",
              "type": "bytes[]"
            }
          ],
          "internalType": "struct IProposal.Proposal",
          "name": "",
          "type": "tuple"
        }
      ],
      "payable": false,
      "stateMutability": "view",
      "type": "function"
    },
    {
      "constant": false,
      "inputs": [
        {
          "internalType": "uint256",
          "name": "proposalID",
          "type": "uint256"
        }
      ],
      "name": "executeProposal",
      "outputs": [],
      "payable": false,
      "stateMutability": "nonpayable",
      "type": "function"
    },
    {
      "constant": true,
      "inputs": [],
      "name": "queryCantoBalance",
      "outputs": [
        {
          "internalType": "uint256",
          "name": "",
          "type": "uint256"
        }
      ],
      "payable": false,
      "stateMutability": "view",
      "type": "function"
    },
    {
      "constant": true,
      "inputs": [],
      "name": "queryNoteBalance",
      "outputs": [
        {
          "internalType": "uint256",
          "name": "",
          "type": "uint256"
        }
      ],
      "payable": false,
      "stateMutability": "view",
      "type": "function"
    }
  ],
  "bytecode": "0x60806040523480156200001157600080fd5b5060405162000f3a38038062000f3a833981016040819052620000349162000154565b600180546001600160a01b0319167330e20d0a642adb85cb6e9da8fb9e3aadb0f593c01790556001600160a01b0381166200006e57600080fd5b600080546001600160a01b0319166001600160a01b0383811691909117808355604080516318160ddd60e01b8152905191909216916318160ddd916004808301926020929190829003018186803b158015620000c957600080fd5b505afa158015620000de573d6000803e3d6000fd5b505050506040513d601f19601f820116820180604052506200010491908101906200017d565b116200012d5760405162461bcd60e51b81526004016200012490620001ec565b60405180910390fd5b5062000241565b805162000141816200021c565b92915050565b8051620001418162000236565b6000602082840312156200016757600080fd5b600062000175848462000134565b949350505050565b6000602082840312156200019057600080fd5b600062000175848462000147565b6000620001ad602a83620001fe565b7f53616e69747920636865636b20746f206d616b652073757265206164647265738152691cc81a5cc81d985b1a5960b21b602082015260400192915050565b6020808252810162000141816200019e565b90815260200190565b60006001600160a01b03821662000141565b90565b620002278162000207565b81146200023357600080fd5b50565b620002278162000219565b610ce980620002516000396000f3fe60806040526004361061003f5760003560e01c806303cc29a5146100415780630d61b5191461006c5780631ce78bb21461008c5780634f2cdf4f146100a1575b005b34801561004d57600080fd5b506100566100ce565b6040516100639190610b86565b60405180910390f35b34801561007857600080fd5b5061003f61008736600461085e565b6100d2565b34801561009857600080fd5b506100566101e2565b3480156100ad57600080fd5b506100c16100bc36600461085e565b610269565b6040516100639190610b75565b4790565b6100da610461565b600154604051631e1c28f760e31b81526001600160a01b039091169063f0e147b89061010a908590600401610b86565b60006040518083038186803b15801561012257600080fd5b505afa158015610136573d6000803e3d6000fd5b505050506040513d6000823e601f3d908101601f1916820160405261015e9190810190610829565b905060005b8160600151518110156101dd5760008260600151828151811061018257fe5b6020026020010151905060008360800151838151811061019e57fe5b6020026020010151905060608460a0015184815181106101ba57fe5b602002602001015190506101cf838383610304565b505050806001019050610163565b505050565b600080546040516370a0823160e01b815282916001600160a01b0316906370a0823190610213903090600401610b4c565b60206040518083038186803b15801561022b57600080fd5b505afa15801561023f573d6000803e3d6000fd5b505050506040513d601f19601f82011682018060405250610263919081019061087c565b91505090565b610271610461565b610279610461565b600154604051631e1c28f760e31b81526001600160a01b039091169063f0e147b8906102a9908690600401610b86565b60006040518083038186803b1580156102c157600080fd5b505afa1580156102d5573d6000803e3d6000fd5b505050506040513d6000823e601f3d908101601f191682016040526102fd9190810190610829565b9392505050565b60408051808201909152600581526443414e544f60d81b60209182015281519082012083907fac9fb8ee1ff16cf8a1fd14f2b033007d13cc70a50a3cbd4154efb8e0b247187d141561038c576040516001600160a01b0382169084156108fc029085906000818181858888f19350505050158015610386573d6000803e3d6000fd5b5061045b565b6040805180820190915260048152634e4f544560e01b6020918201528251908301207f7343b220e6b2909c69d3adb479e1a2847c2e830def068bc249b12af112094ed5141561045b5760005460405163a9059cbb60e01b81526001600160a01b039091169063a9059cbb906104079087908790600401610b5a565b602060405180830381600087803b15801561042157600080fd5b505af1158015610435573d6000803e3d6000fd5b505050506040513d601f19601f820116820180604052506104599190810190610803565b505b50505050565b6040518060e00160405280600081526020016060815260200160608152602001606081526020016060815260200160608152602001606081525090565b80516104a981610c7d565b92915050565b600082601f8301126104c057600080fd5b81516104d36104ce82610bbb565b610b94565b915081818352602084019350602081019050838560208402820111156104f857600080fd5b60005b83811015610524578161050e888261049e565b84525060209283019291909101906001016104fb565b5050505092915050565b600082601f83011261053f57600080fd5b815161054d6104ce82610bbb565b81815260209384019390925082018360005b8381101561052457815186016105758882610663565b845250602092830192919091019060010161055f565b600082601f83011261059c57600080fd5b81516105aa6104ce82610bbb565b81815260209384019390925082018360005b8381101561052457815186016105d28882610663565b84525060209283019291909101906001016105bc565b600082601f8301126105f957600080fd5b81516106076104ce82610bbb565b9150818183526020840193506020810190508385602084028201111561062c57600080fd5b60005b83811015610524578161064288826107f8565b845250602092830192919091019060010161062f565b80516104a981610c94565b600082601f83011261067457600080fd5b81516106826104ce82610bdc565b9150808252602083016020830185838301111561069e57600080fd5b6106a9838284610c47565b50505092915050565b600060e082840312156106c457600080fd5b6106ce60e0610b94565b905060006106dc84846107f8565b825250602082015167ffffffffffffffff8111156106f957600080fd5b61070584828501610663565b602083015250604082015167ffffffffffffffff81111561072557600080fd5b61073184828501610663565b604083015250606082015167ffffffffffffffff81111561075157600080fd5b61075d848285016104af565b606083015250608082015167ffffffffffffffff81111561077d57600080fd5b610789848285016105e8565b60808301525060a082015167ffffffffffffffff8111156107a957600080fd5b6107b58482850161058b565b60a08301525060c082015167ffffffffffffffff8111156107d557600080fd5b6107e18482850161052e565b60c08301525092915050565b80356104a981610c9d565b80516104a981610c9d565b60006020828403121561081557600080fd5b60006108218484610658565b949350505050565b60006020828403121561083b57600080fd5b815167ffffffffffffffff81111561085257600080fd5b610821848285016106b2565b60006020828403121561087057600080fd5b600061082184846107ed565b60006020828403121561088e57600080fd5b600061082184846107f8565b60006108a683836108d5565b505060200190565b60006102fd8383610a54565b60006108a68383610b43565b6108cf81610c36565b82525050565b6108cf81610c17565b60006108e982610c0a565b6108f38185610c0e565b93506108fe83610c04565b8060005b8381101561092c578151610916888261089a565b975061092183610c04565b925050600101610902565b509495945050505050565b600061094282610c0a565b61094c8185610c0e565b93508360208202850161095e85610c04565b8060005b85811015610998578484038952815161097b85826108ae565b945061098683610c04565b60209a909a0199925050600101610962565b5091979650505050505050565b60006109b082610c0a565b6109ba8185610c0e565b9350836020820285016109cc85610c04565b8060005b8581101561099857848403895281516109e985826108ae565b94506109f483610c04565b60209a909a01999250506001016109d0565b6000610a1182610c0a565b610a1b8185610c0e565b9350610a2683610c04565b8060005b8381101561092c578151610a3e88826108ba565b9750610a4983610c04565b925050600101610a2a565b6000610a5f82610c0a565b610a698185610c0e565b9350610a79818560208601610c47565b610a8281610c73565b9093019392505050565b805160009060e0840190610aa08582610b43565b5060208301518482036020860152610ab88282610a54565b91505060408301518482036040860152610ad28282610a54565b91505060608301518482036060860152610aec82826108de565b91505060808301518482036080860152610b068282610a06565b91505060a083015184820360a0860152610b2082826109a5565b91505060c083015184820360c0860152610b3a8282610937565b95945050505050565b6108cf81610c33565b602081016104a982846108c6565b60408101610b6882856108d5565b6102fd6020830184610b43565b602080825281016102fd8184610a8c565b602081016104a98284610b43565b60405181810167ffffffffffffffff81118282101715610bb357600080fd5b604052919050565b600067ffffffffffffffff821115610bd257600080fd5b5060209081020190565b600067ffffffffffffffff821115610bf357600080fd5b506020601f91909101601f19160190565b60200190565b5190565b90815260200190565b60006104a982610c27565b151590565b6001600160a01b031690565b90565b60006104a98260006104a982610c17565b60005b83811015610c62578181015183820152602001610c4a565b8381111561045b5750506000910152565b601f01601f191690565b610c8681610c17565b8114610c9157600080fd5b50565b610c8681610c22565b610c8681610c3356fea365627a7a72315820325c6edf526733d9dabc9d3db87b2e9884081b87fb42cf41ba8443dd62b2b7a16c6578706572696d656e74616cf564736f6c63430005100040",
  "linkReferences": {},
  "deployedLinkReferences": {}
}