{
  "_format": "hh-sol-artifact-1",
  "contractName": "Treasury",
  "sourceName": "contracts/Treasury.sol",
  "abi": [
    {
      "inputs": [
        {
          "internalType": "address",
          "name": "unigovContractAddress",
          "type": "address"
        },
        {
          "internalType": "address",
          "name": "noteAddressERC20",
          "type": "address"
        }
      ],
      "payable": false,
      "stateMutability": "nonpayable",
      "type": "constructor"
    },
    {
      "payable": true,
      "stateMutability": "payable",
      "type": "fallback"
    },
    {
      "constant": true,
      "inputs": [
        {
          "internalType": "uint256",
          "name": "proposalID",
          "type": "uint256"
        }
      ],
      "name": "_queryProposal",
      "outputs": [
        {
          "components": [
            {
              "internalType": "uint256",
              "name": "id",
              "type": "uint256"
            },
            {
              "internalType": "string",
              "name": "title",
              "type": "string"
            },
            {
              "internalType": "string",
              "name": "desc",
              "type": "string"
            },
            {
              "internalType": "address[]",
              "name": "targets",
              "type": "address[]"
            },
            {
              "internalType": "uint256[]",
              "name": "values",
              "type": "uint256[]"
            },
            {
              "internalType": "string[]",
              "name": "signatures",
              "type": "string[]"
            },
            {
              "internalType": "bytes[]",
              "name": "calldatas",
              "type": "bytes[]"
            }
          ],
          "internalType": "struct IProposal.Proposal",
          "name": "",
          "type": "tuple"
        }
      ],
      "payable": false,
      "stateMutability": "view",
      "type": "function"
    },
    {
      "constant": false,
      "inputs": [
        {
          "internalType": "uint256",
          "name": "proposalID",
          "type": "uint256"
        }
      ],
      "name": "executeProposal",
      "outputs": [],
      "payable": false,
      "stateMutability": "nonpayable",
      "type": "function"
    },
    {
      "constant": true,
      "inputs": [],
      "name": "note",
      "outputs": [
        {
          "internalType": "contract EIP20Interface",
          "name": "",
          "type": "address"
        }
      ],
      "payable": false,
      "stateMutability": "view",
      "type": "function"
    },
    {
      "constant": true,
      "inputs": [],
      "name": "queryCantoBalance",
      "outputs": [
        {
          "internalType": "uint256",
          "name": "",
          "type": "uint256"
        }
      ],
      "payable": false,
      "stateMutability": "view",
      "type": "function"
    },
    {
      "constant": true,
      "inputs": [],
      "name": "queryNoteBalance",
      "outputs": [
        {
          "internalType": "uint256",
          "name": "",
          "type": "uint256"
        }
      ],
      "payable": false,
      "stateMutability": "view",
      "type": "function"
    },
    {
      "constant": true,
      "inputs": [],
      "name": "unigov",
      "outputs": [
        {
          "internalType": "contract IProposal",
          "name": "",
          "type": "address"
        }
      ],
      "payable": false,
      "stateMutability": "view",
      "type": "function"
    }
  ],
  "bytecode": "0x60806040523480156200001157600080fd5b506040516200172a3803806200172a833981810160405262000037919081019062000239565b816000806101000a81548173ffffffffffffffffffffffffffffffffffffffff021916908373ffffffffffffffffffffffffffffffffffffffff1602179055506000809054906101000a900473ffffffffffffffffffffffffffffffffffffffff16600260006101000a81548173ffffffffffffffffffffffffffffffffffffffff021916908373ffffffffffffffffffffffffffffffffffffffff16021790555080600160006101000a81548173ffffffffffffffffffffffffffffffffffffffff021916908373ffffffffffffffffffffffffffffffffffffffff1602179055506000600160009054906101000a900473ffffffffffffffffffffffffffffffffffffffff1673ffffffffffffffffffffffffffffffffffffffff166318160ddd6040518163ffffffff1660e01b815260040160206040518083038186803b1580156200018557600080fd5b505afa1580156200019a573d6000803e3d6000fd5b505050506040513d601f19601f82011682018060405250620001c091908101906200027a565b1162000203576040517f08c379a0000000000000000000000000000000000000000000000000000000008152600401620001fa906200030e565b60405180910390fd5b5050620003b3565b6000815190506200021c816200037f565b92915050565b600081519050620002338162000399565b92915050565b600080604083850312156200024d57600080fd5b60006200025d858286016200020b565b925050602062000270858286016200020b565b9150509250929050565b6000602082840312156200028d57600080fd5b60006200029d8482850162000222565b91505092915050565b6000620002b5602a8362000330565b91507f53616e69747920636865636b20746f206d616b6520737572652061646472657360008301527f732069732076616c6964000000000000000000000000000000000000000000006020830152604082019050919050565b600060208201905081810360008301526200032981620002a6565b9050919050565b600082825260208201905092915050565b60006200034e8262000355565b9050919050565b600073ffffffffffffffffffffffffffffffffffffffff82169050919050565b6000819050919050565b6200038a8162000341565b81146200039657600080fd5b50565b620003a48162000375565b8114620003b057600080fd5b50565b61136780620003c36000396000f3fe6080604052600436106100555760003560e01c806303cc29a5146100575780630d61b519146100825780631ce78bb2146100ab57806326d111f5146100d65780634f2cdf4f14610101578063864392181461013e575b005b34801561006357600080fd5b5061006c610169565b6040516100799190610f79565b60405180910390f35b34801561008e57600080fd5b506100a960048036036100a49190810190610af3565b610176565b005b3480156100b757600080fd5b506100c06102b5565b6040516100cd9190610f79565b60405180910390f35b3480156100e257600080fd5b506100eb61036c565b6040516100f89190610f21565b60405180910390f35b34801561010d57600080fd5b5061012860048036036101239190810190610af3565b610392565b6040516101359190610f57565b60405180910390f35b34801561014a57600080fd5b5061015361045d565b6040516101609190610f3c565b60405180910390f35b6000804790508091505090565b61017e610622565b600260009054906101000a900473ffffffffffffffffffffffffffffffffffffffff1673ffffffffffffffffffffffffffffffffffffffff1663f0e147b8836040518263ffffffff1660e01b81526004016101d99190610f79565b60006040518083038186803b1580156101f157600080fd5b505afa158015610205573d6000803e3d6000fd5b505050506040513d6000823e3d601f19601f8201168201806040525061022e9190810190610ab2565b905060008090505b8160600151518110156102b05760008260600151828151811061025557fe5b6020026020010151905060008360800151838151811061027157fe5b6020026020010151905060608460a00151848151811061028d57fe5b602002602001015190506102a2838383610483565b505050806001019050610236565b505050565b600080600160009054906101000a900473ffffffffffffffffffffffffffffffffffffffff1673ffffffffffffffffffffffffffffffffffffffff166370a08231306040518263ffffffff1660e01b81526004016103139190610edd565b60206040518083038186803b15801561032b57600080fd5b505afa15801561033f573d6000803e3d6000fd5b505050506040513d601f19601f820116820180604052506103639190810190610b1c565b90508091505090565b600160009054906101000a900473ffffffffffffffffffffffffffffffffffffffff1681565b61039a610622565b6103a2610622565b600260009054906101000a900473ffffffffffffffffffffffffffffffffffffffff1673ffffffffffffffffffffffffffffffffffffffff1663f0e147b8846040518263ffffffff1660e01b81526004016103fd9190610f79565b60006040518083038186803b15801561041557600080fd5b505afa158015610429573d6000803e3d6000fd5b505050506040513d6000823e3d601f19601f820116820180604052506104529190810190610ab2565b905080915050919050565b600260009054906101000a900473ffffffffffffffffffffffffffffffffffffffff1681565b60008390506040518060400160405280600581526020017f43414e544f000000000000000000000000000000000000000000000000000000815250805190602001208280519060200120141561051f578073ffffffffffffffffffffffffffffffffffffffff166108fc849081150290604051600060405180830381858888f19350505050158015610519573d6000803e3d6000fd5b5061061c565b6040518060400160405280600481526020017f4e4f544500000000000000000000000000000000000000000000000000000000815250805190602001208280519060200120141561061b57600160009054906101000a900473ffffffffffffffffffffffffffffffffffffffff1673ffffffffffffffffffffffffffffffffffffffff1663a9059cbb85856040518363ffffffff1660e01b81526004016105c7929190610ef8565b602060405180830381600087803b1580156105e157600080fd5b505af11580156105f5573d6000803e3d6000fd5b505050506040513d601f19601f820116820180604052506106199190810190610a89565b505b5b50505050565b6040518060e00160405280600081526020016060815260200160608152602001606081526020016060815260200160608152602001606081525090565b60008151905061066e816112df565b92915050565b600082601f83011261068557600080fd5b815161069861069382610fc1565b610f94565b915081818352602084019350602081019050838560208402820111156106bd57600080fd5b60005b838110156106ed57816106d3888261065f565b8452602084019350602083019250506001810190506106c0565b5050505092915050565b600082601f83011261070857600080fd5b815161071b61071682610fe9565b610f94565b9150818183526020840193506020810190508360005b8381101561076157815186016107478882610877565b845260208401935060208301925050600181019050610731565b5050505092915050565b600082601f83011261077c57600080fd5b815161078f61078a82611011565b610f94565b9150818183526020840193506020810190508360005b838110156107d557815186016107bb88826108cb565b8452602084019350602083019250506001810190506107a5565b5050505092915050565b600082601f8301126107f057600080fd5b81516108036107fe82611039565b610f94565b9150818183526020840193506020810190508385602084028201111561082857600080fd5b60005b83811015610858578161083e8882610a74565b84526020840193506020830192505060018101905061082b565b5050505092915050565b600081519050610871816112f6565b92915050565b600082601f83011261088857600080fd5b815161089b61089682611061565b610f94565b915080825260208301602083018583830111156108b757600080fd5b6108c283828461129b565b50505092915050565b600082601f8301126108dc57600080fd5b81516108ef6108ea8261108d565b610f94565b9150808252602083016020830185838301111561090b57600080fd5b61091683828461129b565b50505092915050565b600060e0828403121561093157600080fd5b61093b60e0610f94565b9050600061094b84828501610a74565b600083015250602082015167ffffffffffffffff81111561096b57600080fd5b610977848285016108cb565b602083015250604082015167ffffffffffffffff81111561099757600080fd5b6109a3848285016108cb565b604083015250606082015167ffffffffffffffff8111156109c357600080fd5b6109cf84828501610674565b606083015250608082015167ffffffffffffffff8111156109ef57600080fd5b6109fb848285016107df565b60808301525060a082015167ffffffffffffffff811115610a1b57600080fd5b610a278482850161076b565b60a08301525060c082015167ffffffffffffffff811115610a4757600080fd5b610a53848285016106f7565b60c08301525092915050565b600081359050610a6e8161130d565b92915050565b600081519050610a838161130d565b92915050565b600060208284031215610a9b57600080fd5b6000610aa984828501610862565b91505092915050565b600060208284031215610ac457600080fd5b600082015167ffffffffffffffff811115610ade57600080fd5b610aea8482850161091f565b91505092915050565b600060208284031215610b0557600080fd5b6000610b1384828501610a5f565b91505092915050565b600060208284031215610b2e57600080fd5b6000610b3c84828501610a74565b91505092915050565b6000610b518383610bac565b60208301905092915050565b6000610b698383610d70565b905092915050565b6000610b7d8383610dc7565b905092915050565b6000610b918383610ebf565b60208301905092915050565b610ba68161121d565b82525050565b610bb5816111d5565b82525050565b610bc4816111d5565b82525050565b6000610bd5826110f9565b610bdf818561116f565b9350610bea836110b9565b8060005b83811015610c1b578151610c028882610b45565b9750610c0d8361113b565b925050600181019050610bee565b5085935050505092915050565b6000610c3382611104565b610c3d8185611180565b935083602082028501610c4f856110c9565b8060005b85811015610c8b5784840389528151610c6c8582610b5d565b9450610c7783611148565b925060208a01995050600181019050610c53565b50829750879550505050505092915050565b6000610ca88261110f565b610cb28185611191565b935083602082028501610cc4856110d9565b8060005b85811015610d005784840389528151610ce18582610b71565b9450610cec83611155565b925060208a01995050600181019050610cc8565b50829750879550505050505092915050565b6000610d1d8261111a565b610d2781856111a2565b9350610d32836110e9565b8060005b83811015610d63578151610d4a8882610b85565b9750610d5583611162565b925050600181019050610d36565b5085935050505092915050565b6000610d7b82611125565b610d8581856111b3565b9350610d9581856020860161129b565b610d9e816112ce565b840191505092915050565b610db28161122f565b82525050565b610dc181611253565b82525050565b6000610dd282611130565b610ddc81856111c4565b9350610dec81856020860161129b565b610df5816112ce565b840191505092915050565b600060e083016000830151610e186000860182610ebf565b5060208301518482036020860152610e308282610dc7565b91505060408301518482036040860152610e4a8282610dc7565b91505060608301518482036060860152610e648282610bca565b91505060808301518482036080860152610e7e8282610d12565b91505060a083015184820360a0860152610e988282610c9d565b91505060c083015184820360c0860152610eb28282610c28565b9150508091505092915050565b610ec881611213565b82525050565b610ed781611213565b82525050565b6000602082019050610ef26000830184610b9d565b92915050565b6000604082019050610f0d6000830185610bbb565b610f1a6020830184610ece565b9392505050565b6000602082019050610f366000830184610da9565b92915050565b6000602082019050610f516000830184610db8565b92915050565b60006020820190508181036000830152610f718184610e00565b905092915050565b6000602082019050610f8e6000830184610ece565b92915050565b6000604051905081810181811067ffffffffffffffff82111715610fb757600080fd5b8060405250919050565b600067ffffffffffffffff821115610fd857600080fd5b602082029050602081019050919050565b600067ffffffffffffffff82111561100057600080fd5b602082029050602081019050919050565b600067ffffffffffffffff82111561102857600080fd5b602082029050602081019050919050565b600067ffffffffffffffff82111561105057600080fd5b602082029050602081019050919050565b600067ffffffffffffffff82111561107857600080fd5b601f19601f8301169050602081019050919050565b600067ffffffffffffffff8211156110a457600080fd5b601f19601f8301169050602081019050919050565b6000819050602082019050919050565b6000819050602082019050919050565b6000819050602082019050919050565b6000819050602082019050919050565b600081519050919050565b600081519050919050565b600081519050919050565b600081519050919050565b600081519050919050565b600081519050919050565b6000602082019050919050565b6000602082019050919050565b6000602082019050919050565b6000602082019050919050565b600082825260208201905092915050565b600082825260208201905092915050565b600082825260208201905092915050565b600082825260208201905092915050565b600082825260208201905092915050565b600082825260208201905092915050565b60006111e0826111f3565b9050919050565b60008115159050919050565b600073ffffffffffffffffffffffffffffffffffffffff82169050919050565b6000819050919050565b600061122882611277565b9050919050565b600061123a82611241565b9050919050565b600061124c826111f3565b9050919050565b600061125e82611265565b9050919050565b6000611270826111f3565b9050919050565b600061128282611289565b9050919050565b6000611294826111f3565b9050919050565b60005b838110156112b957808201518184015260208101905061129e565b838111156112c8576000848401525b50505050565b6000601f19601f8301169050919050565b6112e8816111d5565b81146112f357600080fd5b50565b6112ff816111e7565b811461130a57600080fd5b50565b61131681611213565b811461132157600080fd5b5056fea365627a7a723158204bde2008b86700b23dd645387d912d1069dcefd2a7140a533ca18e39d9ef43eb6c6578706572696d656e74616cf564736f6c63430005100040",
  "linkReferences": {},
  "deployedLinkReferences": {}
}