{
  "_format": "hh-sol-artifact-1",
  "contractName": "Treasury",
  "sourceName": "contracts/Treasury.sol",
  "abi": [
    {
      "inputs": [
        {
          "internalType": "address",
          "name": "unigovContractAddress",
          "type": "address"
        },
        {
          "internalType": "address",
          "name": "noteAddressERC20",
          "type": "address"
        }
      ],
      "payable": false,
      "stateMutability": "nonpayable",
      "type": "constructor"
    },
    {
      "payable": true,
      "stateMutability": "payable",
      "type": "fallback"
    },
    {
      "constant": true,
      "inputs": [
        {
          "internalType": "uint256",
          "name": "proposalID",
          "type": "uint256"
        }
      ],
      "name": "_queryProposal",
      "outputs": [
        {
          "components": [
            {
              "internalType": "uint256",
              "name": "id",
              "type": "uint256"
            },
            {
              "internalType": "string",
              "name": "title",
              "type": "string"
            },
            {
              "internalType": "string",
              "name": "desc",
              "type": "string"
            },
            {
              "internalType": "address[]",
              "name": "targets",
              "type": "address[]"
            },
            {
              "internalType": "uint256[]",
              "name": "values",
              "type": "uint256[]"
            },
            {
              "internalType": "string[]",
              "name": "signatures",
              "type": "string[]"
            },
            {
              "internalType": "bytes[]",
              "name": "calldatas",
              "type": "bytes[]"
            }
          ],
          "internalType": "struct IProposal.Proposal",
          "name": "",
          "type": "tuple"
        }
      ],
      "payable": false,
      "stateMutability": "view",
      "type": "function"
    },
    {
      "constant": false,
      "inputs": [
        {
          "internalType": "uint256",
          "name": "proposalID",
          "type": "uint256"
        }
      ],
      "name": "executeProposal",
      "outputs": [],
      "payable": false,
      "stateMutability": "nonpayable",
      "type": "function"
    },
    {
      "constant": true,
      "inputs": [],
      "name": "note",
      "outputs": [
        {
          "internalType": "contract EIP20Interface",
          "name": "",
          "type": "address"
        }
      ],
      "payable": false,
      "stateMutability": "view",
      "type": "function"
    },
    {
      "constant": true,
      "inputs": [],
      "name": "queryCantoBalance",
      "outputs": [
        {
          "internalType": "uint256",
          "name": "",
          "type": "uint256"
        }
      ],
      "payable": false,
      "stateMutability": "view",
      "type": "function"
    },
    {
      "constant": true,
      "inputs": [],
      "name": "queryNoteBalance",
      "outputs": [
        {
          "internalType": "uint256",
          "name": "",
          "type": "uint256"
        }
      ],
      "payable": false,
      "stateMutability": "view",
      "type": "function"
    },
    {
      "constant": true,
      "inputs": [],
      "name": "unigov",
      "outputs": [
        {
          "internalType": "contract IProposal",
          "name": "",
          "type": "address"
        }
      ],
      "payable": false,
      "stateMutability": "view",
      "type": "function"
    }
  ],
  "bytecode": "0x60806040523480156200001157600080fd5b5060405162000fc638038062000fc683398101604081905262000034916200013b565b600080546001600160a01b038085166001600160a01b0319928316178084556002805484169183169190911790556001805485831693169290921791829055604080516318160ddd60e01b8152905192909116916318160ddd91600480820192602092909190829003018186803b158015620000af57600080fd5b505afa158015620000c4573d6000803e3d6000fd5b505050506040513d601f19601f82011682018060405250620000ea91908101906200017a565b11620001135760405162461bcd60e51b81526004016200010a90620001f1565b60405180910390fd5b505062000246565b8051620001288162000221565b92915050565b805162000128816200023b565b600080604083850312156200014f57600080fd5b60006200015d85856200011b565b925050602062000170858286016200011b565b9150509250929050565b6000602082840312156200018d57600080fd5b60006200019b84846200012e565b949350505050565b6000620001b2602a8362000203565b7f53616e69747920636865636b20746f206d616b652073757265206164647265738152691cc81a5cc81d985b1a5960b21b602082015260400192915050565b602080825281016200012881620001a3565b90815260200190565b60006001600160a01b03821662000128565b90565b6200022c816200020c565b81146200023857600080fd5b50565b6200022c816200021e565b610d7080620002566000396000f3fe6080604052600436106100555760003560e01c806303cc29a5146100575780630d61b519146100825780631ce78bb2146100a257806326d111f5146100b75780634f2cdf4f146100d95780638643921814610106575b005b34801561006357600080fd5b5061006c61011b565b6040516100799190610c0c565b60405180910390f35b34801561008e57600080fd5b5061005561009d3660046108cd565b61011f565b3480156100ae57600080fd5b5061006c61022f565b3480156100c357600080fd5b506100cc6102ba565b6040516100799190610bed565b3480156100e557600080fd5b506100f96100f43660046108cd565b6102c9565b6040516100799190610bfb565b34801561011257600080fd5b506100cc610364565b4790565b6101276104d0565b600254604051631e1c28f760e31b81526001600160a01b039091169063f0e147b890610157908590600401610c0c565b60006040518083038186803b15801561016f57600080fd5b505afa158015610183573d6000803e3d6000fd5b505050506040513d6000823e601f3d908101601f191682016040526101ab9190810190610898565b905060005b81606001515181101561022a576000826060015182815181106101cf57fe5b602002602001015190506000836080015183815181106101eb57fe5b6020026020010151905060608460a00151848151811061020757fe5b6020026020010151905061021c838383610373565b5050508060010190506101b0565b505050565b6001546040516370a0823160e01b815260009182916001600160a01b03909116906370a0823190610264903090600401610bc4565b60206040518083038186803b15801561027c57600080fd5b505afa158015610290573d6000803e3d6000fd5b505050506040513d601f19601f820116820180604052506102b491908101906108eb565b91505090565b6001546001600160a01b031681565b6102d16104d0565b6102d96104d0565b600254604051631e1c28f760e31b81526001600160a01b039091169063f0e147b890610309908690600401610c0c565b60006040518083038186803b15801561032157600080fd5b505afa158015610335573d6000803e3d6000fd5b505050506040513d6000823e601f3d908101601f1916820160405261035d9190810190610898565b9392505050565b6002546001600160a01b031681565b60408051808201909152600581526443414e544f60d81b60209182015281519082012083907fac9fb8ee1ff16cf8a1fd14f2b033007d13cc70a50a3cbd4154efb8e0b247187d14156103fb576040516001600160a01b0382169084156108fc029085906000818181858888f193505050501580156103f5573d6000803e3d6000fd5b506104ca565b6040805180820190915260048152634e4f544560e01b6020918201528251908301207f7343b220e6b2909c69d3adb479e1a2847c2e830def068bc249b12af112094ed514156104ca5760015460405163a9059cbb60e01b81526001600160a01b039091169063a9059cbb906104769087908790600401610bd2565b602060405180830381600087803b15801561049057600080fd5b505af11580156104a4573d6000803e3d6000fd5b505050506040513d601f19601f820116820180604052506104c89190810190610872565b505b50505050565b6040518060e00160405280600081526020016060815260200160608152602001606081526020016060815260200160608152602001606081525090565b805161051881610d04565b92915050565b600082601f83011261052f57600080fd5b815161054261053d82610c41565b610c1a565b9150818183526020840193506020810190508385602084028201111561056757600080fd5b60005b83811015610593578161057d888261050d565b845250602092830192919091019060010161056a565b5050505092915050565b600082601f8301126105ae57600080fd5b81516105bc61053d82610c41565b81815260209384019390925082018360005b8381101561059357815186016105e488826106d2565b84525060209283019291909101906001016105ce565b600082601f83011261060b57600080fd5b815161061961053d82610c41565b81815260209384019390925082018360005b83811015610593578151860161064188826106d2565b845250602092830192919091019060010161062b565b600082601f83011261066857600080fd5b815161067661053d82610c41565b9150818183526020840193506020810190508385602084028201111561069b57600080fd5b60005b8381101561059357816106b18882610867565b845250602092830192919091019060010161069e565b805161051881610d1b565b600082601f8301126106e357600080fd5b81516106f161053d82610c62565b9150808252602083016020830185838301111561070d57600080fd5b610718838284610cce565b50505092915050565b600060e0828403121561073357600080fd5b61073d60e0610c1a565b9050600061074b8484610867565b825250602082015167ffffffffffffffff81111561076857600080fd5b610774848285016106d2565b602083015250604082015167ffffffffffffffff81111561079457600080fd5b6107a0848285016106d2565b604083015250606082015167ffffffffffffffff8111156107c057600080fd5b6107cc8482850161051e565b606083015250608082015167ffffffffffffffff8111156107ec57600080fd5b6107f884828501610657565b60808301525060a082015167ffffffffffffffff81111561081857600080fd5b610824848285016105fa565b60a08301525060c082015167ffffffffffffffff81111561084457600080fd5b6108508482850161059d565b60c08301525092915050565b803561051881610d24565b805161051881610d24565b60006020828403121561088457600080fd5b600061089084846106c7565b949350505050565b6000602082840312156108aa57600080fd5b815167ffffffffffffffff8111156108c157600080fd5b61089084828501610721565b6000602082840312156108df57600080fd5b6000610890848461085c565b6000602082840312156108fd57600080fd5b60006108908484610867565b60006109158383610944565b505060200190565b600061035d8383610ac3565b60006109158383610bbb565b61093e81610cbc565b82525050565b61093e81610c9d565b600061095882610c90565b6109628185610c94565b935061096d83610c8a565b8060005b8381101561099b5781516109858882610909565b975061099083610c8a565b925050600101610971565b509495945050505050565b60006109b182610c90565b6109bb8185610c94565b9350836020820285016109cd85610c8a565b8060005b85811015610a0757848403895281516109ea858261091d565b94506109f583610c8a565b60209a909a01999250506001016109d1565b5091979650505050505050565b6000610a1f82610c90565b610a298185610c94565b935083602082028501610a3b85610c8a565b8060005b85811015610a075784840389528151610a58858261091d565b9450610a6383610c8a565b60209a909a0199925050600101610a3f565b6000610a8082610c90565b610a8a8185610c94565b9350610a9583610c8a565b8060005b8381101561099b578151610aad8882610929565b9750610ab883610c8a565b925050600101610a99565b6000610ace82610c90565b610ad88185610c94565b9350610ae8818560208601610cce565b610af181610cfa565b9093019392505050565b61093e81610cc3565b805160009060e0840190610b188582610bbb565b5060208301518482036020860152610b308282610ac3565b91505060408301518482036040860152610b4a8282610ac3565b91505060608301518482036060860152610b64828261094d565b91505060808301518482036080860152610b7e8282610a75565b91505060a083015184820360a0860152610b988282610a14565b91505060c083015184820360c0860152610bb282826109a6565b95945050505050565b61093e81610cb9565b602081016105188284610935565b60408101610be08285610944565b61035d6020830184610bbb565b602081016105188284610afb565b6020808252810161035d8184610b04565b602081016105188284610bbb565b60405181810167ffffffffffffffff81118282101715610c3957600080fd5b604052919050565b600067ffffffffffffffff821115610c5857600080fd5b5060209081020190565b600067ffffffffffffffff821115610c7957600080fd5b506020601f91909101601f19160190565b60200190565b5190565b90815260200190565b600061051882610cad565b151590565b6001600160a01b031690565b90565b6000610518825b600061051882610c9d565b60005b83811015610ce9578181015183820152602001610cd1565b838111156104ca5750506000910152565b601f01601f191690565b610d0d81610c9d565b8114610d1857600080fd5b50565b610d0d81610ca8565b610d0d81610cb956fea365627a7a72315820b2269f53a759052b9624f0856c53de5c30cb3789e4099391c457a59d46c739106c6578706572696d656e74616cf564736f6c63430005100040",
  "linkReferences": {},
  "deployedLinkReferences": {}
}