{
  "_format": "hh-sol-artifact-1",
  "contractName": "WCanto",
  "sourceName": "contracts/WCanto.sol",
  "abi": [
    {
      "inputs": [
        {
          "internalType": "string",
          "name": "name_",
          "type": "string"
        },
        {
          "internalType": "string",
          "name": "symbol_",
          "type": "string"
        }
      ],
      "payable": false,
      "stateMutability": "nonpayable",
      "type": "constructor"
    },
    {
      "anonymous": false,
      "inputs": [
        {
          "indexed": true,
          "internalType": "address",
          "name": "src",
          "type": "address"
        },
        {
          "indexed": true,
          "internalType": "address",
          "name": "guy",
          "type": "address"
        },
        {
          "indexed": false,
          "internalType": "uint256",
          "name": "wad",
          "type": "uint256"
        }
      ],
      "name": "Approval",
      "type": "event"
    },
    {
      "anonymous": false,
      "inputs": [
        {
          "indexed": true,
          "internalType": "address",
          "name": "src",
          "type": "address"
        },
        {
          "indexed": true,
          "internalType": "address",
          "name": "dst",
          "type": "address"
        },
        {
          "indexed": false,
          "internalType": "uint256",
          "name": "wad",
          "type": "uint256"
        }
      ],
      "name": "Transfer",
      "type": "event"
    },
    {
      "payable": true,
      "stateMutability": "payable",
      "type": "fallback"
    },
    {
      "constant": true,
      "inputs": [
        {
          "internalType": "address",
          "name": "",
          "type": "address"
        },
        {
          "internalType": "address",
          "name": "",
          "type": "address"
        }
      ],
      "name": "_allowance",
      "outputs": [
        {
          "internalType": "uint256",
          "name": "",
          "type": "uint256"
        }
      ],
      "payable": false,
      "stateMutability": "view",
      "type": "function"
    },
    {
      "constant": true,
      "inputs": [
        {
          "internalType": "address",
          "name": "",
          "type": "address"
        }
      ],
      "name": "_balanceOf",
      "outputs": [
        {
          "internalType": "uint256",
          "name": "",
          "type": "uint256"
        }
      ],
      "payable": false,
      "stateMutability": "view",
      "type": "function"
    },
    {
      "constant": true,
      "inputs": [
        {
          "internalType": "address",
          "name": "owner",
          "type": "address"
        },
        {
          "internalType": "address",
          "name": "spender",
          "type": "address"
        }
      ],
      "name": "allowance",
      "outputs": [
        {
          "internalType": "uint256",
          "name": "",
          "type": "uint256"
        }
      ],
      "payable": false,
      "stateMutability": "view",
      "type": "function"
    },
    {
      "constant": false,
      "inputs": [
        {
          "internalType": "address",
          "name": "guy",
          "type": "address"
        },
        {
          "internalType": "uint256",
          "name": "wad",
          "type": "uint256"
        }
      ],
      "name": "approve",
      "outputs": [
        {
          "internalType": "bool",
          "name": "",
          "type": "bool"
        }
      ],
      "payable": false,
      "stateMutability": "nonpayable",
      "type": "function"
    },
    {
      "constant": false,
      "inputs": [
        {
          "internalType": "address",
          "name": "owner",
          "type": "address"
        },
        {
          "internalType": "address",
          "name": "spender",
          "type": "address"
        }
      ],
      "name": "approve",
      "outputs": [
        {
          "internalType": "bool",
          "name": "",
          "type": "bool"
        }
      ],
      "payable": false,
      "stateMutability": "nonpayable",
      "type": "function"
    },
    {
      "constant": true,
      "inputs": [
        {
          "internalType": "address",
          "name": "owner",
          "type": "address"
        }
      ],
      "name": "balanceOf",
      "outputs": [
        {
          "internalType": "uint256",
          "name": "",
          "type": "uint256"
        }
      ],
      "payable": false,
      "stateMutability": "view",
      "type": "function"
    },
    {
      "constant": true,
      "inputs": [],
      "name": "decimals",
      "outputs": [
        {
          "internalType": "uint8",
          "name": "",
          "type": "uint8"
        }
      ],
      "payable": false,
      "stateMutability": "view",
      "type": "function"
    },
    {
      "constant": false,
      "inputs": [],
      "name": "deposit",
      "outputs": [],
      "payable": true,
      "stateMutability": "payable",
      "type": "function"
    },
    {
      "constant": true,
      "inputs": [],
      "name": "name",
      "outputs": [
        {
          "internalType": "string",
          "name": "",
          "type": "string"
        }
      ],
      "payable": false,
      "stateMutability": "view",
      "type": "function"
    },
    {
      "constant": true,
      "inputs": [],
      "name": "symbol",
      "outputs": [
        {
          "internalType": "string",
          "name": "",
          "type": "string"
        }
      ],
      "payable": false,
      "stateMutability": "view",
      "type": "function"
    },
    {
      "constant": true,
      "inputs": [],
      "name": "totalSupply",
      "outputs": [
        {
          "internalType": "uint256",
          "name": "",
          "type": "uint256"
        }
      ],
      "payable": false,
      "stateMutability": "view",
      "type": "function"
    },
    {
      "constant": false,
      "inputs": [
        {
          "internalType": "address",
          "name": "dst",
          "type": "address"
        },
        {
          "internalType": "uint256",
          "name": "wad",
          "type": "uint256"
        }
      ],
      "name": "transfer",
      "outputs": [
        {
          "internalType": "bool",
          "name": "",
          "type": "bool"
        }
      ],
      "payable": false,
      "stateMutability": "nonpayable",
      "type": "function"
    },
    {
      "constant": false,
      "inputs": [
        {
          "internalType": "address",
          "name": "src",
          "type": "address"
        },
        {
          "internalType": "address",
          "name": "dst",
          "type": "address"
        },
        {
          "internalType": "uint256",
          "name": "wad",
          "type": "uint256"
        }
      ],
      "name": "transferFrom",
      "outputs": [
        {
          "internalType": "bool",
          "name": "",
          "type": "bool"
        }
      ],
      "payable": false,
      "stateMutability": "nonpayable",
      "type": "function"
    },
    {
      "constant": false,
      "inputs": [
        {
          "internalType": "uint256",
          "name": "wad",
          "type": "uint256"
        }
      ],
      "name": "withdraw",
      "outputs": [],
      "payable": false,
      "stateMutability": "nonpayable",
      "type": "function"
    }
  ],
  "bytecode": "0x60806040526002805460ff1916601217905534801561001d57600080fd5b5060405162000b9638038062000b968339818101604052604081101561004257600080fd5b810190808051604051939291908464010000000082111561006257600080fd5b90830190602082018581111561007757600080fd5b825164010000000081118282018810171561009157600080fd5b82525081516020918201929091019080838360005b838110156100be5781810151838201526020016100a6565b50505050905090810190601f1680156100eb5780820380516001836020036101000a031916815260200191505b506040526020018051604051939291908464010000000082111561010e57600080fd5b90830190602082018581111561012357600080fd5b825164010000000081118282018810171561013d57600080fd5b82525081516020918201929091019080838360005b8381101561016a578181015183820152602001610152565b50505050905090810190601f1680156101975780820380516001836020036101000a031916815260200191505b50604052505082516101b1915060009060208501906101cd565b5080516101c59060019060208401906101cd565b505050610268565b828054600181600116156101000203166002900490600052602060002090601f016020900481019282601f1061020e57805160ff191683800117855561023b565b8280016001018555821561023b579182015b8281111561023b578251825591602001919060010190610220565b5061024792915061024b565b5090565b61026591905b808211156102475760008155600101610251565b90565b61091e80620002786000396000f3fe6080604052600436106100dd5760003560e01c80637e5465ba1161007f578063cca3e83211610059578063cca3e83214610339578063d0e30db0146100dd578063dd336c121461036c578063dd62ed3e146103a7576100dd565b80637e5465ba146102b057806395d89b41146102eb578063a9059cbb14610300576100dd565b806323b872dd116100bb57806323b872dd146101e55780632e1a7d4d14610228578063313ce5671461025257806370a082311461027d576100dd565b806306fdde03146100e7578063095ea7b31461017157806318160ddd146101be575b6100e56103e2565b005b3480156100f357600080fd5b506100fc6103f9565b6040805160208082528351818301528351919283929083019185019080838360005b8381101561013657818101518382015260200161011e565b50505050905090810190601f1680156101635780820380516001836020036101000a031916815260200191505b509250505060405180910390f35b34801561017d57600080fd5b506101aa6004803603604081101561019457600080fd5b506001600160a01b03813516906020013561048f565b604080519115158252519081900360200190f35b3480156101ca57600080fd5b506101d36104f5565b60408051918252519081900360200190f35b3480156101f157600080fd5b506101aa6004803603606081101561020857600080fd5b506001600160a01b03813581169160208101359091169060400135610508565b34801561023457600080fd5b506100e56004803603602081101561024b57600080fd5b503561063c565b34801561025e57600080fd5b5061026761069b565b6040805160ff9092168252519081900360200190f35b34801561028957600080fd5b506101d3600480360360208110156102a057600080fd5b50356001600160a01b03166106a4565b3480156102bc57600080fd5b506101aa600480360360408110156102d357600080fd5b506001600160a01b03813581169160200135166106bf565b3480156102f757600080fd5b506100fc6106ee565b34801561030c57600080fd5b506101aa6004803603604081101561032357600080fd5b506001600160a01b03813516906020013561074e565b34801561034557600080fd5b506101d36004803603602081101561035c57600080fd5b50356001600160a01b0316610762565b34801561037857600080fd5b506101d36004803603604081101561038f57600080fd5b506001600160a01b0381358116916020013516610774565b3480156103b357600080fd5b506101d3600480360360408110156103ca57600080fd5b506001600160a01b0381358116916020013516610791565b336000908152600360205260409020805434019055565b60008054604080516020601f60026000196101006001881615020190951694909404938401819004810282018101909252828152606093909290918301828280156104855780601f1061045a57610100808354040283529160200191610485565b820191906000526020600020905b81548152906001019060200180831161046857829003601f168201915b5050505050905090565b3360008181526004602090815260408083206001600160a01b038716808552908352818420869055815186815291519394909390927f8c5be1e5ebec7d5bd14f71427d1e84f3dd0314c0f7b2291e5b200ac8c7c3b925928290030190a350600192915050565b3060009081526003602052604090205490565b6001600160a01b03831660009081526003602052604081205482111561052d57600080fd5b6001600160a01b038416331480159061056b57506001600160a01b038416600090815260046020908152604080832033845290915290205460001914155b156105cb576001600160a01b03841660009081526004602090815260408083203384529091529020548211156105a057600080fd5b6001600160a01b03841660009081526004602090815260408083203384529091529020805483900390555b6001600160a01b03808516600081815260036020908152604080832080548890039055938716808352918490208054870190558351868152935191937fddf252ad1be2c89b69c2b068fc378daa952ba7f163c4a11628f55a4df523b3ef929081900390910190a35060019392505050565b3360009081526003602052604090205481111561065857600080fd5b33600081815260036020526040808220805485900390555183156108fc0291849190818181858888f19350505050158015610697573d6000803e3d6000fd5b5050565b60025460ff1690565b6001600160a01b031660009081526003602052604090205490565b6001600160a01b0382166000908152600360205260408120546106e590849084906107b7565b50600192915050565b60018054604080516020601f600260001961010087891615020190951694909404938401819004810282018101909252828152606093909290918301828280156104855780601f1061045a57610100808354040283529160200191610485565b600061075b338484610508565b9392505050565b60036020526000908152604090205481565b600460209081526000928352604080842090915290825290205481565b6001600160a01b0391821660009081526004602090815260408220929093168152915290565b6001600160a01b0383166107fc5760405162461bcd60e51b81526004018080602001828103825260248152602001806108c66024913960400191505060405180910390fd5b6001600160a01b0382166108415760405162461bcd60e51b81526004018080602001828103825260228152602001806108a46022913960400191505060405180910390fd5b6001600160a01b03808416600081815260046020908152604080832094871680845294825291829020859055815185815291517f8c5be1e5ebec7d5bd14f71427d1e84f3dd0314c0f7b2291e5b200ac8c7c3b9259281900390910190a350505056fe45524332303a20617070726f766520746f20746865207a65726f206164647265737345524332303a20617070726f76652066726f6d20746865207a65726f2061646472657373a265627a7a72315820fbe2276e45646039cbde5b25811b3f123ebe6eb8b6ca46d17cc29212350120a464736f6c63430005100032",
  "linkReferences": {},
  "deployedLinkReferences": {}
}