{
  "_format": "hh-sol-artifact-1",
  "contractName": "Accountant",
  "sourceName": "contracts/Accounting.sol",
  "abi": [
    {
      "inputs": [
        {
          "internalType": "address",
          "name": "NoteAddress",
          "type": "address"
        },
        {
          "internalType": "address",
          "name": "LendingMarketAddr",
          "type": "address"
        },
        {
          "internalType": "address",
          "name": "Treasury_",
          "type": "address"
        }
      ],
      "payable": false,
      "stateMutability": "nonpayable",
      "type": "constructor"
    },
    {
      "anonymous": false,
      "inputs": [
        {
          "indexed": false,
          "internalType": "uint256",
          "name": "error",
          "type": "uint256"
        },
        {
          "indexed": false,
          "internalType": "uint256",
          "name": "info",
          "type": "uint256"
        },
        {
          "indexed": false,
          "internalType": "uint256",
          "name": "detail",
          "type": "uint256"
        }
      ],
      "name": "Failure",
      "type": "event"
    },
    {
      "payable": true,
      "stateMutability": "payable",
      "type": "fallback"
    },
    {
      "constant": false,
      "inputs": [
        {
          "internalType": "uint256",
          "name": "amount",
          "type": "uint256"
        },
        {
          "internalType": "address",
          "name": "minter",
          "type": "address"
        }
      ],
      "name": "redeemMarket",
      "outputs": [
        {
          "internalType": "uint256",
          "name": "",
          "type": "uint256"
        }
      ],
      "payable": false,
      "stateMutability": "nonpayable",
      "type": "function"
    },
    {
      "constant": false,
      "inputs": [
        {
          "internalType": "uint256",
          "name": "amount",
          "type": "uint256"
        },
        {
          "internalType": "address",
          "name": "borrower",
          "type": "address"
        }
      ],
      "name": "supplyMarket",
      "outputs": [
        {
          "internalType": "uint256",
          "name": "",
          "type": "uint256"
        }
      ],
      "payable": false,
      "stateMutability": "nonpayable",
      "type": "function"
    },
    {
      "constant": false,
      "inputs": [],
      "name": "sweepInterest",
      "outputs": [
        {
          "internalType": "uint256",
          "name": "",
          "type": "uint256"
        }
      ],
      "payable": false,
      "stateMutability": "nonpayable",
      "type": "function"
    },
    {
      "constant": true,
      "inputs": [
        {
          "internalType": "address",
          "name": "borrower",
          "type": "address"
        }
      ],
      "name": "viewBalance",
      "outputs": [
        {
          "internalType": "uint256",
          "name": "",
          "type": "uint256"
        }
      ],
      "payable": false,
      "stateMutability": "view",
      "type": "function"
    }
  ],
  "bytecode": "0x608060405234801561001057600080fd5b50604051610af8380380610af88339818101604052606081101561003357600080fd5b50805160208201516040909201519091906001600160a01b03821661005757600080fd5b6001600160a01b03811661006a57600080fd5b600080546001600160a01b038086166001600160a01b0319928316178355600180548683169316929092179182905560408051635fe3b56760e01b815290519290911691635fe3b56791600480820192602092909190829003018186803b1580156100d457600080fd5b505afa1580156100e8573d6000803e3d6000fd5b505050506040513d60208110156100fe57600080fd5b50516040805160018082528183019092529192506060919060208083019080388339505060015482519293506001600160a01b03169183915060009061014057fe5b6001600160a01b03928316602091820292909201810191909152604051631853304760e31b81526004810182815284516024830152845160609487169363c2998238938793928392604490920191858101910280838360005b838110156101b1578181015183820152602001610199565b5050505090500192505050600060405180830381600087803b1580156101d657600080fd5b505af11580156101ea573d6000803e3d6000fd5b505050506040513d6000823e601f3d908101601f19168201604052602081101561021357600080fd5b810190808051604051939291908464010000000082111561023357600080fd5b90830190602082018581111561024857600080fd5b825186602082028301116401000000008211171561026557600080fd5b82525081516020918201928201910280838360005b8381101561029257818101518382015260200161027a565b505050509050016040525050509050806000815181106102ae57fe5b60200260200101516000146102c257600080fd5b600080546040805163095ea7b360e01b81526001600160a01b03898116600483015260001960248301529151919092169263095ea7b392604480820193602093909283900390910190829087803b15801561031c57600080fd5b505af1158015610330573d6000803e3d6000fd5b505050506040513d602081101561034657600080fd5b505050505050505061079b8061035d6000396000f3fe60806040526004361061003f5760003560e01c80633342f689146100415780638ddcb46514610068578063a90aca92146100a1578063c1a13d1a146100da575b005b34801561004d57600080fd5b5061005661010d565b60408051918252519081900360200190f35b34801561007457600080fd5b506100566004803603604081101561008b57600080fd5b50803590602001356001600160a01b031661038c565b3480156100ad57600080fd5b50610056600480360360408110156100c457600080fd5b50803590602001356001600160a01b0316610527565b3480156100e657600080fd5b50610056600480360360208110156100fd57600080fd5b50356001600160a01b03166105d7565b60008054604080516370a0823160e01b8152306004820152905183926001600160a01b0316916370a08231916024808301926020929190829003018186803b15801561015857600080fd5b505afa15801561016c573d6000803e3d6000fd5b505050506040513d602081101561018257600080fd5b505160015460408051633af9e66960e01b815230600482015290519293506000926001600160a01b0390921691633af9e6699160248082019260209290919082900301818787803b1580156101d657600080fd5b505af11580156101ea573d6000803e3d6000fd5b505050506040513d602081101561020057600080fd5b5051600080546040805163c3b2d33760e01b81529051939450919283928392610286926001600160a01b039091169163c3b2d337916004808301926020929190829003018186803b15801561025457600080fd5b505afa158015610268573d6000803e3d6000fd5b505050506040513d602081101561027e57600080fd5b5051866105f2565b9093509150600083600381111561029957fe5b146102c2576102b66009600c8560038111156102b157fe5b610618565b95505050505050610389565b6102cc8285610686565b909350905060008360038111156102df57fe5b146102f7576102b66009600c8560038111156102b157fe5b600080546002546040805163a9059cbb60e01b81526001600160a01b039283166004820152602481018690529051919092169263a9059cbb92604480820193602093909283900390910190829087803b15801561035357600080fd5b505af1158015610367573d6000803e3d6000fd5b505050506040513d602081101561037d57600080fd5b50600096505050505050505b90565b6001546000906001600160a01b031633146103a657600080fd5b6001600160a01b0382166000908152600360205260409020805484900390556103cd610753565b6040518060200160405280600160009054906101000a90046001600160a01b03166001600160a01b031663182df0f56040518163ffffffff1660e01b815260040160206040518083038186803b15801561042657600080fd5b505afa15801561043a573d6000803e3d6000fd5b505050506040513d602081101561045057600080fd5b5051905290506000610460610753565b61046a83876106ac565b9092509050600082600381111561047d57fe5b1461049f576104956009600c8460038111156102b157fe5b9350505050610521565b60015481516040805163db006a7560e01b81526004810192909252516001600160a01b039092169163db006a75916024808201926020929091908290030181600087803b1580156104ef57600080fd5b505af1158015610503573d6000803e3d6000fd5b505050506040513d602081101561051957600080fd5b505193505050505b92915050565b6001546000906001600160a01b0316331461054157600080fd5b6001600160a01b038083166000908152600360209081526040808320805488019055600154815163140e25ad60e31b81526004810189905291519394169263a0712d689260248084019391929182900301818787803b1580156105a357600080fd5b505af11580156105b7573d6000803e3d6000fd5b505050506040513d60208110156105cd57600080fd5b5051949350505050565b6001600160a01b031660009081526003602052604090205490565b600080838311610609575060009050818303610611565b506003905060005b9250929050565b60007f45b96fe442630264581b197e84bbada861235052c5a1aadfff9ea4e40a969aa084601081111561064757fe5b84605081111561065357fe5b604080519283526020830191909152818101859052519081900360600190a183601081111561067e57fe5b949350505050565b60008083830184811061069e57600092509050610611565b506002915060009050610611565b60006106b6610753565b6000806106c7866000015186610714565b909250905060008260038111156106da57fe5b146106f957506040805160208101909152600081529092509050610611565b60408051602081019091529081526000969095509350505050565b6000808361072757506000905080610611565b8383028385828161073457fe5b041461074857506002915060009050610611565b600092509050610611565b604051806020016040528060008152509056fea265627a7a72315820ea9f4ed6185ec26c09b4185648be345188e7232e46d46aa7e775e1f1ea01396c64736f6c63430005100032",
  "linkReferences": {},
  "deployedLinkReferences": {}
}