{
  "_format": "hh-sol-artifact-1",
  "contractName": "CompoundLens",
  "sourceName": "contracts/Lens/CompoundLens.sol",
  "abi": [
    {
      "constant": false,
      "inputs": [
        {
          "internalType": "contract CToken",
          "name": "cToken",
          "type": "address"
        },
        {
          "internalType": "address payable",
          "name": "account",
          "type": "address"
        }
      ],
      "name": "cTokenBalances",
      "outputs": [
        {
          "components": [
            {
              "internalType": "address",
              "name": "cToken",
              "type": "address"
            },
            {
              "internalType": "uint256",
              "name": "balanceOf",
              "type": "uint256"
            },
            {
              "internalType": "uint256",
              "name": "borrowBalanceCurrent",
              "type": "uint256"
            },
            {
              "internalType": "uint256",
              "name": "balanceOfUnderlying",
              "type": "uint256"
            },
            {
              "internalType": "uint256",
              "name": "tokenBalance",
              "type": "uint256"
            },
            {
              "internalType": "uint256",
              "name": "tokenAllowance",
              "type": "uint256"
            }
          ],
          "internalType": "struct CompoundLens.CTokenBalances",
          "name": "",
          "type": "tuple"
        }
      ],
      "payable": false,
      "stateMutability": "nonpayable",
      "type": "function"
    },
    {
      "constant": false,
      "inputs": [
        {
          "internalType": "contract CToken[]",
          "name": "cTokens",
          "type": "address[]"
        },
        {
          "internalType": "address payable",
          "name": "account",
          "type": "address"
        }
      ],
      "name": "cTokenBalancesAll",
      "outputs": [
        {
          "components": [
            {
              "internalType": "address",
              "name": "cToken",
              "type": "address"
            },
            {
              "internalType": "uint256",
              "name": "balanceOf",
              "type": "uint256"
            },
            {
              "internalType": "uint256",
              "name": "borrowBalanceCurrent",
              "type": "uint256"
            },
            {
              "internalType": "uint256",
              "name": "balanceOfUnderlying",
              "type": "uint256"
            },
            {
              "internalType": "uint256",
              "name": "tokenBalance",
              "type": "uint256"
            },
            {
              "internalType": "uint256",
              "name": "tokenAllowance",
              "type": "uint256"
            }
          ],
          "internalType": "struct CompoundLens.CTokenBalances[]",
          "name": "",
          "type": "tuple[]"
        }
      ],
      "payable": false,
      "stateMutability": "nonpayable",
      "type": "function"
    },
    {
      "constant": false,
      "inputs": [
        {
          "internalType": "contract CToken",
          "name": "cToken",
          "type": "address"
        }
      ],
      "name": "cTokenMetadata",
      "outputs": [
        {
          "components": [
            {
              "internalType": "address",
              "name": "cToken",
              "type": "address"
            },
            {
              "internalType": "uint256",
              "name": "exchangeRateCurrent",
              "type": "uint256"
            },
            {
              "internalType": "uint256",
              "name": "supplyRatePerBlock",
              "type": "uint256"
            },
            {
              "internalType": "uint256",
              "name": "borrowRatePerBlock",
              "type": "uint256"
            },
            {
              "internalType": "uint256",
              "name": "reserveFactorMantissa",
              "type": "uint256"
            },
            {
              "internalType": "uint256",
              "name": "totalBorrows",
              "type": "uint256"
            },
            {
              "internalType": "uint256",
              "name": "totalReserves",
              "type": "uint256"
            },
            {
              "internalType": "uint256",
              "name": "totalSupply",
              "type": "uint256"
            },
            {
              "internalType": "uint256",
              "name": "totalCash",
              "type": "uint256"
            },
            {
              "internalType": "bool",
              "name": "isListed",
              "type": "bool"
            },
            {
              "internalType": "uint256",
              "name": "collateralFactorMantissa",
              "type": "uint256"
            },
            {
              "internalType": "address",
              "name": "underlyingAssetAddress",
              "type": "address"
            },
            {
              "internalType": "uint256",
              "name": "cTokenDecimals",
              "type": "uint256"
            },
            {
              "internalType": "uint256",
              "name": "underlyingDecimals",
              "type": "uint256"
            },
            {
              "internalType": "uint256",
              "name": "compSupplySpeed",
              "type": "uint256"
            },
            {
              "internalType": "uint256",
              "name": "compBorrowSpeed",
              "type": "uint256"
            },
            {
              "internalType": "uint256",
              "name": "borrowCap",
              "type": "uint256"
            }
          ],
          "internalType": "struct CompoundLens.CTokenMetadata",
          "name": "",
          "type": "tuple"
        }
      ],
      "payable": false,
      "stateMutability": "nonpayable",
      "type": "function"
    },
    {
      "constant": false,
      "inputs": [
        {
          "internalType": "contract CToken[]",
          "name": "cTokens",
          "type": "address[]"
        }
      ],
      "name": "cTokenMetadataAll",
      "outputs": [
        {
          "components": [
            {
              "internalType": "address",
              "name": "cToken",
              "type": "address"
            },
            {
              "internalType": "uint256",
              "name": "exchangeRateCurrent",
              "type": "uint256"
            },
            {
              "internalType": "uint256",
              "name": "supplyRatePerBlock",
              "type": "uint256"
            },
            {
              "internalType": "uint256",
              "name": "borrowRatePerBlock",
              "type": "uint256"
            },
            {
              "internalType": "uint256",
              "name": "reserveFactorMantissa",
              "type": "uint256"
            },
            {
              "internalType": "uint256",
              "name": "totalBorrows",
              "type": "uint256"
            },
            {
              "internalType": "uint256",
              "name": "totalReserves",
              "type": "uint256"
            },
            {
              "internalType": "uint256",
              "name": "totalSupply",
              "type": "uint256"
            },
            {
              "internalType": "uint256",
              "name": "totalCash",
              "type": "uint256"
            },
            {
              "internalType": "bool",
              "name": "isListed",
              "type": "bool"
            },
            {
              "internalType": "uint256",
              "name": "collateralFactorMantissa",
              "type": "uint256"
            },
            {
              "internalType": "address",
              "name": "underlyingAssetAddress",
              "type": "address"
            },
            {
              "internalType": "uint256",
              "name": "cTokenDecimals",
              "type": "uint256"
            },
            {
              "internalType": "uint256",
              "name": "underlyingDecimals",
              "type": "uint256"
            },
            {
              "internalType": "uint256",
              "name": "compSupplySpeed",
              "type": "uint256"
            },
            {
              "internalType": "uint256",
              "name": "compBorrowSpeed",
              "type": "uint256"
            },
            {
              "internalType": "uint256",
              "name": "borrowCap",
              "type": "uint256"
            }
          ],
          "internalType": "struct CompoundLens.CTokenMetadata[]",
          "name": "",
          "type": "tuple[]"
        }
      ],
      "payable": false,
      "stateMutability": "nonpayable",
      "type": "function"
    },
    {
      "constant": false,
      "inputs": [
        {
          "internalType": "contract CToken",
          "name": "cToken",
          "type": "address"
        }
      ],
      "name": "cTokenUnderlyingPrice",
      "outputs": [
        {
          "components": [
            {
              "internalType": "address",
              "name": "cToken",
              "type": "address"
            },
            {
              "internalType": "uint256",
              "name": "underlyingPrice",
              "type": "uint256"
            }
          ],
          "internalType": "struct CompoundLens.CTokenUnderlyingPrice",
          "name": "",
          "type": "tuple"
        }
      ],
      "payable": false,
      "stateMutability": "nonpayable",
      "type": "function"
    },
    {
      "constant": false,
      "inputs": [
        {
          "internalType": "contract CToken[]",
          "name": "cTokens",
          "type": "address[]"
        }
      ],
      "name": "cTokenUnderlyingPriceAll",
      "outputs": [
        {
          "components": [
            {
              "internalType": "address",
              "name": "cToken",
              "type": "address"
            },
            {
              "internalType": "uint256",
              "name": "underlyingPrice",
              "type": "uint256"
            }
          ],
          "internalType": "struct CompoundLens.CTokenUnderlyingPrice[]",
          "name": "",
          "type": "tuple[]"
        }
      ],
      "payable": false,
      "stateMutability": "nonpayable",
      "type": "function"
    },
    {
      "constant": false,
      "inputs": [
        {
          "internalType": "contract ComptrollerLensInterface",
          "name": "comptroller",
          "type": "address"
        },
        {
          "internalType": "address",
          "name": "account",
          "type": "address"
        }
      ],
      "name": "getAccountLimits",
      "outputs": [
        {
          "components": [
            {
              "internalType": "contract CToken[]",
              "name": "markets",
              "type": "address[]"
            },
            {
              "internalType": "uint256",
              "name": "liquidity",
              "type": "uint256"
            },
            {
              "internalType": "uint256",
              "name": "shortfall",
              "type": "uint256"
            }
          ],
          "internalType": "struct CompoundLens.AccountLimits",
          "name": "",
          "type": "tuple"
        }
      ],
      "payable": false,
      "stateMutability": "nonpayable",
      "type": "function"
    },
    {
      "constant": true,
      "inputs": [
        {
          "internalType": "contract GovernorBravoInterface",
          "name": "governor",
          "type": "address"
        },
        {
          "internalType": "uint256[]",
          "name": "proposalIds",
          "type": "uint256[]"
        }
      ],
      "name": "getGovBravoProposals",
      "outputs": [
        {
          "components": [
            {
              "internalType": "uint256",
              "name": "proposalId",
              "type": "uint256"
            },
            {
              "internalType": "address",
              "name": "proposer",
              "type": "address"
            },
            {
              "internalType": "uint256",
              "name": "eta",
              "type": "uint256"
            },
            {
              "internalType": "address[]",
              "name": "targets",
              "type": "address[]"
            },
            {
              "internalType": "uint256[]",
              "name": "values",
              "type": "uint256[]"
            },
            {
              "internalType": "string[]",
              "name": "signatures",
              "type": "string[]"
            },
            {
              "internalType": "bytes[]",
              "name": "calldatas",
              "type": "bytes[]"
            },
            {
              "internalType": "bool",
              "name": "canceled",
              "type": "bool"
            },
            {
              "internalType": "bool",
              "name": "executed",
              "type": "bool"
            }
          ],
          "internalType": "struct CompoundLens.GovBravoProposal[]",
          "name": "",
          "type": "tuple[]"
        }
      ],
      "payable": false,
      "stateMutability": "view",
      "type": "function"
    }
  ],
  "bytecode": "0x608060405234801561001057600080fd5b50613bb1806100206000396000f3fe608060405234801561001057600080fd5b50600436106100885760003560e01c806375d80e901161005b57806375d80e901461014d5780637dd8f6d91461017d578063bdf950c9146101ad578063c5ae5934146101dd57610088565b80630972bf8b1461008d578063158eca8b146100bd5780632b2d5ed6146100ed5780634b70d84b1461011d575b600080fd5b6100a760048036036100a29190810190612541565b61020d565b6040516100b49190613420565b60405180910390f35b6100d760048036036100d29190810190612616565b6102bf565b6040516100e49190613500565b60405180910390f35b610107600480360361010291908101906124fc565b610c57565b6040516101149190613464565b60405180910390f35b610137600480360361013291908101906124fc565b610d07565b6040516101449190613442565b60405180910390f35b610167600480360361016291908101906126e0565b610db7565b6040516101749190613486565b60405180910390f35b610197600480360361019291908101906126a4565b610f7c565b6040516101a491906134c3565b60405180910390f35b6101c760048036036101c2919081019061263f565b6110d8565b6040516101d491906134e5565b60405180910390f35b6101f760048036036101f29190810190612616565b61157f565b604051610204919061351c565b60405180910390f35b6060600084849050905060608160405190808252806020026020018201604052801561025357816020015b610240611bb3565b8152602001906001900390816102385790505b50905060008090505b828110156102b25761028e87878381811061027357fe5b90506020020160206102889190810190612616565b866110d8565b82828151811061029a57fe5b6020026020010181905250808060010191505061025c565b5080925050509392505050565b6102c7611bff565b60008273ffffffffffffffffffffffffffffffffffffffff1663bd6d894d6040518163ffffffff1660e01b8152600401602060405180830381600087803b15801561031157600080fd5b505af1158015610325573d6000803e3d6000fd5b505050506040513d601f19601f8201168201806040525061034991908101906127cb565b905060008373ffffffffffffffffffffffffffffffffffffffff16635fe3b5676040518163ffffffff1660e01b815260040160206040518083038186803b15801561039357600080fd5b505afa1580156103a7573d6000803e3d6000fd5b505050506040513d601f19601f820116820180604052506103cb919081019061267b565b90506000808273ffffffffffffffffffffffffffffffffffffffff16638e8f294b876040518263ffffffff1660e01b815260040161040991906133c1565b604080518083038186803b15801561042057600080fd5b505afa158015610434573d6000803e3d6000fd5b505050506040513d601f19601f8201168201806040525061045891908101906125da565b915091506000806105208873ffffffffffffffffffffffffffffffffffffffff166395d89b416040518163ffffffff1660e01b815260040160006040518083038186803b1580156104a857600080fd5b505afa1580156104bc573d6000803e3d6000fd5b505050506040513d6000823e3d601f19601f820116820180604052506104e59190810190612761565b6040518060400160405280600481526020017f6345544800000000000000000000000000000000000000000000000000000000815250611747565b156105325760009150601290506106b9565b60008890508073ffffffffffffffffffffffffffffffffffffffff16636f307dc36040518163ffffffff1660e01b815260040160206040518083038186803b15801561057d57600080fd5b505afa158015610591573d6000803e3d6000fd5b505050506040513d601f19601f820116820180604052506105b59190810190612410565b92508073ffffffffffffffffffffffffffffffffffffffff16636f307dc36040518163ffffffff1660e01b815260040160206040518083038186803b1580156105fd57600080fd5b505afa158015610611573d6000803e3d6000fd5b505050506040513d601f19601f820116820180604052506106359190810190612410565b73ffffffffffffffffffffffffffffffffffffffff1663313ce5676040518163ffffffff1660e01b815260040160206040518083038186803b15801561067a57600080fd5b505afa15801561068e573d6000803e3d6000fd5b505050506040513d601f19601f820116820180604052506106b29190810190612843565b60ff169150505b6000806106c6878b6117a0565b915091506000809050600060608973ffffffffffffffffffffffffffffffffffffffff168a73ffffffffffffffffffffffffffffffffffffffff16634a584432905060e01b8e60405160200161071c91906133c1565b60405160208183030381529060405260405160200161073c92919061336b565b6040516020818303038152906040526040516107589190613393565b6000604051808303816000865af19150503d8060008114610795576040519150601f19603f3d011682016040523d82523d6000602084013e61079a565b606091505b509150915081156107bc57808060200190516107b991908101906127cb565b92505b6040518061022001604052808e73ffffffffffffffffffffffffffffffffffffffff1681526020018c81526020018e73ffffffffffffffffffffffffffffffffffffffff1663ae9d70b06040518163ffffffff1660e01b815260040160206040518083038186803b15801561083057600080fd5b505afa158015610844573d6000803e3d6000fd5b505050506040513d601f19601f8201168201806040525061086891908101906127cb565b81526020018e73ffffffffffffffffffffffffffffffffffffffff1663f8f9da286040518163ffffffff1660e01b815260040160206040518083038186803b1580156108b357600080fd5b505afa1580156108c7573d6000803e3d6000fd5b505050506040513d601f19601f820116820180604052506108eb91908101906127cb565b81526020018e73ffffffffffffffffffffffffffffffffffffffff1663173b99046040518163ffffffff1660e01b815260040160206040518083038186803b15801561093657600080fd5b505afa15801561094a573d6000803e3d6000fd5b505050506040513d601f19601f8201168201806040525061096e91908101906127cb565b81526020018e73ffffffffffffffffffffffffffffffffffffffff166347bd37186040518163ffffffff1660e01b815260040160206040518083038186803b1580156109b957600080fd5b505afa1580156109cd573d6000803e3d6000fd5b505050506040513d601f19601f820116820180604052506109f191908101906127cb565b81526020018e73ffffffffffffffffffffffffffffffffffffffff16638f840ddd6040518163ffffffff1660e01b815260040160206040518083038186803b158015610a3c57600080fd5b505afa158015610a50573d6000803e3d6000fd5b505050506040513d601f19601f82011682018060405250610a7491908101906127cb565b81526020018e73ffffffffffffffffffffffffffffffffffffffff166318160ddd6040518163ffffffff1660e01b815260040160206040518083038186803b158015610abf57600080fd5b505afa158015610ad3573d6000803e3d6000fd5b505050506040513d601f19601f82011682018060405250610af791908101906127cb565b81526020018e73ffffffffffffffffffffffffffffffffffffffff16633b1d21a26040518163ffffffff1660e01b815260040160206040518083038186803b158015610b4257600080fd5b505afa158015610b56573d6000803e3d6000fd5b505050506040513d601f19601f82011682018060405250610b7a91908101906127cb565b81526020018a151581526020018981526020018873ffffffffffffffffffffffffffffffffffffffff1681526020018e73ffffffffffffffffffffffffffffffffffffffff1663313ce5676040518163ffffffff1660e01b815260040160206040518083038186803b158015610bef57600080fd5b505afa158015610c03573d6000803e3d6000fd5b505050506040513d601f19601f82011682018060405250610c279190810190612843565b60ff168152602001878152602001868152602001858152602001848152509b505050505050505050505050919050565b60606000838390509050606081604051908082528060200260200182016040528015610c9d57816020015b610c8a611cb1565b815260200190600190039081610c825790505b50905060008090505b82811015610cfb57610cd7868683818110610cbd57fe5b9050602002016020610cd29190810190612616565b61157f565b828281518110610ce357fe5b60200260200101819052508080600101915050610ca6565b50809250505092915050565b60606000838390509050606081604051908082528060200260200182016040528015610d4d57816020015b610d3a611ce1565b815260200190600190039081610d325790505b50905060008090505b82811015610dab57610d87868683818110610d6d57fe5b9050602002016020610d829190810190612616565b6102bf565b828281518110610d9357fe5b60200260200101819052508080600101915050610d56565b50809250505092915050565b60608083839050604051908082528060200260200182016040528015610df757816020015b610de4611d93565b815260200190600190039081610ddc5790505b50905060008090505b84849050811015610f70576060806060808973ffffffffffffffffffffffffffffffffffffffff1663328dd9828a8a88818110610e3957fe5b905060200201356040518263ffffffff1660e01b8152600401610e5c9190613537565b60006040518083038186803b158015610e7457600080fd5b505afa158015610e88573d6000803e3d6000fd5b505050506040513d6000823e3d601f19601f82011682018060405250610eb19190810190612439565b935093509350935060405180610120016040528060008152602001600073ffffffffffffffffffffffffffffffffffffffff1681526020016000815260200185815260200184815260200183815260200182815260200160001515815260200160001515815250868681518110610f2457fe5b6020026020010181905250610f5f868681518110610f3e57fe5b60200260200101518b8b8b89818110610f5357fe5b90506020020135611a9d565b505050508080600101915050610e00565b50809150509392505050565b610f84611df9565b60008060008573ffffffffffffffffffffffffffffffffffffffff16635ec88c79866040518263ffffffff1660e01b8152600401610fc291906133c1565b60606040518083038186803b158015610fda57600080fd5b505afa158015610fee573d6000803e3d6000fd5b505050506040513d601f19601f8201168201806040525061101291908101906127f4565b9250925092506000831461102557600080fd5b60405180606001604052808773ffffffffffffffffffffffffffffffffffffffff1663abfceffc886040518263ffffffff1660e01b815260040161106991906133c1565b60006040518083038186803b15801561108157600080fd5b505afa158015611095573d6000803e3d6000fd5b505050506040513d6000823e3d601f19601f820116820180604052506110be9190810190612599565b815260200183815260200182815250935050505092915050565b6110e0611e1a565b60008373ffffffffffffffffffffffffffffffffffffffff166370a08231846040518263ffffffff1660e01b815260040161111b91906133dc565b60206040518083038186803b15801561113357600080fd5b505afa158015611147573d6000803e3d6000fd5b505050506040513d601f19601f8201168201806040525061116b91908101906127cb565b905060008473ffffffffffffffffffffffffffffffffffffffff166317bfdfbc856040518263ffffffff1660e01b81526004016111a891906133dc565b602060405180830381600087803b1580156111c257600080fd5b505af11580156111d6573d6000803e3d6000fd5b505050506040513d601f19601f820116820180604052506111fa91908101906127cb565b905060008573ffffffffffffffffffffffffffffffffffffffff16633af9e669866040518263ffffffff1660e01b815260040161123791906133dc565b602060405180830381600087803b15801561125157600080fd5b505af1158015611265573d6000803e3d6000fd5b505050506040513d601f19601f8201168201806040525061128991908101906127cb565b905060008061134f8873ffffffffffffffffffffffffffffffffffffffff166395d89b416040518163ffffffff1660e01b815260040160006040518083038186803b1580156112d757600080fd5b505afa1580156112eb573d6000803e3d6000fd5b505050506040513d6000823e3d601f19601f820116820180604052506113149190810190612761565b6040518060400160405280600481526020017f6345544800000000000000000000000000000000000000000000000000000000815250611747565b1561138d578673ffffffffffffffffffffffffffffffffffffffff163191508673ffffffffffffffffffffffffffffffffffffffff1631905061152f565b600088905060008173ffffffffffffffffffffffffffffffffffffffff16636f307dc36040518163ffffffff1660e01b815260040160206040518083038186803b1580156113da57600080fd5b505afa1580156113ee573d6000803e3d6000fd5b505050506040513d601f19601f820116820180604052506114129190810190612410565b90508073ffffffffffffffffffffffffffffffffffffffff166370a082318a6040518263ffffffff1660e01b815260040161144d91906133dc565b60206040518083038186803b15801561146557600080fd5b505afa158015611479573d6000803e3d6000fd5b505050506040513d601f19601f8201168201806040525061149d91908101906127cb565b93508073ffffffffffffffffffffffffffffffffffffffff1663dd62ed3e8a8c6040518363ffffffff1660e01b81526004016114da9291906133f7565b60206040518083038186803b1580156114f257600080fd5b505afa158015611506573d6000803e3d6000fd5b505050506040513d601f19601f8201168201806040525061152a91908101906127cb565b925050505b6040518060c001604052808973ffffffffffffffffffffffffffffffffffffffff168152602001868152602001858152602001848152602001838152602001828152509550505050505092915050565b611587611e66565b60008273ffffffffffffffffffffffffffffffffffffffff16635fe3b5676040518163ffffffff1660e01b815260040160206040518083038186803b1580156115cf57600080fd5b505afa1580156115e3573d6000803e3d6000fd5b505050506040513d601f19601f82011682018060405250611607919081019061267b565b905060008173ffffffffffffffffffffffffffffffffffffffff16637dc0d1d06040518163ffffffff1660e01b815260040160206040518083038186803b15801561165157600080fd5b505afa158015611665573d6000803e3d6000fd5b505050506040513d601f19601f820116820180604052506116899190810190612738565b905060405180604001604052808573ffffffffffffffffffffffffffffffffffffffff1681526020018273ffffffffffffffffffffffffffffffffffffffff1663fc57d4df876040518263ffffffff1660e01b81526004016116eb91906134a8565b60206040518083038186803b15801561170357600080fd5b505afa158015611717573d6000803e3d6000fd5b505050506040513d601f19601f8201168201806040525061173b91908101906127cb565b81525092505050919050565b60008160405160200161175a91906133aa565b604051602081830303815290604052805190602001208360405160200161178191906133aa565b6040516020818303038152906040528051906020012014905092915050565b6000806000809050600060608673ffffffffffffffffffffffffffffffffffffffff168773ffffffffffffffffffffffffffffffffffffffff16636aa875b5905060e01b876040516020016117f591906133c1565b60405160208183030381529060405260405160200161181592919061336b565b6040516020818303038152906040526040516118319190613393565b6000604051808303816000865af19150503d806000811461186e576040519150601f19603f3d011682016040523d82523d6000602084013e611873565b606091505b50915091508115611895578080602001905161189291908101906127cb565b92505b6000809050600060608973ffffffffffffffffffffffffffffffffffffffff168a73ffffffffffffffffffffffffffffffffffffffff1663f4a433c0905060e01b8a6040516020016118e791906133c1565b60405160208183030381529060405260405160200161190792919061336b565b6040516020818303038152906040526040516119239190613393565b6000604051808303816000865af19150503d8060008114611960576040519150601f19603f3d011682016040523d82523d6000602084013e611965565b606091505b50915091508115611987578080602001905161198491908101906127cb565b92505b841580611992575081155b15611a8a57600060608b73ffffffffffffffffffffffffffffffffffffffff168c73ffffffffffffffffffffffffffffffffffffffff16631d7b33d7905060e01b8c6040516020016119e491906133c1565b604051602081830303815290604052604051602001611a0492919061336b565b604051602081830303815290604052604051611a209190613393565b6000604051808303816000865af19150503d8060008114611a5d576040519150601f19603f3d011682016040523d82523d6000602084013e611a62565b606091505b50915091508115611a875780806020019051611a8191908101906127cb565b94508497505b50505b8583975097505050505050509250929050565b611aa5611e96565b8273ffffffffffffffffffffffffffffffffffffffff1663013cf08b836040518263ffffffff1660e01b8152600401611ade9190613537565b60a06040518083038186803b158015611af657600080fd5b505afa158015611b0a573d6000803e3d6000fd5b505050506040513d601f19601f82011682018060405250611b2e91908101906127a2565b9050818460000181815250508060200151846020019073ffffffffffffffffffffffffffffffffffffffff16908173ffffffffffffffffffffffffffffffffffffffff1681525050806040015184604001818152505080606001518460e001901515908115158152505080608001518461010001901515908115158152505050505050565b6040518060c00160405280600073ffffffffffffffffffffffffffffffffffffffff16815260200160008152602001600081526020016000815260200160008152602001600081525090565b604051806102200160405280600073ffffffffffffffffffffffffffffffffffffffff168152602001600081526020016000815260200160008152602001600081526020016000815260200160008152602001600081526020016000815260200160001515815260200160008152602001600073ffffffffffffffffffffffffffffffffffffffff16815260200160008152602001600081526020016000815260200160008152602001600081525090565b6040518060400160405280600073ffffffffffffffffffffffffffffffffffffffff168152602001600081525090565b604051806102200160405280600073ffffffffffffffffffffffffffffffffffffffff168152602001600081526020016000815260200160008152602001600081526020016000815260200160008152602001600081526020016000815260200160001515815260200160008152602001600073ffffffffffffffffffffffffffffffffffffffff16815260200160008152602001600081526020016000815260200160008152602001600081525090565b60405180610120016040528060008152602001600073ffffffffffffffffffffffffffffffffffffffff16815260200160008152602001606081526020016060815260200160608152602001606081526020016000151581526020016000151581525090565b60405180606001604052806060815260200160008152602001600081525090565b6040518060c00160405280600073ffffffffffffffffffffffffffffffffffffffff16815260200160008152602001600081526020016000815260200160008152602001600081525090565b6040518060400160405280600073ffffffffffffffffffffffffffffffffffffffff168152602001600081525090565b6040518060a0016040528060008152602001600073ffffffffffffffffffffffffffffffffffffffff168152602001600081526020016000151581526020016000151581525090565b600081359050611eee81613a88565b92915050565b600081519050611f0381613a88565b92915050565b600081359050611f1881613a9f565b92915050565b600082601f830112611f2f57600080fd5b8151611f42611f3d8261357f565b613552565b91508181835260208401935060208101905083856020840282011115611f6757600080fd5b60005b83811015611f975781611f7d8882611ef4565b845260208401935060208301925050600181019050611f6a565b5050505092915050565b600082601f830112611fb257600080fd5b8151611fc5611fc0826135a7565b613552565b9150818183526020840193506020810190508360005b8381101561200b5781518601611ff18882612238565b845260208401935060208301925050600181019050611fdb565b5050505092915050565b60008083601f84011261202757600080fd5b8235905067ffffffffffffffff81111561204057600080fd5b60208301915083602082028301111561205857600080fd5b9250929050565b600082601f83011261207057600080fd5b815161208361207e826135cf565b613552565b915081818352602084019350602081019050838560208402820111156120a857600080fd5b60005b838110156120d857816120be88826122a1565b8452602084019350602083019250506001810190506120ab565b5050505092915050565b600082601f8301126120f357600080fd5b8151612106612101826135f7565b613552565b9150818183526020840193506020810190508360005b8381101561214c5781518601612132888261230a565b84526020840193506020830192505060018101905061211c565b5050505092915050565b60008083601f84011261216857600080fd5b8235905067ffffffffffffffff81111561218157600080fd5b60208301915083602082028301111561219957600080fd5b9250929050565b600082601f8301126121b157600080fd5b81516121c46121bf8261361f565b613552565b915081818352602084019350602081019050838560208402820111156121e957600080fd5b60005b8381101561221957816121ff88826123e6565b8452602084019350602083019250506001810190506121ec565b5050505092915050565b60008151905061223281613ab6565b92915050565b600082601f83011261224957600080fd5b815161225c61225782613647565b613552565b9150808252602083016020830185838301111561227857600080fd5b612283838284613a3a565b50505092915050565b60008135905061229b81613acd565b92915050565b6000815190506122b081613acd565b92915050565b6000815190506122c581613ae4565b92915050565b6000813590506122da81613afb565b92915050565b6000813590506122ef81613b12565b92915050565b60008151905061230481613b29565b92915050565b600082601f83011261231b57600080fd5b815161232e61232982613673565b613552565b9150808252602083016020830185838301111561234a57600080fd5b612355838284613a3a565b50505092915050565b600060a0828403121561237057600080fd5b61237a60a0613552565b9050600061238a848285016123e6565b600083015250602061239e84828501611ef4565b60208301525060406123b2848285016123e6565b60408301525060606123c684828501612223565b60608301525060806123da84828501612223565b60808301525092915050565b6000815190506123f581613b40565b92915050565b60008151905061240a81613b57565b92915050565b60006020828403121561242257600080fd5b600061243084828501611ef4565b91505092915050565b6000806000806080858703121561244f57600080fd5b600085015167ffffffffffffffff81111561246957600080fd5b61247587828801611f1e565b945050602085015167ffffffffffffffff81111561249257600080fd5b61249e878288016121a0565b935050604085015167ffffffffffffffff8111156124bb57600080fd5b6124c7878288016120e2565b925050606085015167ffffffffffffffff8111156124e457600080fd5b6124f087828801611fa1565b91505092959194509250565b6000806020838503121561250f57600080fd5b600083013567ffffffffffffffff81111561252957600080fd5b61253585828601612015565b92509250509250929050565b60008060006040848603121561255657600080fd5b600084013567ffffffffffffffff81111561257057600080fd5b61257c86828701612015565b9350935050602061258f86828701611f09565b9150509250925092565b6000602082840312156125ab57600080fd5b600082015167ffffffffffffffff8111156125c557600080fd5b6125d18482850161205f565b91505092915050565b600080604083850312156125ed57600080fd5b60006125fb85828601612223565b925050602061260c858286016123e6565b9150509250929050565b60006020828403121561262857600080fd5b60006126368482850161228c565b91505092915050565b6000806040838503121561265257600080fd5b60006126608582860161228c565b925050602061267185828601611f09565b9150509250929050565b60006020828403121561268d57600080fd5b600061269b848285016122b6565b91505092915050565b600080604083850312156126b757600080fd5b60006126c5858286016122cb565b92505060206126d685828601611edf565b9150509250929050565b6000806000604084860312156126f557600080fd5b6000612703868287016122e0565b935050602084013567ffffffffffffffff81111561272057600080fd5b61272c86828701612156565b92509250509250925092565b60006020828403121561274a57600080fd5b6000612758848285016122f5565b91505092915050565b60006020828403121561277357600080fd5b600082015167ffffffffffffffff81111561278d57600080fd5b6127998482850161230a565b91505092915050565b600060a082840312156127b457600080fd5b60006127c28482850161235e565b91505092915050565b6000602082840312156127dd57600080fd5b60006127eb848285016123e6565b91505092915050565b60008060006060848603121561280957600080fd5b6000612817868287016123e6565b9350506020612828868287016123e6565b9250506040612839868287016123e6565b9150509250925092565b60006020828403121561285557600080fd5b6000612863848285016123fb565b91505092915050565b60006128788383612948565b60208301905092915050565b60006128908383612d50565b905092915050565b60006128a48383612d89565b60208301905092915050565b60006128bc8383612dd8565b905092915050565b60006128d08383612edc565b60c08301905092915050565b60006128e883836130b6565b6102208301905092915050565b60006129018383613244565b60408301905092915050565b60006129198383613273565b905092915050565b600061292d838361334d565b60208301905092915050565b612942816139e0565b82525050565b612951816138f3565b82525050565b612960816138f3565b82525050565b60006129718261372f565b61297b8185613833565b93506129868361369f565b8060005b838110156129b757815161299e888261286c565b97506129a9836137be565b92505060018101905061298a565b5085935050505092915050565b60006129cf8261373a565b6129d98185613844565b9350836020820285016129eb856136af565b8060005b85811015612a275784840389528151612a088582612884565b9450612a13836137cb565b925060208a019950506001810190506129ef565b50829750879550505050505092915050565b6000612a4482613745565b612a4e8185613833565b9350612a59836136bf565b8060005b83811015612a8a578151612a718882612898565b9750612a7c836137d8565b925050600181019050612a5d565b5085935050505092915050565b6000612aa282613750565b612aac8185613855565b935083602082028501612abe856136cf565b8060005b85811015612afa5784840389528151612adb85826128b0565b9450612ae6836137e5565b925060208a01995050600181019050612ac2565b50829750879550505050505092915050565b6000612b178261375b565b612b218185613866565b9350612b2c836136df565b8060005b83811015612b5d578151612b4488826128c4565b9750612b4f836137f2565b925050600181019050612b30565b5085935050505092915050565b6000612b7582613766565b612b7f8185613877565b9350612b8a836136ef565b8060005b83811015612bbb578151612ba288826128dc565b9750612bad836137ff565b925050600181019050612b8e565b5085935050505092915050565b6000612bd382613771565b612bdd8185613888565b9350612be8836136ff565b8060005b83811015612c19578151612c0088826128f5565b9750612c0b8361380c565b925050600181019050612bec565b5085935050505092915050565b6000612c318261377c565b612c3b8185613899565b935083602082028501612c4d8561370f565b8060005b85811015612c895784840389528151612c6a858261290d565b9450612c7583613819565b925060208a01995050600181019050612c51565b50829750879550505050505092915050565b6000612ca682613787565b612cb081856138aa565b9350612cbb8361371f565b8060005b83811015612cec578151612cd38882612921565b9750612cde83613826565b925050600181019050612cbf565b5085935050505092915050565b612d0281613917565b82525050565b612d19612d1482613923565b613a6d565b82525050565b6000612d2a8261379d565b612d3481856138cc565b9350612d44818560208601613a3a565b80840191505092915050565b6000612d5b82613792565b612d6581856138bb565b9350612d75818560208601613a3a565b612d7e81613a77565b840191505092915050565b612d92816139f2565b82525050565b612da1816139f2565b82525050565b6000612db2826137b3565b612dbc81856138e8565b9350612dcc818560208601613a3a565b80840191505092915050565b6000612de3826137a8565b612ded81856138d7565b9350612dfd818560208601613a3a565b612e0681613a77565b840191505092915050565b60006060830160008301518482036000860152612e2e8282612a39565b9150506020830151612e43602086018261334d565b506040830151612e56604086018261334d565b508091505092915050565b60c082016000820151612e776000850182612948565b506020820151612e8a602085018261334d565b506040820151612e9d604085018261334d565b506060820151612eb0606085018261334d565b506080820151612ec3608085018261334d565b5060a0820151612ed660a085018261334d565b50505050565b60c082016000820151612ef26000850182612948565b506020820151612f05602085018261334d565b506040820151612f18604085018261334d565b506060820151612f2b606085018261334d565b506080820151612f3e608085018261334d565b5060a0820151612f5160a085018261334d565b50505050565b61022082016000820151612f6e6000850182612948565b506020820151612f81602085018261334d565b506040820151612f94604085018261334d565b506060820151612fa7606085018261334d565b506080820151612fba608085018261334d565b5060a0820151612fcd60a085018261334d565b5060c0820151612fe060c085018261334d565b5060e0820151612ff360e085018261334d565b5061010082015161300861010085018261334d565b5061012082015161301d610120850182612cf9565b5061014082015161303261014085018261334d565b50610160820151613047610160850182612948565b5061018082015161305c61018085018261334d565b506101a08201516130716101a085018261334d565b506101c08201516130866101c085018261334d565b506101e082015161309b6101e085018261334d565b506102008201516130b061020085018261334d565b50505050565b610220820160008201516130cd6000850182612948565b5060208201516130e0602085018261334d565b5060408201516130f3604085018261334d565b506060820151613106606085018261334d565b506080820151613119608085018261334d565b5060a082015161312c60a085018261334d565b5060c082015161313f60c085018261334d565b5060e082015161315260e085018261334d565b5061010082015161316761010085018261334d565b5061012082015161317c610120850182612cf9565b5061014082015161319161014085018261334d565b506101608201516131a6610160850182612948565b506101808201516131bb61018085018261334d565b506101a08201516131d06101a085018261334d565b506101c08201516131e56101c085018261334d565b506101e08201516131fa6101e085018261334d565b5061020082015161320f61020085018261334d565b50505050565b60408201600082015161322b6000850182612948565b50602082015161323e602085018261334d565b50505050565b60408201600082015161325a6000850182612948565b50602082015161326d602085018261334d565b50505050565b60006101208301600083015161328c600086018261334d565b50602083015161329f6020860182612948565b5060408301516132b2604086018261334d565b50606083015184820360608601526132ca8282612966565b915050608083015184820360808601526132e48282612c9b565b91505060a083015184820360a08601526132fe8282612a97565b91505060c083015184820360c086015261331882826129c4565b91505060e083015161332d60e0860182612cf9565b50610100830151613342610100860182612cf9565b508091505092915050565b613356816139c9565b82525050565b613365816139c9565b82525050565b60006133778285612d08565b6004820191506133878284612d1f565b91508190509392505050565b600061339f8284612d1f565b915081905092915050565b60006133b68284612da7565b915081905092915050565b60006020820190506133d66000830184612957565b92915050565b60006020820190506133f16000830184612939565b92915050565b600060408201905061340c6000830185612939565b6134196020830184612957565b9392505050565b6000602082019050818103600083015261343a8184612b0c565b905092915050565b6000602082019050818103600083015261345c8184612b6a565b905092915050565b6000602082019050818103600083015261347e8184612bc8565b905092915050565b600060208201905081810360008301526134a08184612c26565b905092915050565b60006020820190506134bd6000830184612d98565b92915050565b600060208201905081810360008301526134dd8184612e11565b905092915050565b600060c0820190506134fa6000830184612e61565b92915050565b6000610220820190506135166000830184612f57565b92915050565b60006040820190506135316000830184613215565b92915050565b600060208201905061354c600083018461335c565b92915050565b6000604051905081810181811067ffffffffffffffff8211171561357557600080fd5b8060405250919050565b600067ffffffffffffffff82111561359657600080fd5b602082029050602081019050919050565b600067ffffffffffffffff8211156135be57600080fd5b602082029050602081019050919050565b600067ffffffffffffffff8211156135e657600080fd5b602082029050602081019050919050565b600067ffffffffffffffff82111561360e57600080fd5b602082029050602081019050919050565b600067ffffffffffffffff82111561363657600080fd5b602082029050602081019050919050565b600067ffffffffffffffff82111561365e57600080fd5b601f19601f8301169050602081019050919050565b600067ffffffffffffffff82111561368a57600080fd5b601f19601f8301169050602081019050919050565b6000819050602082019050919050565b6000819050602082019050919050565b6000819050602082019050919050565b6000819050602082019050919050565b6000819050602082019050919050565b6000819050602082019050919050565b6000819050602082019050919050565b6000819050602082019050919050565b6000819050602082019050919050565b600081519050919050565b600081519050919050565b600081519050919050565b600081519050919050565b600081519050919050565b600081519050919050565b600081519050919050565b600081519050919050565b600081519050919050565b600081519050919050565b600081519050919050565b600081519050919050565b600081519050919050565b6000602082019050919050565b6000602082019050919050565b6000602082019050919050565b6000602082019050919050565b6000602082019050919050565b6000602082019050919050565b6000602082019050919050565b6000602082019050919050565b6000602082019050919050565b600082825260208201905092915050565b600082825260208201905092915050565b600082825260208201905092915050565b600082825260208201905092915050565b600082825260208201905092915050565b600082825260208201905092915050565b600082825260208201905092915050565b600082825260208201905092915050565b600082825260208201905092915050565b600081905092915050565b600082825260208201905092915050565b600081905092915050565b60006138fe826139a9565b9050919050565b6000613910826139a9565b9050919050565b60008115159050919050565b60007fffffffff0000000000000000000000000000000000000000000000000000000082169050919050565b600061395a826138f3565b9050919050565b600061396c826138f3565b9050919050565b600061397e826138f3565b9050919050565b6000613990826138f3565b9050919050565b60006139a2826138f3565b9050919050565b600073ffffffffffffffffffffffffffffffffffffffff82169050919050565b6000819050919050565b600060ff82169050919050565b60006139eb82613a16565b9050919050565b60006139fd82613a04565b9050919050565b6000613a0f826139a9565b9050919050565b6000613a2182613a28565b9050919050565b6000613a33826139a9565b9050919050565b60005b83811015613a58578082015181840152602081019050613a3d565b83811115613a67576000848401525b50505050565b6000819050919050565b6000601f19601f8301169050919050565b613a91816138f3565b8114613a9c57600080fd5b50565b613aa881613905565b8114613ab357600080fd5b50565b613abf81613917565b8114613aca57600080fd5b50565b613ad68161394f565b8114613ae157600080fd5b50565b613aed81613961565b8114613af857600080fd5b50565b613b0481613973565b8114613b0f57600080fd5b50565b613b1b81613985565b8114613b2657600080fd5b50565b613b3281613997565b8114613b3d57600080fd5b50565b613b49816139c9565b8114613b5457600080fd5b50565b613b60816139d3565b8114613b6b57600080fd5b5056fea365627a7a7231582054cbed5b7b5244bf9389c105979c786de5bf1fb6a37a874f1ef88d9b350371be6c6578706572696d656e74616cf564736f6c63430005100040",
  "linkReferences": {},
  "deployedLinkReferences": {}
}