{
  "_format": "hh-sol-artifact-1",
  "contractName": "CompoundLens",
  "sourceName": "contracts/Lens/CompoundLens.sol",
  "abi": [
    {
      "constant": false,
      "inputs": [
        {
          "internalType": "contract CToken",
          "name": "cToken",
          "type": "address"
        },
        {
          "internalType": "address payable",
          "name": "account",
          "type": "address"
        }
      ],
      "name": "cTokenBalances",
      "outputs": [
        {
          "components": [
            {
              "internalType": "address",
              "name": "cToken",
              "type": "address"
            },
            {
              "internalType": "uint256",
              "name": "balanceOf",
              "type": "uint256"
            },
            {
              "internalType": "uint256",
              "name": "borrowBalanceCurrent",
              "type": "uint256"
            },
            {
              "internalType": "uint256",
              "name": "balanceOfUnderlying",
              "type": "uint256"
            },
            {
              "internalType": "uint256",
              "name": "tokenBalance",
              "type": "uint256"
            },
            {
              "internalType": "uint256",
              "name": "tokenAllowance",
              "type": "uint256"
            }
          ],
          "internalType": "struct CompoundLens.CTokenBalances",
          "name": "",
          "type": "tuple"
        }
      ],
      "payable": false,
      "stateMutability": "nonpayable",
      "type": "function"
    },
    {
      "constant": false,
      "inputs": [
        {
          "internalType": "contract CToken[]",
          "name": "cTokens",
          "type": "address[]"
        },
        {
          "internalType": "address payable",
          "name": "account",
          "type": "address"
        }
      ],
      "name": "cTokenBalancesAll",
      "outputs": [
        {
          "components": [
            {
              "internalType": "address",
              "name": "cToken",
              "type": "address"
            },
            {
              "internalType": "uint256",
              "name": "balanceOf",
              "type": "uint256"
            },
            {
              "internalType": "uint256",
              "name": "borrowBalanceCurrent",
              "type": "uint256"
            },
            {
              "internalType": "uint256",
              "name": "balanceOfUnderlying",
              "type": "uint256"
            },
            {
              "internalType": "uint256",
              "name": "tokenBalance",
              "type": "uint256"
            },
            {
              "internalType": "uint256",
              "name": "tokenAllowance",
              "type": "uint256"
            }
          ],
          "internalType": "struct CompoundLens.CTokenBalances[]",
          "name": "",
          "type": "tuple[]"
        }
      ],
      "payable": false,
      "stateMutability": "nonpayable",
      "type": "function"
    },
    {
      "constant": false,
      "inputs": [
        {
          "internalType": "contract CToken",
          "name": "cToken",
          "type": "address"
        }
      ],
      "name": "cTokenMetadata",
      "outputs": [
        {
          "components": [
            {
              "internalType": "address",
              "name": "cToken",
              "type": "address"
            },
            {
              "internalType": "uint256",
              "name": "exchangeRateCurrent",
              "type": "uint256"
            },
            {
              "internalType": "uint256",
              "name": "supplyRatePerBlock",
              "type": "uint256"
            },
            {
              "internalType": "uint256",
              "name": "borrowRatePerBlock",
              "type": "uint256"
            },
            {
              "internalType": "uint256",
              "name": "reserveFactorMantissa",
              "type": "uint256"
            },
            {
              "internalType": "uint256",
              "name": "totalBorrows",
              "type": "uint256"
            },
            {
              "internalType": "uint256",
              "name": "totalReserves",
              "type": "uint256"
            },
            {
              "internalType": "uint256",
              "name": "totalSupply",
              "type": "uint256"
            },
            {
              "internalType": "uint256",
              "name": "totalCash",
              "type": "uint256"
            },
            {
              "internalType": "bool",
              "name": "isListed",
              "type": "bool"
            },
            {
              "internalType": "uint256",
              "name": "collateralFactorMantissa",
              "type": "uint256"
            },
            {
              "internalType": "address",
              "name": "underlyingAssetAddress",
              "type": "address"
            },
            {
              "internalType": "uint256",
              "name": "cTokenDecimals",
              "type": "uint256"
            },
            {
              "internalType": "uint256",
              "name": "underlyingDecimals",
              "type": "uint256"
            },
            {
              "internalType": "uint256",
              "name": "compSupplySpeed",
              "type": "uint256"
            },
            {
              "internalType": "uint256",
              "name": "compBorrowSpeed",
              "type": "uint256"
            },
            {
              "internalType": "uint256",
              "name": "borrowCap",
              "type": "uint256"
            }
          ],
          "internalType": "struct CompoundLens.CTokenMetadata",
          "name": "",
          "type": "tuple"
        }
      ],
      "payable": false,
      "stateMutability": "nonpayable",
      "type": "function"
    },
    {
      "constant": false,
      "inputs": [
        {
          "internalType": "contract CToken[]",
          "name": "cTokens",
          "type": "address[]"
        }
      ],
      "name": "cTokenMetadataAll",
      "outputs": [
        {
          "components": [
            {
              "internalType": "address",
              "name": "cToken",
              "type": "address"
            },
            {
              "internalType": "uint256",
              "name": "exchangeRateCurrent",
              "type": "uint256"
            },
            {
              "internalType": "uint256",
              "name": "supplyRatePerBlock",
              "type": "uint256"
            },
            {
              "internalType": "uint256",
              "name": "borrowRatePerBlock",
              "type": "uint256"
            },
            {
              "internalType": "uint256",
              "name": "reserveFactorMantissa",
              "type": "uint256"
            },
            {
              "internalType": "uint256",
              "name": "totalBorrows",
              "type": "uint256"
            },
            {
              "internalType": "uint256",
              "name": "totalReserves",
              "type": "uint256"
            },
            {
              "internalType": "uint256",
              "name": "totalSupply",
              "type": "uint256"
            },
            {
              "internalType": "uint256",
              "name": "totalCash",
              "type": "uint256"
            },
            {
              "internalType": "bool",
              "name": "isListed",
              "type": "bool"
            },
            {
              "internalType": "uint256",
              "name": "collateralFactorMantissa",
              "type": "uint256"
            },
            {
              "internalType": "address",
              "name": "underlyingAssetAddress",
              "type": "address"
            },
            {
              "internalType": "uint256",
              "name": "cTokenDecimals",
              "type": "uint256"
            },
            {
              "internalType": "uint256",
              "name": "underlyingDecimals",
              "type": "uint256"
            },
            {
              "internalType": "uint256",
              "name": "compSupplySpeed",
              "type": "uint256"
            },
            {
              "internalType": "uint256",
              "name": "compBorrowSpeed",
              "type": "uint256"
            },
            {
              "internalType": "uint256",
              "name": "borrowCap",
              "type": "uint256"
            }
          ],
          "internalType": "struct CompoundLens.CTokenMetadata[]",
          "name": "",
          "type": "tuple[]"
        }
      ],
      "payable": false,
      "stateMutability": "nonpayable",
      "type": "function"
    },
    {
      "constant": false,
      "inputs": [
        {
          "internalType": "contract CToken",
          "name": "cToken",
          "type": "address"
        }
      ],
      "name": "cTokenUnderlyingPrice",
      "outputs": [
        {
          "components": [
            {
              "internalType": "address",
              "name": "cToken",
              "type": "address"
            },
            {
              "internalType": "uint256",
              "name": "underlyingPrice",
              "type": "uint256"
            }
          ],
          "internalType": "struct CompoundLens.CTokenUnderlyingPrice",
          "name": "",
          "type": "tuple"
        }
      ],
      "payable": false,
      "stateMutability": "nonpayable",
      "type": "function"
    },
    {
      "constant": false,
      "inputs": [
        {
          "internalType": "contract CToken[]",
          "name": "cTokens",
          "type": "address[]"
        }
      ],
      "name": "cTokenUnderlyingPriceAll",
      "outputs": [
        {
          "components": [
            {
              "internalType": "address",
              "name": "cToken",
              "type": "address"
            },
            {
              "internalType": "uint256",
              "name": "underlyingPrice",
              "type": "uint256"
            }
          ],
          "internalType": "struct CompoundLens.CTokenUnderlyingPrice[]",
          "name": "",
          "type": "tuple[]"
        }
      ],
      "payable": false,
      "stateMutability": "nonpayable",
      "type": "function"
    },
    {
      "constant": false,
      "inputs": [
        {
          "internalType": "contract ComptrollerLensInterface",
          "name": "comptroller",
          "type": "address"
        },
        {
          "internalType": "address",
          "name": "account",
          "type": "address"
        }
      ],
      "name": "getAccountLimits",
      "outputs": [
        {
          "components": [
            {
              "internalType": "contract CToken[]",
              "name": "markets",
              "type": "address[]"
            },
            {
              "internalType": "uint256",
              "name": "liquidity",
              "type": "uint256"
            },
            {
              "internalType": "uint256",
              "name": "shortfall",
              "type": "uint256"
            }
          ],
          "internalType": "struct CompoundLens.AccountLimits",
          "name": "",
          "type": "tuple"
        }
      ],
      "payable": false,
      "stateMutability": "nonpayable",
      "type": "function"
    },
    {
      "constant": true,
      "inputs": [
        {
          "internalType": "contract GovernorBravoInterface",
          "name": "governor",
          "type": "address"
        },
        {
          "internalType": "uint256[]",
          "name": "proposalIds",
          "type": "uint256[]"
        }
      ],
      "name": "getGovBravoProposals",
      "outputs": [
        {
          "components": [
            {
              "internalType": "uint256",
              "name": "proposalId",
              "type": "uint256"
            },
            {
              "internalType": "address",
              "name": "proposer",
              "type": "address"
            },
            {
              "internalType": "uint256",
              "name": "eta",
              "type": "uint256"
            },
            {
              "internalType": "address[]",
              "name": "targets",
              "type": "address[]"
            },
            {
              "internalType": "uint256[]",
              "name": "values",
              "type": "uint256[]"
            },
            {
              "internalType": "string[]",
              "name": "signatures",
              "type": "string[]"
            },
            {
              "internalType": "bytes[]",
              "name": "calldatas",
              "type": "bytes[]"
            },
            {
              "internalType": "bool",
              "name": "canceled",
              "type": "bool"
            },
            {
              "internalType": "bool",
              "name": "executed",
              "type": "bool"
            }
          ],
          "internalType": "struct CompoundLens.GovBravoProposal[]",
          "name": "",
          "type": "tuple[]"
        }
      ],
      "payable": false,
      "stateMutability": "view",
      "type": "function"
    }
  ],
  "bytecode": "0x608060405234801561001057600080fd5b506129d5806100206000396000f3fe608060405234801561001057600080fd5b50600436106100885760003560e01c806375d80e901161005b57806375d80e90146101165780637dd8f6d914610136578063bdf950c914610156578063c5ae59341461017657610088565b80630972bf8b1461008d578063158eca8b146100b65780632b2d5ed6146100d65780634b70d84b146100f6575b600080fd5b6100a061009b366004611dc9565b610196565b6040516100ad91906127b8565b60405180910390f35b6100c96100c4366004611e8b565b610239565b6040516100ad9190612829565b6100e96100e4366004611d88565b610abb565b6040516100ad91906127da565b610109610104366004611d88565b610b57565b6040516100ad91906127c9565b610129610124366004611ef7565b610be8565b6040516100ad91906127eb565b610149610144366004611ea9565b610d88565b6040516100ad919061280a565b610169610164366004611ea9565b610ec4565b6040516100ad919061281b565b610189610184366004611e8b565b611264565b6040516100ad9190612838565b604080518381526020808502820101909152606090839082908280156101d657816020015b6101c3611797565b8152602001906001900390816101bb5790505b50905060005b8281101561022d5761020e8787838181106101f357fe5b90506020020160206102089190810190611e8b565b86610ec4565b82828151811061021a57fe5b60209081029190910101526001016101dc565b509150505b9392505050565b6102416117d6565b6000826001600160a01b031663bd6d894d6040518163ffffffff1660e01b8152600401602060405180830381600087803b15801561027e57600080fd5b505af1158015610292573d6000803e3d6000fd5b505050506040513d601f19601f820116820180604052506102b69190810190611f9e565b90506000836001600160a01b0316635fe3b5676040518163ffffffff1660e01b815260040160206040518083038186803b1580156102f357600080fd5b505afa158015610307573d6000803e3d6000fd5b505050506040513d601f19601f8201168201806040525061032b9190810190611ed9565b9050600080826001600160a01b0316638e8f294b876040518263ffffffff1660e01b815260040161035c9190612781565b604080518083038186803b15801561037357600080fd5b505afa158015610387573d6000803e3d6000fd5b505050506040513d601f19601f820116820180604052506103ab9190810190611e51565b9150915060008061044c886001600160a01b03166395d89b416040518163ffffffff1660e01b815260040160006040518083038186803b1580156103ee57600080fd5b505afa158015610402573d6000803e3d6000fd5b505050506040513d6000823e601f3d908101601f1916820160405261042a9190810190611f4c565b604051806040016040528060048152602001630c68aa8960e31b8152506113f6565b1561045d57506000905060126105bd565b6000889050806001600160a01b0316636f307dc36040518163ffffffff1660e01b815260040160206040518083038186803b15801561049b57600080fd5b505afa1580156104af573d6000803e3d6000fd5b505050506040513d601f19601f820116820180604052506104d39190810190611ca6565b9250806001600160a01b0316636f307dc36040518163ffffffff1660e01b815260040160206040518083038186803b15801561050e57600080fd5b505afa158015610522573d6000803e3d6000fd5b505050506040513d601f19601f820116820180604052506105469190810190611ca6565b6001600160a01b031663313ce5676040518163ffffffff1660e01b815260040160206040518083038186803b15801561057e57600080fd5b505afa158015610592573d6000803e3d6000fd5b505050506040513d601f19601f820116820180604052506105b69190810190611fff565b60ff169150505b6000806105ca878b61144f565b91509150600080905060006060896001600160a01b03168a6001600160a01b0316634a584432905060e01b8e6040516020016106069190612781565b60408051601f19818403018152908290526106249291602001612759565b60408051601f198184030181529082905261063e91612775565b6000604051808303816000865af19150503d806000811461067b576040519150601f19603f3d011682016040523d82523d6000602084013e610680565b606091505b509150915081156106a2578080602001905161069f9190810190611f9e565b92505b6040518061022001604052808e6001600160a01b031681526020018c81526020018e6001600160a01b031663ae9d70b06040518163ffffffff1660e01b815260040160206040518083038186803b1580156106fc57600080fd5b505afa158015610710573d6000803e3d6000fd5b505050506040513d601f19601f820116820180604052506107349190810190611f9e565b81526020018e6001600160a01b031663f8f9da286040518163ffffffff1660e01b815260040160206040518083038186803b15801561077257600080fd5b505afa158015610786573d6000803e3d6000fd5b505050506040513d601f19601f820116820180604052506107aa9190810190611f9e565b81526020018e6001600160a01b031663173b99046040518163ffffffff1660e01b815260040160206040518083038186803b1580156107e857600080fd5b505afa1580156107fc573d6000803e3d6000fd5b505050506040513d601f19601f820116820180604052506108209190810190611f9e565b81526020018e6001600160a01b03166347bd37186040518163ffffffff1660e01b815260040160206040518083038186803b15801561085e57600080fd5b505afa158015610872573d6000803e3d6000fd5b505050506040513d601f19601f820116820180604052506108969190810190611f9e565b81526020018e6001600160a01b0316638f840ddd6040518163ffffffff1660e01b815260040160206040518083038186803b1580156108d457600080fd5b505afa1580156108e8573d6000803e3d6000fd5b505050506040513d601f19601f8201168201806040525061090c9190810190611f9e565b81526020018e6001600160a01b03166318160ddd6040518163ffffffff1660e01b815260040160206040518083038186803b15801561094a57600080fd5b505afa15801561095e573d6000803e3d6000fd5b505050506040513d601f19601f820116820180604052506109829190810190611f9e565b81526020018e6001600160a01b0316633b1d21a26040518163ffffffff1660e01b815260040160206040518083038186803b1580156109c057600080fd5b505afa1580156109d4573d6000803e3d6000fd5b505050506040513d601f19601f820116820180604052506109f89190810190611f9e565b81526020018a15158152602001898152602001886001600160a01b031681526020018e6001600160a01b031663313ce5676040518163ffffffff1660e01b815260040160206040518083038186803b158015610a5357600080fd5b505afa158015610a67573d6000803e3d6000fd5b505050506040513d601f19601f82011682018060405250610a8b9190810190611fff565b60ff168152602001878152602001868152602001858152602001848152509b505050505050505050505050919050565b60408051828152602080840282010190915260609082908290828015610afb57816020015b610ae861186e565b815260200190600190039081610ae05790505b50905060005b82811015610b4c57610b2d868683818110610b1857fe5b90506020020160206101849190810190611e8b565b828281518110610b3957fe5b6020908102919091010152600101610b01565b509150505b92915050565b60408051828152602080840282010190915260609082908290828015610b9757816020015b610b846117d6565b815260200190600190039081610b7c5790505b50905060005b82811015610b4c57610bc9868683818110610bb457fe5b90506020020160206100c49190810190611e8b565b828281518110610bd557fe5b6020908102919091010152600101610b9d565b60608083839050604051908082528060200260200182016040528015610c2857816020015b610c15611885565b815260200190600190039081610c0d5790505b50905060005b83811015610d7f57606080606080896001600160a01b031663328dd9828a8a88818110610c5757fe5b905060200201356040518263ffffffff1660e01b8152600401610c7a9190612846565b60006040518083038186803b158015610c9257600080fd5b505afa158015610ca6573d6000803e3d6000fd5b505050506040513d6000823e601f3d908101601f19168201604052610cce9190810190611ccc565b93509350935093506040518061012001604052806000815260200160006001600160a01b031681526020016000815260200185815260200184815260200183815260200182815260200160001515815260200160001515815250868681518110610d3457fe5b6020026020010181905250610d6f868681518110610d4e57fe5b60200260200101518b8b8b89818110610d6357fe5b905060200201356116d3565b505060019092019150610c2e9050565b50949350505050565b610d906118de565b6000806000856001600160a01b0316635ec88c79866040518263ffffffff1660e01b8152600401610dc19190612781565b60606040518083038186803b158015610dd957600080fd5b505afa158015610ded573d6000803e3d6000fd5b505050506040513d601f19601f82011682018060405250610e119190810190611fbc565b92509250925082600014610e2457600080fd5b604080516060810191829052632aff3bff60e21b909152806001600160a01b03881663abfceffc610e588960648501612781565b60006040518083038186803b158015610e7057600080fd5b505afa158015610e84573d6000803e3d6000fd5b505050506040513d6000823e601f3d908101601f19168201604052610eac9190810190611e1d565b81526020810193909352604090920152949350505050565b610ecc611797565b6040516370a0823160e01b81526000906001600160a01b038516906370a0823190610efb90869060040161278f565b60206040518083038186803b158015610f1357600080fd5b505afa158015610f27573d6000803e3d6000fd5b505050506040513d601f19601f82011682018060405250610f4b9190810190611f9e565b90506000846001600160a01b03166317bfdfbc856040518263ffffffff1660e01b8152600401610f7b919061278f565b602060405180830381600087803b158015610f9557600080fd5b505af1158015610fa9573d6000803e3d6000fd5b505050506040513d601f19601f82011682018060405250610fcd9190810190611f9e565b90506000856001600160a01b0316633af9e669866040518263ffffffff1660e01b8152600401610ffd919061278f565b602060405180830381600087803b15801561101757600080fd5b505af115801561102b573d6000803e3d6000fd5b505050506040513d601f19601f8201168201806040525061104f9190810190611f9e565b9050600080611090886001600160a01b03166395d89b416040518163ffffffff1660e01b815260040160006040518083038186803b1580156103ee57600080fd5b156110aa5750506001600160a01b03851680319031611227565b60008890506000816001600160a01b0316636f307dc36040518163ffffffff1660e01b815260040160206040518083038186803b1580156110ea57600080fd5b505afa1580156110fe573d6000803e3d6000fd5b505050506040513d601f19601f820116820180604052506111229190810190611ca6565b6040516370a0823160e01b81529091506001600160a01b038216906370a0823190611151908c9060040161278f565b60206040518083038186803b15801561116957600080fd5b505afa15801561117d573d6000803e3d6000fd5b505050506040513d601f19601f820116820180604052506111a19190810190611f9e565b604051636eb1769f60e11b81529094506001600160a01b0382169063dd62ed3e906111d2908c908e9060040161279d565b60206040518083038186803b1580156111ea57600080fd5b505afa1580156111fe573d6000803e3d6000fd5b505050506040513d601f19601f820116820180604052506112229190810190611f9e565b925050505b6040805160c0810182526001600160a01b039990991689526020890195909552938701929092526060860152608085015260a08401525090919050565b61126c61186e565b6000826001600160a01b0316635fe3b5676040518163ffffffff1660e01b815260040160206040518083038186803b1580156112a757600080fd5b505afa1580156112bb573d6000803e3d6000fd5b505050506040513d601f19601f820116820180604052506112df9190810190611ed9565b90506000816001600160a01b0316637dc0d1d06040518163ffffffff1660e01b815260040160206040518083038186803b15801561131c57600080fd5b505afa158015611330573d6000803e3d6000fd5b505050506040513d601f19601f820116820180604052506113549190810190611ed9565b90506040518060400160405280856001600160a01b03168152602001826001600160a01b031663fc57d4df876040518263ffffffff1660e01b815260040161139c91906127fc565b60206040518083038186803b1580156113b457600080fd5b505afa1580156113c8573d6000803e3d6000fd5b505050506040513d601f19601f820116820180604052506113ec9190810190611f9e565b9052949350505050565b6000816040516020016114099190612775565b60405160208183030381529060405280519060200120836040516020016114309190612775565b6040516020818303038152906040528051906020012014905092915050565b6040516000908190819081906060906001600160a01b03881690636aa875b560e01b90611480908990602001612781565b60408051601f198184030181529082905261149e9291602001612759565b60408051601f19818403018152908290526114b891612775565b6000604051808303816000865af19150503d80600081146114f5576040519150601f19603f3d011682016040523d82523d6000602084013e6114fa565b606091505b5091509150811561151c57808060200190516115199190810190611f9e565b92505b60405160009081906060906001600160a01b038b16906303d290cf60e61b90611549908c90602001612781565b60408051601f19818403018152908290526115679291602001612759565b60408051601f198184030181529082905261158191612775565b6000604051808303816000865af19150503d80600081146115be576040519150601f19603f3d011682016040523d82523d6000602084013e6115c3565b606091505b509150915081156115e557808060200190516115e29190810190611f9e565b92505b8415806115f0575081155b156116c2576040516000906060906001600160a01b038d1690631d7b33d760e01b90611620908e90602001612781565b60408051601f198184030181529082905261163e9291602001612759565b60408051601f198184030181529082905261165891612775565b6000604051808303816000865af19150503d8060008114611695576040519150601f19603f3d011682016040523d82523d6000602084013e61169a565b606091505b509150915081156116bf57808060200190516116b99190810190611f9e565b94508497505b50505b5093955093505050505b9250929050565b6116db6118ff565b60405163013cf08b60e01b81526001600160a01b0384169063013cf08b90611707908590600401612846565b60a06040518083038186803b15801561171f57600080fd5b505afa158015611733573d6000803e3d6000fd5b505050506040513d601f19601f820116820180604052506117579190810190611f80565b918452506020808201516001600160a01b031690840152604080820151908401526060810151151560e08401526080015115156101009092019190915250565b6040518060c0016040528060006001600160a01b0316815260200160008152602001600081526020016000815260200160008152602001600081525090565b60405180610220016040528060006001600160a01b0316815260200160008152602001600081526020016000815260200160008152602001600081526020016000815260200160008152602001600081526020016000151581526020016000815260200160006001600160a01b0316815260200160008152602001600081526020016000815260200160008152602001600081525090565b604080518082019091526000808252602082015290565b6040518061012001604052806000815260200160006001600160a01b0316815260200160008152602001606081526020016060815260200160608152602001606081526020016000151581526020016000151581525090565b60405180606001604052806060815260200160008152602001600081525090565b6040805160a08101825260008082526020820181905291810182905260608101829052608081019190915290565b8035610b5181612957565b8051610b5181612957565b600082601f83011261195457600080fd5b81516119676119628261287a565b612854565b9150818183526020840193506020810190508385602084028201111561198c57600080fd5b60005b838110156119b857816119a28882611938565b845250602092830192919091019060010161198f565b5050505092915050565b600082601f8301126119d357600080fd5b81516119e16119628261287a565b81815260209384019390925082018360005b838110156119b85781518601611a098882611ba8565b84525060209283019291909101906001016119f3565b60008083601f840112611a3157600080fd5b5081356001600160401b03811115611a4857600080fd5b6020830191508360208202830111156116cc57600080fd5b600082601f830112611a7157600080fd5b8151611a7f6119628261287a565b91508181835260208401935060208101905083856020840282011115611aa457600080fd5b60005b838110156119b85781611aba8882611c02565b8452506020928301929190910190600101611aa7565b600082601f830112611ae157600080fd5b8151611aef6119628261287a565b81815260209384019390925082018360005b838110156119b85781518601611b178882611ba8565b8452506020928301929190910190600101611b01565b600082601f830112611b3e57600080fd5b8151611b4c6119628261287a565b91508181835260208401935060208101905083856020840282011115611b7157600080fd5b60005b838110156119b85781611b878882611c90565b8452506020928301929190910190600101611b74565b8051610b518161296e565b600082601f830112611bb957600080fd5b8151611bc76119628261289a565b91508082526020830160208301858383011115611be357600080fd5b611bee838284612921565b50505092915050565b8035610b5181612977565b8051610b5181612977565b600060a08284031215611c1f57600080fd5b611c2960a0612854565b90506000611c378484611c90565b8252506020611c4884848301611938565b6020830152506040611c5c84828501611c90565b6040830152506060611c7084828501611b9d565b6060830152506080611c8484828501611b9d565b60808301525092915050565b8051610b5181612980565b8051610b5181612989565b600060208284031215611cb857600080fd5b6000611cc48484611938565b949350505050565b60008060008060808587031215611ce257600080fd5b84516001600160401b03811115611cf857600080fd5b611d0487828801611943565b94505060208501516001600160401b03811115611d2057600080fd5b611d2c87828801611b2d565b93505060408501516001600160401b03811115611d4857600080fd5b611d5487828801611ad0565b92505060608501516001600160401b03811115611d7057600080fd5b611d7c878288016119c2565b91505092959194509250565b60008060208385031215611d9b57600080fd5b82356001600160401b03811115611db157600080fd5b611dbd85828601611a1f565b92509250509250929050565b600080600060408486031215611dde57600080fd5b83356001600160401b03811115611df457600080fd5b611e0086828701611a1f565b93509350506020611e138682870161192d565b9150509250925092565b600060208284031215611e2f57600080fd5b81516001600160401b03811115611e4557600080fd5b611cc484828501611a60565b60008060408385031215611e6457600080fd5b6000611e708585611b9d565b9250506020611e8185828601611c90565b9150509250929050565b600060208284031215611e9d57600080fd5b6000611cc48484611bf7565b60008060408385031215611ebc57600080fd5b6000611ec88585611bf7565b9250506020611e818582860161192d565b600060208284031215611eeb57600080fd5b6000611cc48484611c02565b600080600060408486031215611f0c57600080fd5b6000611f188686611bf7565b93505060208401356001600160401b03811115611f3457600080fd5b611f4086828701611a1f565b92509250509250925092565b600060208284031215611f5e57600080fd5b81516001600160401b03811115611f7457600080fd5b611cc484828501611ba8565b600060a08284031215611f9257600080fd5b6000611cc48484611c0d565b600060208284031215611fb057600080fd5b6000611cc48484611c90565b600080600060608486031215611fd157600080fd5b6000611fdd8686611c90565b9350506020611fee86828701611c90565b9250506040611e1386828701611c90565b60006020828403121561201157600080fd5b6000611cc48484611c9b565b600061202983836120ad565b505060200190565b6000610232838361240e565b60006120298383612446565b60006120558383612497565b505060c00190565b6000612069838361250d565b50506102200190565b600061207e8383612661565b505060400190565b60006102328383612685565b60006120298383612750565b6120a781612916565b82525050565b6120a7816128d9565b60006120c1826128c7565b6120cb81856128cb565b93506120d6836128c1565b8060005b838110156121045781516120ee888261201d565b97506120f9836128c1565b9250506001016120da565b509495945050505050565b600061211a826128c7565b61212481856128cb565b935083602082028501612136856128c1565b8060005b8581101561217057848403895281516121538582612031565b945061215e836128c1565b60209a909a019992505060010161213a565b5091979650505050505050565b6000612188826128c7565b61219281856128cb565b935061219d836128c1565b8060005b838110156121045781516121b5888261203d565b97506121c0836128c1565b9250506001016121a1565b60006121d6826128c7565b6121e081856128cb565b9350836020820285016121f2856128c1565b8060005b85811015612170578484038952815161220f8582612031565b945061221a836128c1565b60209a909a01999250506001016121f6565b6000612237826128c7565b61224181856128cb565b935061224c836128c1565b8060005b838110156121045781516122648882612049565b975061226f836128c1565b925050600101612250565b6000612285826128c7565b61228f81856128cb565b935061229a836128c1565b8060005b838110156121045781516122b2888261205d565b97506122bd836128c1565b92505060010161229e565b60006122d3826128c7565b6122dd81856128cb565b93506122e8836128c1565b8060005b838110156121045781516123008882612072565b975061230b836128c1565b9250506001016122ec565b6000612321826128c7565b61232b81856128cb565b93508360208202850161233d856128c1565b8060005b85811015612170578484038952815161235a8582612086565b9450612365836128c1565b60209a909a0199925050600101612341565b6000612382826128c7565b61238c81856128cb565b9350612397836128c1565b8060005b838110156121045781516123af8882612092565b97506123ba836128c1565b92505060010161239b565b6120a7816128e4565b6120a76123da826128e9565b61290d565b60006123ea826128c7565b6123f481856128d4565b9350612404818560208601612921565b9290920192915050565b6000612419826128c7565b61242381856128cb565b9350612433818560208601612921565b61243c8161294d565b9093019392505050565b6120a7816128f6565b8051606080845260009190840190612467828261217d565b915050602083015161247c6020860182612750565b50604083015161248f6040860182612750565b509392505050565b805160c08301906124a884826120ad565b5060208201516124bb6020850182612750565b5060408201516124ce6040850182612750565b5060608201516124e16060850182612750565b5060808201516124f46080850182612750565b5060a082015161250760a0850182612750565b50505050565b805161022083019061251f84826120ad565b5060208201516125326020850182612750565b5060408201516125456040850182612750565b5060608201516125586060850182612750565b50608082015161256b6080850182612750565b5060a082015161257e60a0850182612750565b5060c082015161259160c0850182612750565b5060e08201516125a460e0850182612750565b506101008201516125b9610100850182612750565b506101208201516125ce6101208501826123c5565b506101408201516125e3610140850182612750565b506101608201516125f86101608501826120ad565b5061018082015161260d610180850182612750565b506101a08201516126226101a0850182612750565b506101c08201516126376101c0850182612750565b506101e082015161264c6101e0850182612750565b50610200820151612507610200850182612750565b8051604083019061267284826120ad565b5060208201516125076020850182612750565b805160009061012084019061269a8582612750565b5060208301516126ad60208601826120ad565b5060408301516126c06040860182612750565b50606083015184820360608601526126d882826120b6565b915050608083015184820360808601526126f28282612377565b91505060a083015184820360a086015261270c82826121cb565b91505060c083015184820360c0860152612726828261210f565b91505060e083015161273b60e08601826123c5565b5061010083015161248f6101008601826123c5565b6120a78161290d565b600061276582856123ce565b600482019150611cc482846123df565b600061023282846123df565b60208101610b5182846120ad565b60208101610b51828461209e565b604081016127ab828561209e565b61023260208301846120ad565b60208082528101610232818461222c565b60208082528101610232818461227a565b6020808252810161023281846122c8565b602080825281016102328184612316565b60208101610b518284612446565b60208082528101610232818461244f565b60c08101610b518284612497565b6102208101610b51828461250d565b60408101610b518284612661565b60208101610b518284612750565b6040518181016001600160401b038111828210171561287257600080fd5b604052919050565b60006001600160401b0382111561289057600080fd5b5060209081020190565b60006001600160401b038211156128b057600080fd5b506020601f91909101601f19160190565b60200190565b5190565b90815260200190565b919050565b6000610b5182612901565b151590565b6001600160e01b03191690565b6000610b51826128d9565b6001600160a01b031690565b90565b60ff1690565b6000610b51826128f6565b60005b8381101561293c578181015183820152602001612924565b838111156125075750506000910152565b601f01601f191690565b612960816128d9565b811461296b57600080fd5b50565b612960816128e4565b612960816128f6565b6129608161290d565b6129608161291056fea365627a7a72315820fc5a7e0c17fdbbb611bc4a3dadd89a54472e32b902bb157c06618eb7394537ef6c6578706572696d656e74616cf564736f6c63430005100040",
  "linkReferences": {},
  "deployedLinkReferences": {}
}