{
  "_format": "hh-sol-artifact-1",
  "contractName": "GovernorBravoDelegateStorageV1",
  "sourceName": "contracts/Governance/GovernorBravoInterfaces.sol",
  "abi": [
    {
      "constant": true,
      "inputs": [],
      "name": "admin",
      "outputs": [
        {
          "internalType": "address",
          "name": "",
          "type": "address"
        }
      ],
      "payable": false,
      "stateMutability": "view",
      "type": "function"
    },
    {
      "constant": true,
      "inputs": [],
      "name": "implementation",
      "outputs": [
        {
          "internalType": "address",
          "name": "",
          "type": "address"
        }
      ],
      "payable": false,
      "stateMutability": "view",
      "type": "function"
    },
    {
      "constant": true,
      "inputs": [],
      "name": "initialProposalId",
      "outputs": [
        {
          "internalType": "uint256",
          "name": "",
          "type": "uint256"
        }
      ],
      "payable": false,
      "stateMutability": "view",
      "type": "function"
    },
    {
      "constant": true,
      "inputs": [
        {
          "internalType": "address",
          "name": "",
          "type": "address"
        }
      ],
      "name": "latestProposalIds",
      "outputs": [
        {
          "internalType": "uint256",
          "name": "",
          "type": "uint256"
        }
      ],
      "payable": false,
      "stateMutability": "view",
      "type": "function"
    },
    {
      "constant": true,
      "inputs": [],
      "name": "pendingAdmin",
      "outputs": [
        {
          "internalType": "address",
          "name": "",
          "type": "address"
        }
      ],
      "payable": false,
      "stateMutability": "view",
      "type": "function"
    },
    {
      "constant": true,
      "inputs": [],
      "name": "proposalCount",
      "outputs": [
        {
          "internalType": "uint256",
          "name": "",
          "type": "uint256"
        }
      ],
      "payable": false,
      "stateMutability": "view",
      "type": "function"
    },
    {
      "constant": true,
      "inputs": [
        {
          "internalType": "uint256",
          "name": "",
          "type": "uint256"
        }
      ],
      "name": "proposals",
      "outputs": [
        {
          "internalType": "uint256",
          "name": "id",
          "type": "uint256"
        },
        {
          "internalType": "address",
          "name": "proposer",
          "type": "address"
        },
        {
          "internalType": "uint256",
          "name": "eta",
          "type": "uint256"
        },
        {
          "internalType": "bool",
          "name": "canceled",
          "type": "bool"
        },
        {
          "internalType": "bool",
          "name": "executed",
          "type": "bool"
        }
      ],
      "payable": false,
      "stateMutability": "view",
      "type": "function"
    },
    {
      "constant": true,
      "inputs": [],
      "name": "timelock",
      "outputs": [
        {
          "internalType": "contract TimelockInterface",
          "name": "",
          "type": "address"
        }
      ],
      "payable": false,
      "stateMutability": "view",
      "type": "function"
    }
  ],
  "bytecode": "0x608060405234801561001057600080fd5b50610509806100206000396000f3fe608060405234801561001057600080fd5b50600436106100885760003560e01c8063d33219b41161005b578063d33219b41461012d578063da35c6641461014b578063f851a44014610169578063fc4eee421461018757610088565b8063013cf08b1461008d57806317977c61146100c157806326782247146100f15780635c60da1b1461010f575b600080fd5b6100a760048036036100a29190810190610323565b6101a5565b6040516100b89594939291906103d9565b60405180910390f35b6100db60048036036100d691908101906102fa565b610215565b6040516100e891906103be565b60405180910390f35b6100f961022d565b6040516101069190610388565b60405180910390f35b610117610253565b6040516101249190610388565b60405180910390f35b610135610279565b60405161014291906103a3565b60405180910390f35b61015361029f565b60405161016091906103be565b60405180910390f35b6101716102a5565b60405161017e9190610388565b60405180910390f35b61018f6102ca565b60405161019c91906103be565b60405180910390f35b60066020528060005260406000206000915090508060000154908060010160009054906101000a900473ffffffffffffffffffffffffffffffffffffffff16908060020154908060070160009054906101000a900460ff16908060070160019054906101000a900460ff16905085565b60076020528060005260406000206000915090505481565b600160009054906101000a900473ffffffffffffffffffffffffffffffffffffffff1681565b600260009054906101000a900473ffffffffffffffffffffffffffffffffffffffff1681565b600560009054906101000a900473ffffffffffffffffffffffffffffffffffffffff1681565b60045481565b6000809054906101000a900473ffffffffffffffffffffffffffffffffffffffff1681565b60035481565b6000813590506102df81610498565b92915050565b6000813590506102f4816104af565b92915050565b60006020828403121561030c57600080fd5b600061031a848285016102d0565b91505092915050565b60006020828403121561033557600080fd5b6000610343848285016102e5565b91505092915050565b6103558161042c565b82525050565b6103648161043e565b82525050565b61037381610474565b82525050565b6103828161046a565b82525050565b600060208201905061039d600083018461034c565b92915050565b60006020820190506103b8600083018461036a565b92915050565b60006020820190506103d36000830184610379565b92915050565b600060a0820190506103ee6000830188610379565b6103fb602083018761034c565b6104086040830186610379565b610415606083018561035b565b610422608083018461035b565b9695505050505050565b60006104378261044a565b9050919050565b60008115159050919050565b600073ffffffffffffffffffffffffffffffffffffffff82169050919050565b6000819050919050565b600061047f82610486565b9050919050565b60006104918261044a565b9050919050565b6104a18161042c565b81146104ac57600080fd5b50565b6104b88161046a565b81146104c357600080fd5b5056fea365627a7a7231582013898a8ce754734ae8dc0cf4dbf5e3f1074a88774391f19947b15effc3374abe6c6578706572696d656e74616cf564736f6c63430005100040",
  "linkReferences": {},
  "deployedLinkReferences": {}
}