{
  "_format": "hh-sol-artifact-1",
  "contractName": "GovernorBravoDelegateStorageV2",
  "sourceName": "contracts/Governance/GovernorBravoInterfaces.sol",
  "abi": [
    {
      "constant": true,
      "inputs": [],
      "name": "admin",
      "outputs": [
        {
          "internalType": "address",
          "name": "",
          "type": "address"
        }
      ],
      "payable": false,
      "stateMutability": "view",
      "type": "function"
    },
    {
      "constant": true,
      "inputs": [],
      "name": "implementation",
      "outputs": [
        {
          "internalType": "address",
          "name": "",
          "type": "address"
        }
      ],
      "payable": false,
      "stateMutability": "view",
      "type": "function"
    },
    {
      "constant": true,
      "inputs": [],
      "name": "initialProposalId",
      "outputs": [
        {
          "internalType": "uint256",
          "name": "",
          "type": "uint256"
        }
      ],
      "payable": false,
      "stateMutability": "view",
      "type": "function"
    },
    {
      "constant": true,
      "inputs": [
        {
          "internalType": "address",
          "name": "",
          "type": "address"
        }
      ],
      "name": "latestProposalIds",
      "outputs": [
        {
          "internalType": "uint256",
          "name": "",
          "type": "uint256"
        }
      ],
      "payable": false,
      "stateMutability": "view",
      "type": "function"
    },
    {
      "constant": true,
      "inputs": [],
      "name": "pendingAdmin",
      "outputs": [
        {
          "internalType": "address",
          "name": "",
          "type": "address"
        }
      ],
      "payable": false,
      "stateMutability": "view",
      "type": "function"
    },
    {
      "constant": true,
      "inputs": [],
      "name": "proposalCount",
      "outputs": [
        {
          "internalType": "uint256",
          "name": "",
          "type": "uint256"
        }
      ],
      "payable": false,
      "stateMutability": "view",
      "type": "function"
    },
    {
      "constant": true,
      "inputs": [
        {
          "internalType": "uint256",
          "name": "",
          "type": "uint256"
        }
      ],
      "name": "proposals",
      "outputs": [
        {
          "internalType": "uint256",
          "name": "id",
          "type": "uint256"
        },
        {
          "internalType": "address",
          "name": "proposer",
          "type": "address"
        },
        {
          "internalType": "uint256",
          "name": "eta",
          "type": "uint256"
        },
        {
          "internalType": "bool",
          "name": "canceled",
          "type": "bool"
        },
        {
          "internalType": "bool",
          "name": "executed",
          "type": "bool"
        }
      ],
      "payable": false,
      "stateMutability": "view",
      "type": "function"
    },
    {
      "constant": true,
      "inputs": [],
      "name": "timelock",
      "outputs": [
        {
          "internalType": "contract TimelockInterface",
          "name": "",
          "type": "address"
        }
      ],
      "payable": false,
      "stateMutability": "view",
      "type": "function"
    },
    {
      "constant": true,
      "inputs": [
        {
          "internalType": "address",
          "name": "",
          "type": "address"
        }
      ],
      "name": "whitelistAccountExpirations",
      "outputs": [
        {
          "internalType": "uint256",
          "name": "",
          "type": "uint256"
        }
      ],
      "payable": false,
      "stateMutability": "view",
      "type": "function"
    },
    {
      "constant": true,
      "inputs": [],
      "name": "whitelistGuardian",
      "outputs": [
        {
          "internalType": "address",
          "name": "",
          "type": "address"
        }
      ],
      "payable": false,
      "stateMutability": "view",
      "type": "function"
    }
  ],
  "bytecode": "0x608060405234801561001057600080fd5b506105ab806100206000396000f3fe608060405234801561001057600080fd5b506004361061009e5760003560e01c8063c5a8425d11610066578063c5a8425d14610173578063d33219b414610191578063da35c664146101af578063f851a440146101cd578063fc4eee42146101eb5761009e565b8063013cf08b146100a357806317977c61146100d7578063267822471461010757806338bd0dda146101255780635c60da1b14610155575b600080fd5b6100bd60048036036100b891908101906103c5565b610209565b6040516100ce95949392919061047b565b60405180910390f35b6100f160048036036100ec919081019061039c565b610279565b6040516100fe9190610460565b60405180910390f35b61010f610291565b60405161011c919061042a565b60405180910390f35b61013f600480360361013a919081019061039c565b6102b7565b60405161014c9190610460565b60405180910390f35b61015d6102cf565b60405161016a919061042a565b60405180910390f35b61017b6102f5565b604051610188919061042a565b60405180910390f35b61019961031b565b6040516101a69190610445565b60405180910390f35b6101b7610341565b6040516101c49190610460565b60405180910390f35b6101d5610347565b6040516101e2919061042a565b60405180910390f35b6101f361036c565b6040516102009190610460565b60405180910390f35b60066020528060005260406000206000915090508060000154908060010160009054906101000a900473ffffffffffffffffffffffffffffffffffffffff16908060020154908060070160009054906101000a900460ff16908060070160019054906101000a900460ff16905085565b60076020528060005260406000206000915090505481565b600160009054906101000a900473ffffffffffffffffffffffffffffffffffffffff1681565b60086020528060005260406000206000915090505481565b600260009054906101000a900473ffffffffffffffffffffffffffffffffffffffff1681565b600960009054906101000a900473ffffffffffffffffffffffffffffffffffffffff1681565b600560009054906101000a900473ffffffffffffffffffffffffffffffffffffffff1681565b60045481565b6000809054906101000a900473ffffffffffffffffffffffffffffffffffffffff1681565b60035481565b6000813590506103818161053a565b92915050565b60008135905061039681610551565b92915050565b6000602082840312156103ae57600080fd5b60006103bc84828501610372565b91505092915050565b6000602082840312156103d757600080fd5b60006103e584828501610387565b91505092915050565b6103f7816104ce565b82525050565b610406816104e0565b82525050565b61041581610516565b82525050565b6104248161050c565b82525050565b600060208201905061043f60008301846103ee565b92915050565b600060208201905061045a600083018461040c565b92915050565b6000602082019050610475600083018461041b565b92915050565b600060a082019050610490600083018861041b565b61049d60208301876103ee565b6104aa604083018661041b565b6104b760608301856103fd565b6104c460808301846103fd565b9695505050505050565b60006104d9826104ec565b9050919050565b60008115159050919050565b600073ffffffffffffffffffffffffffffffffffffffff82169050919050565b6000819050919050565b600061052182610528565b9050919050565b6000610533826104ec565b9050919050565b610543816104ce565b811461054e57600080fd5b50565b61055a8161050c565b811461056557600080fd5b5056fea365627a7a72315820b0b8fd440d9152d599e282d96dbe2d26da8925784040324feaf58d29c47222366c6578706572696d656e74616cf564736f6c63430005100040",
  "linkReferences": {},
  "deployedLinkReferences": {}
}