{
  "_format": "hh-sol-artifact-1",
  "contractName": "GovernorBravoDelegateStorageV2",
  "sourceName": "contracts/Governance/GovernorBravoInterfaces.sol",
  "abi": [
    {
      "constant": true,
      "inputs": [],
      "name": "admin",
      "outputs": [
        {
          "internalType": "address",
          "name": "",
          "type": "address"
        }
      ],
      "payable": false,
      "stateMutability": "view",
      "type": "function"
    },
    {
      "constant": true,
      "inputs": [],
      "name": "implementation",
      "outputs": [
        {
          "internalType": "address",
          "name": "",
          "type": "address"
        }
      ],
      "payable": false,
      "stateMutability": "view",
      "type": "function"
    },
    {
      "constant": true,
      "inputs": [],
      "name": "initialProposalId",
      "outputs": [
        {
          "internalType": "uint256",
          "name": "",
          "type": "uint256"
        }
      ],
      "payable": false,
      "stateMutability": "view",
      "type": "function"
    },
    {
      "constant": true,
      "inputs": [
        {
          "internalType": "address",
          "name": "",
          "type": "address"
        }
      ],
      "name": "latestProposalIds",
      "outputs": [
        {
          "internalType": "uint256",
          "name": "",
          "type": "uint256"
        }
      ],
      "payable": false,
      "stateMutability": "view",
      "type": "function"
    },
    {
      "constant": true,
      "inputs": [],
      "name": "pendingAdmin",
      "outputs": [
        {
          "internalType": "address",
          "name": "",
          "type": "address"
        }
      ],
      "payable": false,
      "stateMutability": "view",
      "type": "function"
    },
    {
      "constant": true,
      "inputs": [],
      "name": "proposalCount",
      "outputs": [
        {
          "internalType": "uint256",
          "name": "",
          "type": "uint256"
        }
      ],
      "payable": false,
      "stateMutability": "view",
      "type": "function"
    },
    {
      "constant": true,
      "inputs": [
        {
          "internalType": "uint256",
          "name": "",
          "type": "uint256"
        }
      ],
      "name": "proposals",
      "outputs": [
        {
          "internalType": "uint256",
          "name": "id",
          "type": "uint256"
        },
        {
          "internalType": "address",
          "name": "proposer",
          "type": "address"
        },
        {
          "internalType": "uint256",
          "name": "eta",
          "type": "uint256"
        },
        {
          "internalType": "bool",
          "name": "canceled",
          "type": "bool"
        },
        {
          "internalType": "bool",
          "name": "executed",
          "type": "bool"
        }
      ],
      "payable": false,
      "stateMutability": "view",
      "type": "function"
    },
    {
      "constant": true,
      "inputs": [],
      "name": "timelock",
      "outputs": [
        {
          "internalType": "contract TimelockInterface",
          "name": "",
          "type": "address"
        }
      ],
      "payable": false,
      "stateMutability": "view",
      "type": "function"
    },
    {
      "constant": true,
      "inputs": [
        {
          "internalType": "address",
          "name": "",
          "type": "address"
        }
      ],
      "name": "whitelistAccountExpirations",
      "outputs": [
        {
          "internalType": "uint256",
          "name": "",
          "type": "uint256"
        }
      ],
      "payable": false,
      "stateMutability": "view",
      "type": "function"
    },
    {
      "constant": true,
      "inputs": [],
      "name": "whitelistGuardian",
      "outputs": [
        {
          "internalType": "address",
          "name": "",
          "type": "address"
        }
      ],
      "payable": false,
      "stateMutability": "view",
      "type": "function"
    }
  ],
  "bytecode": "0x608060405234801561001057600080fd5b5061039a806100206000396000f3fe608060405234801561001057600080fd5b506004361061009e5760003560e01c8063c5a8425d11610066578063c5a8425d14610120578063d33219b414610128578063da35c6641461013d578063f851a44014610145578063fc4eee421461014d5761009e565b8063013cf08b146100a357806317977c61146100d057806326782247146100f057806338bd0dda146101055780635c60da1b14610118575b600080fd5b6100b66100b136600461024f565b610155565b6040516100c79594939291906102c1565b60405180910390f35b6100e36100de366004610229565b610192565b6040516100c791906102b3565b6100f86101a4565b6040516100c79190610297565b6100e3610113366004610229565b6101b3565b6100f86101c5565b6100f86101d4565b6101306101e3565b6040516100c791906102a5565b6100e36101f2565b6100f86101f8565b6100e3610207565b600660205260009081526040902080546001820154600283015460079093015491926001600160a01b039091169160ff8082169161010090041685565b60076020526000908152604090205481565b6001546001600160a01b031681565b60086020526000908152604090205481565b6002546001600160a01b031681565b6009546001600160a01b031681565b6005546001600160a01b031681565b60045481565b6000546001600160a01b031681565b60035481565b803561021881610337565b92915050565b80356102188161034e565b60006020828403121561023b57600080fd5b6000610247848461020d565b949350505050565b60006020828403121561026157600080fd5b6000610247848461021e565b6102768161030d565b82525050565b61027681610318565b6102768161032c565b61027681610329565b60208101610218828461026d565b602081016102188284610285565b60208101610218828461028e565b60a081016102cf828861028e565b6102dc602083018761026d565b6102e9604083018661028e565b6102f6606083018561027c565b610303608083018461027c565b9695505050505050565b60006102188261031d565b151590565b6001600160a01b031690565b90565b60006102188261030d565b6103408161030d565b811461034b57600080fd5b50565b6103408161032956fea365627a7a723158206741ac6ca1aaff9689372eee766afd019c2e9997f312feaa55f79e6d5ca4e23c6c6578706572696d656e74616cf564736f6c63430005100040",
  "linkReferences": {},
  "deployedLinkReferences": {}
}