{
  "_format": "hh-sol-artifact-1",
  "contractName": "Accountant",
  "sourceName": "contracts/Accountant.sol",
  "abi": [
    {
      "inputs": [
        {
          "internalType": "address",
          "name": "note_",
          "type": "address"
        },
        {
          "internalType": "address",
          "name": "LendingMarketAddr",
          "type": "address"
        },
        {
          "internalType": "address payable",
          "name": "treasury",
          "type": "address"
        },
        {
          "internalType": "address",
          "name": "comp_",
          "type": "address"
        }
      ],
      "payable": false,
      "stateMutability": "nonpayable",
      "type": "constructor"
    },
    {
      "anonymous": false,
      "inputs": [
        {
          "indexed": false,
          "internalType": "uint256",
          "name": "error",
          "type": "uint256"
        },
        {
          "indexed": false,
          "internalType": "uint256",
          "name": "info",
          "type": "uint256"
        },
        {
          "indexed": false,
          "internalType": "uint256",
          "name": "detail",
          "type": "uint256"
        }
      ],
      "name": "Failure",
      "type": "event"
    },
    {
      "payable": true,
      "stateMutability": "payable",
      "type": "fallback"
    },
    {
      "constant": false,
      "inputs": [],
      "name": "initialize",
      "outputs": [],
      "payable": false,
      "stateMutability": "nonpayable",
      "type": "function"
    },
    {
      "constant": false,
      "inputs": [
        {
          "internalType": "uint256",
          "name": "amount",
          "type": "uint256"
        },
        {
          "internalType": "address",
          "name": "minter",
          "type": "address"
        }
      ],
      "name": "redeemMarket",
      "outputs": [
        {
          "internalType": "uint256",
          "name": "",
          "type": "uint256"
        }
      ],
      "payable": false,
      "stateMutability": "nonpayable",
      "type": "function"
    },
    {
      "constant": false,
      "inputs": [
        {
          "internalType": "uint256",
          "name": "amount",
          "type": "uint256"
        },
        {
          "internalType": "address",
          "name": "borrower",
          "type": "address"
        }
      ],
      "name": "supplyMarket",
      "outputs": [
        {
          "internalType": "uint256",
          "name": "",
          "type": "uint256"
        }
      ],
      "payable": false,
      "stateMutability": "nonpayable",
      "type": "function"
    },
    {
      "constant": false,
      "inputs": [],
      "name": "sweepInterest",
      "outputs": [
        {
          "internalType": "uint256",
          "name": "",
          "type": "uint256"
        }
      ],
      "payable": false,
      "stateMutability": "nonpayable",
      "type": "function"
    },
    {
      "constant": true,
      "inputs": [
        {
          "internalType": "address",
          "name": "borrower",
          "type": "address"
        }
      ],
      "name": "viewBalance",
      "outputs": [
        {
          "internalType": "uint256",
          "name": "",
          "type": "uint256"
        }
      ],
      "payable": false,
      "stateMutability": "view",
      "type": "function"
    }
  ],
  "bytecode": "0x608060405234801561001057600080fd5b50604051610af5380380610af58339818101604052608081101561003357600080fd5b50805160208201516040830151606090930151600180546001600160a01b039485166001600160a01b031991821617909155600280549385169382169390931790925560038054948416948316949094179093556005805492909316918116919091179091556000805490911633179055610a42806100b36000396000f3fe60806040526004361061004a5760003560e01c80633342f6891461004c5780638129fc1c146100735780638ddcb46514610088578063a90aca92146100c1578063c1a13d1a146100fa575b005b34801561005857600080fd5b5061006161012d565b60408051918252519081900360200190f35b34801561007f57600080fd5b5061004a61046c565b34801561009457600080fd5b50610061600480360360408110156100ab57600080fd5b50803590602001356001600160a01b03166106cf565b3480156100cd57600080fd5b50610061600480360360408110156100e457600080fd5b50803590602001356001600160a01b0316610822565b34801561010657600080fd5b506100616004803603602081101561011d57600080fd5b50356001600160a01b03166108d0565b600154604080516370a0823160e01b8152306004820152905160009283926001600160a01b03909116916370a0823191602480820192602092909190829003018186803b15801561017d57600080fd5b505afa158015610191573d6000803e3d6000fd5b505050506040513d60208110156101a757600080fd5b505160025460408051633af9e66960e01b815230600482015290519293506000926001600160a01b0390921691633af9e6699160248082019260209290919082900301818787803b1580156101fb57600080fd5b505af115801561020f573d6000803e3d6000fd5b505050506040513d602081101561022557600080fd5b50516002546040805163182df0f560e01b815290519293506000926001600160a01b039092169163182df0f591600480820192602092909190829003018186803b15801561027257600080fd5b505afa158015610286573d6000803e3d6000fd5b505050506040513d602081101561029c57600080fd5b5051905060006102ac82846108eb565b9350905060008160038111156102be57fe5b146102e6576102db6009600c8360038111156102d657fe5b610917565b945050505050610469565b60008061036c600160009054906101000a90046001600160a01b03166001600160a01b03166318160ddd6040518163ffffffff1660e01b815260040160206040518083038186803b15801561033a57600080fd5b505afa15801561034e573d6000803e3d6000fd5b505050506040513d602081101561036457600080fd5b505187610985565b9093509150600083600381111561037f57fe5b146103a4576103976009600c8560038111156102d657fe5b9650505050505050610469565b6103ae82866109a8565b909350905060008360038111156103c157fe5b146103d9576103976009600c8560038111156102d657fe5b6001546003546040805163a9059cbb60e01b81526001600160a01b039283166004820152602481018590529051919092169163a9059cbb9160448083019260209291908290030181600087803b15801561043257600080fd5b505af1158015610446573d6000803e3d6000fd5b505050506040513d602081101561045c57600080fd5b5060009750505050505050505b90565b6000546001600160a01b0316331461048357600080fd5b60408051600180825281830190925260609160208083019080388339505060025482519293506001600160a01b0316918391506000906104bf57fe5b6001600160a01b03928316602091820292909201810191909152600554604051631853304760e31b815260048101838152855160248301528551606095939093169363c29982389387938392604490910191858201910280838360005b8381101561053457818101518382015260200161051c565b5050505090500192505050600060405180830381600087803b15801561055957600080fd5b505af115801561056d573d6000803e3d6000fd5b505050506040513d6000823e601f3d908101601f19168201604052602081101561059657600080fd5b81019080805160405193929190846401000000008211156105b657600080fd5b9083019060208201858111156105cb57600080fd5b82518660208202830111640100000000821117156105e857600080fd5b82525081516020918201928201910280838360005b838110156106155781810151838201526020016105fd565b5050505090500160405250505090508060008151811061063157fe5b602002602001015160001461064557600080fd5b6001546002546040805163095ea7b360e01b81526001600160a01b03928316600482015260001960248201529051919092169163095ea7b39160448083019260209291908290030181600087803b15801561069f57600080fd5b505af11580156106b3573d6000803e3d6000fd5b505050506040513d60208110156106c957600080fd5b50505050565b6001600160a01b03808216600090815260046020818152604080842080548890039055600254815163182df0f560e01b815291519495869591169363182df0f5938382019390929190829003018186803b15801561072c57600080fd5b505afa158015610740573d6000803e3d6000fd5b505050506040513d602081101561075657600080fd5b5051905060008061076783876109ce565b9092509050600082600381111561077a57fe5b1461079c576107926009600c8460038111156102d657fe5b935050505061081c565b6002546040805163db006a7560e01b81526004810184905290516001600160a01b039092169163db006a75916024808201926020929091908290030181600087803b1580156107ea57600080fd5b505af11580156107fe573d6000803e3d6000fd5b505050506040513d602081101561081457600080fd5b505193505050505b92915050565b6002546000906001600160a01b0316331461083c57600080fd5b6001600160a01b038083166000908152600460208181526040808420805489019055600254815163140e25ad60e31b815293840189905290519394169263a0712d6892602480820193929182900301818787803b15801561089c57600080fd5b505af11580156108b0573d6000803e3d6000fd5b505050506040513d60208110156108c657600080fd5b5051949350505050565b6001600160a01b031660009081526004602052604090205490565b600080826108ff5750600190506000610910565b600083858161090a57fe5b04915091505b9250929050565b60007f45b96fe442630264581b197e84bbada861235052c5a1aadfff9ea4e40a969aa084601081111561094657fe5b84605081111561095257fe5b604080519283526020830191909152818101859052519081900360600190a183601081111561097d57fe5b949350505050565b60008083831161099c575060009050818303610910565b50600390506000610910565b6000808383018481106109c057600092509050610910565b506002915060009050610910565b600080836109e157506000905080610910565b838302838582816109ee57fe5b0414610a0257506002915060009050610910565b60009250905061091056fea265627a7a723158202c8272cca92f87d9bd8b26f49e67a0ab846c032f086d2ffd3a472692197d345964736f6c63430005100032",
  "linkReferences": {},
  "deployedLinkReferences": {}
}