{
  "_format": "hh-sol-artifact-1",
  "contractName": "cNote",
  "sourceName": "contracts/cNote.sol",
  "abi": [
    {
      "inputs": [
        {
          "internalType": "address",
          "name": "underlying_",
          "type": "address"
        },
        {
          "internalType": "contract ComptrollerInterface",
          "name": "comptroller_",
          "type": "address"
        },
        {
          "internalType": "contract InterestRateModel",
          "name": "interestRateModel_",
          "type": "address"
        },
        {
          "internalType": "uint256",
          "name": "initialExchangeRateMantissa_",
          "type": "uint256"
        },
        {
          "internalType": "string",
          "name": "name_",
          "type": "string"
        },
        {
          "internalType": "string",
          "name": "symbol_",
          "type": "string"
        },
        {
          "internalType": "uint8",
          "name": "decimals_",
          "type": "uint8"
        },
        {
          "internalType": "address payable",
          "name": "admin_",
          "type": "address"
        }
      ],
      "payable": false,
      "stateMutability": "nonpayable",
      "type": "constructor"
    },
    {
      "anonymous": false,
      "inputs": [
        {
          "indexed": false,
          "internalType": "address",
          "name": "accountant",
          "type": "address"
        },
        {
          "indexed": false,
          "internalType": "address",
          "name": "accountantPrior",
          "type": "address"
        }
      ],
      "name": "AccountantSet",
      "type": "event"
    },
    {
      "anonymous": false,
      "inputs": [
        {
          "indexed": false,
          "internalType": "uint256",
          "name": "cashPrior",
          "type": "uint256"
        },
        {
          "indexed": false,
          "internalType": "uint256",
          "name": "interestAccumulated",
          "type": "uint256"
        },
        {
          "indexed": false,
          "internalType": "uint256",
          "name": "borrowIndex",
          "type": "uint256"
        },
        {
          "indexed": false,
          "internalType": "uint256",
          "name": "totalBorrows",
          "type": "uint256"
        }
      ],
      "name": "AccrueInterest",
      "type": "event"
    },
    {
      "anonymous": false,
      "inputs": [
        {
          "indexed": true,
          "internalType": "address",
          "name": "owner",
          "type": "address"
        },
        {
          "indexed": true,
          "internalType": "address",
          "name": "spender",
          "type": "address"
        },
        {
          "indexed": false,
          "internalType": "uint256",
          "name": "amount",
          "type": "uint256"
        }
      ],
      "name": "Approval",
      "type": "event"
    },
    {
      "anonymous": false,
      "inputs": [
        {
          "indexed": false,
          "internalType": "address",
          "name": "borrower",
          "type": "address"
        },
        {
          "indexed": false,
          "internalType": "uint256",
          "name": "borrowAmount",
          "type": "uint256"
        },
        {
          "indexed": false,
          "internalType": "uint256",
          "name": "accountBorrows",
          "type": "uint256"
        },
        {
          "indexed": false,
          "internalType": "uint256",
          "name": "totalBorrows",
          "type": "uint256"
        }
      ],
      "name": "Borrow",
      "type": "event"
    },
    {
      "anonymous": false,
      "inputs": [
        {
          "indexed": false,
          "internalType": "uint256",
          "name": "error",
          "type": "uint256"
        },
        {
          "indexed": false,
          "internalType": "uint256",
          "name": "info",
          "type": "uint256"
        },
        {
          "indexed": false,
          "internalType": "uint256",
          "name": "detail",
          "type": "uint256"
        }
      ],
      "name": "Failure",
      "type": "event"
    },
    {
      "anonymous": false,
      "inputs": [
        {
          "indexed": false,
          "internalType": "address",
          "name": "liquidator",
          "type": "address"
        },
        {
          "indexed": false,
          "internalType": "address",
          "name": "borrower",
          "type": "address"
        },
        {
          "indexed": false,
          "internalType": "uint256",
          "name": "repayAmount",
          "type": "uint256"
        },
        {
          "indexed": false,
          "internalType": "address",
          "name": "cTokenCollateral",
          "type": "address"
        },
        {
          "indexed": false,
          "internalType": "uint256",
          "name": "seizeTokens",
          "type": "uint256"
        }
      ],
      "name": "LiquidateBorrow",
      "type": "event"
    },
    {
      "anonymous": false,
      "inputs": [
        {
          "indexed": false,
          "internalType": "address",
          "name": "minter",
          "type": "address"
        },
        {
          "indexed": false,
          "internalType": "uint256",
          "name": "mintAmount",
          "type": "uint256"
        },
        {
          "indexed": false,
          "internalType": "uint256",
          "name": "mintTokens",
          "type": "uint256"
        }
      ],
      "name": "Mint",
      "type": "event"
    },
    {
      "anonymous": false,
      "inputs": [
        {
          "indexed": false,
          "internalType": "address",
          "name": "oldAdmin",
          "type": "address"
        },
        {
          "indexed": false,
          "internalType": "address",
          "name": "newAdmin",
          "type": "address"
        }
      ],
      "name": "NewAdmin",
      "type": "event"
    },
    {
      "anonymous": false,
      "inputs": [
        {
          "indexed": false,
          "internalType": "contract ComptrollerInterface",
          "name": "oldComptroller",
          "type": "address"
        },
        {
          "indexed": false,
          "internalType": "contract ComptrollerInterface",
          "name": "newComptroller",
          "type": "address"
        }
      ],
      "name": "NewComptroller",
      "type": "event"
    },
    {
      "anonymous": false,
      "inputs": [
        {
          "indexed": false,
          "internalType": "contract InterestRateModel",
          "name": "oldInterestRateModel",
          "type": "address"
        },
        {
          "indexed": false,
          "internalType": "contract InterestRateModel",
          "name": "newInterestRateModel",
          "type": "address"
        }
      ],
      "name": "NewMarketInterestRateModel",
      "type": "event"
    },
    {
      "anonymous": false,
      "inputs": [
        {
          "indexed": false,
          "internalType": "address",
          "name": "oldPendingAdmin",
          "type": "address"
        },
        {
          "indexed": false,
          "internalType": "address",
          "name": "newPendingAdmin",
          "type": "address"
        }
      ],
      "name": "NewPendingAdmin",
      "type": "event"
    },
    {
      "anonymous": false,
      "inputs": [
        {
          "indexed": false,
          "internalType": "uint256",
          "name": "oldReserveFactorMantissa",
          "type": "uint256"
        },
        {
          "indexed": false,
          "internalType": "uint256",
          "name": "newReserveFactorMantissa",
          "type": "uint256"
        }
      ],
      "name": "NewReserveFactor",
      "type": "event"
    },
    {
      "anonymous": false,
      "inputs": [
        {
          "indexed": false,
          "internalType": "address",
          "name": "redeemer",
          "type": "address"
        },
        {
          "indexed": false,
          "internalType": "uint256",
          "name": "redeemAmount",
          "type": "uint256"
        },
        {
          "indexed": false,
          "internalType": "uint256",
          "name": "redeemTokens",
          "type": "uint256"
        }
      ],
      "name": "Redeem",
      "type": "event"
    },
    {
      "anonymous": false,
      "inputs": [
        {
          "indexed": false,
          "internalType": "address",
          "name": "payer",
          "type": "address"
        },
        {
          "indexed": false,
          "internalType": "address",
          "name": "borrower",
          "type": "address"
        },
        {
          "indexed": false,
          "internalType": "uint256",
          "name": "repayAmount",
          "type": "uint256"
        },
        {
          "indexed": false,
          "internalType": "uint256",
          "name": "accountBorrows",
          "type": "uint256"
        },
        {
          "indexed": false,
          "internalType": "uint256",
          "name": "totalBorrows",
          "type": "uint256"
        }
      ],
      "name": "RepayBorrow",
      "type": "event"
    },
    {
      "anonymous": false,
      "inputs": [
        {
          "indexed": false,
          "internalType": "address",
          "name": "benefactor",
          "type": "address"
        },
        {
          "indexed": false,
          "internalType": "uint256",
          "name": "addAmount",
          "type": "uint256"
        },
        {
          "indexed": false,
          "internalType": "uint256",
          "name": "newTotalReserves",
          "type": "uint256"
        }
      ],
      "name": "ReservesAdded",
      "type": "event"
    },
    {
      "anonymous": false,
      "inputs": [
        {
          "indexed": false,
          "internalType": "address",
          "name": "admin",
          "type": "address"
        },
        {
          "indexed": false,
          "internalType": "uint256",
          "name": "reduceAmount",
          "type": "uint256"
        },
        {
          "indexed": false,
          "internalType": "uint256",
          "name": "newTotalReserves",
          "type": "uint256"
        }
      ],
      "name": "ReservesReduced",
      "type": "event"
    },
    {
      "anonymous": false,
      "inputs": [
        {
          "indexed": true,
          "internalType": "address",
          "name": "from",
          "type": "address"
        },
        {
          "indexed": true,
          "internalType": "address",
          "name": "to",
          "type": "address"
        },
        {
          "indexed": false,
          "internalType": "uint256",
          "name": "amount",
          "type": "uint256"
        }
      ],
      "name": "Transfer",
      "type": "event"
    },
    {
      "constant": false,
      "inputs": [],
      "name": "_acceptAdmin",
      "outputs": [
        {
          "internalType": "uint256",
          "name": "",
          "type": "uint256"
        }
      ],
      "payable": false,
      "stateMutability": "nonpayable",
      "type": "function"
    },
    {
      "constant": false,
      "inputs": [
        {
          "internalType": "uint256",
          "name": "addAmount",
          "type": "uint256"
        }
      ],
      "name": "_addReserves",
      "outputs": [
        {
          "internalType": "uint256",
          "name": "",
          "type": "uint256"
        }
      ],
      "payable": false,
      "stateMutability": "nonpayable",
      "type": "function"
    },
    {
      "constant": false,
      "inputs": [
        {
          "internalType": "address",
          "name": "compLikeDelegatee",
          "type": "address"
        }
      ],
      "name": "_delegateCompLikeTo",
      "outputs": [],
      "payable": false,
      "stateMutability": "nonpayable",
      "type": "function"
    },
    {
      "constant": false,
      "inputs": [
        {
          "internalType": "uint256",
          "name": "reduceAmount",
          "type": "uint256"
        }
      ],
      "name": "_reduceReserves",
      "outputs": [
        {
          "internalType": "uint256",
          "name": "",
          "type": "uint256"
        }
      ],
      "payable": false,
      "stateMutability": "nonpayable",
      "type": "function"
    },
    {
      "constant": false,
      "inputs": [
        {
          "internalType": "address payable",
          "name": "accountant_",
          "type": "address"
        }
      ],
      "name": "_setAccountantContract",
      "outputs": [],
      "payable": false,
      "stateMutability": "nonpayable",
      "type": "function"
    },
    {
      "constant": false,
      "inputs": [
        {
          "internalType": "contract ComptrollerInterface",
          "name": "newComptroller",
          "type": "address"
        }
      ],
      "name": "_setComptroller",
      "outputs": [
        {
          "internalType": "uint256",
          "name": "",
          "type": "uint256"
        }
      ],
      "payable": false,
      "stateMutability": "nonpayable",
      "type": "function"
    },
    {
      "constant": false,
      "inputs": [
        {
          "internalType": "contract InterestRateModel",
          "name": "newInterestRateModel",
          "type": "address"
        }
      ],
      "name": "_setInterestRateModel",
      "outputs": [
        {
          "internalType": "uint256",
          "name": "",
          "type": "uint256"
        }
      ],
      "payable": false,
      "stateMutability": "nonpayable",
      "type": "function"
    },
    {
      "constant": false,
      "inputs": [
        {
          "internalType": "address payable",
          "name": "newPendingAdmin",
          "type": "address"
        }
      ],
      "name": "_setPendingAdmin",
      "outputs": [
        {
          "internalType": "uint256",
          "name": "",
          "type": "uint256"
        }
      ],
      "payable": false,
      "stateMutability": "nonpayable",
      "type": "function"
    },
    {
      "constant": false,
      "inputs": [
        {
          "internalType": "uint256",
          "name": "newReserveFactorMantissa",
          "type": "uint256"
        }
      ],
      "name": "_setReserveFactor",
      "outputs": [
        {
          "internalType": "uint256",
          "name": "",
          "type": "uint256"
        }
      ],
      "payable": false,
      "stateMutability": "nonpayable",
      "type": "function"
    },
    {
      "constant": true,
      "inputs": [],
      "name": "accrualBlockNumber",
      "outputs": [
        {
          "internalType": "uint256",
          "name": "",
          "type": "uint256"
        }
      ],
      "payable": false,
      "stateMutability": "view",
      "type": "function"
    },
    {
      "constant": false,
      "inputs": [],
      "name": "accrueInterest",
      "outputs": [
        {
          "internalType": "uint256",
          "name": "",
          "type": "uint256"
        }
      ],
      "payable": false,
      "stateMutability": "nonpayable",
      "type": "function"
    },
    {
      "constant": true,
      "inputs": [],
      "name": "admin",
      "outputs": [
        {
          "internalType": "address payable",
          "name": "",
          "type": "address"
        }
      ],
      "payable": false,
      "stateMutability": "view",
      "type": "function"
    },
    {
      "constant": true,
      "inputs": [
        {
          "internalType": "address",
          "name": "owner",
          "type": "address"
        },
        {
          "internalType": "address",
          "name": "spender",
          "type": "address"
        }
      ],
      "name": "allowance",
      "outputs": [
        {
          "internalType": "uint256",
          "name": "",
          "type": "uint256"
        }
      ],
      "payable": false,
      "stateMutability": "view",
      "type": "function"
    },
    {
      "constant": false,
      "inputs": [
        {
          "internalType": "address",
          "name": "spender",
          "type": "address"
        },
        {
          "internalType": "uint256",
          "name": "amount",
          "type": "uint256"
        }
      ],
      "name": "approve",
      "outputs": [
        {
          "internalType": "bool",
          "name": "",
          "type": "bool"
        }
      ],
      "payable": false,
      "stateMutability": "nonpayable",
      "type": "function"
    },
    {
      "constant": true,
      "inputs": [
        {
          "internalType": "address",
          "name": "owner",
          "type": "address"
        }
      ],
      "name": "balanceOf",
      "outputs": [
        {
          "internalType": "uint256",
          "name": "",
          "type": "uint256"
        }
      ],
      "payable": false,
      "stateMutability": "view",
      "type": "function"
    },
    {
      "constant": false,
      "inputs": [
        {
          "internalType": "address",
          "name": "owner",
          "type": "address"
        }
      ],
      "name": "balanceOfUnderlying",
      "outputs": [
        {
          "internalType": "uint256",
          "name": "",
          "type": "uint256"
        }
      ],
      "payable": false,
      "stateMutability": "nonpayable",
      "type": "function"
    },
    {
      "constant": false,
      "inputs": [
        {
          "internalType": "uint256",
          "name": "borrowAmount",
          "type": "uint256"
        }
      ],
      "name": "borrow",
      "outputs": [
        {
          "internalType": "uint256",
          "name": "",
          "type": "uint256"
        }
      ],
      "payable": false,
      "stateMutability": "nonpayable",
      "type": "function"
    },
    {
      "constant": false,
      "inputs": [
        {
          "internalType": "address",
          "name": "account",
          "type": "address"
        }
      ],
      "name": "borrowBalanceCurrent",
      "outputs": [
        {
          "internalType": "uint256",
          "name": "",
          "type": "uint256"
        }
      ],
      "payable": false,
      "stateMutability": "nonpayable",
      "type": "function"
    },
    {
      "constant": true,
      "inputs": [
        {
          "internalType": "address",
          "name": "account",
          "type": "address"
        }
      ],
      "name": "borrowBalanceStored",
      "outputs": [
        {
          "internalType": "uint256",
          "name": "",
          "type": "uint256"
        }
      ],
      "payable": false,
      "stateMutability": "view",
      "type": "function"
    },
    {
      "constant": true,
      "inputs": [],
      "name": "borrowIndex",
      "outputs": [
        {
          "internalType": "uint256",
          "name": "",
          "type": "uint256"
        }
      ],
      "payable": false,
      "stateMutability": "view",
      "type": "function"
    },
    {
      "constant": true,
      "inputs": [],
      "name": "borrowRatePerBlock",
      "outputs": [
        {
          "internalType": "uint256",
          "name": "",
          "type": "uint256"
        }
      ],
      "payable": false,
      "stateMutability": "view",
      "type": "function"
    },
    {
      "constant": true,
      "inputs": [],
      "name": "comptroller",
      "outputs": [
        {
          "internalType": "contract ComptrollerInterface",
          "name": "",
          "type": "address"
        }
      ],
      "payable": false,
      "stateMutability": "view",
      "type": "function"
    },
    {
      "constant": true,
      "inputs": [],
      "name": "decimals",
      "outputs": [
        {
          "internalType": "uint8",
          "name": "",
          "type": "uint8"
        }
      ],
      "payable": false,
      "stateMutability": "view",
      "type": "function"
    },
    {
      "constant": false,
      "inputs": [],
      "name": "exchangeRateCurrent",
      "outputs": [
        {
          "internalType": "uint256",
          "name": "",
          "type": "uint256"
        }
      ],
      "payable": false,
      "stateMutability": "nonpayable",
      "type": "function"
    },
    {
      "constant": true,
      "inputs": [],
      "name": "exchangeRateStored",
      "outputs": [
        {
          "internalType": "uint256",
          "name": "",
          "type": "uint256"
        }
      ],
      "payable": false,
      "stateMutability": "view",
      "type": "function"
    },
    {
      "constant": true,
      "inputs": [
        {
          "internalType": "address",
          "name": "account",
          "type": "address"
        }
      ],
      "name": "getAccountSnapshot",
      "outputs": [
        {
          "internalType": "uint256",
          "name": "",
          "type": "uint256"
        },
        {
          "internalType": "uint256",
          "name": "",
          "type": "uint256"
        },
        {
          "internalType": "uint256",
          "name": "",
          "type": "uint256"
        },
        {
          "internalType": "uint256",
          "name": "",
          "type": "uint256"
        }
      ],
      "payable": false,
      "stateMutability": "view",
      "type": "function"
    },
    {
      "constant": true,
      "inputs": [],
      "name": "getCash",
      "outputs": [
        {
          "internalType": "uint256",
          "name": "",
          "type": "uint256"
        }
      ],
      "payable": false,
      "stateMutability": "view",
      "type": "function"
    },
    {
      "constant": false,
      "inputs": [
        {
          "internalType": "address",
          "name": "underlying_",
          "type": "address"
        },
        {
          "internalType": "contract ComptrollerInterface",
          "name": "comptroller_",
          "type": "address"
        },
        {
          "internalType": "contract InterestRateModel",
          "name": "interestRateModel_",
          "type": "address"
        },
        {
          "internalType": "uint256",
          "name": "initialExchangeRateMantissa_",
          "type": "uint256"
        },
        {
          "internalType": "string",
          "name": "name_",
          "type": "string"
        },
        {
          "internalType": "string",
          "name": "symbol_",
          "type": "string"
        },
        {
          "internalType": "uint8",
          "name": "decimals_",
          "type": "uint8"
        }
      ],
      "name": "initialize",
      "outputs": [],
      "payable": false,
      "stateMutability": "nonpayable",
      "type": "function"
    },
    {
      "constant": false,
      "inputs": [
        {
          "internalType": "contract ComptrollerInterface",
          "name": "comptroller_",
          "type": "address"
        },
        {
          "internalType": "contract InterestRateModel",
          "name": "interestRateModel_",
          "type": "address"
        },
        {
          "internalType": "uint256",
          "name": "initialExchangeRateMantissa_",
          "type": "uint256"
        },
        {
          "internalType": "string",
          "name": "name_",
          "type": "string"
        },
        {
          "internalType": "string",
          "name": "symbol_",
          "type": "string"
        },
        {
          "internalType": "uint8",
          "name": "decimals_",
          "type": "uint8"
        }
      ],
      "name": "initialize",
      "outputs": [],
      "payable": false,
      "stateMutability": "nonpayable",
      "type": "function"
    },
    {
      "constant": true,
      "inputs": [],
      "name": "interestRateModel",
      "outputs": [
        {
          "internalType": "contract InterestRateModel",
          "name": "",
          "type": "address"
        }
      ],
      "payable": false,
      "stateMutability": "view",
      "type": "function"
    },
    {
      "constant": true,
      "inputs": [],
      "name": "isCToken",
      "outputs": [
        {
          "internalType": "bool",
          "name": "",
          "type": "bool"
        }
      ],
      "payable": false,
      "stateMutability": "view",
      "type": "function"
    },
    {
      "constant": false,
      "inputs": [
        {
          "internalType": "address",
          "name": "borrower",
          "type": "address"
        },
        {
          "internalType": "uint256",
          "name": "repayAmount",
          "type": "uint256"
        },
        {
          "internalType": "contract CTokenInterface",
          "name": "cTokenCollateral",
          "type": "address"
        }
      ],
      "name": "liquidateBorrow",
      "outputs": [
        {
          "internalType": "uint256",
          "name": "",
          "type": "uint256"
        }
      ],
      "payable": false,
      "stateMutability": "nonpayable",
      "type": "function"
    },
    {
      "constant": false,
      "inputs": [
        {
          "internalType": "uint256",
          "name": "mintAmount",
          "type": "uint256"
        }
      ],
      "name": "mint",
      "outputs": [
        {
          "internalType": "uint256",
          "name": "",
          "type": "uint256"
        }
      ],
      "payable": false,
      "stateMutability": "nonpayable",
      "type": "function"
    },
    {
      "constant": true,
      "inputs": [],
      "name": "name",
      "outputs": [
        {
          "internalType": "string",
          "name": "",
          "type": "string"
        }
      ],
      "payable": false,
      "stateMutability": "view",
      "type": "function"
    },
    {
      "constant": true,
      "inputs": [],
      "name": "pendingAdmin",
      "outputs": [
        {
          "internalType": "address payable",
          "name": "",
          "type": "address"
        }
      ],
      "payable": false,
      "stateMutability": "view",
      "type": "function"
    },
    {
      "constant": true,
      "inputs": [],
      "name": "protocolSeizeShareMantissa",
      "outputs": [
        {
          "internalType": "uint256",
          "name": "",
          "type": "uint256"
        }
      ],
      "payable": false,
      "stateMutability": "view",
      "type": "function"
    },
    {
      "constant": false,
      "inputs": [
        {
          "internalType": "uint256",
          "name": "redeemTokens",
          "type": "uint256"
        }
      ],
      "name": "redeem",
      "outputs": [
        {
          "internalType": "uint256",
          "name": "",
          "type": "uint256"
        }
      ],
      "payable": false,
      "stateMutability": "nonpayable",
      "type": "function"
    },
    {
      "constant": false,
      "inputs": [
        {
          "internalType": "uint256",
          "name": "redeemAmount",
          "type": "uint256"
        }
      ],
      "name": "redeemUnderlying",
      "outputs": [
        {
          "internalType": "uint256",
          "name": "",
          "type": "uint256"
        }
      ],
      "payable": false,
      "stateMutability": "nonpayable",
      "type": "function"
    },
    {
      "constant": false,
      "inputs": [
        {
          "internalType": "uint256",
          "name": "repayAmount",
          "type": "uint256"
        }
      ],
      "name": "repayBorrow",
      "outputs": [
        {
          "internalType": "uint256",
          "name": "",
          "type": "uint256"
        }
      ],
      "payable": false,
      "stateMutability": "nonpayable",
      "type": "function"
    },
    {
      "constant": false,
      "inputs": [
        {
          "internalType": "address",
          "name": "borrower",
          "type": "address"
        },
        {
          "internalType": "uint256",
          "name": "repayAmount",
          "type": "uint256"
        }
      ],
      "name": "repayBorrowBehalf",
      "outputs": [
        {
          "internalType": "uint256",
          "name": "",
          "type": "uint256"
        }
      ],
      "payable": false,
      "stateMutability": "nonpayable",
      "type": "function"
    },
    {
      "constant": true,
      "inputs": [],
      "name": "reserveFactorMantissa",
      "outputs": [
        {
          "internalType": "uint256",
          "name": "",
          "type": "uint256"
        }
      ],
      "payable": false,
      "stateMutability": "view",
      "type": "function"
    },
    {
      "constant": false,
      "inputs": [
        {
          "internalType": "address",
          "name": "liquidator",
          "type": "address"
        },
        {
          "internalType": "address",
          "name": "borrower",
          "type": "address"
        },
        {
          "internalType": "uint256",
          "name": "seizeTokens",
          "type": "uint256"
        }
      ],
      "name": "seize",
      "outputs": [
        {
          "internalType": "uint256",
          "name": "",
          "type": "uint256"
        }
      ],
      "payable": false,
      "stateMutability": "nonpayable",
      "type": "function"
    },
    {
      "constant": true,
      "inputs": [],
      "name": "supplyRatePerBlock",
      "outputs": [
        {
          "internalType": "uint256",
          "name": "",
          "type": "uint256"
        }
      ],
      "payable": false,
      "stateMutability": "view",
      "type": "function"
    },
    {
      "constant": false,
      "inputs": [
        {
          "internalType": "contract EIP20NonStandardInterface",
          "name": "token",
          "type": "address"
        }
      ],
      "name": "sweepToken",
      "outputs": [],
      "payable": false,
      "stateMutability": "nonpayable",
      "type": "function"
    },
    {
      "constant": true,
      "inputs": [],
      "name": "symbol",
      "outputs": [
        {
          "internalType": "string",
          "name": "",
          "type": "string"
        }
      ],
      "payable": false,
      "stateMutability": "view",
      "type": "function"
    },
    {
      "constant": true,
      "inputs": [],
      "name": "totalBorrows",
      "outputs": [
        {
          "internalType": "uint256",
          "name": "",
          "type": "uint256"
        }
      ],
      "payable": false,
      "stateMutability": "view",
      "type": "function"
    },
    {
      "constant": false,
      "inputs": [],
      "name": "totalBorrowsCurrent",
      "outputs": [
        {
          "internalType": "uint256",
          "name": "",
          "type": "uint256"
        }
      ],
      "payable": false,
      "stateMutability": "nonpayable",
      "type": "function"
    },
    {
      "constant": true,
      "inputs": [],
      "name": "totalReserves",
      "outputs": [
        {
          "internalType": "uint256",
          "name": "",
          "type": "uint256"
        }
      ],
      "payable": false,
      "stateMutability": "view",
      "type": "function"
    },
    {
      "constant": true,
      "inputs": [],
      "name": "totalSupply",
      "outputs": [
        {
          "internalType": "uint256",
          "name": "",
          "type": "uint256"
        }
      ],
      "payable": false,
      "stateMutability": "view",
      "type": "function"
    },
    {
      "constant": false,
      "inputs": [
        {
          "internalType": "address",
          "name": "dst",
          "type": "address"
        },
        {
          "internalType": "uint256",
          "name": "amount",
          "type": "uint256"
        }
      ],
      "name": "transfer",
      "outputs": [
        {
          "internalType": "bool",
          "name": "",
          "type": "bool"
        }
      ],
      "payable": false,
      "stateMutability": "nonpayable",
      "type": "function"
    },
    {
      "constant": false,
      "inputs": [
        {
          "internalType": "address",
          "name": "src",
          "type": "address"
        },
        {
          "internalType": "address",
          "name": "dst",
          "type": "address"
        },
        {
          "internalType": "uint256",
          "name": "amount",
          "type": "uint256"
        }
      ],
      "name": "transferFrom",
      "outputs": [
        {
          "internalType": "bool",
          "name": "",
          "type": "bool"
        }
      ],
      "payable": false,
      "stateMutability": "nonpayable",
      "type": "function"
    },
    {
      "constant": true,
      "inputs": [],
      "name": "underlying",
      "outputs": [
        {
          "internalType": "address",
          "name": "",
          "type": "address"
        }
      ],
      "payable": false,
      "stateMutability": "view",
      "type": "function"
    }
  ],
  "bytecode": "0x6080604052601280546001600160a01b03199081169091556013805490911690553480156200002d57600080fd5b506040516200661b3803806200661b83398181016040526101008110156200005457600080fd5b81516020830151604080850151606086015160808701805193519597949692959194919392820192846401000000008211156200009057600080fd5b908301906020820185811115620000a657600080fd5b8251640100000000811182820188101715620000c157600080fd5b82525081516020918201929091019080838360005b83811015620000f0578181015183820152602001620000d6565b50505050905090810190601f1680156200011e5780820380516001836020036101000a031916815260200191505b50604052602001805160405193929190846401000000008211156200014257600080fd5b9083019060208201858111156200015857600080fd5b82516401000000008111828201881017156200017357600080fd5b82525081516020918201929091019080838360005b83811015620001a257818101518382015260200162000188565b50505050905090810190601f168015620001d05780820380516001836020036101000a031916815260200191505b506040908152602082015191015160115460055460038054610100600160a81b03191661010033021790559294509092506001600160a01b039081169116878787878787620002258888888888888862000261565b600380546001600160a01b0390921661010002610100600160a81b0319909216919091179055506200094b9d5050505050505050505050505050565b6200027c8686868686866200031060201b620015831760201c565b601180546001600160a01b0319166001600160a01b038981169190911791829055604080516318160ddd60e01b8152905192909116916318160ddd91600480820192602092909190829003018186803b158015620002d957600080fd5b505afa158015620002ee573d6000803e3d6000fd5b505050506040513d60208110156200030557600080fd5b505050505050505050565b60035461010090046001600160a01b03163314620003605760405162461bcd60e51b8152600401808060200182810382526024815260200180620065826024913960400191505060405180910390fd5b600954158015620003715750600a54155b620003ae5760405162461bcd60e51b8152600401808060200182810382526023815260200180620065a66023913960400191505060405180910390fd5b600784905583620003f15760405162461bcd60e51b8152600401808060200182810382526030815260200180620065c96030913960400191505060405180910390fd5b600062000407876001600160e01b036200052616565b905080156200045d576040805162461bcd60e51b815260206004820152601a60248201527f73657474696e6720636f6d7074726f6c6c6572206661696c6564000000000000604482015290519081900360640190fd5b620004706001600160e01b036200068e16565b600955670de0b6b3a7640000600a5562000493866001600160e01b036200069316565b90508015620004d45760405162461bcd60e51b8152600401808060200182810382526022815260200180620065f96022913960400191505060405180910390fd5b8351620004e9906001906020870190620008a9565b508251620004ff906002906020860190620008a9565b50506003805460ff90921660ff199283161790556000805490911660011790555050505050565b60035460009061010090046001600160a01b031633146200056057620005586001603f6001600160e01b036200083916565b905062000689565b60055460408051623f1ee960e11b815290516001600160a01b0392831692851691627e3dd2916004808301926020929190829003018186803b158015620005a657600080fd5b505afa158015620005bb573d6000803e3d6000fd5b505050506040513d6020811015620005d257600080fd5b505162000626576040805162461bcd60e51b815260206004820152601c60248201527f6d61726b6572206d6574686f642072657475726e65642066616c736500000000604482015290519081900360640190fd5b600580546001600160a01b0319166001600160a01b03858116918217909255604080519284168352602083019190915280517f7ac369dbd14fa5ea3f473ed67cc9d598964a77501540ba6751eb0b3decf5870d9281900390910190a160005b9150505b919050565b435b90565b600354600090819061010090046001600160a01b03163314620006d057620006c7600160426001600160e01b036200083916565b91505062000689565b620006e36001600160e01b036200068e16565b600954146200070357620006c7600a60416001600160e01b036200083916565b600660009054906101000a90046001600160a01b03169050826001600160a01b0316632191f92a6040518163ffffffff1660e01b815260040160206040518083038186803b1580156200075557600080fd5b505afa1580156200076a573d6000803e3d6000fd5b505050506040513d60208110156200078157600080fd5b5051620007d5576040805162461bcd60e51b815260206004820152601c60248201527f6d61726b6572206d6574686f642072657475726e65642066616c736500000000604482015290519081900360640190fd5b600680546001600160a01b0319166001600160a01b03858116918217909255604080519284168352602083019190915280517fedffc32e068c7c95dfd4bdfd5c4d939a084d6b11c4199eac8436ed234d72f9269281900390910190a1600062000685565b60007f45b96fe442630264581b197e84bbada861235052c5a1aadfff9ea4e40a969aa08360108111156200086957fe5b8360508111156200087657fe5b604080519283526020830191909152600082820152519081900360600190a1826010811115620008a257fe5b9392505050565b828054600181600116156101000203166002900490600052602060002090601f016020900481019282601f10620008ec57805160ff19168380011785556200091c565b828001600101855582156200091c579182015b828111156200091c578251825591602001919060010190620008ff565b506200092a9291506200092e565b5090565b6200069091905b808211156200092a576000815560010162000935565b615c27806200095b6000396000f3fe608060405234801561001057600080fd5b506004361061030c5760003560e01c80637f1e06be1161019d578063bd6d894d116100e9578063f2b3abbd116100a2578063f851a4401161007c578063f851a44014610b13578063f8f9da2814610b1b578063fca7820b14610b23578063fe9c44ae14610b405761030c565b8063f2b3abbd14610aaf578063f3fdb15a14610ad5578063f5e3c46214610add5761030c565b8063bd6d894d146109eb578063c37f68e2146109f3578063c5ebeaec14610a3f578063db006a7514610a5c578063dd62ed3e14610a79578063e9c714f214610aa75761030c565b8063a0712d6811610156578063aa5af0fd11610130578063aa5af0fd1461097f578063ae9d70b014610987578063b2a02ff11461098f578063b71d1a0c146109c55761030c565b8063a0712d681461092e578063a6afed951461094b578063a9059cbb146109535761030c565b80637f1e06be14610767578063852a12e31461078d5780638f840ddd146107aa57806395d89b41146107b257806395dd9193146107ba57806399d8c1b4146107e05761030c565b8063313ce5671161025c5780635fe3b567116102155780636c540baf116101ef5780636c540baf146107295780636f307dc31461073157806370a082311461073957806373acee981461075f5761030c565b80635fe3b567146106fc578063601a0bf1146107045780636752e702146107215761030c565b8063313ce567146106655780633af9e669146106835780633b1d21a2146106a95780633e941010146106b15780634576b5db146106ce57806347bd3718146106f45761030c565b806318160ddd116102c95780631be19560116102a35780631be19560146105b957806323b872dd146105df5780632608f8181461061557806326782247146106415761030c565b806318160ddd14610453578063182df0f51461045b5780631a31d465146104635761030c565b806306fdde0314610311578063095ea7b31461038e5780630e752702146103ce578063153216a1146103fd578063173b99041461042557806317bfdfbc1461042d575b600080fd5b610319610b48565b6040805160208082528351818301528351919283929083019185019080838360005b8381101561035357818101518382015260200161033b565b50505050905090810190601f1680156103805780820380516001836020036101000a031916815260200191505b509250505060405180910390f35b6103ba600480360360408110156103a457600080fd5b506001600160a01b038135169060200135610bd5565b604080519115158252519081900360200190f35b6103eb600480360360208110156103e457600080fd5b5035610c42565b60408051918252519081900360200190f35b6104236004803603602081101561041357600080fd5b50356001600160a01b0316610c58565b005b6103eb610c96565b6103eb6004803603602081101561044357600080fd5b50356001600160a01b0316610c9c565b6103eb610d5c565b6103eb610d62565b610423600480360360e081101561047957600080fd5b6001600160a01b03823581169260208101358216926040820135909216916060820135919081019060a081016080820135600160201b8111156104bb57600080fd5b8201836020820111156104cd57600080fd5b803590602001918460018302840111600160201b831117156104ee57600080fd5b91908080601f0160208091040260200160405190810160405280939291908181526020018383808284376000920191909152509295949360208101935035915050600160201b81111561054057600080fd5b82018360208201111561055257600080fd5b803590602001918460018302840111600160201b8311171561057357600080fd5b91908080601f0160208091040260200160405190810160405280939291908181526020018383808284376000920191909152509295505050903560ff169150610dc59050565b610423600480360360208110156105cf57600080fd5b50356001600160a01b0316610e64565b6103ba600480360360608110156105f557600080fd5b506001600160a01b03813581169160208101359091169060400135610fa0565b6103eb6004803603604081101561062b57600080fd5b506001600160a01b038135169060200135611012565b610649611028565b604080516001600160a01b039092168252519081900360200190f35b61066d611037565b6040805160ff9092168252519081900360200190f35b6103eb6004803603602081101561069957600080fd5b50356001600160a01b0316611040565b6103eb6110f6565b6103eb600480360360208110156106c757600080fd5b5035611105565b6103eb600480360360208110156106e457600080fd5b50356001600160a01b0316611110565b6103eb611265565b61064961126b565b6103eb6004803603602081101561071a57600080fd5b503561127a565b6103eb611315565b6103eb611320565b610649611326565b6103eb6004803603602081101561074f57600080fd5b50356001600160a01b0316611335565b6103eb611350565b6104236004803603602081101561077d57600080fd5b50356001600160a01b0316611406565b6103eb600480360360208110156107a357600080fd5b50356114bd565b6103eb6114c8565b6103196114ce565b6103eb600480360360208110156107d057600080fd5b50356001600160a01b0316611526565b610423600480360360c08110156107f657600080fd5b6001600160a01b03823581169260208101359091169160408201359190810190608081016060820135600160201b81111561083057600080fd5b82018360208201111561084257600080fd5b803590602001918460018302840111600160201b8311171561086357600080fd5b91908080601f0160208091040260200160405190810160405280939291908181526020018383808284376000920191909152509295949360208101935035915050600160201b8111156108b557600080fd5b8201836020820111156108c757600080fd5b803590602001918460018302840111600160201b831117156108e857600080fd5b91908080601f0160208091040260200160405190810160405280939291908181526020018383808284376000920191909152509295505050903560ff1691506115839050565b6103eb6004803603602081101561094457600080fd5b503561176a565b6103eb611776565b6103ba6004803603604081101561096957600080fd5b506001600160a01b038135169060200135611ace565b6103eb611b3f565b6103eb611b45565b6103eb600480360360608110156109a557600080fd5b506001600160a01b03813581169160208101359091169060400135611be4565b6103eb600480360360208110156109db57600080fd5b50356001600160a01b0316611c55565b6103eb611ce1565b610a1960048036036020811015610a0957600080fd5b50356001600160a01b0316611d9d565b604080519485526020850193909352838301919091526060830152519081900360800190f35b6103eb60048036036020811015610a5557600080fd5b5035611e32565b6103eb60048036036020811015610a7257600080fd5b5035611e3d565b6103eb60048036036040811015610a8f57600080fd5b506001600160a01b0381358116916020013516611e48565b6103eb611e73565b6103eb60048036036020811015610ac557600080fd5b50356001600160a01b0316611f76565b610649611fb0565b6103eb60048036036060811015610af357600080fd5b506001600160a01b03813581169160208101359160409091013516611fbf565b610649611fd7565b6103eb611feb565b6103eb60048036036020811015610b3957600080fd5b503561204f565b6103ba6120cd565b60018054604080516020600284861615610100026000190190941693909304601f81018490048402820184019092528181529291830182828015610bcd5780601f10610ba257610100808354040283529160200191610bcd565b820191906000526020600020905b815481529060010190602001808311610bb057829003601f168201915b505050505081565b336000818152600f602090815260408083206001600160a01b03871680855290835281842086905581518681529151939493909284927f8c5be1e5ebec7d5bd14f71427d1e84f3dd0314c0f7b2291e5b200ac8c7c3b925929081900390910190a360019150505b92915050565b600080610c4e836120d2565b509150505b919050565b60035461010090046001600160a01b03163314610c7457600080fd5b601280546001600160a01b0319166001600160a01b0392909216919091179055565b60085481565b6000805460ff16610ce1576040805162461bcd60e51b815260206004820152600a6024820152691c994b595b9d195c995960b21b604482015290519081900360640190fd5b6000805460ff19168155610cf3611776565b14610d3e576040805162461bcd60e51b81526020600482015260166024820152751858d8dc9d59481a5b9d195c995cdd0819985a5b195960521b604482015290519081900360640190fd5b610d4782611526565b90505b6000805460ff19166001179055919050565b600d5481565b6000806000610d6f61217b565b90925090506000826003811115610d8257fe5b14610dbe5760405162461bcd60e51b8152600401808060200182810382526035815260200180615ae26035913960400191505060405180910390fd5b9150505b90565b610dd3868686868686611583565b601180546001600160a01b0319166001600160a01b038981169190911791829055604080516318160ddd60e01b8152905192909116916318160ddd91600480820192602092909190829003018186803b158015610e2f57600080fd5b505afa158015610e43573d6000803e3d6000fd5b505050506040513d6020811015610e5957600080fd5b505050505050505050565b6011546001600160a01b0382811691161415610eb15760405162461bcd60e51b815260040180806020018281038252603281526020018061582f6032913960400191505060405180910390fd5b604080516370a0823160e01b815230600482015290516000916001600160a01b038416916370a0823191602480820192602092909190829003018186803b158015610efb57600080fd5b505afa158015610f0f573d6000803e3d6000fd5b505050506040513d6020811015610f2557600080fd5b50516003546040805163a9059cbb60e01b81526101009092046001600160a01b03908116600484015260248301849052905192935084169163a9059cbb9160448082019260009290919082900301818387803b158015610f8457600080fd5b505af1158015610f98573d6000803e3d6000fd5b505050505050565b6000805460ff16610fe5576040805162461bcd60e51b815260206004820152600a6024820152691c994b595b9d195c995960b21b604482015290519081900360640190fd5b6000805460ff19168155610ffb3386868661222a565b1490506000805460ff191660011790559392505050565b60008061101f84846124b6565b50949350505050565b6004546001600160a01b031681565b60035460ff1681565b600061104a615642565b604051806020016040528061105d611ce1565b90526001600160a01b0384166000908152600e6020526040812054919250908190611089908490612561565b9092509050600082600381111561109c57fe5b146110ee576040805162461bcd60e51b815260206004820152601f60248201527f62616c616e636520636f756c64206e6f742062652063616c63756c6174656400604482015290519081900360640190fd5b949350505050565b60006111006125b5565b905090565b6000610c3c82612635565b60035460009061010090046001600160a01b0316331461113d576111366001603f6126c9565b9050610c53565b60055460408051623f1ee960e11b815290516001600160a01b0392831692851691627e3dd2916004808301926020929190829003018186803b15801561118257600080fd5b505afa158015611196573d6000803e3d6000fd5b505050506040513d60208110156111ac57600080fd5b50516111ff576040805162461bcd60e51b815260206004820152601c60248201527f6d61726b6572206d6574686f642072657475726e65642066616c736500000000604482015290519081900360640190fd5b600580546001600160a01b0319166001600160a01b03858116918217909255604080519284168352602083019190915280517f7ac369dbd14fa5ea3f473ed67cc9d598964a77501540ba6751eb0b3decf5870d9281900390910190a160005b9392505050565b600b5481565b6005546001600160a01b031681565b6000805460ff166112bf576040805162461bcd60e51b815260206004820152600a6024820152691c994b595b9d195c995960b21b604482015290519081900360640190fd5b6000805460ff191681556112d1611776565b905080156112f7576112ef8160108111156112e857fe5b60306126c9565b915050610d4a565b6113008361272f565b9150506000805460ff19166001179055919050565b666379da05b6000081565b60095481565b6011546001600160a01b031681565b6001600160a01b03166000908152600e602052604090205490565b6000805460ff16611395576040805162461bcd60e51b815260206004820152600a6024820152691c994b595b9d195c995960b21b604482015290519081900360640190fd5b6000805460ff191681556113a7611776565b146113f2576040805162461bcd60e51b81526020600482015260166024820152751858d8dc9d59481a5b9d195c995cdd0819985a5b195960521b604482015290519081900360640190fd5b50600b546000805460ff1916600117905590565b60035461010090046001600160a01b031633146114545760405162461bcd60e51b815260040180806020018281038252602d81526020018061591f602d913960400191505060405180910390fd5b601154604080516317066a5760e21b81526001600160a01b03848116600483015291519190921691635c19a95c91602480830192600092919082900301818387803b1580156114a257600080fd5b505af11580156114b6573d6000803e3d6000fd5b5050505050565b6000610c3c82612862565b600c5481565b6002805460408051602060018416156101000260001901909316849004601f81018490048402820184019092528181529291830182828015610bcd5780601f10610ba257610100808354040283529160200191610bcd565b6000806000611534846128e3565b9092509050600082600381111561154757fe5b1461125e5760405162461bcd60e51b81526004018080602001828103825260378152602001806159bc6037913960400191505060405180910390fd5b60035461010090046001600160a01b031633146115d15760405162461bcd60e51b81526004018080602001828103825260248152602001806157e86024913960400191505060405180910390fd5b6009541580156115e15750600a54155b61161c5760405162461bcd60e51b815260040180806020018281038252602381526020018061580c6023913960400191505060405180910390fd5b60078490558361165d5760405162461bcd60e51b81526004018080602001828103825260308152602001806158ef6030913960400191505060405180910390fd5b600061166887611110565b905080156116bd576040805162461bcd60e51b815260206004820152601a60248201527f73657474696e6720636f6d7074726f6c6c6572206661696c6564000000000000604482015290519081900360640190fd5b6116c5612997565b600955670de0b6b3a7640000600a556116dd8661299b565b9050801561171c5760405162461bcd60e51b815260040180806020018281038252602281526020018061594c6022913960400191505060405180910390fd5b835161172f906001906020870190615655565b508251611743906002906020860190615655565b50506003805460ff90921660ff199283161790556000805490911660011790555050505050565b600080610c4e83612b10565b600080611781612997565b6009549091508082141561179a57600092505050610dc2565b60006117a46125b5565b600b54600c54600a54600654604080516315f2405360e01b815260048101879052602481018690526044810185905290519596509394929391926000926001600160a01b03909216916315f24053916064808301926020929190829003018186803b15801561181257600080fd5b505afa158015611826573d6000803e3d6000fd5b505050506040513d602081101561183c57600080fd5b5051905065048c2739500081111561189b576040805162461bcd60e51b815260206004820152601c60248201527f626f72726f772072617465206973206162737572646c79206869676800000000604482015290519081900360640190fd5b6000806118a88989612b91565b909250905060008260038111156118bb57fe5b1461190d576040805162461bcd60e51b815260206004820152601f60248201527f636f756c64206e6f742063616c63756c61746520626c6f636b2064656c746100604482015290519081900360640190fd5b611915615642565b60008060008061193360405180602001604052808a81525087612bb4565b9097509450600087600381111561194657fe5b14611978576119636009600689600381111561195e57fe5b612c1c565b9e505050505050505050505050505050610dc2565b611982858c612561565b9097509350600087600381111561199557fe5b146119ad576119636009600189600381111561195e57fe5b6119b7848c612c82565b909750925060008760038111156119ca57fe5b146119e2576119636009600489600381111561195e57fe5b6119fd6040518060200160405280600854815250858c612ca8565b90975091506000876003811115611a1057fe5b14611a28576119636009600589600381111561195e57fe5b611a33858a8b612ca8565b90975090506000876003811115611a4657fe5b14611a5e576119636009600389600381111561195e57fe5b60098e9055600a819055600b839055600c829055604080518d8152602081018690528082018390526060810185905290517f4dec04e750ca11537cabcd8a9eab06494de08da3735bc8871cd41250e190bc049181900360800190a160009e50505050505050505050505050505090565b6000805460ff16611b13576040805162461bcd60e51b815260206004820152600a6024820152691c994b595b9d195c995960b21b604482015290519081900360640190fd5b6000805460ff19168155611b293333868661222a565b1490506000805460ff1916600117905592915050565b600a5481565b6006546000906001600160a01b031663b8168816611b616125b5565b600b54600c546008546040518563ffffffff1660e01b81526004018085815260200184815260200183815260200182815260200194505050505060206040518083038186803b158015611bb357600080fd5b505afa158015611bc7573d6000803e3d6000fd5b505050506040513d6020811015611bdd57600080fd5b5051905090565b6000805460ff16611c29576040805162461bcd60e51b815260206004820152600a6024820152691c994b595b9d195c995960b21b604482015290519081900360640190fd5b6000805460ff19169055611c3f33858585612d04565b90506000805460ff191660011790559392505050565b60035460009061010090046001600160a01b03163314611c7b57611136600160456126c9565b600480546001600160a01b038481166001600160a01b0319831681179093556040805191909216808252602082019390935281517fca4f2f25d0898edd99413412fb94012f9e54ec8142f9b093e7720646a95b16a9929181900390910190a1600061125e565b6000805460ff16611d26576040805162461bcd60e51b815260206004820152600a6024820152691c994b595b9d195c995960b21b604482015290519081900360640190fd5b6000805460ff19168155611d38611776565b14611d83576040805162461bcd60e51b81526020600482015260166024820152751858d8dc9d59481a5b9d195c995cdd0819985a5b195960521b604482015290519081900360640190fd5b611d8b610d62565b90506000805460ff1916600117905590565b6001600160a01b0381166000908152600e6020526040812054819081908190818080611dc8896128e3565b935090506000816003811115611dda57fe5b14611df85760095b975060009650869550859450611e2b9350505050565b611e0061217b565b925090506000816003811115611e1257fe5b14611e1e576009611de2565b5060009650919450925090505b9193509193565b6000610c3c826130de565b6000610c3c8261315d565b6001600160a01b039182166000908152600f6020908152604080832093909416825291909152205490565b6004546000906001600160a01b031633141580611e8e575033155b15611ea657611e9f600160006126c9565b9050610dc2565b60038054600480546001600160a01b03818116610100818102610100600160a81b0319871617968790556001600160a01b031990931690935560408051948390048216808652929095041660208401528351909391927ff9ffabca9c8276e99321725bcb43fb076a6c66a54b7f21c4e8146d8519b417dc92908290030190a1600454604080516001600160a01b038085168252909216602083015280517fca4f2f25d0898edd99413412fb94012f9e54ec8142f9b093e7720646a95b16a99281900390910190a160009250505090565b600080611f81611776565b90508015611fa757611f9f816010811115611f9857fe5b60406126c9565b915050610c53565b61125e8361299b565b6006546001600160a01b031681565b600080611fcd8585856131d7565b5095945050505050565b60035461010090046001600160a01b031681565b6006546000906001600160a01b03166315f240536120076125b5565b600b54600c546040518463ffffffff1660e01b815260040180848152602001838152602001828152602001935050505060206040518083038186803b158015611bb357600080fd5b6000805460ff16612094576040805162461bcd60e51b815260206004820152600a6024820152691c994b595b9d195c995960b21b604482015290519081900360640190fd5b6000805460ff191681556120a6611776565b905080156120c4576112ef8160108111156120bd57fe5b60466126c9565b61130083613309565b600181565b60008054819060ff16612119576040805162461bcd60e51b815260206004820152600a6024820152691c994b595b9d195c995960b21b604482015290519081900360640190fd5b6000805460ff1916815561212b611776565b905080156121565761214981601081111561214257fe5b60366126c9565b9250600091506121679050565b6121613333866133b1565b92509250505b6000805460ff191660011790559092909150565b600d5460009081908061219657505060075460009150612226565b60006121a06125b5565b905060006121ac615642565b60006121bd84600b54600c5461393a565b9350905060008160038111156121cf57fe5b146121e4579550600094506122269350505050565b6121ee8386613978565b92509050600081600381111561220057fe5b14612215579550600094506122269350505050565b505160009550935061222692505050565b9091565b600554604080516317b9b84b60e31b81523060048201526001600160a01b03868116602483015285811660448301526064820185905291516000938493169163bdcdc25891608480830192602092919082900301818787803b15801561228f57600080fd5b505af11580156122a3573d6000803e3d6000fd5b505050506040513d60208110156122b957600080fd5b5051905080156122d8576122d06003604a83612c1c565b9150506110ee565b836001600160a01b0316856001600160a01b031614156122fe576122d06002604b6126c9565b60006001600160a01b03878116908716141561231d5750600019612345565b506001600160a01b038086166000908152600f60209081526040808320938a16835292905220545b6000806000806123558589612b91565b9094509250600084600381111561236857fe5b14612386576123796009604b6126c9565b96505050505050506110ee565b6001600160a01b038a166000908152600e60205260409020546123a99089612b91565b909450915060008460038111156123bc57fe5b146123cd576123796009604c6126c9565b6001600160a01b0389166000908152600e60205260409020546123f09089612c82565b9094509050600084600381111561240357fe5b14612414576123796009604d6126c9565b6001600160a01b03808b166000908152600e6020526040808220859055918b16815220819055600019851461246c576001600160a01b03808b166000908152600f60209081526040808320938f168352929052208390555b886001600160a01b03168a6001600160a01b0316600080516020615a2d8339815191528a6040518082815260200191505060405180910390a35060009a9950505050505050505050565b60008054819060ff166124fd576040805162461bcd60e51b815260206004820152600a6024820152691c994b595b9d195c995960b21b604482015290519081900360640190fd5b6000805460ff1916815561250f611776565b9050801561253a5761252d81601081111561252657fe5b60356126c9565b92506000915061254b9050565b6125453386866133b1565b92509250505b6000805460ff1916600117905590939092509050565b600080600061256e615642565b6125788686612bb4565b9092509050600082600381111561258b57fe5b1461259c57509150600090506125ae565b60006125a782613a28565b9350935050505b9250929050565b601154604080516370a0823160e01b815230600482015290516000926001600160a01b03169182916370a0823191602480820192602092909190829003018186803b15801561260357600080fd5b505afa158015612617573d6000803e3d6000fd5b505050506040513d602081101561262d57600080fd5b505191505090565b6000805460ff1661267a576040805162461bcd60e51b815260206004820152600a6024820152691c994b595b9d195c995960b21b604482015290519081900360640190fd5b6000805460ff1916815561268c611776565b905080156126aa576112ef8160108111156126a357fe5b604e6126c9565b6126b383613a37565b509150506000805460ff19166001179055919050565b60007f45b96fe442630264581b197e84bbada861235052c5a1aadfff9ea4e40a969aa08360108111156126f857fe5b83605081111561270457fe5b604080519283526020830191909152600082820152519081900360600190a182601081111561125e57fe5b600354600090819061010090046001600160a01b0316331461275757611f9f600160316126c9565b61275f612997565b6009541461277357611f9f600a60336126c9565b8261277c6125b5565b101561278e57611f9f600e60326126c9565b600c548311156127a457611f9f600260346126c9565b50600c54828103908111156127ea5760405162461bcd60e51b8152600401808060200182810382526024815260200180615b9e6024913960400191505060405180910390fd5b600c81905560035461280a9061010090046001600160a01b031684613b1f565b600354604080516101009092046001600160a01b0316825260208201859052818101839052517f3bad0c59cf2f06e7314077049f48a93578cd16f5ef92329f1dab1420a99c177e916060908290030190a1600061125e565b6000805460ff166128a7576040805162461bcd60e51b815260206004820152600a6024820152691c994b595b9d195c995960b21b604482015290519081900360640190fd5b6000805460ff191681556128b9611776565b905080156128d7576112ef8160108111156128d057fe5b60276126c9565b61130033600085613c16565b6001600160a01b03811660009081526010602052604081208054829182918291829161291a57506000945084935061299292505050565b61292a8160000154600a546141f5565b9094509250600084600381111561293d57fe5b14612952575091935060009250612992915050565b612960838260010154614234565b9094509150600084600381111561297357fe5b14612988575091935060009250612992915050565b5060009450925050505b915091565b4390565b600354600090819061010090046001600160a01b031633146129c357611f9f600160426126c9565b6129cb612997565b600954146129df57611f9f600a60416126c9565b600660009054906101000a90046001600160a01b03169050826001600160a01b0316632191f92a6040518163ffffffff1660e01b815260040160206040518083038186803b158015612a3057600080fd5b505afa158015612a44573d6000803e3d6000fd5b505050506040513d6020811015612a5a57600080fd5b5051612aad576040805162461bcd60e51b815260206004820152601c60248201527f6d61726b6572206d6574686f642072657475726e65642066616c736500000000604482015290519081900360640190fd5b600680546001600160a01b0319166001600160a01b03858116918217909255604080519284168352602083019190915280517fedffc32e068c7c95dfd4bdfd5c4d939a084d6b11c4199eac8436ed234d72f9269281900390910190a1600061125e565b60008054819060ff16612b57576040805162461bcd60e51b815260206004820152600a6024820152691c994b595b9d195c995960b21b604482015290519081900360640190fd5b6000805460ff19168155612b69611776565b90508015612b8757612149816010811115612b8057fe5b601e6126c9565b612161338561425f565b600080838311612ba85750600090508183036125ae565b506003905060006125ae565b6000612bbe615642565b600080612bcf8660000151866141f5565b90925090506000826003811115612be257fe5b14612c01575060408051602081019091526000815290925090506125ae565b60408051602081019091529081526000969095509350505050565b60007f45b96fe442630264581b197e84bbada861235052c5a1aadfff9ea4e40a969aa0846010811115612c4b57fe5b846050811115612c5757fe5b604080519283526020830191909152818101859052519081900360600190a18360108111156110ee57fe5b600080838301848110612c9a576000925090506125ae565b5060029150600090506125ae565b6000806000612cb5615642565b612cbf8787612bb4565b90925090506000826003811115612cd257fe5b14612ce35750915060009050612cfc565b612cf5612cef82613a28565b86612c82565b9350935050505b935093915050565b6005546040805163d02f735160e01b81523060048201526001600160a01b038781166024830152868116604483015285811660648301526084820185905291516000938493169163d02f73519160a480830192602092919082900301818787803b158015612d7157600080fd5b505af1158015612d85573d6000803e3d6000fd5b505050506040513d6020811015612d9b57600080fd5b505190508015612db2576122d06003601b83612c1c565b846001600160a01b0316846001600160a01b03161415612dd8576122d06006601c6126c9565b612de06156d3565b6001600160a01b0385166000908152600e6020526040902054612e039085612b91565b6020830181905282826003811115612e1757fe5b6003811115612e2257fe5b9052506000905081516003811115612e3657fe5b14612e5b57612e526009601a8360000151600381111561195e57fe5b925050506110ee565b612e7a846040518060200160405280666379da05b600008152506147c3565b60808201819052612e8c9085906147eb565b6060820152612e9961217b565b60c0830181905282826003811115612ead57fe5b6003811115612eb857fe5b9052506000905081516003811115612ecc57fe5b14612f1e576040805162461bcd60e51b815260206004820152601860248201527f65786368616e67652072617465206d617468206572726f720000000000000000604482015290519081900360640190fd5b612f3e60405180602001604052808360c001518152508260800151614825565b60a08201819052600c54612f5191614844565b60e0820152600d546080820151612f6891906147eb565b6101008201526001600160a01b0386166000908152600e60205260409020546060820151612f969190612c82565b6040830181905282826003811115612faa57fe5b6003811115612fb557fe5b9052506000905081516003811115612fc957fe5b14612fe557612e52600960198360000151600381111561195e57fe5b60e0810151600c55610100810151600d556020808201516001600160a01b038088166000818152600e855260408082209490945583860151928b16808252908490209290925560608501518351908152925191939092600080516020615a2d833981519152929081900390910190a36080810151604080519182525130916001600160a01b03881691600080516020615a2d8339815191529181900360200190a360a081015160e082015160408051308152602081019390935282810191909152517fa91e67c5ea634cd43a12c5a482724b03de01e85ca68702a53d0c2f45cb7c1dc59181900360600190a16000979650505050505050565b6000805460ff16613123576040805162461bcd60e51b815260206004820152600a6024820152691c994b595b9d195c995960b21b604482015290519081900360640190fd5b6000805460ff19168155613135611776565b90508015613153576112ef81601081111561314c57fe5b60086126c9565b611300338461487a565b6000805460ff166131a2576040805162461bcd60e51b815260206004820152600a6024820152691c994b595b9d195c995960b21b604482015290519081900360640190fd5b6000805460ff191681556131b4611776565b905080156131cb576112ef8160108111156128d057fe5b61130033846000613c16565b60008054819060ff1661321e576040805162461bcd60e51b815260206004820152600a6024820152691c994b595b9d195c995960b21b604482015290519081900360640190fd5b6000805460ff19168155613230611776565b9050801561325b5761324e81601081111561324757fe5b600f6126c9565b9250600091506132f29050565b836001600160a01b031663a6afed956040518163ffffffff1660e01b8152600401602060405180830381600087803b15801561329657600080fd5b505af11580156132aa573d6000803e3d6000fd5b505050506040513d60208110156132c057600080fd5b5051905080156132e05761324e8160108111156132d957fe5b60106126c9565b6132ec33878787614cc2565b92509250505b6000805460ff191660011790559094909350915050565b60035460009061010090046001600160a01b0316331461332f57611136600160476126c9565b613337612997565b6009541461334b57611136600a60486126c9565b670de0b6b3a764000082111561336757611136600260496126c9565b6008805490839055604080518281526020810185905281517faaa68312e2ea9d50e16af5068410ab56e1a1fd06037b1a35664812c30f821460929181900390910190a1600061125e565b60055460408051631200453160e11b81523060048201526001600160a01b0386811660248301528581166044830152606482018590529151600093849384939116916324008a629160848082019260209290919082900301818787803b15801561341a57600080fd5b505af115801561342e573d6000803e3d6000fd5b505050506040513d602081101561344457600080fd5b5051905080156134685761345b6003603883612c1c565b925060009150612cfc9050565b613470612997565b600954146134845761345b600a60396126c9565b61348c615720565b6001600160a01b03861660009081526010602052604090206001015460608201526134b6866128e3565b60808301819052602083018260038111156134cd57fe5b60038111156134d857fe5b90525060009050816020015160038111156134ef57fe5b146135195761350b600960378360200151600381111561195e57fe5b935060009250612cfc915050565b600019851415613532576080810151604082015261353a565b604081018590525b6135426125b5565b1561357e5760405162461bcd60e51b815260040180806020018281038252603281526020018061588f6032913960400191505060405180910390fd5b61358c8782604001516151b4565b60e0820181905261359b6125b5565b10156135d85760405162461bcd60e51b815260040180806020018281038252602b815260200180615b3f602b913960400191505060405180910390fd5b60006135e26125b5565b6012549091506000906001600160a01b0316638ddcb4656136016125b5565b8a6040518363ffffffff1660e01b815260040180838152602001826001600160a01b03166001600160a01b0316815260200192505050602060405180830381600087803b15801561365157600080fd5b505af1158015613665573d6000803e3d6000fd5b505050506040513d602081101561367b57600080fd5b5051905080156136a2576136926009600c83612c1c565b955060009450612cfc9350505050565b6136aa6125b5565b156136ce576012546001600160a01b03166136cc816136c76125b5565b613b1f565b505b6136d66125b5565b15613728576040805162461bcd60e51b815260206004820152601e60248201527f4e6f204c697175696469747920696e204c656e64696e67204d61726b65740000604482015290519081900360640190fd5b61373a83608001518460e00151612b91565b60a085018190526020850182600381111561375157fe5b600381111561375c57fe5b905250600090508360200151600381111561377357fe5b146137af5760405162461bcd60e51b815260040180806020018281038252603a8152602001806159f3603a913960400191505060405180910390fd5b6137bf600b548460e00151612b91565b60c08501819052602085018260038111156137d657fe5b60038111156137e157fe5b90525060009050836020015160038111156137f857fe5b146138345760405162461bcd60e51b8152600401808060200182810382526031815260200180615a4d6031913960400191505060405180910390fd5b8260a00151601060008a6001600160a01b03166001600160a01b0316815260200190815260200160002060000181905550600a54601060008a6001600160a01b03166001600160a01b03168152602001908152602001600020600101819055508260c00151600b819055507f1a2a22cb034d26d1854bdc6666a5b91fe25efbbb5dcad3b0355478d6f5c362a189898560e001518660a001518760c0015160405180866001600160a01b03166001600160a01b03168152602001856001600160a01b03166001600160a01b031681526020018481526020018381526020018281526020019550505050505060405180910390a1505060e00151600097909650945050505050565b60008060008061394a8787612c82565b9092509050600082600381111561395d57fe5b1461396e5750915060009050612cfc565b612cf58186612b91565b6000613982615642565b60008061399786670de0b6b3a76400006141f5565b909250905060008260038111156139aa57fe5b146139c9575060408051602081019091526000815290925090506125ae565b6000806139d68388614234565b909250905060008260038111156139e957fe5b14613a0b575060408051602081019091526000815290945092506125ae915050565b604080516020810190915290815260009890975095505050505050565b51670de0b6b3a7640000900490565b600080600080613a45612997565b60095414613a6457613a59600a604f6126c9565b935091506129929050565b613a6e33866151b4565b905080600c54019150600c54821015613ace576040805162461bcd60e51b815260206004820181905260248201527f61646420726573657276657320756e6578706563746564206f766572666c6f77604482015290519081900360640190fd5b600c829055604080513381526020810183905280820184905290517fa91e67c5ea634cd43a12c5a482724b03de01e85ca68702a53d0c2f45cb7c1dc59181900360600190a160009350915050915091565b6011546040805163a9059cbb60e01b81526001600160a01b0385811660048301526024820185905291519190921691829163a9059cbb9160448082019260009290919082900301818387803b158015613b7757600080fd5b505af1158015613b8b573d6000803e3d6000fd5b5050505060003d60008114613ba75760208114613bb157600080fd5b6000199150613bbd565b60206000803e60005191505b5080613c10576040805162461bcd60e51b815260206004820152601960248201527f544f4b454e5f5452414e534645525f4f55545f4641494c454400000000000000604482015290519081900360640190fd5b50505050565b6000821580613c23575081155b613c5e5760405162461bcd60e51b8152600401808060200182810382526034815260200180615b6a6034913960400191505060405180910390fd5b613c66615766565b613c6e61217b565b6040830181905260208301826003811115613c8557fe5b6003811115613c9057fe5b9052506000905081602001516003811115613ca757fe5b14613ccb57613cc36009602b8360200151600381111561195e57fe5b91505061125e565b8315613d4c576060810184905260408051602081018252908201518152613cf29085612561565b6080830181905260208301826003811115613d0957fe5b6003811115613d1457fe5b9052506000905081602001516003811115613d2b57fe5b14613d4757613cc3600960298360200151600381111561195e57fe5b613dc5565b613d6883604051806020016040528084604001518152506153fe565b6060830181905260208301826003811115613d7f57fe5b6003811115613d8a57fe5b9052506000905081602001516003811115613da157fe5b14613dbd57613cc36009602a8360200151600381111561195e57fe5b608081018390525b60055460608201516040805163eabe7d9160e01b81523060048201526001600160a01b03898116602483015260448201939093529051600093929092169163eabe7d919160648082019260209290919082900301818787803b158015613e2a57600080fd5b505af1158015613e3e573d6000803e3d6000fd5b505050506040513d6020811015613e5457600080fd5b505190508015613e7457613e6b6003602883612c1c565b9250505061125e565b613e7c612997565b60095414613e9057613e6b600a602c6126c9565b613ea0600d548360600151612b91565b60a0840181905260208401826003811115613eb757fe5b6003811115613ec257fe5b9052506000905082602001516003811115613ed957fe5b14613ef557613e6b6009602e8460200151600381111561195e57fe5b6001600160a01b0386166000908152600e60205260409020546060830151613f1d9190612b91565b60c0840181905260208401826003811115613f3457fe5b6003811115613f3f57fe5b9052506000905082602001516003811115613f5657fe5b14613f7257613e6b6009602d8460200151600381111561195e57fe5b613f7a6125b5565b15613fb65760405162461bcd60e51b8152600401808060200182810382526031815260200180615bc26031913960400191505060405180910390fd5b601254608083015160408051635485654960e11b815260048101929092526001600160a01b0389811660248401529051600093919091169163a90aca9291604480830192602092919082900301818787803b15801561401457600080fd5b505af1158015614028573d6000803e3d6000fd5b505050506040513d602081101561403e57600080fd5b50519050801561405f576140556003604b83612c1c565b935050505061125e565b826080015161406c6125b5565b146140a85760405162461bcd60e51b815260040180806020018281038252602e815260200180615861602e913960400191505060405180910390fd5b6140b6878460800151613b1f565b60a0830151600d5560c08301516001600160a01b0388166000818152600e6020908152604091829020939093556060860151815190815290513093600080516020615a2d833981519152928290030190a36080830151606080850151604080516001600160a01b038c168152602081019490945283810191909152517fe5b754fb1abb7f01b499791d0b820ae3b6af3424ac1c59768edb53f4ec31a9299281900390910190a160055460808401516060850151604080516351dff98960e01b81523060048201526001600160a01b038c81166024830152604482019490945260648101929092525191909216916351dff98991608480830192600092919082900301818387803b1580156141c957600080fd5b505af11580156141dd573d6000803e3d6000fd5b50600092506141ea915050565b979650505050505050565b60008083614208575060009050806125ae565b8383028385828161421557fe5b0414614229575060029150600090506125ae565b6000925090506125ae565b6000808261424857506001905060006125ae565b600083858161425357fe5b04915091509250929050565b60055460408051634ef4c3e160e01b81523060048201526001600160a01b03858116602483015260448201859052915160009384938493911691634ef4c3e19160648082019260209290919082900301818787803b1580156142c057600080fd5b505af11580156142d4573d6000803e3d6000fd5b505050506040513d60208110156142ea57600080fd5b50519050801561430e576143016003601f83612c1c565b9250600091506125ae9050565b614316612997565b6009541461432a57614301600a60226126c9565b614332615766565b61433a61217b565b604083018190526020830182600381111561435157fe5b600381111561435c57fe5b905250600090508160200151600381111561437357fe5b1461439d5761438f600960218360200151600381111561195e57fe5b9350600092506125ae915050565b6143a56125b5565b156143e15760405162461bcd60e51b815260040180806020018281038252602e8152602001806158c1602e913960400191505060405180910390fd5b6143eb86866151b4565b60c082018190526143fa6125b5565b10156144375760405162461bcd60e51b815260040180806020018281038252602b815260200180615b3f602b913960400191505060405180910390fd5b60006144416125b5565b6012549091506000906001600160a01b0316638ddcb4656144606125b5565b8a6040518363ffffffff1660e01b815260040180838152602001826001600160a01b03166001600160a01b0316815260200192505050602060405180830381600087803b1580156144b057600080fd5b505af11580156144c4573d6000803e3d6000fd5b505050506040513d60208110156144da57600080fd5b505190508015614501576144f16009600c83612c1c565b9550600094506125ae9350505050565b6145096125b5565b15614528576012546001600160a01b0316614526816136c76125b5565b505b6145306125b5565b1561453a57600080fd5b61455a8360c00151604051806020016040528086604001518152506153fe565b606085018190526020850182600381111561457157fe5b600381111561457c57fe5b905250600090508360200151600381111561459357fe5b146145e5576040805162461bcd60e51b815260206004820181905260248201527f4d494e545f45584348414e47455f43414c43554c4154494f4e5f4641494c4544604482015290519081900360640190fd5b6145f5600d548460600151612c82565b608085018190526020850182600381111561460c57fe5b600381111561461757fe5b905250600090508360200151600381111561462e57fe5b1461466a5760405162461bcd60e51b8152600401808060200182810382526028815260200180615b176028913960400191505060405180910390fd5b6001600160a01b0388166000908152600e602052604090205460608401516146929190612c82565b60a08501819052602085018260038111156146a957fe5b60038111156146b457fe5b90525060009050836020015160038111156146cb57fe5b146147075760405162461bcd60e51b815260040180806020018281038252602b81526020018061596e602b913960400191505060405180910390fd5b6080830151600d5560a08301516001600160a01b0389166000818152600e60209081526040918290209390935560c086015160608088015183519485529484019190915282820193909352517f4c209b5fc8ad50758f13e2e1088ba56a560dff690a1c6fef26394f4c03821c4f929181900390910190a1606083015160408051918252516001600160a01b038a16913091600080516020615a2d8339815191529181900360200190a3505060c001516000969095509350505050565b6000670de0b6b3a76400006147dc848460000151615415565b816147e357fe5b049392505050565b600061125e8383604051806040016040528060158152602001747375627472616374696f6e20756e646572666c6f7760581b815250615457565b600061482f615642565b61483984846154ee565b90506110ee81613a28565b600061125e8383604051806040016040528060118152602001706164646974696f6e206f766572666c6f7760781b815250615518565b6005546040805163368f515360e21b81523060048201526001600160a01b0385811660248301526044820185905291516000938493169163da3d454c91606480830192602092919082900301818787803b1580156148d757600080fd5b505af11580156148eb573d6000803e3d6000fd5b505050506040513d602081101561490157600080fd5b505190508015614920576149186003600e83612c1c565b915050610c3c565b614928612997565b6009541461493b57614918600a806126c9565b6149436125b5565b1561497f5760405162461bcd60e51b8152600401808060200182810382526031815260200180615ab16031913960400191505060405180910390fd5b6012546001600160a01b03166149c65760405162461bcd60e51b81526004018080602001828103825260238152602001806159996023913960400191505060405180910390fd5b60125460408051635485654960e11b8152600481018690526001600160a01b0387811660248301529151600093929092169163a90aca929160448082019260209290919082900301818787803b158015614a1f57600080fd5b505af1158015614a33573d6000803e3d6000fd5b505050506040513d6020811015614a4957600080fd5b505190508015614a6957614a606003604b83612c1c565b92505050610c3c565b83614a726125b5565b14614ac4576040805162461bcd60e51b815260206004820152601a60248201527f696e636f727265637420616d6f756e74207375626d6974746564000000000000604482015290519081900360640190fd5b614acc6157a4565b614ad5866128e3565b6020830181905282826003811115614ae957fe5b6003811115614af457fe5b9052506000905081516003811115614b0857fe5b14614b2e57614b24600960078360000151600381111561195e57fe5b9350505050610c3c565b614b3c816020015186612c82565b6040830181905282826003811115614b5057fe5b6003811115614b5b57fe5b9052506000905081516003811115614b6f57fe5b14614b8b57614b246009600c8360000151600381111561195e57fe5b614b97600b5486612c82565b6060830181905282826003811115614bab57fe5b6003811115614bb657fe5b9052506000905081516003811115614bca57fe5b14614be657614b246009600b8360000151600381111561195e57fe5b614bf08686613b1f565b614bf86125b5565b15614c345760405162461bcd60e51b8152600401808060200182810382526031815260200180615ab16031913960400191505060405180910390fd5b604080820180516001600160a01b03891660008181526010602090815290859020928355600a54600190930192909255606080860151600b819055935185519283529282018a9052818501929092529081019190915290517f13ed6866d4e1ee6da46f845c46d7e54120883d75c5ea9a2dacc1c4ca8984ab809181900360800190a160009695505050505050565b60055460408051632fe3f38f60e11b81523060048201526001600160a01b0384811660248301528781166044830152868116606483015260848201869052915160009384938493911691635fc7e71e9160a48082019260209290919082900301818787803b158015614d3357600080fd5b505af1158015614d47573d6000803e3d6000fd5b505050506040513d6020811015614d5d57600080fd5b505190508015614d8157614d746003601283612c1c565b9250600091506151ab9050565b614d89612997565b60095414614d9d57614d74600a60166126c9565b614da5612997565b846001600160a01b0316636c540baf6040518163ffffffff1660e01b815260040160206040518083038186803b158015614dde57600080fd5b505afa158015614df2573d6000803e3d6000fd5b505050506040513d6020811015614e0857600080fd5b505114614e1b57614d74600a60116126c9565b866001600160a01b0316866001600160a01b03161415614e4157614d74600660176126c9565b84614e5257614d74600760156126c9565b600019851415614e6857614d74600760146126c9565b600080614e768989896133b1565b90925090508115614ea657614e97826010811115614e9057fe5b60186126c9565b9450600093506151ab92505050565b6005546040805163c488847b60e01b81523060048201526001600160a01b038981166024830152604482018590528251600094859492169263c488847b926064808301939192829003018186803b158015614f0057600080fd5b505afa158015614f14573d6000803e3d6000fd5b505050506040513d6040811015614f2a57600080fd5b50805160209091015190925090508115614f755760405162461bcd60e51b8152600401808060200182810382526033815260200180615a7e6033913960400191505060405180910390fd5b80886001600160a01b03166370a082318c6040518263ffffffff1660e01b815260040180826001600160a01b03166001600160a01b0316815260200191505060206040518083038186803b158015614fcc57600080fd5b505afa158015614fe0573d6000803e3d6000fd5b505050506040513d6020811015614ff657600080fd5b5051101561504b576040805162461bcd60e51b815260206004820152601860248201527f4c49515549444154455f5345495a455f544f4f5f4d5543480000000000000000604482015290519081900360640190fd5b60006001600160a01b0389163014156150715761506a308d8d85612d04565b90506150fb565b6040805163b2a02ff160e01b81526001600160a01b038e811660048301528d81166024830152604482018590529151918b169163b2a02ff1916064808201926020929091908290030181600087803b1580156150cc57600080fd5b505af11580156150e0573d6000803e3d6000fd5b505050506040513d60208110156150f657600080fd5b505190505b8015615145576040805162461bcd60e51b81526020600482015260146024820152731d1bdad95b881cd95a5e9d5c994819985a5b195960621b604482015290519081900360640190fd5b604080516001600160a01b03808f168252808e1660208301528183018790528b1660608201526080810184905290517f298637f684da70674f26509b10f07ec2fbc77a335ab1e7d6215a4b2484d8bb529181900360a00190a16000975092955050505050505b94509492505050565b601154604080516370a0823160e01b815230600482015290516000926001600160a01b031691839183916370a08231916024808301926020929190829003018186803b15801561520357600080fd5b505afa158015615217573d6000803e3d6000fd5b505050506040513d602081101561522d57600080fd5b5051604080516323b872dd60e01b81526001600160a01b038881166004830152306024830152604482018890529151929350908416916323b872dd9160648082019260009290919082900301818387803b15801561528a57600080fd5b505af115801561529e573d6000803e3d6000fd5b5050505060003d600081146152ba57602081146152c457600080fd5b60001991506152d0565b60206000803e60005191505b5080615323576040805162461bcd60e51b815260206004820152601860248201527f544f4b454e5f5452414e534645525f494e5f4641494c45440000000000000000604482015290519081900360640190fd5b601154604080516370a0823160e01b815230600482015290516000926001600160a01b0316916370a08231916024808301926020929190829003018186803b15801561536e57600080fd5b505afa158015615382573d6000803e3d6000fd5b505050506040513d602081101561539857600080fd5b50519050828110156153f1576040805162461bcd60e51b815260206004820152601a60248201527f544f4b454e5f5452414e534645525f494e5f4f564552464c4f57000000000000604482015290519081900360640190fd5b9190910395945050505050565b600080600061540b615642565b612578868661556d565b600061125e83836040518060400160405280601781526020017f6d756c7469706c69636174696f6e206f766572666c6f770000000000000000008152506155cc565b600081848411156154e65760405162461bcd60e51b81526004018080602001828103825283818151815260200191508051906020019080838360005b838110156154ab578181015183820152602001615493565b50505050905090810190601f1680156154d85780820380516001836020036101000a031916815260200191505b509250505060405180910390fd5b505050900390565b6154f6615642565b604051806020016040528061550f856000015185615415565b90529392505050565b6000838301828582101561101f5760405162461bcd60e51b81526020600482018181528351602484015283519092839260449091019190850190808383600083156154ab578181015183820152602001615493565b6000615577615642565b60008061558c670de0b6b3a7640000876141f5565b9092509050600082600381111561559f57fe5b146155be575060408051602081019091526000815290925090506125ae565b6125a7818660000151613978565b60008315806155d9575082155b156155e65750600061125e565b838302838582816155f357fe5b0414839061101f5760405162461bcd60e51b81526020600482018181528351602484015283519092839260449091019190850190808383600083156154ab578181015183820152602001615493565b6040518060200160405280600081525090565b828054600181600116156101000203166002900490600052602060002090601f016020900481019282601f1061569657805160ff19168380011785556156c3565b828001600101855582156156c3579182015b828111156156c35782518255916020019190600101906156a8565b506156cf9291506157cd565b5090565b604080516101208101909152806000815260200160008152602001600081526020016000815260200160008152602001600081526020016000815260200160008152602001600081525090565b6040805161010081019091528060008152602001600081526020016000815260200160008152602001600081526020016000815260200160008152602001600081525090565b6040805160e0810190915280600081526020016000815260200160008152602001600081526020016000815260200160008152602001600081525090565b604080516080810190915280600081526020016000815260200160008152602001600081525090565b610dc291905b808211156156cf57600081556001016157d356fe6f6e6c792061646d696e206d617920696e697469616c697a6520746865206d61726b65746d61726b6574206d6179206f6e6c7920626520696e697469616c697a6564206f6e63654345726332303a3a7377656570546f6b656e3a2063616e206e6f7420737765657020756e6465726c79696e6720746f6b656e54686572652073686f756c64206265206e6f206c697175696469747920696e204c656e64696e67204d61726b65744c697175696469747920696e204e6f7465204c656e64696e67204d61726b657420697320616c7761797320666c6173686564416e79204c697175696469747920696e20746865204c656e64696e67204d61726b657420697320666c6173686564696e697469616c2065786368616e67652072617465206d7573742062652067726561746572207468616e207a65726f2e6f6e6c79207468652061646d696e206d6179207365742074686520636f6d702d6c696b652064656c656761746573657474696e6720696e7465726573742072617465206d6f64656c206661696c65644d494e545f4e45575f4143434f554e545f42414c414e43455f43414c43554c4154494f4e5f4641494c45444163636f756e74616e7420686173206e6f74206265656e20696e697469616c697a6564626f72726f7742616c616e636553746f7265643a20626f72726f7742616c616e636553746f726564496e7465726e616c206661696c656452455041595f424f52524f575f4e45575f4143434f554e545f424f52524f575f42414c414e43455f43414c43554c4154494f4e5f4641494c4544ddf252ad1be2c89b69c2b068fc378daa952ba7f163c4a11628f55a4df523b3ef52455041595f424f52524f575f4e45575f544f54414c5f42414c414e43455f43414c43554c4154494f4e5f4641494c45444c49515549444154455f434f4d5054524f4c4c45525f43414c43554c4154455f414d4f554e545f5345495a455f4641494c4544494d504f535349424c45204558545241204c495155494449545920494e204e4f5445204c454e44494e47204d41524b455465786368616e67655261746553746f7265643a2065786368616e67655261746553746f726564496e7465726e616c206661696c65644d494e545f4e45575f544f54414c5f535550504c595f43414c43554c4154494f4e5f4641494c45446572726f722c204c656e64696e674d61726b6574204c697175696469747920697320696e636f72726563746f6e65206f662072656465656d546f6b656e73496e206f722072656465656d416d6f756e74496e206d757374206265207a65726f72656475636520726573657276657320756e657870656374656420756e646572666c6f7754686572652073686f756c64206265206e6f206c697175696469747920696e20746865204c656e64696e674d61726b6574a265627a7a723158206973fe185c0cea5f00d03b643964982377fb69848965e47cf68b80cf0b12bd1d64736f6c634300051000326f6e6c792061646d696e206d617920696e697469616c697a6520746865206d61726b65746d61726b6574206d6179206f6e6c7920626520696e697469616c697a6564206f6e6365696e697469616c2065786368616e67652072617465206d7573742062652067726561746572207468616e207a65726f2e73657474696e6720696e7465726573742072617465206d6f64656c206661696c6564",
  "linkReferences": {},
  "deployedLinkReferences": {}
}