{
  "_format": "hh-sol-artifact-1",
  "contractName": "cNote",
  "sourceName": "contracts/cNote.sol",
  "abi": [
    {
      "anonymous": false,
      "inputs": [
        {
          "indexed": false,
          "internalType": "address",
          "name": "accountant",
          "type": "address"
        },
        {
          "indexed": false,
          "internalType": "address",
          "name": "accountantPrior",
          "type": "address"
        }
      ],
      "name": "AccountantSet",
      "type": "event"
    },
    {
      "anonymous": false,
      "inputs": [
        {
          "indexed": false,
          "internalType": "uint256",
          "name": "cashPrior",
          "type": "uint256"
        },
        {
          "indexed": false,
          "internalType": "uint256",
          "name": "interestAccumulated",
          "type": "uint256"
        },
        {
          "indexed": false,
          "internalType": "uint256",
          "name": "borrowIndex",
          "type": "uint256"
        },
        {
          "indexed": false,
          "internalType": "uint256",
          "name": "totalBorrows",
          "type": "uint256"
        }
      ],
      "name": "AccrueInterest",
      "type": "event"
    },
    {
      "anonymous": false,
      "inputs": [
        {
          "indexed": true,
          "internalType": "address",
          "name": "owner",
          "type": "address"
        },
        {
          "indexed": true,
          "internalType": "address",
          "name": "spender",
          "type": "address"
        },
        {
          "indexed": false,
          "internalType": "uint256",
          "name": "amount",
          "type": "uint256"
        }
      ],
      "name": "Approval",
      "type": "event"
    },
    {
      "anonymous": false,
      "inputs": [
        {
          "indexed": false,
          "internalType": "address",
          "name": "borrower",
          "type": "address"
        },
        {
          "indexed": false,
          "internalType": "uint256",
          "name": "borrowAmount",
          "type": "uint256"
        },
        {
          "indexed": false,
          "internalType": "uint256",
          "name": "accountBorrows",
          "type": "uint256"
        },
        {
          "indexed": false,
          "internalType": "uint256",
          "name": "totalBorrows",
          "type": "uint256"
        }
      ],
      "name": "Borrow",
      "type": "event"
    },
    {
      "anonymous": false,
      "inputs": [
        {
          "indexed": false,
          "internalType": "uint256",
          "name": "error",
          "type": "uint256"
        },
        {
          "indexed": false,
          "internalType": "uint256",
          "name": "info",
          "type": "uint256"
        },
        {
          "indexed": false,
          "internalType": "uint256",
          "name": "detail",
          "type": "uint256"
        }
      ],
      "name": "Failure",
      "type": "event"
    },
    {
      "anonymous": false,
      "inputs": [
        {
          "indexed": false,
          "internalType": "address",
          "name": "liquidator",
          "type": "address"
        },
        {
          "indexed": false,
          "internalType": "address",
          "name": "borrower",
          "type": "address"
        },
        {
          "indexed": false,
          "internalType": "uint256",
          "name": "repayAmount",
          "type": "uint256"
        },
        {
          "indexed": false,
          "internalType": "address",
          "name": "cTokenCollateral",
          "type": "address"
        },
        {
          "indexed": false,
          "internalType": "uint256",
          "name": "seizeTokens",
          "type": "uint256"
        }
      ],
      "name": "LiquidateBorrow",
      "type": "event"
    },
    {
      "anonymous": false,
      "inputs": [
        {
          "indexed": false,
          "internalType": "address",
          "name": "minter",
          "type": "address"
        },
        {
          "indexed": false,
          "internalType": "uint256",
          "name": "mintAmount",
          "type": "uint256"
        },
        {
          "indexed": false,
          "internalType": "uint256",
          "name": "mintTokens",
          "type": "uint256"
        }
      ],
      "name": "Mint",
      "type": "event"
    },
    {
      "anonymous": false,
      "inputs": [
        {
          "indexed": false,
          "internalType": "address",
          "name": "oldAdmin",
          "type": "address"
        },
        {
          "indexed": false,
          "internalType": "address",
          "name": "newAdmin",
          "type": "address"
        }
      ],
      "name": "NewAdmin",
      "type": "event"
    },
    {
      "anonymous": false,
      "inputs": [
        {
          "indexed": false,
          "internalType": "contract ComptrollerInterface",
          "name": "oldComptroller",
          "type": "address"
        },
        {
          "indexed": false,
          "internalType": "contract ComptrollerInterface",
          "name": "newComptroller",
          "type": "address"
        }
      ],
      "name": "NewComptroller",
      "type": "event"
    },
    {
      "anonymous": false,
      "inputs": [
        {
          "indexed": false,
          "internalType": "contract InterestRateModel",
          "name": "oldInterestRateModel",
          "type": "address"
        },
        {
          "indexed": false,
          "internalType": "contract InterestRateModel",
          "name": "newInterestRateModel",
          "type": "address"
        }
      ],
      "name": "NewMarketInterestRateModel",
      "type": "event"
    },
    {
      "anonymous": false,
      "inputs": [
        {
          "indexed": false,
          "internalType": "address",
          "name": "oldPendingAdmin",
          "type": "address"
        },
        {
          "indexed": false,
          "internalType": "address",
          "name": "newPendingAdmin",
          "type": "address"
        }
      ],
      "name": "NewPendingAdmin",
      "type": "event"
    },
    {
      "anonymous": false,
      "inputs": [
        {
          "indexed": false,
          "internalType": "uint256",
          "name": "oldReserveFactorMantissa",
          "type": "uint256"
        },
        {
          "indexed": false,
          "internalType": "uint256",
          "name": "newReserveFactorMantissa",
          "type": "uint256"
        }
      ],
      "name": "NewReserveFactor",
      "type": "event"
    },
    {
      "anonymous": false,
      "inputs": [
        {
          "indexed": false,
          "internalType": "address",
          "name": "redeemer",
          "type": "address"
        },
        {
          "indexed": false,
          "internalType": "uint256",
          "name": "redeemAmount",
          "type": "uint256"
        },
        {
          "indexed": false,
          "internalType": "uint256",
          "name": "redeemTokens",
          "type": "uint256"
        }
      ],
      "name": "Redeem",
      "type": "event"
    },
    {
      "anonymous": false,
      "inputs": [
        {
          "indexed": false,
          "internalType": "address",
          "name": "payer",
          "type": "address"
        },
        {
          "indexed": false,
          "internalType": "address",
          "name": "borrower",
          "type": "address"
        },
        {
          "indexed": false,
          "internalType": "uint256",
          "name": "repayAmount",
          "type": "uint256"
        },
        {
          "indexed": false,
          "internalType": "uint256",
          "name": "accountBorrows",
          "type": "uint256"
        },
        {
          "indexed": false,
          "internalType": "uint256",
          "name": "totalBorrows",
          "type": "uint256"
        }
      ],
      "name": "RepayBorrow",
      "type": "event"
    },
    {
      "anonymous": false,
      "inputs": [
        {
          "indexed": false,
          "internalType": "address",
          "name": "benefactor",
          "type": "address"
        },
        {
          "indexed": false,
          "internalType": "uint256",
          "name": "addAmount",
          "type": "uint256"
        },
        {
          "indexed": false,
          "internalType": "uint256",
          "name": "newTotalReserves",
          "type": "uint256"
        }
      ],
      "name": "ReservesAdded",
      "type": "event"
    },
    {
      "anonymous": false,
      "inputs": [
        {
          "indexed": false,
          "internalType": "address",
          "name": "admin",
          "type": "address"
        },
        {
          "indexed": false,
          "internalType": "uint256",
          "name": "reduceAmount",
          "type": "uint256"
        },
        {
          "indexed": false,
          "internalType": "uint256",
          "name": "newTotalReserves",
          "type": "uint256"
        }
      ],
      "name": "ReservesReduced",
      "type": "event"
    },
    {
      "anonymous": false,
      "inputs": [
        {
          "indexed": true,
          "internalType": "address",
          "name": "from",
          "type": "address"
        },
        {
          "indexed": true,
          "internalType": "address",
          "name": "to",
          "type": "address"
        },
        {
          "indexed": false,
          "internalType": "uint256",
          "name": "amount",
          "type": "uint256"
        }
      ],
      "name": "Transfer",
      "type": "event"
    },
    {
      "constant": false,
      "inputs": [],
      "name": "_acceptAdmin",
      "outputs": [
        {
          "internalType": "uint256",
          "name": "",
          "type": "uint256"
        }
      ],
      "payable": false,
      "stateMutability": "nonpayable",
      "type": "function"
    },
    {
      "constant": false,
      "inputs": [
        {
          "internalType": "uint256",
          "name": "addAmount",
          "type": "uint256"
        }
      ],
      "name": "_addReserves",
      "outputs": [
        {
          "internalType": "uint256",
          "name": "",
          "type": "uint256"
        }
      ],
      "payable": false,
      "stateMutability": "nonpayable",
      "type": "function"
    },
    {
      "constant": false,
      "inputs": [
        {
          "internalType": "address",
          "name": "compLikeDelegatee",
          "type": "address"
        }
      ],
      "name": "_delegateCompLikeTo",
      "outputs": [],
      "payable": false,
      "stateMutability": "nonpayable",
      "type": "function"
    },
    {
      "constant": false,
      "inputs": [
        {
          "internalType": "uint256",
          "name": "reduceAmount",
          "type": "uint256"
        }
      ],
      "name": "_reduceReserves",
      "outputs": [
        {
          "internalType": "uint256",
          "name": "",
          "type": "uint256"
        }
      ],
      "payable": false,
      "stateMutability": "nonpayable",
      "type": "function"
    },
    {
      "constant": false,
      "inputs": [
        {
          "internalType": "address payable",
          "name": "accountant_",
          "type": "address"
        }
      ],
      "name": "_setAccountantContract",
      "outputs": [],
      "payable": false,
      "stateMutability": "nonpayable",
      "type": "function"
    },
    {
      "constant": false,
      "inputs": [
        {
          "internalType": "contract ComptrollerInterface",
          "name": "newComptroller",
          "type": "address"
        }
      ],
      "name": "_setComptroller",
      "outputs": [
        {
          "internalType": "uint256",
          "name": "",
          "type": "uint256"
        }
      ],
      "payable": false,
      "stateMutability": "nonpayable",
      "type": "function"
    },
    {
      "constant": false,
      "inputs": [
        {
          "internalType": "contract InterestRateModel",
          "name": "newInterestRateModel",
          "type": "address"
        }
      ],
      "name": "_setInterestRateModel",
      "outputs": [
        {
          "internalType": "uint256",
          "name": "",
          "type": "uint256"
        }
      ],
      "payable": false,
      "stateMutability": "nonpayable",
      "type": "function"
    },
    {
      "constant": false,
      "inputs": [
        {
          "internalType": "address payable",
          "name": "newPendingAdmin",
          "type": "address"
        }
      ],
      "name": "_setPendingAdmin",
      "outputs": [
        {
          "internalType": "uint256",
          "name": "",
          "type": "uint256"
        }
      ],
      "payable": false,
      "stateMutability": "nonpayable",
      "type": "function"
    },
    {
      "constant": false,
      "inputs": [
        {
          "internalType": "uint256",
          "name": "newReserveFactorMantissa",
          "type": "uint256"
        }
      ],
      "name": "_setReserveFactor",
      "outputs": [
        {
          "internalType": "uint256",
          "name": "",
          "type": "uint256"
        }
      ],
      "payable": false,
      "stateMutability": "nonpayable",
      "type": "function"
    },
    {
      "constant": true,
      "inputs": [],
      "name": "accrualBlockNumber",
      "outputs": [
        {
          "internalType": "uint256",
          "name": "",
          "type": "uint256"
        }
      ],
      "payable": false,
      "stateMutability": "view",
      "type": "function"
    },
    {
      "constant": false,
      "inputs": [],
      "name": "accrueInterest",
      "outputs": [
        {
          "internalType": "uint256",
          "name": "",
          "type": "uint256"
        }
      ],
      "payable": false,
      "stateMutability": "nonpayable",
      "type": "function"
    },
    {
      "constant": true,
      "inputs": [],
      "name": "admin",
      "outputs": [
        {
          "internalType": "address payable",
          "name": "",
          "type": "address"
        }
      ],
      "payable": false,
      "stateMutability": "view",
      "type": "function"
    },
    {
      "constant": true,
      "inputs": [
        {
          "internalType": "address",
          "name": "owner",
          "type": "address"
        },
        {
          "internalType": "address",
          "name": "spender",
          "type": "address"
        }
      ],
      "name": "allowance",
      "outputs": [
        {
          "internalType": "uint256",
          "name": "",
          "type": "uint256"
        }
      ],
      "payable": false,
      "stateMutability": "view",
      "type": "function"
    },
    {
      "constant": false,
      "inputs": [
        {
          "internalType": "address",
          "name": "spender",
          "type": "address"
        },
        {
          "internalType": "uint256",
          "name": "amount",
          "type": "uint256"
        }
      ],
      "name": "approve",
      "outputs": [
        {
          "internalType": "bool",
          "name": "",
          "type": "bool"
        }
      ],
      "payable": false,
      "stateMutability": "nonpayable",
      "type": "function"
    },
    {
      "constant": true,
      "inputs": [
        {
          "internalType": "address",
          "name": "owner",
          "type": "address"
        }
      ],
      "name": "balanceOf",
      "outputs": [
        {
          "internalType": "uint256",
          "name": "",
          "type": "uint256"
        }
      ],
      "payable": false,
      "stateMutability": "view",
      "type": "function"
    },
    {
      "constant": false,
      "inputs": [
        {
          "internalType": "address",
          "name": "owner",
          "type": "address"
        }
      ],
      "name": "balanceOfUnderlying",
      "outputs": [
        {
          "internalType": "uint256",
          "name": "",
          "type": "uint256"
        }
      ],
      "payable": false,
      "stateMutability": "nonpayable",
      "type": "function"
    },
    {
      "constant": false,
      "inputs": [
        {
          "internalType": "uint256",
          "name": "borrowAmount",
          "type": "uint256"
        }
      ],
      "name": "borrow",
      "outputs": [
        {
          "internalType": "uint256",
          "name": "",
          "type": "uint256"
        }
      ],
      "payable": false,
      "stateMutability": "nonpayable",
      "type": "function"
    },
    {
      "constant": false,
      "inputs": [
        {
          "internalType": "address",
          "name": "account",
          "type": "address"
        }
      ],
      "name": "borrowBalanceCurrent",
      "outputs": [
        {
          "internalType": "uint256",
          "name": "",
          "type": "uint256"
        }
      ],
      "payable": false,
      "stateMutability": "nonpayable",
      "type": "function"
    },
    {
      "constant": true,
      "inputs": [
        {
          "internalType": "address",
          "name": "account",
          "type": "address"
        }
      ],
      "name": "borrowBalanceStored",
      "outputs": [
        {
          "internalType": "uint256",
          "name": "",
          "type": "uint256"
        }
      ],
      "payable": false,
      "stateMutability": "view",
      "type": "function"
    },
    {
      "constant": true,
      "inputs": [],
      "name": "borrowIndex",
      "outputs": [
        {
          "internalType": "uint256",
          "name": "",
          "type": "uint256"
        }
      ],
      "payable": false,
      "stateMutability": "view",
      "type": "function"
    },
    {
      "constant": true,
      "inputs": [],
      "name": "borrowRatePerBlock",
      "outputs": [
        {
          "internalType": "uint256",
          "name": "",
          "type": "uint256"
        }
      ],
      "payable": false,
      "stateMutability": "view",
      "type": "function"
    },
    {
      "constant": true,
      "inputs": [],
      "name": "comptroller",
      "outputs": [
        {
          "internalType": "contract ComptrollerInterface",
          "name": "",
          "type": "address"
        }
      ],
      "payable": false,
      "stateMutability": "view",
      "type": "function"
    },
    {
      "constant": true,
      "inputs": [],
      "name": "decimals",
      "outputs": [
        {
          "internalType": "uint8",
          "name": "",
          "type": "uint8"
        }
      ],
      "payable": false,
      "stateMutability": "view",
      "type": "function"
    },
    {
      "constant": false,
      "inputs": [],
      "name": "exchangeRateCurrent",
      "outputs": [
        {
          "internalType": "uint256",
          "name": "",
          "type": "uint256"
        }
      ],
      "payable": false,
      "stateMutability": "nonpayable",
      "type": "function"
    },
    {
      "constant": true,
      "inputs": [],
      "name": "exchangeRateStored",
      "outputs": [
        {
          "internalType": "uint256",
          "name": "",
          "type": "uint256"
        }
      ],
      "payable": false,
      "stateMutability": "view",
      "type": "function"
    },
    {
      "constant": true,
      "inputs": [
        {
          "internalType": "address",
          "name": "account",
          "type": "address"
        }
      ],
      "name": "getAccountSnapshot",
      "outputs": [
        {
          "internalType": "uint256",
          "name": "",
          "type": "uint256"
        },
        {
          "internalType": "uint256",
          "name": "",
          "type": "uint256"
        },
        {
          "internalType": "uint256",
          "name": "",
          "type": "uint256"
        },
        {
          "internalType": "uint256",
          "name": "",
          "type": "uint256"
        }
      ],
      "payable": false,
      "stateMutability": "view",
      "type": "function"
    },
    {
      "constant": true,
      "inputs": [],
      "name": "getCash",
      "outputs": [
        {
          "internalType": "uint256",
          "name": "",
          "type": "uint256"
        }
      ],
      "payable": false,
      "stateMutability": "view",
      "type": "function"
    },
    {
      "constant": false,
      "inputs": [
        {
          "internalType": "address",
          "name": "underlying_",
          "type": "address"
        },
        {
          "internalType": "contract ComptrollerInterface",
          "name": "comptroller_",
          "type": "address"
        },
        {
          "internalType": "contract InterestRateModel",
          "name": "interestRateModel_",
          "type": "address"
        },
        {
          "internalType": "uint256",
          "name": "initialExchangeRateMantissa_",
          "type": "uint256"
        },
        {
          "internalType": "string",
          "name": "name_",
          "type": "string"
        },
        {
          "internalType": "string",
          "name": "symbol_",
          "type": "string"
        },
        {
          "internalType": "uint8",
          "name": "decimals_",
          "type": "uint8"
        }
      ],
      "name": "initialize",
      "outputs": [],
      "payable": false,
      "stateMutability": "nonpayable",
      "type": "function"
    },
    {
      "constant": false,
      "inputs": [
        {
          "internalType": "contract ComptrollerInterface",
          "name": "comptroller_",
          "type": "address"
        },
        {
          "internalType": "contract InterestRateModel",
          "name": "interestRateModel_",
          "type": "address"
        },
        {
          "internalType": "uint256",
          "name": "initialExchangeRateMantissa_",
          "type": "uint256"
        },
        {
          "internalType": "string",
          "name": "name_",
          "type": "string"
        },
        {
          "internalType": "string",
          "name": "symbol_",
          "type": "string"
        },
        {
          "internalType": "uint8",
          "name": "decimals_",
          "type": "uint8"
        }
      ],
      "name": "initialize",
      "outputs": [],
      "payable": false,
      "stateMutability": "nonpayable",
      "type": "function"
    },
    {
      "constant": true,
      "inputs": [],
      "name": "interestRateModel",
      "outputs": [
        {
          "internalType": "contract InterestRateModel",
          "name": "",
          "type": "address"
        }
      ],
      "payable": false,
      "stateMutability": "view",
      "type": "function"
    },
    {
      "constant": true,
      "inputs": [],
      "name": "isCToken",
      "outputs": [
        {
          "internalType": "bool",
          "name": "",
          "type": "bool"
        }
      ],
      "payable": false,
      "stateMutability": "view",
      "type": "function"
    },
    {
      "constant": false,
      "inputs": [
        {
          "internalType": "address",
          "name": "borrower",
          "type": "address"
        },
        {
          "internalType": "uint256",
          "name": "repayAmount",
          "type": "uint256"
        },
        {
          "internalType": "contract CTokenInterface",
          "name": "cTokenCollateral",
          "type": "address"
        }
      ],
      "name": "liquidateBorrow",
      "outputs": [
        {
          "internalType": "uint256",
          "name": "",
          "type": "uint256"
        }
      ],
      "payable": false,
      "stateMutability": "nonpayable",
      "type": "function"
    },
    {
      "constant": false,
      "inputs": [
        {
          "internalType": "uint256",
          "name": "mintAmount",
          "type": "uint256"
        }
      ],
      "name": "mint",
      "outputs": [
        {
          "internalType": "uint256",
          "name": "",
          "type": "uint256"
        }
      ],
      "payable": false,
      "stateMutability": "nonpayable",
      "type": "function"
    },
    {
      "constant": true,
      "inputs": [],
      "name": "name",
      "outputs": [
        {
          "internalType": "string",
          "name": "",
          "type": "string"
        }
      ],
      "payable": false,
      "stateMutability": "view",
      "type": "function"
    },
    {
      "constant": true,
      "inputs": [],
      "name": "pendingAdmin",
      "outputs": [
        {
          "internalType": "address payable",
          "name": "",
          "type": "address"
        }
      ],
      "payable": false,
      "stateMutability": "view",
      "type": "function"
    },
    {
      "constant": true,
      "inputs": [],
      "name": "protocolSeizeShareMantissa",
      "outputs": [
        {
          "internalType": "uint256",
          "name": "",
          "type": "uint256"
        }
      ],
      "payable": false,
      "stateMutability": "view",
      "type": "function"
    },
    {
      "constant": false,
      "inputs": [
        {
          "internalType": "uint256",
          "name": "redeemTokens",
          "type": "uint256"
        }
      ],
      "name": "redeem",
      "outputs": [
        {
          "internalType": "uint256",
          "name": "",
          "type": "uint256"
        }
      ],
      "payable": false,
      "stateMutability": "nonpayable",
      "type": "function"
    },
    {
      "constant": false,
      "inputs": [
        {
          "internalType": "uint256",
          "name": "redeemAmount",
          "type": "uint256"
        }
      ],
      "name": "redeemUnderlying",
      "outputs": [
        {
          "internalType": "uint256",
          "name": "",
          "type": "uint256"
        }
      ],
      "payable": false,
      "stateMutability": "nonpayable",
      "type": "function"
    },
    {
      "constant": false,
      "inputs": [
        {
          "internalType": "uint256",
          "name": "repayAmount",
          "type": "uint256"
        }
      ],
      "name": "repayBorrow",
      "outputs": [
        {
          "internalType": "uint256",
          "name": "",
          "type": "uint256"
        }
      ],
      "payable": false,
      "stateMutability": "nonpayable",
      "type": "function"
    },
    {
      "constant": false,
      "inputs": [
        {
          "internalType": "address",
          "name": "borrower",
          "type": "address"
        },
        {
          "internalType": "uint256",
          "name": "repayAmount",
          "type": "uint256"
        }
      ],
      "name": "repayBorrowBehalf",
      "outputs": [
        {
          "internalType": "uint256",
          "name": "",
          "type": "uint256"
        }
      ],
      "payable": false,
      "stateMutability": "nonpayable",
      "type": "function"
    },
    {
      "constant": true,
      "inputs": [],
      "name": "reserveFactorMantissa",
      "outputs": [
        {
          "internalType": "uint256",
          "name": "",
          "type": "uint256"
        }
      ],
      "payable": false,
      "stateMutability": "view",
      "type": "function"
    },
    {
      "constant": false,
      "inputs": [
        {
          "internalType": "address",
          "name": "liquidator",
          "type": "address"
        },
        {
          "internalType": "address",
          "name": "borrower",
          "type": "address"
        },
        {
          "internalType": "uint256",
          "name": "seizeTokens",
          "type": "uint256"
        }
      ],
      "name": "seize",
      "outputs": [
        {
          "internalType": "uint256",
          "name": "",
          "type": "uint256"
        }
      ],
      "payable": false,
      "stateMutability": "nonpayable",
      "type": "function"
    },
    {
      "constant": true,
      "inputs": [],
      "name": "supplyRatePerBlock",
      "outputs": [
        {
          "internalType": "uint256",
          "name": "",
          "type": "uint256"
        }
      ],
      "payable": false,
      "stateMutability": "view",
      "type": "function"
    },
    {
      "constant": false,
      "inputs": [
        {
          "internalType": "contract EIP20NonStandardInterface",
          "name": "token",
          "type": "address"
        }
      ],
      "name": "sweepToken",
      "outputs": [],
      "payable": false,
      "stateMutability": "nonpayable",
      "type": "function"
    },
    {
      "constant": true,
      "inputs": [],
      "name": "symbol",
      "outputs": [
        {
          "internalType": "string",
          "name": "",
          "type": "string"
        }
      ],
      "payable": false,
      "stateMutability": "view",
      "type": "function"
    },
    {
      "constant": true,
      "inputs": [],
      "name": "totalBorrows",
      "outputs": [
        {
          "internalType": "uint256",
          "name": "",
          "type": "uint256"
        }
      ],
      "payable": false,
      "stateMutability": "view",
      "type": "function"
    },
    {
      "constant": false,
      "inputs": [],
      "name": "totalBorrowsCurrent",
      "outputs": [
        {
          "internalType": "uint256",
          "name": "",
          "type": "uint256"
        }
      ],
      "payable": false,
      "stateMutability": "nonpayable",
      "type": "function"
    },
    {
      "constant": true,
      "inputs": [],
      "name": "totalReserves",
      "outputs": [
        {
          "internalType": "uint256",
          "name": "",
          "type": "uint256"
        }
      ],
      "payable": false,
      "stateMutability": "view",
      "type": "function"
    },
    {
      "constant": true,
      "inputs": [],
      "name": "totalSupply",
      "outputs": [
        {
          "internalType": "uint256",
          "name": "",
          "type": "uint256"
        }
      ],
      "payable": false,
      "stateMutability": "view",
      "type": "function"
    },
    {
      "constant": false,
      "inputs": [
        {
          "internalType": "address",
          "name": "dst",
          "type": "address"
        },
        {
          "internalType": "uint256",
          "name": "amount",
          "type": "uint256"
        }
      ],
      "name": "transfer",
      "outputs": [
        {
          "internalType": "bool",
          "name": "",
          "type": "bool"
        }
      ],
      "payable": false,
      "stateMutability": "nonpayable",
      "type": "function"
    },
    {
      "constant": false,
      "inputs": [
        {
          "internalType": "address",
          "name": "src",
          "type": "address"
        },
        {
          "internalType": "address",
          "name": "dst",
          "type": "address"
        },
        {
          "internalType": "uint256",
          "name": "amount",
          "type": "uint256"
        }
      ],
      "name": "transferFrom",
      "outputs": [
        {
          "internalType": "bool",
          "name": "",
          "type": "bool"
        }
      ],
      "payable": false,
      "stateMutability": "nonpayable",
      "type": "function"
    },
    {
      "constant": true,
      "inputs": [],
      "name": "underlying",
      "outputs": [
        {
          "internalType": "address",
          "name": "",
          "type": "address"
        }
      ],
      "payable": false,
      "stateMutability": "view",
      "type": "function"
    }
  ],
  "bytecode": "0x60806040526000601260006101000a81548173ffffffffffffffffffffffffffffffffffffffff021916908373ffffffffffffffffffffffffffffffffffffffff1602179055506000601360006101000a81548173ffffffffffffffffffffffffffffffffffffffff021916908373ffffffffffffffffffffffffffffffffffffffff1602179055503480156200009557600080fd5b506197b180620000a66000396000f3fe608060405234801561001057600080fd5b506004361061030c5760003560e01c80637f1e06be1161019d578063bd6d894d116100e9578063f2b3abbd116100a2578063f851a4401161007c578063f851a44014611318578063f8f9da2814611362578063fca7820b14611380578063fe9c44ae146113c25761030c565b8063f2b3abbd146111f4578063f3fdb15a1461124c578063f5e3c462146112965761030c565b8063bd6d894d1461104f578063c37f68e21461106d578063c5ebeaec146110da578063db006a751461111c578063dd62ed3e1461115e578063e9c714f2146111d65761030c565b8063a0712d6811610156578063aa5af0fd11610130578063aa5af0fd14610f39578063ae9d70b014610f57578063b2a02ff114610f75578063b71d1a0c14610ff75761030c565b8063a0712d6814610e73578063a6afed9514610eb5578063a9059cbb14610ed35761030c565b80637f1e06be14610b4b578063852a12e314610b8f5780638f840ddd14610bd157806395d89b4114610bef57806395dd919314610c7257806399d8c1b414610cca5761030c565b8063313ce5671161025c5780635fe3b567116102155780636c540baf116101ef5780636c540baf14610a6d5780636f307dc314610a8b57806370a0823114610ad557806373acee9814610b2d5761030c565b80635fe3b567146109c3578063601a0bf114610a0d5780636752e70214610a4f5761030c565b8063313ce567146108715780633af9e669146108955780633b1d21a2146108ed5780633e9410101461090b5780634576b5db1461094d57806347bd3718146109a55761030c565b806318160ddd116102c95780631be19560116102a35780631be19560146106fb57806323b872dd1461073f5780632608f818146107c557806326782247146108275761030c565b806318160ddd146104f6578063182df0f5146105145780631a31d465146105325761030c565b806306fdde0314610311578063095ea7b3146103945780630e752702146103fa578063153216a11461043c578063173b99041461048057806317bfdfbc1461049e575b600080fd5b6103196113e4565b6040518080602001828103825283818151815260200191508051906020019080838360005b8381101561035957808201518184015260208101905061033e565b50505050905090810190601f1680156103865780820380516001836020036101000a031916815260200191505b509250505060405180910390f35b6103e0600480360360408110156103aa57600080fd5b81019080803573ffffffffffffffffffffffffffffffffffffffff16906020019092919080359060200190929190505050611482565b604051808215151515815260200191505060405180910390f35b6104266004803603602081101561041057600080fd5b8101908080359060200190929190505050611579565b6040518082815260200191505060405180910390f35b61047e6004803603602081101561045257600080fd5b81019080803573ffffffffffffffffffffffffffffffffffffffff169060200190929190505050611591565b005b61048861162f565b6040518082815260200191505060405180910390f35b6104e0600480360360208110156104b457600080fd5b81019080803573ffffffffffffffffffffffffffffffffffffffff169060200190929190505050611635565b6040518082815260200191505060405180910390f35b6104fe611784565b6040518082815260200191505060405180910390f35b61051c61178a565b6040518082815260200191505060405180910390f35b6106f9600480360360e081101561054857600080fd5b81019080803573ffffffffffffffffffffffffffffffffffffffff169060200190929190803573ffffffffffffffffffffffffffffffffffffffff169060200190929190803573ffffffffffffffffffffffffffffffffffffffff16906020019092919080359060200190929190803590602001906401000000008111156105cf57600080fd5b8201836020820111156105e157600080fd5b8035906020019184600183028401116401000000008311171561060357600080fd5b91908080601f016020809104026020016040519081016040528093929190818152602001838380828437600081840152601f19601f8201169050808301925050505050505091929192908035906020019064010000000081111561066657600080fd5b82018360208201111561067857600080fd5b8035906020019184600183028401116401000000008311171561069a57600080fd5b91908080601f016020809104026020016040519081016040528093929190818152602001838380828437600081840152601f19601f820116905080830192505050505050509192919290803560ff169060200190929190505050611812565b005b61073d6004803603602081101561071157600080fd5b81019080803573ffffffffffffffffffffffffffffffffffffffff16906020019092919050505061190e565b005b6107ab6004803603606081101561075557600080fd5b81019080803573ffffffffffffffffffffffffffffffffffffffff169060200190929190803573ffffffffffffffffffffffffffffffffffffffff16906020019092919080359060200190929190505050611b36565b604051808215151515815260200191505060405180910390f35b610811600480360360408110156107db57600080fd5b81019080803573ffffffffffffffffffffffffffffffffffffffff16906020019092919080359060200190929190505050611c10565b6040518082815260200191505060405180910390f35b61082f611c2a565b604051808273ffffffffffffffffffffffffffffffffffffffff1673ffffffffffffffffffffffffffffffffffffffff16815260200191505060405180910390f35b610879611c50565b604051808260ff1660ff16815260200191505060405180910390f35b6108d7600480360360208110156108ab57600080fd5b81019080803573ffffffffffffffffffffffffffffffffffffffff169060200190929190505050611c63565b6040518082815260200191505060405180910390f35b6108f5611d6c565b6040518082815260200191505060405180910390f35b6109376004803603602081101561092157600080fd5b8101908080359060200190929190505050611d7b565b6040518082815260200191505060405180910390f35b61098f6004803603602081101561096357600080fd5b81019080803573ffffffffffffffffffffffffffffffffffffffff169060200190929190505050611d8d565b6040518082815260200191505060405180910390f35b6109ad611ffe565b6040518082815260200191505060405180910390f35b6109cb612004565b604051808273ffffffffffffffffffffffffffffffffffffffff1673ffffffffffffffffffffffffffffffffffffffff16815260200191505060405180910390f35b610a3960048036036020811015610a2357600080fd5b810190808035906020019092919050505061202a565b6040518082815260200191505060405180910390f35b610a57612130565b6040518082815260200191505060405180910390f35b610a7561213b565b6040518082815260200191505060405180910390f35b610a93612141565b604051808273ffffffffffffffffffffffffffffffffffffffff1673ffffffffffffffffffffffffffffffffffffffff16815260200191505060405180910390f35b610b1760048036036020811015610aeb57600080fd5b81019080803573ffffffffffffffffffffffffffffffffffffffff169060200190929190505050612167565b6040518082815260200191505060405180910390f35b610b356121b0565b6040518082815260200191505060405180910390f35b610b8d60048036036020811015610b6157600080fd5b81019080803573ffffffffffffffffffffffffffffffffffffffff1690602001909291905050506122f7565b005b610bbb60048036036020811015610ba557600080fd5b8101908080359060200190929190505050612459565b6040518082815260200191505060405180910390f35b610bd961246b565b6040518082815260200191505060405180910390f35b610bf7612471565b6040518080602001828103825283818151815260200191508051906020019080838360005b83811015610c37578082015181840152602081019050610c1c565b50505050905090810190601f168015610c645780820380516001836020036101000a031916815260200191505b509250505060405180910390f35b610cb460048036036020811015610c8857600080fd5b81019080803573ffffffffffffffffffffffffffffffffffffffff16906020019092919050505061250f565b6040518082815260200191505060405180910390f35b610e71600480360360c0811015610ce057600080fd5b81019080803573ffffffffffffffffffffffffffffffffffffffff169060200190929190803573ffffffffffffffffffffffffffffffffffffffff1690602001909291908035906020019092919080359060200190640100000000811115610d4757600080fd5b820183602082011115610d5957600080fd5b80359060200191846001830284011164010000000083111715610d7b57600080fd5b91908080601f016020809104026020016040519081016040528093929190818152602001838380828437600081840152601f19601f82011690508083019250505050505050919291929080359060200190640100000000811115610dde57600080fd5b820183602082011115610df057600080fd5b80359060200191846001830284011164010000000083111715610e1257600080fd5b91908080601f016020809104026020016040519081016040528093929190818152602001838380828437600081840152601f19601f820116905080830192505050505050509192919290803560ff16906020019092919050505061259a565b005b610e9f60048036036020811015610e8957600080fd5b8101908080359060200190929190505050612891565b6040518082815260200191505060405180910390f35b610ebd6128a9565b6040518082815260200191505060405180910390f35b610f1f60048036036040811015610ee957600080fd5b81019080803573ffffffffffffffffffffffffffffffffffffffff16906020019092919080359060200190929190505050612d62565b604051808215151515815260200191505060405180910390f35b610f41612e3b565b6040518082815260200191505060405180910390f35b610f5f612e41565b6040518082815260200191505060405180910390f35b610fe160048036036060811015610f8b57600080fd5b81019080803573ffffffffffffffffffffffffffffffffffffffff169060200190929190803573ffffffffffffffffffffffffffffffffffffffff16906020019092919080359060200190929190505050612f1b565b6040518082815260200191505060405180910390f35b6110396004803603602081101561100d57600080fd5b81019080803573ffffffffffffffffffffffffffffffffffffffff169060200190929190505050612fe7565b6040518082815260200191505060405180910390f35b611057613166565b6040518082815260200191505060405180910390f35b6110af6004803603602081101561108357600080fd5b81019080803573ffffffffffffffffffffffffffffffffffffffff1690602001909291905050506132b2565b6040518085815260200184815260200183815260200182815260200194505050505060405180910390f35b611106600480360360208110156110f057600080fd5b81019080803590602001909291905050506133da565b6040518082815260200191505060405180910390f35b6111486004803603602081101561113257600080fd5b81019080803590602001909291905050506133ec565b6040518082815260200191505060405180910390f35b6111c06004803603604081101561117457600080fd5b81019080803573ffffffffffffffffffffffffffffffffffffffff169060200190929190803573ffffffffffffffffffffffffffffffffffffffff1690602001909291905050506133fe565b6040518082815260200191505060405180910390f35b6111de613485565b6040518082815260200191505060405180910390f35b6112366004803603602081101561120a57600080fd5b81019080803573ffffffffffffffffffffffffffffffffffffffff1690602001909291905050506137a2565b6040518082815260200191505060405180910390f35b6112546137f2565b604051808273ffffffffffffffffffffffffffffffffffffffff1673ffffffffffffffffffffffffffffffffffffffff16815260200191505060405180910390f35b611302600480360360608110156112ac57600080fd5b81019080803573ffffffffffffffffffffffffffffffffffffffff16906020019092919080359060200190929190803573ffffffffffffffffffffffffffffffffffffffff169060200190929190505050613818565b6040518082815260200191505060405180910390f35b611320613834565b604051808273ffffffffffffffffffffffffffffffffffffffff1673ffffffffffffffffffffffffffffffffffffffff16815260200191505060405180910390f35b61136a61385a565b6040518082815260200191505060405180910390f35b6113ac6004803603602081101561139657600080fd5b810190808035906020019092919050505061392a565b6040518082815260200191505060405180910390f35b6113ca613a30565b604051808215151515815260200191505060405180910390f35b60018054600181600116156101000203166002900480601f01602080910402602001604051908101604052809291908181526020018280546001816001161561010002031660029004801561147a5780601f1061144f5761010080835404028352916020019161147a565b820191906000526020600020905b81548152906001019060200180831161145d57829003601f168201915b505050505081565b60008033905082600f60008373ffffffffffffffffffffffffffffffffffffffff1673ffffffffffffffffffffffffffffffffffffffff16815260200190815260200160002060008673ffffffffffffffffffffffffffffffffffffffff1673ffffffffffffffffffffffffffffffffffffffff168152602001908152602001600020819055508373ffffffffffffffffffffffffffffffffffffffff168173ffffffffffffffffffffffffffffffffffffffff167f8c5be1e5ebec7d5bd14f71427d1e84f3dd0314c0f7b2291e5b200ac8c7c3b925856040518082815260200191505060405180910390a3600191505092915050565b60008061158583613a35565b50905080915050919050565b600360019054906101000a900473ffffffffffffffffffffffffffffffffffffffff1673ffffffffffffffffffffffffffffffffffffffff163373ffffffffffffffffffffffffffffffffffffffff16146115eb57600080fd5b80601260006101000a81548173ffffffffffffffffffffffffffffffffffffffff021916908373ffffffffffffffffffffffffffffffffffffffff16021790555050565b60085481565b60008060009054906101000a900460ff166116b8576040517f08c379a000000000000000000000000000000000000000000000000000000000815260040180806020018281038252600a8152602001807f72652d656e74657265640000000000000000000000000000000000000000000081525060200191505060405180910390fd5b60008060006101000a81548160ff021916908315150217905550600060108111156116df57fe5b6116e76128a9565b1461175a576040517f08c379a00000000000000000000000000000000000000000000000000000000081526004018080602001828103825260168152602001807f61636372756520696e746572657374206661696c65640000000000000000000081525060200191505060405180910390fd5b6117638261250f565b905060016000806101000a81548160ff021916908315150217905550919050565b600d5481565b6000806000611797613b47565b91509150600060038111156117a857fe5b8260038111156117b457fe5b1461180a576040517f08c379a000000000000000000000000000000000000000000000000000000000815260040180806020018281038252603581526020018061966c6035913960400191505060405180910390fd5b809250505090565b61182086868686868661259a565b86601160006101000a81548173ffffffffffffffffffffffffffffffffffffffff021916908373ffffffffffffffffffffffffffffffffffffffff160217905550601160009054906101000a900473ffffffffffffffffffffffffffffffffffffffff1673ffffffffffffffffffffffffffffffffffffffff166318160ddd6040518163ffffffff1660e01b815260040160206040518083038186803b1580156118c957600080fd5b505afa1580156118dd573d6000803e3d6000fd5b505050506040513d60208110156118f357600080fd5b81019080805190602001909291905050505050505050505050565b601160009054906101000a900473ffffffffffffffffffffffffffffffffffffffff1673ffffffffffffffffffffffffffffffffffffffff168173ffffffffffffffffffffffffffffffffffffffff1614156119b5576040517f08c379a00000000000000000000000000000000000000000000000000000000081526004018080602001828103825260328152602001806193d96032913960400191505060405180910390fd5b60008173ffffffffffffffffffffffffffffffffffffffff166370a08231306040518263ffffffff1660e01b8152600401808273ffffffffffffffffffffffffffffffffffffffff1673ffffffffffffffffffffffffffffffffffffffff16815260200191505060206040518083038186803b158015611a3457600080fd5b505afa158015611a48573d6000803e3d6000fd5b505050506040513d6020811015611a5e57600080fd5b810190808051906020019092919050505090508173ffffffffffffffffffffffffffffffffffffffff1663a9059cbb600360019054906101000a900473ffffffffffffffffffffffffffffffffffffffff16836040518363ffffffff1660e01b8152600401808373ffffffffffffffffffffffffffffffffffffffff1673ffffffffffffffffffffffffffffffffffffffff16815260200182815260200192505050600060405180830381600087803b158015611b1a57600080fd5b505af1158015611b2e573d6000803e3d6000fd5b505050505050565b60008060009054906101000a900460ff16611bb9576040517f08c379a000000000000000000000000000000000000000000000000000000000815260040180806020018281038252600a8152602001807f72652d656e74657265640000000000000000000000000000000000000000000081525060200191505060405180910390fd5b60008060006101000a81548160ff02191690831515021790555060006010811115611be057fe5b611bec33868686613c23565b14905060016000806101000a81548160ff0219169083151502179055509392505050565b600080611c1d84846141cd565b5090508091505092915050565b600460009054906101000a900473ffffffffffffffffffffffffffffffffffffffff1681565b600360009054906101000a900460ff1681565b6000611c6d61914e565b6040518060200160405280611c80613166565b8152509050600080611cd183600e60008873ffffffffffffffffffffffffffffffffffffffff1673ffffffffffffffffffffffffffffffffffffffff168152602001908152602001600020546142e1565b9150915060006003811115611ce257fe5b826003811115611cee57fe5b14611d61576040517f08c379a000000000000000000000000000000000000000000000000000000000815260040180806020018281038252601f8152602001807f62616c616e636520636f756c64206e6f742062652063616c63756c617465640081525060200191505060405180910390fd5b809350505050919050565b6000611d76614344565b905090565b6000611d868261442a565b9050919050565b6000600360019054906101000a900473ffffffffffffffffffffffffffffffffffffffff1673ffffffffffffffffffffffffffffffffffffffff163373ffffffffffffffffffffffffffffffffffffffff1614611df757611df06001603f614536565b9050611ff9565b6000600560009054906101000a900473ffffffffffffffffffffffffffffffffffffffff1690508273ffffffffffffffffffffffffffffffffffffffff16627e3dd26040518163ffffffff1660e01b815260040160206040518083038186803b158015611e6357600080fd5b505afa158015611e77573d6000803e3d6000fd5b505050506040513d6020811015611e8d57600080fd5b8101908080519060200190929190505050611f10576040517f08c379a000000000000000000000000000000000000000000000000000000000815260040180806020018281038252601c8152602001807f6d61726b6572206d6574686f642072657475726e65642066616c73650000000081525060200191505060405180910390fd5b82600560006101000a81548173ffffffffffffffffffffffffffffffffffffffff021916908373ffffffffffffffffffffffffffffffffffffffff1602179055507f7ac369dbd14fa5ea3f473ed67cc9d598964a77501540ba6751eb0b3decf5870d8184604051808373ffffffffffffffffffffffffffffffffffffffff1673ffffffffffffffffffffffffffffffffffffffff1681526020018273ffffffffffffffffffffffffffffffffffffffff1673ffffffffffffffffffffffffffffffffffffffff1681526020019250505060405180910390a160006010811115611ff557fe5b9150505b919050565b600b5481565b600560009054906101000a900473ffffffffffffffffffffffffffffffffffffffff1681565b60008060009054906101000a900460ff166120ad576040517f08c379a000000000000000000000000000000000000000000000000000000000815260040180806020018281038252600a8152602001807f72652d656e74657265640000000000000000000000000000000000000000000081525060200191505060405180910390fd5b60008060006101000a81548160ff02191690831515021790555060006120d16128a9565b9050600060108111156120e057fe5b8114612104576120fc8160108111156120f557fe5b6030614536565b915050612111565b61210d836145aa565b9150505b60016000806101000a81548160ff021916908315150217905550919050565b666379da05b6000081565b60095481565b601160009054906101000a900473ffffffffffffffffffffffffffffffffffffffff1681565b6000600e60008373ffffffffffffffffffffffffffffffffffffffff1673ffffffffffffffffffffffffffffffffffffffff168152602001908152602001600020549050919050565b60008060009054906101000a900460ff16612233576040517f08c379a000000000000000000000000000000000000000000000000000000000815260040180806020018281038252600a8152602001807f72652d656e74657265640000000000000000000000000000000000000000000081525060200191505060405180910390fd5b60008060006101000a81548160ff0219169083151502179055506000601081111561225a57fe5b6122626128a9565b146122d5576040517f08c379a00000000000000000000000000000000000000000000000000000000081526004018080602001828103825260168152602001807f61636372756520696e746572657374206661696c65640000000000000000000081525060200191505060405180910390fd5b600b54905060016000806101000a81548160ff02191690831515021790555090565b600360019054906101000a900473ffffffffffffffffffffffffffffffffffffffff1673ffffffffffffffffffffffffffffffffffffffff163373ffffffffffffffffffffffffffffffffffffffff161461239d576040517f08c379a000000000000000000000000000000000000000000000000000000000815260040180806020018281038252602d8152602001806194c9602d913960400191505060405180910390fd5b601160009054906101000a900473ffffffffffffffffffffffffffffffffffffffff1673ffffffffffffffffffffffffffffffffffffffff16635c19a95c826040518263ffffffff1660e01b8152600401808273ffffffffffffffffffffffffffffffffffffffff1673ffffffffffffffffffffffffffffffffffffffff168152602001915050600060405180830381600087803b15801561243e57600080fd5b505af1158015612452573d6000803e3d6000fd5b5050505050565b6000612464826147bb565b9050919050565b600c5481565b60028054600181600116156101000203166002900480601f0160208091040260200160405190810160405280929190818152602001828054600181600116156101000203166002900480156125075780601f106124dc57610100808354040283529160200191612507565b820191906000526020600020905b8154815290600101906020018083116124ea57829003601f168201915b505050505081565b600080600061251d846148c4565b915091506000600381111561252e57fe5b82600381111561253a57fe5b14612590576040517f08c379a00000000000000000000000000000000000000000000000000000000081526004018080602001828103825260378152602001806195666037913960400191505060405180910390fd5b8092505050919050565b600360019054906101000a900473ffffffffffffffffffffffffffffffffffffffff1673ffffffffffffffffffffffffffffffffffffffff163373ffffffffffffffffffffffffffffffffffffffff1614612640576040517f08c379a00000000000000000000000000000000000000000000000000000000081526004018080602001828103825260248152602001806193926024913960400191505060405180910390fd5b600060095414801561265457506000600a54145b6126a9576040517f08c379a00000000000000000000000000000000000000000000000000000000081526004018080602001828103825260238152602001806193b66023913960400191505060405180910390fd5b8360078190555060006007541161270b576040517f08c379a00000000000000000000000000000000000000000000000000000000081526004018080602001828103825260308152602001806194996030913960400191505060405180910390fd5b600061271687611d8d565b90506000601081111561272557fe5b8114612799576040517f08c379a000000000000000000000000000000000000000000000000000000000815260040180806020018281038252601a8152602001807f73657474696e6720636f6d7074726f6c6c6572206661696c656400000000000081525060200191505060405180910390fd5b6127a16149cf565b600981905550670de0b6b3a7640000600a819055506127bf866149d7565b9050600060108111156127ce57fe5b8114612825576040517f08c379a00000000000000000000000000000000000000000000000000000000081526004018080602001828103825260228152602001806194f66022913960400191505060405180910390fd5b836001908051906020019061283b929190619161565b508260029080519060200190612852929190619161565b5081600360006101000a81548160ff021916908360ff16021790555060016000806101000a81548160ff02191690831515021790555050505050505050565b60008061289d83614c6d565b50905080915050919050565b6000806128b46149cf565b905060006009549050818114156128db57600060108111156128d257fe5b92505050612d5f565b60006128e5614344565b90506000600b5490506000600c5490506000600a5490506000600660009054906101000a900473ffffffffffffffffffffffffffffffffffffffff1673ffffffffffffffffffffffffffffffffffffffff166315f240538686866040518463ffffffff1660e01b815260040180848152602001838152602001828152602001935050505060206040518083038186803b15801561298157600080fd5b505afa158015612995573d6000803e3d6000fd5b505050506040513d60208110156129ab57600080fd5b8101908080519060200190929190505050905065048c27395000811115612a3a576040517f08c379a000000000000000000000000000000000000000000000000000000000815260040180806020018281038252601c8152602001807f626f72726f772072617465206973206162737572646c7920686967680000000081525060200191505060405180910390fd5b600080612a478989614d7e565b9150915060006003811115612a5857fe5b826003811115612a6457fe5b14612ad7576040517f08c379a000000000000000000000000000000000000000000000000000000000815260040180806020018281038252601f8152602001807f636f756c64206e6f742063616c63756c61746520626c6f636b2064656c74610081525060200191505060405180910390fd5b612adf61914e565b600080600080612afd60405180602001604052808a81525087614da9565b809650819850505060006003811115612b1257fe5b876003811115612b1e57fe5b14612b5057612b3b60096006896003811115612b3657fe5b614e27565b9e505050505050505050505050505050612d5f565b612b5a858c6142e1565b809550819850505060006003811115612b6f57fe5b876003811115612b7b57fe5b14612bad57612b9860096001896003811115612b9357fe5b614e27565b9e505050505050505050505050505050612d5f565b612bb7848c614e9b565b809450819850505060006003811115612bcc57fe5b876003811115612bd857fe5b14612c0a57612bf560096004896003811115612bf057fe5b614e27565b9e505050505050505050505050505050612d5f565b612c256040518060200160405280600854815250858c614ecd565b809350819850505060006003811115612c3a57fe5b876003811115612c4657fe5b14612c7857612c6360096005896003811115612c5e57fe5b614e27565b9e505050505050505050505050505050612d5f565b612c83858a8b614ecd565b809250819850505060006003811115612c9857fe5b876003811115612ca457fe5b14612cd657612cc160096003896003811115612cbc57fe5b614e27565b9e505050505050505050505050505050612d5f565b8d60098190555080600a8190555082600b8190555081600c819055507f4dec04e750ca11537cabcd8a9eab06494de08da3735bc8871cd41250e190bc048c8583866040518085815260200184815260200183815260200182815260200194505050505060405180910390a160006010811115612d4e57fe5b9e5050505050505050505050505050505b90565b60008060009054906101000a900460ff16612de5576040517f08c379a000000000000000000000000000000000000000000000000000000000815260040180806020018281038252600a8152602001807f72652d656e74657265640000000000000000000000000000000000000000000081525060200191505060405180910390fd5b60008060006101000a81548160ff02191690831515021790555060006010811115612e0c57fe5b612e1833338686613c23565b14905060016000806101000a81548160ff02191690831515021790555092915050565b600a5481565b6000600660009054906101000a900473ffffffffffffffffffffffffffffffffffffffff1673ffffffffffffffffffffffffffffffffffffffff1663b8168816612e89614344565b600b54600c546008546040518563ffffffff1660e01b81526004018085815260200184815260200183815260200182815260200194505050505060206040518083038186803b158015612edb57600080fd5b505afa158015612eef573d6000803e3d6000fd5b505050506040513d6020811015612f0557600080fd5b8101908080519060200190929190505050905090565b60008060009054906101000a900460ff16612f9e576040517f08c379a000000000000000000000000000000000000000000000000000000000815260040180806020018281038252600a8152602001807f72652d656e74657265640000000000000000000000000000000000000000000081525060200191505060405180910390fd5b60008060006101000a81548160ff021916908315150217905550612fc433858585614f38565b905060016000806101000a81548160ff0219169083151502179055509392505050565b6000600360019054906101000a900473ffffffffffffffffffffffffffffffffffffffff1673ffffffffffffffffffffffffffffffffffffffff163373ffffffffffffffffffffffffffffffffffffffff16146130515761304a60016045614536565b9050613161565b6000600460009054906101000a900473ffffffffffffffffffffffffffffffffffffffff16905082600460006101000a81548173ffffffffffffffffffffffffffffffffffffffff021916908373ffffffffffffffffffffffffffffffffffffffff1602179055507fca4f2f25d0898edd99413412fb94012f9e54ec8142f9b093e7720646a95b16a98184604051808373ffffffffffffffffffffffffffffffffffffffff1673ffffffffffffffffffffffffffffffffffffffff1681526020018273ffffffffffffffffffffffffffffffffffffffff1673ffffffffffffffffffffffffffffffffffffffff1681526020019250505060405180910390a16000601081111561315d57fe5b9150505b919050565b60008060009054906101000a900460ff166131e9576040517f08c379a000000000000000000000000000000000000000000000000000000000815260040180806020018281038252600a8152602001807f72652d656e74657265640000000000000000000000000000000000000000000081525060200191505060405180910390fd5b60008060006101000a81548160ff0219169083151502179055506000601081111561321057fe5b6132186128a9565b1461328b576040517f08c379a00000000000000000000000000000000000000000000000000000000081526004018080602001828103825260168152602001807f61636372756520696e746572657374206661696c65640000000000000000000081525060200191505060405180910390fd5b61329361178a565b905060016000806101000a81548160ff02191690831515021790555090565b6000806000806000600e60008773ffffffffffffffffffffffffffffffffffffffff1673ffffffffffffffffffffffffffffffffffffffff168152602001908152602001600020549050600080600061330a896148c4565b80945081925050506000600381111561331f57fe5b81600381111561332b57fe5b1461335c576009601081111561333d57fe5b60008060008292508191508090509750975097509750505050506133d3565b613364613b47565b80935081925050506000600381111561337957fe5b81600381111561338557fe5b146133b6576009601081111561339757fe5b60008060008292508191508090509750975097509750505050506133d3565b600060108111156133c357fe5b8484849750975097509750505050505b9193509193565b60006133e582615607565b9050919050565b60006133f78261570e565b9050919050565b6000600f60008473ffffffffffffffffffffffffffffffffffffffff1673ffffffffffffffffffffffffffffffffffffffff16815260200190815260200160002060008373ffffffffffffffffffffffffffffffffffffffff1673ffffffffffffffffffffffffffffffffffffffff16815260200190815260200160002054905092915050565b6000600460009054906101000a900473ffffffffffffffffffffffffffffffffffffffff1673ffffffffffffffffffffffffffffffffffffffff163373ffffffffffffffffffffffffffffffffffffffff161415806135105750600073ffffffffffffffffffffffffffffffffffffffff163373ffffffffffffffffffffffffffffffffffffffff16145b156135285761352160016000614536565b905061379f565b6000600360019054906101000a900473ffffffffffffffffffffffffffffffffffffffff1690506000600460009054906101000a900473ffffffffffffffffffffffffffffffffffffffff169050600460009054906101000a900473ffffffffffffffffffffffffffffffffffffffff16600360016101000a81548173ffffffffffffffffffffffffffffffffffffffff021916908373ffffffffffffffffffffffffffffffffffffffff1602179055506000600460006101000a81548173ffffffffffffffffffffffffffffffffffffffff021916908373ffffffffffffffffffffffffffffffffffffffff1602179055507ff9ffabca9c8276e99321725bcb43fb076a6c66a54b7f21c4e8146d8519b417dc82600360019054906101000a900473ffffffffffffffffffffffffffffffffffffffff16604051808373ffffffffffffffffffffffffffffffffffffffff1673ffffffffffffffffffffffffffffffffffffffff1681526020018273ffffffffffffffffffffffffffffffffffffffff1673ffffffffffffffffffffffffffffffffffffffff1681526020019250505060405180910390a17fca4f2f25d0898edd99413412fb94012f9e54ec8142f9b093e7720646a95b16a981600460009054906101000a900473ffffffffffffffffffffffffffffffffffffffff16604051808373ffffffffffffffffffffffffffffffffffffffff1673ffffffffffffffffffffffffffffffffffffffff1681526020018273ffffffffffffffffffffffffffffffffffffffff1673ffffffffffffffffffffffffffffffffffffffff1681526020019250505060405180910390a16000601081111561379a57fe5b925050505b90565b6000806137ad6128a9565b9050600060108111156137bc57fe5b81146137e0576137d88160108111156137d157fe5b6040614536565b9150506137ed565b6137e9836149d7565b9150505b919050565b600660009054906101000a900473ffffffffffffffffffffffffffffffffffffffff1681565b600080613826858585615817565b509050809150509392505050565b600360019054906101000a900473ffffffffffffffffffffffffffffffffffffffff1681565b6000600660009054906101000a900473ffffffffffffffffffffffffffffffffffffffff1673ffffffffffffffffffffffffffffffffffffffff166315f240536138a2614344565b600b54600c546040518463ffffffff1660e01b815260040180848152602001838152602001828152602001935050505060206040518083038186803b1580156138ea57600080fd5b505afa1580156138fe573d6000803e3d6000fd5b505050506040513d602081101561391457600080fd5b8101908080519060200190929190505050905090565b60008060009054906101000a900460ff166139ad576040517f08c379a000000000000000000000000000000000000000000000000000000000815260040180806020018281038252600a8152602001807f72652d656e74657265640000000000000000000000000000000000000000000081525060200191505060405180910390fd5b60008060006101000a81548160ff02191690831515021790555060006139d16128a9565b9050600060108111156139e057fe5b8114613a04576139fc8160108111156139f557fe5b6046614536565b915050613a11565b613a0d836159ea565b9150505b60016000806101000a81548160ff021916908315150217905550919050565b600181565b6000806000809054906101000a900460ff16613ab9576040517f08c379a000000000000000000000000000000000000000000000000000000000815260040180806020018281038252600a8152602001807f72652d656e74657265640000000000000000000000000000000000000000000081525060200191505060405180910390fd5b60008060006101000a81548160ff0219169083151502179055506000613add6128a9565b905060006010811115613aec57fe5b8114613b1757613b08816010811115613b0157fe5b6036614536565b60008090509250925050613b28565b613b22333386615afd565b92509250505b60016000806101000a81548160ff021916908315150217905550915091565b6000806000600d5490506000811415613b695760006007549250925050613c1f565b6000613b73614344565b90506000613b7f61914e565b6000613b9084600b54600c54616350565b809450819250505060006003811115613ba557fe5b816003811115613bb157fe5b14613bca57806000809050965096505050505050613c1f565b613bd483866163ac565b809350819250505060006003811115613be957fe5b816003811115613bf557fe5b14613c0e57806000809050965096505050505050613c1f565b600082600001519650965050505050505b9091565b600080600560009054906101000a900473ffffffffffffffffffffffffffffffffffffffff1673ffffffffffffffffffffffffffffffffffffffff1663bdcdc258308787876040518563ffffffff1660e01b8152600401808573ffffffffffffffffffffffffffffffffffffffff1673ffffffffffffffffffffffffffffffffffffffff1681526020018473ffffffffffffffffffffffffffffffffffffffff1673ffffffffffffffffffffffffffffffffffffffff1681526020018373ffffffffffffffffffffffffffffffffffffffff1673ffffffffffffffffffffffffffffffffffffffff168152602001828152602001945050505050602060405180830381600087803b158015613d3757600080fd5b505af1158015613d4b573d6000803e3d6000fd5b505050506040513d6020811015613d6157600080fd5b8101908080519060200190929190505050905060008114613d9157613d896003604a83614e27565b9150506141c5565b8373ffffffffffffffffffffffffffffffffffffffff168573ffffffffffffffffffffffffffffffffffffffff161415613dd957613dd16002604b614536565b9150506141c5565b60008090508573ffffffffffffffffffffffffffffffffffffffff168773ffffffffffffffffffffffffffffffffffffffff161415613e3a577fffffffffffffffffffffffffffffffffffffffffffffffffffffffffffffffff9050613eba565b600f60008773ffffffffffffffffffffffffffffffffffffffff1673ffffffffffffffffffffffffffffffffffffffff16815260200190815260200160002060008873ffffffffffffffffffffffffffffffffffffffff1673ffffffffffffffffffffffffffffffffffffffff1681526020019081526020016000205490505b600080600080613eca8589614d7e565b809450819550505060006003811115613edf57fe5b846003811115613eeb57fe5b14613f0957613efc6009604b614536565b96505050505050506141c5565b613f52600e60008c73ffffffffffffffffffffffffffffffffffffffff1673ffffffffffffffffffffffffffffffffffffffff1681526020019081526020016000205489614d7e565b809350819550505060006003811115613f6757fe5b846003811115613f7357fe5b14613f9157613f846009604c614536565b96505050505050506141c5565b613fda600e60008b73ffffffffffffffffffffffffffffffffffffffff1673ffffffffffffffffffffffffffffffffffffffff1681526020019081526020016000205489614e9b565b809250819550505060006003811115613fef57fe5b846003811115613ffb57fe5b146140195761400c6009604d614536565b96505050505050506141c5565b81600e60008c73ffffffffffffffffffffffffffffffffffffffff1673ffffffffffffffffffffffffffffffffffffffff1681526020019081526020016000208190555080600e60008b73ffffffffffffffffffffffffffffffffffffffff1673ffffffffffffffffffffffffffffffffffffffff168152602001908152602001600020819055507fffffffffffffffffffffffffffffffffffffffffffffffffffffffffffffffff851461414a5782600f60008c73ffffffffffffffffffffffffffffffffffffffff1673ffffffffffffffffffffffffffffffffffffffff16815260200190815260200160002060008d73ffffffffffffffffffffffffffffffffffffffff1673ffffffffffffffffffffffffffffffffffffffff168152602001908152602001600020819055505b8873ffffffffffffffffffffffffffffffffffffffff168a73ffffffffffffffffffffffffffffffffffffffff167fddf252ad1be2c89b69c2b068fc378daa952ba7f163c4a11628f55a4df523b3ef8a6040518082815260200191505060405180910390a3600060108111156141bc57fe5b96505050505050505b949350505050565b6000806000809054906101000a900460ff16614251576040517f08c379a000000000000000000000000000000000000000000000000000000000815260040180806020018281038252600a8152602001807f72652d656e74657265640000000000000000000000000000000000000000000081525060200191505060405180910390fd5b60008060006101000a81548160ff02191690831515021790555060006142756128a9565b90506000601081111561428457fe5b81146142af576142a081601081111561429957fe5b6035614536565b600080905092509250506142c0565b6142ba338686615afd565b92509250505b60016000806101000a81548160ff0219169083151502179055509250929050565b60008060006142ee61914e565b6142f88686614da9565b915091506000600381111561430957fe5b82600381111561431557fe5b1461432b5781600080905093509350505061433d565b600061433682616480565b9350935050505b9250929050565b600080601160009054906101000a900473ffffffffffffffffffffffffffffffffffffffff1690508073ffffffffffffffffffffffffffffffffffffffff166370a08231306040518263ffffffff1660e01b8152600401808273ffffffffffffffffffffffffffffffffffffffff1673ffffffffffffffffffffffffffffffffffffffff16815260200191505060206040518083038186803b1580156143e957600080fd5b505afa1580156143fd573d6000803e3d6000fd5b505050506040513d602081101561441357600080fd5b810190808051906020019092919050505091505090565b60008060009054906101000a900460ff166144ad576040517f08c379a000000000000000000000000000000000000000000000000000000000815260040180806020018281038252600a8152602001807f72652d656e74657265640000000000000000000000000000000000000000000081525060200191505060405180910390fd5b60008060006101000a81548160ff02191690831515021790555060006144d16128a9565b9050600060108111156144e057fe5b8114614504576144fc8160108111156144f557fe5b604e614536565b915050614517565b61450d8361649f565b5080915050809150505b60016000806101000a81548160ff021916908315150217905550919050565b60007f45b96fe442630264581b197e84bbada861235052c5a1aadfff9ea4e40a969aa083601081111561456557fe5b83605081111561457157fe5b600060405180848152602001838152602001828152602001935050505060405180910390a18260108111156145a257fe5b905092915050565b600080600360019054906101000a900473ffffffffffffffffffffffffffffffffffffffff1673ffffffffffffffffffffffffffffffffffffffff163373ffffffffffffffffffffffffffffffffffffffff16146146165761460e60016031614536565b9150506147b6565b61461e6149cf565b6009541461463a57614632600a6033614536565b9150506147b6565b82614643614344565b101561465d57614655600e6032614536565b9150506147b6565b600c5483111561467b5761467360026034614536565b9150506147b6565b82600c54039050600c548111156146dd576040517f08c379a00000000000000000000000000000000000000000000000000000000081526004018080602001828103825260248152602001806197286024913960400191505060405180910390fd5b80600c81905550614710600360019054906101000a900473ffffffffffffffffffffffffffffffffffffffff16846165ec565b7f3bad0c59cf2f06e7314077049f48a93578cd16f5ef92329f1dab1420a99c177e600360019054906101000a900473ffffffffffffffffffffffffffffffffffffffff168483604051808473ffffffffffffffffffffffffffffffffffffffff1673ffffffffffffffffffffffffffffffffffffffff168152602001838152602001828152602001935050505060405180910390a1600060108111156147b257fe5b9150505b919050565b60008060009054906101000a900460ff1661483e576040517f08c379a000000000000000000000000000000000000000000000000000000000815260040180806020018281038252600a8152602001807f72652d656e74657265640000000000000000000000000000000000000000000081525060200191505060405180910390fd5b60008060006101000a81548160ff02191690831515021790555060006148626128a9565b90506000601081111561487157fe5b81146148955761488d81601081111561488657fe5b6027614536565b9150506148a5565b6148a13360008561675a565b9150505b60016000806101000a81548160ff021916908315150217905550919050565b600080600080600080601060008873ffffffffffffffffffffffffffffffffffffffff1673ffffffffffffffffffffffffffffffffffffffff168152602001908152602001600020905060008160000154141561492e5760008080905095509550505050506149ca565b61493e8160000154600a54617044565b80945081955050506000600381111561495357fe5b84600381111561495f57fe5b146149775783600080905095509550505050506149ca565b614985838260010154617097565b80935081955050506000600381111561499a57fe5b8460038111156149a657fe5b146149be5783600080905095509550505050506149ca565b60008295509550505050505b915091565b600043905090565b600080600360019054906101000a900473ffffffffffffffffffffffffffffffffffffffff1673ffffffffffffffffffffffffffffffffffffffff163373ffffffffffffffffffffffffffffffffffffffff1614614a4357614a3b60016042614536565b915050614c68565b614a4b6149cf565b60095414614a6757614a5f600a6041614536565b915050614c68565b600660009054906101000a900473ffffffffffffffffffffffffffffffffffffffff1690508273ffffffffffffffffffffffffffffffffffffffff16632191f92a6040518163ffffffff1660e01b815260040160206040518083038186803b158015614ad257600080fd5b505afa158015614ae6573d6000803e3d6000fd5b505050506040513d6020811015614afc57600080fd5b8101908080519060200190929190505050614b7f576040517f08c379a000000000000000000000000000000000000000000000000000000000815260040180806020018281038252601c8152602001807f6d61726b6572206d6574686f642072657475726e65642066616c73650000000081525060200191505060405180910390fd5b82600660006101000a81548173ffffffffffffffffffffffffffffffffffffffff021916908373ffffffffffffffffffffffffffffffffffffffff1602179055507fedffc32e068c7c95dfd4bdfd5c4d939a084d6b11c4199eac8436ed234d72f9268184604051808373ffffffffffffffffffffffffffffffffffffffff1673ffffffffffffffffffffffffffffffffffffffff1681526020018273ffffffffffffffffffffffffffffffffffffffff1673ffffffffffffffffffffffffffffffffffffffff1681526020019250505060405180910390a160006010811115614c6457fe5b9150505b919050565b6000806000809054906101000a900460ff16614cf1576040517f08c379a000000000000000000000000000000000000000000000000000000000815260040180806020018281038252600a8152602001807f72652d656e74657265640000000000000000000000000000000000000000000081525060200191505060405180910390fd5b60008060006101000a81548160ff0219169083151502179055506000614d156128a9565b905060006010811115614d2457fe5b8114614d4f57614d40816010811115614d3957fe5b601e614536565b60008090509250925050614d5f565b614d5933856170cb565b92509250505b60016000806101000a81548160ff021916908315150217905550915091565b600080838311614d9657600083850391509150614da2565b60036000809050915091505b9250929050565b6000614db361914e565b600080614dc4866000015186617044565b9150915060006003811115614dd557fe5b826003811115614de157fe5b14614e05578160405180602001604052806000815250809050935093505050614e20565b60006040518060200160405280838152508090509350935050505b9250929050565b60007f45b96fe442630264581b197e84bbada861235052c5a1aadfff9ea4e40a969aa0846010811115614e5657fe5b846050811115614e6257fe5b8460405180848152602001838152602001828152602001935050505060405180910390a1836010811115614e9257fe5b90509392505050565b60008060008385019050848110614eb9576000819250925050614ec6565b6002600080905092509250505b9250929050565b6000806000614eda61914e565b614ee48787614da9565b9150915060006003811115614ef557fe5b826003811115614f0157fe5b14614f1757816000809050935093505050614f30565b614f29614f2382616480565b86614e9b565b9350935050505b935093915050565b600080600560009054906101000a900473ffffffffffffffffffffffffffffffffffffffff1673ffffffffffffffffffffffffffffffffffffffff1663d02f735130888888886040518663ffffffff1660e01b8152600401808673ffffffffffffffffffffffffffffffffffffffff1673ffffffffffffffffffffffffffffffffffffffff1681526020018573ffffffffffffffffffffffffffffffffffffffff1673ffffffffffffffffffffffffffffffffffffffff1681526020018473ffffffffffffffffffffffffffffffffffffffff1673ffffffffffffffffffffffffffffffffffffffff1681526020018373ffffffffffffffffffffffffffffffffffffffff1673ffffffffffffffffffffffffffffffffffffffff16815260200182815260200195505050505050602060405180830381600087803b15801561508057600080fd5b505af1158015615094573d6000803e3d6000fd5b505050506040513d60208110156150aa57600080fd5b81019080805190602001909291905050509050600081146150da576150d26003601b83614e27565b9150506155ff565b8473ffffffffffffffffffffffffffffffffffffffff168473ffffffffffffffffffffffffffffffffffffffff1614156151225761511a6006601c614536565b9150506155ff565b61512a6191e1565b615173600e60008773ffffffffffffffffffffffffffffffffffffffff1673ffffffffffffffffffffffffffffffffffffffff1681526020019081526020016000205485614d7e565b82600001836020018281525082600381111561518b57fe5b600381111561519657fe5b8152505050600060038111156151a857fe5b816000015160038111156151b857fe5b146151e2576151d96009601a836000015160038111156151d457fe5b614e27565b925050506155ff565b615201846040518060200160405280666379da05b600008152506178d9565b816080018181525050615218848260800151617902565b816060018181525050615229613b47565b826000018360c0018281525082600381111561524157fe5b600381111561524c57fe5b81525050506000600381111561525e57fe5b8160000151600381111561526e57fe5b146152e1576040517f08c379a00000000000000000000000000000000000000000000000000000000081526004018080602001828103825260188152602001807f65786368616e67652072617465206d617468206572726f72000000000000000081525060200191505060405180910390fd5b61530160405180602001604052808360c00151815250826080015161794c565b8160a001818152505061531a600c548260a00151617974565b8160e0018181525050615333600d548260800151617902565b8161010001818152505061538a600e60008873ffffffffffffffffffffffffffffffffffffffff1673ffffffffffffffffffffffffffffffffffffffff168152602001908152602001600020548260600151614e9b565b8260000183604001828152508260038111156153a257fe5b60038111156153ad57fe5b8152505050600060038111156153bf57fe5b816000015160038111156153cf57fe5b146153f9576153f060096019836000015160038111156153eb57fe5b614e27565b925050506155ff565b8060e00151600c81905550806101000151600d819055508060200151600e60008773ffffffffffffffffffffffffffffffffffffffff1673ffffffffffffffffffffffffffffffffffffffff168152602001908152602001600020819055508060400151600e60008873ffffffffffffffffffffffffffffffffffffffff1673ffffffffffffffffffffffffffffffffffffffff168152602001908152602001600020819055508573ffffffffffffffffffffffffffffffffffffffff168573ffffffffffffffffffffffffffffffffffffffff167fddf252ad1be2c89b69c2b068fc378daa952ba7f163c4a11628f55a4df523b3ef83606001516040518082815260200191505060405180910390a33073ffffffffffffffffffffffffffffffffffffffff168573ffffffffffffffffffffffffffffffffffffffff167fddf252ad1be2c89b69c2b068fc378daa952ba7f163c4a11628f55a4df523b3ef83608001516040518082815260200191505060405180910390a37fa91e67c5ea634cd43a12c5a482724b03de01e85ca68702a53d0c2f45cb7c1dc5308260a001518360e00151604051808473ffffffffffffffffffffffffffffffffffffffff1673ffffffffffffffffffffffffffffffffffffffff168152602001838152602001828152602001935050505060405180910390a1600060108111156155fa57fe5b925050505b949350505050565b60008060009054906101000a900460ff1661568a576040517f08c379a000000000000000000000000000000000000000000000000000000000815260040180806020018281038252600a8152602001807f72652d656e74657265640000000000000000000000000000000000000000000081525060200191505060405180910390fd5b60008060006101000a81548160ff02191690831515021790555060006156ae6128a9565b9050600060108111156156bd57fe5b81146156e1576156d98160108111156156d257fe5b6008614536565b9150506156ef565b6156eb33846179be565b9150505b60016000806101000a81548160ff021916908315150217905550919050565b60008060009054906101000a900460ff16615791576040517f08c379a000000000000000000000000000000000000000000000000000000000815260040180806020018281038252600a8152602001807f72652d656e74657265640000000000000000000000000000000000000000000081525060200191505060405180910390fd5b60008060006101000a81548160ff02191690831515021790555060006157b56128a9565b9050600060108111156157c457fe5b81146157e8576157e08160108111156157d957fe5b6027614536565b9150506157f8565b6157f43384600061675a565b9150505b60016000806101000a81548160ff021916908315150217905550919050565b6000806000809054906101000a900460ff1661589b576040517f08c379a000000000000000000000000000000000000000000000000000000000815260040180806020018281038252600a8152602001807f72652d656e74657265640000000000000000000000000000000000000000000081525060200191505060405180910390fd5b60008060006101000a81548160ff02191690831515021790555060006158bf6128a9565b9050600060108111156158ce57fe5b81146158f9576158ea8160108111156158e357fe5b600f614536565b600080905092509250506159c8565b8373ffffffffffffffffffffffffffffffffffffffff1663a6afed956040518163ffffffff1660e01b8152600401602060405180830381600087803b15801561594157600080fd5b505af1158015615955573d6000803e3d6000fd5b505050506040513d602081101561596b57600080fd5b810190808051906020019092919050505090506000601081111561598b57fe5b81146159b6576159a78160108111156159a057fe5b6010614536565b600080905092509250506159c8565b6159c2338787876180c5565b92509250505b60016000806101000a81548160ff021916908315150217905550935093915050565b6000600360019054906101000a900473ffffffffffffffffffffffffffffffffffffffff1673ffffffffffffffffffffffffffffffffffffffff163373ffffffffffffffffffffffffffffffffffffffff1614615a5457615a4d60016047614536565b9050615af8565b615a5c6149cf565b60095414615a7757615a70600a6048614536565b9050615af8565b670de0b6b3a7640000821115615a9a57615a9360026049614536565b9050615af8565b60006008549050826008819055507faaa68312e2ea9d50e16af5068410ab56e1a1fd06037b1a35664812c30f8214608184604051808381526020018281526020019250505060405180910390a160006010811115615af457fe5b9150505b919050565b6000806000600560009054906101000a900473ffffffffffffffffffffffffffffffffffffffff1673ffffffffffffffffffffffffffffffffffffffff166324008a62308888886040518563ffffffff1660e01b8152600401808573ffffffffffffffffffffffffffffffffffffffff1673ffffffffffffffffffffffffffffffffffffffff1681526020018473ffffffffffffffffffffffffffffffffffffffff1673ffffffffffffffffffffffffffffffffffffffff1681526020018373ffffffffffffffffffffffffffffffffffffffff1673ffffffffffffffffffffffffffffffffffffffff168152602001828152602001945050505050602060405180830381600087803b158015615c1357600080fd5b505af1158015615c27573d6000803e3d6000fd5b505050506040513d6020811015615c3d57600080fd5b8101908080519060200190929190505050905060008114615c7457615c656003603883614e27565b60008090509250925050616348565b615c7c6149cf565b60095414615c9f57615c90600a6039614536565b60008090509250925050616348565b615ca7619238565b601060008773ffffffffffffffffffffffffffffffffffffffff1673ffffffffffffffffffffffffffffffffffffffff16815260200190815260200160002060010154816060018181525050615cfc866148c4565b826020018360800182815250826003811115615d1457fe5b6003811115615d1f57fe5b815250505060006003811115615d3157fe5b81602001516003811115615d4157fe5b14615d7257615d626009603783602001516003811115615d5d57fe5b614e27565b6000809050935093505050616348565b7fffffffffffffffffffffffffffffffffffffffffffffffffffffffffffffffff851415615dad578060800151816040018181525050615db8565b848160400181815250505b6000615dc2614344565b14615e18576040517f08c379a00000000000000000000000000000000000000000000000000000000081526004018080602001828103825260328152602001806194396032913960400191505060405180910390fd5b615e268782604001516189bd565b8160e00181815250508060e00151615e3c614344565b1015615e93576040517f08c379a000000000000000000000000000000000000000000000000000000000815260040180806020018281038252602b8152602001806196c9602b913960400191505060405180910390fd5b6000615e9d614344565b90506000601260009054906101000a900473ffffffffffffffffffffffffffffffffffffffff1673ffffffffffffffffffffffffffffffffffffffff16638ddcb465615ee7614344565b8a6040518363ffffffff1660e01b8152600401808381526020018273ffffffffffffffffffffffffffffffffffffffff1673ffffffffffffffffffffffffffffffffffffffff16815260200192505050602060405180830381600087803b158015615f5157600080fd5b505af1158015615f65573d6000803e3d6000fd5b505050506040513d6020811015615f7b57600080fd5b8101908080519060200190929190505050905060008114615fb557615fa36009600c83614e27565b60008090509550955050505050616348565b6000615fbf614344565b14615ffe576000601260009054906101000a900473ffffffffffffffffffffffffffffffffffffffff169050615ffc81615ff7614344565b6165ec565b505b6000616008614344565b1461607b576040517f08c379a000000000000000000000000000000000000000000000000000000000815260040180806020018281038252601e8152602001807f4e6f204c697175696469747920696e204c656e64696e67204d61726b6574000081525060200191505060405180910390fd5b61608d83608001518460e00151614d7e565b846020018560a001828152508260038111156160a557fe5b60038111156160b057fe5b8152505050600060038111156160c257fe5b836020015160038111156160d257fe5b14616128576040517f08c379a000000000000000000000000000000000000000000000000000000000815260040180806020018281038252603a81526020018061959d603a913960400191505060405180910390fd5b616138600b548460e00151614d7e565b846020018560c0018281525082600381111561615057fe5b600381111561615b57fe5b81525050506000600381111561616d57fe5b8360200151600381111561617d57fe5b146161d3576040517f08c379a00000000000000000000000000000000000000000000000000000000081526004018080602001828103825260318152602001806195d76031913960400191505060405180910390fd5b8260a00151601060008a73ffffffffffffffffffffffffffffffffffffffff1673ffffffffffffffffffffffffffffffffffffffff16815260200190815260200160002060000181905550600a54601060008a73ffffffffffffffffffffffffffffffffffffffff1673ffffffffffffffffffffffffffffffffffffffff168152602001908152602001600020600101819055508260c00151600b819055507f1a2a22cb034d26d1854bdc6666a5b91fe25efbbb5dcad3b0355478d6f5c362a189898560e001518660a001518760c00151604051808673ffffffffffffffffffffffffffffffffffffffff1673ffffffffffffffffffffffffffffffffffffffff1681526020018573ffffffffffffffffffffffffffffffffffffffff1673ffffffffffffffffffffffffffffffffffffffff1681526020018481526020018381526020018281526020019550505050505060405180910390a16000601081111561633a57fe5b8360e0015195509550505050505b935093915050565b6000806000806163608787614e9b565b915091506000600381111561637157fe5b82600381111561637d57fe5b14616393578160008090509350935050506163a4565b61639d8186614d7e565b9350935050505b935093915050565b60006163b661914e565b6000806163cb86670de0b6b3a7640000617044565b91509150600060038111156163dc57fe5b8260038111156163e857fe5b1461640c578160405180602001604052806000815250809050935093505050616479565b6000806164198388617097565b915091506000600381111561642a57fe5b82600381111561643657fe5b1461645c5781604051806020016040528060008152508090509550955050505050616479565b600060405180602001604052808381525080905095509550505050505b9250929050565b6000670de0b6b3a764000082600001518161649757fe5b049050919050565b6000806000806164ad6149cf565b600954146164cd576164c1600a604f614536565b819350935050506165e7565b6164d733866189bd565b905080600c54019150600c54821015616558576040517f08c379a00000000000000000000000000000000000000000000000000000000081526004018080602001828103825260208152602001807f61646420726573657276657320756e6578706563746564206f766572666c6f7781525060200191505060405180910390fd5b81600c819055507fa91e67c5ea634cd43a12c5a482724b03de01e85ca68702a53d0c2f45cb7c1dc5338284604051808473ffffffffffffffffffffffffffffffffffffffff1673ffffffffffffffffffffffffffffffffffffffff168152602001838152602001828152602001935050505060405180910390a1600060108111156165df57fe5b819350935050505b915091565b6000601160009054906101000a900473ffffffffffffffffffffffffffffffffffffffff1690508073ffffffffffffffffffffffffffffffffffffffff1663a9059cbb84846040518363ffffffff1660e01b8152600401808373ffffffffffffffffffffffffffffffffffffffff1673ffffffffffffffffffffffffffffffffffffffff16815260200182815260200192505050600060405180830381600087803b15801561669a57600080fd5b505af11580156166ae573d6000803e3d6000fd5b5050505060003d600081146166ca57602081146166d457600080fd5b60001991506166e0565b60206000803e60005191505b5080616754576040517f08c379a00000000000000000000000000000000000000000000000000000000081526004018080602001828103825260198152602001807f544f4b454e5f5452414e534645525f4f55545f4641494c45440000000000000081525060200191505060405180910390fd5b50505050565b60008083148061676a5750600082145b6167bf576040517f08c379a00000000000000000000000000000000000000000000000000000000081526004018080602001828103825260348152602001806196f46034913960400191505060405180910390fd5b6167c7619293565b6167cf613b47565b8260200183604001828152508260038111156167e757fe5b60038111156167f257fe5b81525050506000600381111561680457fe5b8160200151600381111561681457fe5b1461683d576168356009602b8360200151600381111561683057fe5b614e27565b91505061703d565b60008411156168df578381606001818152505061686c60405180602001604052808360400151815250856142e1565b82602001836080018281525082600381111561688457fe5b600381111561688f57fe5b8152505050600060038111156168a157fe5b816020015160038111156168b157fe5b146168da576168d260096029836020015160038111156168cd57fe5b614e27565b91505061703d565b616974565b6168fb8360405180602001604052808460400151815250618d9b565b82602001836060018281525082600381111561691357fe5b600381111561691e57fe5b81525050506000600381111561693057fe5b8160200151600381111561694057fe5b14616969576169616009602a8360200151600381111561695c57fe5b614e27565b91505061703d565b828160800181815250505b6000600560009054906101000a900473ffffffffffffffffffffffffffffffffffffffff1673ffffffffffffffffffffffffffffffffffffffff1663eabe7d91308885606001516040518463ffffffff1660e01b8152600401808473ffffffffffffffffffffffffffffffffffffffff1673ffffffffffffffffffffffffffffffffffffffff1681526020018373ffffffffffffffffffffffffffffffffffffffff1673ffffffffffffffffffffffffffffffffffffffff1681526020018281526020019350505050602060405180830381600087803b158015616a5757600080fd5b505af1158015616a6b573d6000803e3d6000fd5b505050506040513d6020811015616a8157600080fd5b8101908080519060200190929190505050905060008114616ab257616aa96003602883614e27565b9250505061703d565b616aba6149cf565b60095414616ad757616ace600a602c614536565b9250505061703d565b616ae7600d548360600151614d7e565b836020018460a00182815250826003811115616aff57fe5b6003811115616b0a57fe5b815250505060006003811115616b1c57fe5b82602001516003811115616b2c57fe5b14616b5657616b4d6009602e84602001516003811115616b4857fe5b614e27565b9250505061703d565b616ba3600e60008873ffffffffffffffffffffffffffffffffffffffff1673ffffffffffffffffffffffffffffffffffffffff168152602001908152602001600020548360600151614d7e565b836020018460c00182815250826003811115616bbb57fe5b6003811115616bc657fe5b815250505060006003811115616bd857fe5b82602001516003811115616be857fe5b14616c1257616c096009602d84602001516003811115616c0457fe5b614e27565b9250505061703d565b6000616c1c614344565b14616c72576040517f08c379a000000000000000000000000000000000000000000000000000000000815260040180806020018281038252603181526020018061974c6031913960400191505060405180910390fd5b6000601260009054906101000a900473ffffffffffffffffffffffffffffffffffffffff1673ffffffffffffffffffffffffffffffffffffffff1663a90aca928460800151896040518363ffffffff1660e01b8152600401808381526020018273ffffffffffffffffffffffffffffffffffffffff1673ffffffffffffffffffffffffffffffffffffffff16815260200192505050602060405180830381600087803b158015616d2157600080fd5b505af1158015616d35573d6000803e3d6000fd5b505050506040513d6020811015616d4b57600080fd5b8101908080519060200190929190505050905060008114616d7d57616d736003604b83614e27565b935050505061703d565b8260800151616d8a614344565b14616de0576040517f08c379a000000000000000000000000000000000000000000000000000000000815260040180806020018281038252602e81526020018061940b602e913960400191505060405180910390fd5b616dee8784608001516165ec565b8260a00151600d819055508260c00151600e60008973ffffffffffffffffffffffffffffffffffffffff1673ffffffffffffffffffffffffffffffffffffffff168152602001908152602001600020819055503073ffffffffffffffffffffffffffffffffffffffff168773ffffffffffffffffffffffffffffffffffffffff167fddf252ad1be2c89b69c2b068fc378daa952ba7f163c4a11628f55a4df523b3ef85606001516040518082815260200191505060405180910390a37fe5b754fb1abb7f01b499791d0b820ae3b6af3424ac1c59768edb53f4ec31a9298784608001518560600151604051808473ffffffffffffffffffffffffffffffffffffffff1673ffffffffffffffffffffffffffffffffffffffff168152602001838152602001828152602001935050505060405180910390a1600560009054906101000a900473ffffffffffffffffffffffffffffffffffffffff1673ffffffffffffffffffffffffffffffffffffffff166351dff9893089866080015187606001516040518563ffffffff1660e01b8152600401808573ffffffffffffffffffffffffffffffffffffffff1673ffffffffffffffffffffffffffffffffffffffff1681526020018473ffffffffffffffffffffffffffffffffffffffff1673ffffffffffffffffffffffffffffffffffffffff168152602001838152602001828152602001945050505050600060405180830381600087803b15801561701257600080fd5b505af1158015617026573d6000803e3d6000fd5b505050506000601081111561703757fe5b93505050505b9392505050565b600080600084141561705f5760008080905091509150617090565b600083850290508385828161707057fe5b041461708757600260008090509250925050617090565b60008192509250505b9250929050565b60008060008314156170b35760016000809050915091506170c4565b60008385816170be57fe5b04915091505b9250929050565b6000806000600560009054906101000a900473ffffffffffffffffffffffffffffffffffffffff1673ffffffffffffffffffffffffffffffffffffffff16634ef4c3e13087876040518463ffffffff1660e01b8152600401808473ffffffffffffffffffffffffffffffffffffffff1673ffffffffffffffffffffffffffffffffffffffff1681526020018373ffffffffffffffffffffffffffffffffffffffff1673ffffffffffffffffffffffffffffffffffffffff1681526020018281526020019350505050602060405180830381600087803b1580156171ad57600080fd5b505af11580156171c1573d6000803e3d6000fd5b505050506040513d60208110156171d757600080fd5b810190808051906020019092919050505090506000811461720e576171ff6003601f83614e27565b600080905092509250506178d2565b6172166149cf565b600954146172395761722a600a6022614536565b600080905092509250506178d2565b6172416192e6565b617249613b47565b82602001836040018281525082600381111561726157fe5b600381111561726c57fe5b81525050506000600381111561727e57fe5b8160200151600381111561728e57fe5b146172bf576172af60096021836020015160038111156172aa57fe5b614e27565b60008090509350935050506178d2565b60006172c9614344565b1461731f576040517f08c379a000000000000000000000000000000000000000000000000000000000815260040180806020018281038252602e81526020018061946b602e913960400191505060405180910390fd5b61732986866189bd565b8160c00181815250508060c0015161733f614344565b1015617396576040517f08c379a000000000000000000000000000000000000000000000000000000000815260040180806020018281038252602b8152602001806196c9602b913960400191505060405180910390fd5b60006173a0614344565b90506000601260009054906101000a900473ffffffffffffffffffffffffffffffffffffffff1673ffffffffffffffffffffffffffffffffffffffff16638ddcb4656173ea614344565b8a6040518363ffffffff1660e01b8152600401808381526020018273ffffffffffffffffffffffffffffffffffffffff1673ffffffffffffffffffffffffffffffffffffffff16815260200192505050602060405180830381600087803b15801561745457600080fd5b505af1158015617468573d6000803e3d6000fd5b505050506040513d602081101561747e57600080fd5b81019080805190602001909291905050509050600081146174b8576174a66009600c83614e27565b600080905095509550505050506178d2565b60006174c2614344565b14617501576000601260009054906101000a900473ffffffffffffffffffffffffffffffffffffffff1690506174ff816174fa614344565b6165ec565b505b600061750b614344565b1461751557600080fd5b6175358360c0015160405180602001604052808660400151815250618d9b565b84602001856060018281525082600381111561754d57fe5b600381111561755857fe5b81525050506000600381111561756a57fe5b8360200151600381111561757a57fe5b146175ed576040517f08c379a00000000000000000000000000000000000000000000000000000000081526004018080602001828103825260208152602001807f4d494e545f45584348414e47455f43414c43554c4154494f4e5f4641494c454481525060200191505060405180910390fd5b6175fd600d548460600151614e9b565b84602001856080018281525082600381111561761557fe5b600381111561762057fe5b81525050506000600381111561763257fe5b8360200151600381111561764257fe5b14617698576040517f08c379a00000000000000000000000000000000000000000000000000000000081526004018080602001828103825260288152602001806196a16028913960400191505060405180910390fd5b6176e5600e60008a73ffffffffffffffffffffffffffffffffffffffff1673ffffffffffffffffffffffffffffffffffffffff168152602001908152602001600020548460600151614e9b565b846020018560a001828152508260038111156176fd57fe5b600381111561770857fe5b81525050506000600381111561771a57fe5b8360200151600381111561772a57fe5b14617780576040517f08c379a000000000000000000000000000000000000000000000000000000000815260040180806020018281038252602b815260200180619518602b913960400191505060405180910390fd5b8260800151600d819055508260a00151600e60008a73ffffffffffffffffffffffffffffffffffffffff1673ffffffffffffffffffffffffffffffffffffffff168152602001908152602001600020819055507f4c209b5fc8ad50758f13e2e1088ba56a560dff690a1c6fef26394f4c03821c4f888460c001518560600151604051808473ffffffffffffffffffffffffffffffffffffffff1673ffffffffffffffffffffffffffffffffffffffff168152602001838152602001828152602001935050505060405180910390a18773ffffffffffffffffffffffffffffffffffffffff163073ffffffffffffffffffffffffffffffffffffffff167fddf252ad1be2c89b69c2b068fc378daa952ba7f163c4a11628f55a4df523b3ef85606001516040518082815260200191505060405180910390a3600060108111156178c457fe5b8360c0015195509550505050505b9250929050565b6000670de0b6b3a76400006178f2848460000151618dfe565b816178f957fe5b04905092915050565b600061794483836040518060400160405280601581526020017f7375627472616374696f6e20756e646572666c6f770000000000000000000000815250618e48565b905092915050565b600061795661914e565b6179608484618f02565b905061796b81616480565b91505092915050565b60006179b683836040518060400160405280601181526020017f6164646974696f6e206f766572666c6f77000000000000000000000000000000815250618f2e565b905092915050565b600080600560009054906101000a900473ffffffffffffffffffffffffffffffffffffffff1673ffffffffffffffffffffffffffffffffffffffff1663da3d454c3086866040518463ffffffff1660e01b8152600401808473ffffffffffffffffffffffffffffffffffffffff1673ffffffffffffffffffffffffffffffffffffffff1681526020018373ffffffffffffffffffffffffffffffffffffffff1673ffffffffffffffffffffffffffffffffffffffff1681526020018281526020019350505050602060405180830381600087803b158015617a9e57600080fd5b505af1158015617ab2573d6000803e3d6000fd5b505050506040513d6020811015617ac857600080fd5b8101908080519060200190929190505050905060008114617af857617af06003600e83614e27565b9150506180bf565b617b006149cf565b60095414617b1b57617b13600a80614536565b9150506180bf565b6000617b25614344565b14617b7b576040517f08c379a000000000000000000000000000000000000000000000000000000000815260040180806020018281038252603181526020018061963b6031913960400191505060405180910390fd5b600073ffffffffffffffffffffffffffffffffffffffff16601260009054906101000a900473ffffffffffffffffffffffffffffffffffffffff1673ffffffffffffffffffffffffffffffffffffffff161415617c23576040517f08c379a00000000000000000000000000000000000000000000000000000000081526004018080602001828103825260238152602001806195436023913960400191505060405180910390fd5b6000601260009054906101000a900473ffffffffffffffffffffffffffffffffffffffff1673ffffffffffffffffffffffffffffffffffffffff1663a90aca9285876040518363ffffffff1660e01b8152600401808381526020018273ffffffffffffffffffffffffffffffffffffffff1673ffffffffffffffffffffffffffffffffffffffff16815260200192505050602060405180830381600087803b158015617cce57600080fd5b505af1158015617ce2573d6000803e3d6000fd5b505050506040513d6020811015617cf857600080fd5b8101908080519060200190929190505050905060008114617d2957617d206003604b83614e27565b925050506180bf565b83617d32614344565b14617da5576040517f08c379a000000000000000000000000000000000000000000000000000000000815260040180806020018281038252601a8152602001807f696e636f727265637420616d6f756e74207375626d697474656400000000000081525060200191505060405180910390fd5b617dad619339565b617db6866148c4565b826000018360200182815250826003811115617dce57fe5b6003811115617dd957fe5b815250505060006003811115617deb57fe5b81600001516003811115617dfb57fe5b14617e2657617e1c6009600783600001516003811115617e1757fe5b614e27565b93505050506180bf565b617e34816020015186614e9b565b826000018360400182815250826003811115617e4c57fe5b6003811115617e5757fe5b815250505060006003811115617e6957fe5b81600001516003811115617e7957fe5b14617ea457617e9a6009600c83600001516003811115617e9557fe5b614e27565b93505050506180bf565b617eb0600b5486614e9b565b826000018360600182815250826003811115617ec857fe5b6003811115617ed357fe5b815250505060006003811115617ee557fe5b81600001516003811115617ef557fe5b14617f2057617f166009600b83600001516003811115617f1157fe5b614e27565b93505050506180bf565b617f2a86866165ec565b6000617f34614344565b14617f8a576040517f08c379a000000000000000000000000000000000000000000000000000000000815260040180806020018281038252603181526020018061963b6031913960400191505060405180910390fd5b8060400151601060008873ffffffffffffffffffffffffffffffffffffffff1673ffffffffffffffffffffffffffffffffffffffff16815260200190815260200160002060000181905550600a54601060008873ffffffffffffffffffffffffffffffffffffffff1673ffffffffffffffffffffffffffffffffffffffff168152602001908152602001600020600101819055508060600151600b819055507f13ed6866d4e1ee6da46f845c46d7e54120883d75c5ea9a2dacc1c4ca8984ab80868683604001518460600151604051808573ffffffffffffffffffffffffffffffffffffffff1673ffffffffffffffffffffffffffffffffffffffff16815260200184815260200183815260200182815260200194505050505060405180910390a1600060108111156180b957fe5b93505050505b92915050565b6000806000600560009054906101000a900473ffffffffffffffffffffffffffffffffffffffff1673ffffffffffffffffffffffffffffffffffffffff16635fc7e71e30868a8a8a6040518663ffffffff1660e01b8152600401808673ffffffffffffffffffffffffffffffffffffffff1673ffffffffffffffffffffffffffffffffffffffff1681526020018573ffffffffffffffffffffffffffffffffffffffff1673ffffffffffffffffffffffffffffffffffffffff1681526020018473ffffffffffffffffffffffffffffffffffffffff1673ffffffffffffffffffffffffffffffffffffffff1681526020018373ffffffffffffffffffffffffffffffffffffffff1673ffffffffffffffffffffffffffffffffffffffff16815260200182815260200195505050505050602060405180830381600087803b15801561820f57600080fd5b505af1158015618223573d6000803e3d6000fd5b505050506040513d602081101561823957600080fd5b8101908080519060200190929190505050905060008114618270576182616003601283614e27565b600080905092509250506189b4565b6182786149cf565b6009541461829b5761828c600a6016614536565b600080905092509250506189b4565b6182a36149cf565b8473ffffffffffffffffffffffffffffffffffffffff16636c540baf6040518163ffffffff1660e01b815260040160206040518083038186803b1580156182e957600080fd5b505afa1580156182fd573d6000803e3d6000fd5b505050506040513d602081101561831357600080fd5b81019080805190602001909291905050501461834457618335600a6011614536565b600080905092509250506189b4565b8673ffffffffffffffffffffffffffffffffffffffff168673ffffffffffffffffffffffffffffffffffffffff1614156183935761838460066017614536565b600080905092509250506189b4565b60008514156183b7576183a860076015614536565b600080905092509250506189b4565b7fffffffffffffffffffffffffffffffffffffffffffffffffffffffffffffffff8514156183fa576183eb60076014614536565b600080905092509250506189b4565b600080618408898989615afd565b915091506000601081111561841957fe5b82146184465761843582601081111561842e57fe5b6018614536565b6000809050945094505050506189b4565b600080600560009054906101000a900473ffffffffffffffffffffffffffffffffffffffff1673ffffffffffffffffffffffffffffffffffffffff1663c488847b308a866040518463ffffffff1660e01b8152600401808473ffffffffffffffffffffffffffffffffffffffff1673ffffffffffffffffffffffffffffffffffffffff1681526020018373ffffffffffffffffffffffffffffffffffffffff1673ffffffffffffffffffffffffffffffffffffffff1681526020018281526020019350505050604080518083038186803b15801561852357600080fd5b505afa158015618537573d6000803e3d6000fd5b505050506040513d604081101561854d57600080fd5b810190808051906020019092919080519060200190929190505050915091506000601081111561857957fe5b82146185d0576040517f08c379a00000000000000000000000000000000000000000000000000000000081526004018080602001828103825260338152602001806196086033913960400191505060405180910390fd5b808873ffffffffffffffffffffffffffffffffffffffff166370a082318c6040518263ffffffff1660e01b8152600401808273ffffffffffffffffffffffffffffffffffffffff1673ffffffffffffffffffffffffffffffffffffffff16815260200191505060206040518083038186803b15801561864e57600080fd5b505afa158015618662573d6000803e3d6000fd5b505050506040513d602081101561867857600080fd5b810190808051906020019092919050505010156186fd576040517f08c379a00000000000000000000000000000000000000000000000000000000081526004018080602001828103825260188152602001807f4c49515549444154455f5345495a455f544f4f5f4d554348000000000000000081525060200191505060405180910390fd5b60003073ffffffffffffffffffffffffffffffffffffffff168973ffffffffffffffffffffffffffffffffffffffff1614156187465761873f308d8d85614f38565b905061883f565b8873ffffffffffffffffffffffffffffffffffffffff1663b2a02ff18d8d856040518463ffffffff1660e01b8152600401808473ffffffffffffffffffffffffffffffffffffffff1673ffffffffffffffffffffffffffffffffffffffff1681526020018373ffffffffffffffffffffffffffffffffffffffff1673ffffffffffffffffffffffffffffffffffffffff1681526020018281526020019350505050602060405180830381600087803b15801561880157600080fd5b505af1158015618815573d6000803e3d6000fd5b505050506040513d602081101561882b57600080fd5b810190808051906020019092919050505090505b6000601081111561884c57fe5b81146188c0576040517f08c379a00000000000000000000000000000000000000000000000000000000081526004018080602001828103825260148152602001807f746f6b656e207365697a757265206661696c656400000000000000000000000081525060200191505060405180910390fd5b7f298637f684da70674f26509b10f07ec2fbc77a335ab1e7d6215a4b2484d8bb528c8c868c86604051808673ffffffffffffffffffffffffffffffffffffffff1673ffffffffffffffffffffffffffffffffffffffff1681526020018573ffffffffffffffffffffffffffffffffffffffff1673ffffffffffffffffffffffffffffffffffffffff1681526020018481526020018373ffffffffffffffffffffffffffffffffffffffff1673ffffffffffffffffffffffffffffffffffffffff1681526020018281526020019550505050505060405180910390a1600060108111156189a857fe5b84975097505050505050505b94509492505050565b600080601160009054906101000a900473ffffffffffffffffffffffffffffffffffffffff1690506000601160009054906101000a900473ffffffffffffffffffffffffffffffffffffffff1673ffffffffffffffffffffffffffffffffffffffff166370a08231306040518263ffffffff1660e01b8152600401808273ffffffffffffffffffffffffffffffffffffffff1673ffffffffffffffffffffffffffffffffffffffff16815260200191505060206040518083038186803b158015618a8657600080fd5b505afa158015618a9a573d6000803e3d6000fd5b505050506040513d6020811015618ab057600080fd5b810190808051906020019092919050505090508173ffffffffffffffffffffffffffffffffffffffff166323b872dd8630876040518463ffffffff1660e01b8152600401808473ffffffffffffffffffffffffffffffffffffffff1673ffffffffffffffffffffffffffffffffffffffff1681526020018373ffffffffffffffffffffffffffffffffffffffff1673ffffffffffffffffffffffffffffffffffffffff1681526020018281526020019350505050600060405180830381600087803b158015618b7e57600080fd5b505af1158015618b92573d6000803e3d6000fd5b5050505060003d60008114618bae5760208114618bb857600080fd5b6000199150618bc4565b60206000803e60005191505b5080618c38576040517f08c379a00000000000000000000000000000000000000000000000000000000081526004018080602001828103825260188152602001807f544f4b454e5f5452414e534645525f494e5f4641494c4544000000000000000081525060200191505060405180910390fd5b6000601160009054906101000a900473ffffffffffffffffffffffffffffffffffffffff1673ffffffffffffffffffffffffffffffffffffffff166370a08231306040518263ffffffff1660e01b8152600401808273ffffffffffffffffffffffffffffffffffffffff1673ffffffffffffffffffffffffffffffffffffffff16815260200191505060206040518083038186803b158015618cd957600080fd5b505afa158015618ced573d6000803e3d6000fd5b505050506040513d6020811015618d0357600080fd5b8101908080519060200190929190505050905082811015618d8c576040517f08c379a000000000000000000000000000000000000000000000000000000000815260040180806020018281038252601a8152602001807f544f4b454e5f5452414e534645525f494e5f4f564552464c4f5700000000000081525060200191505060405180910390fd5b82810394505050505092915050565b6000806000618da861914e565b618db28686618fed565b9150915060006003811115618dc357fe5b826003811115618dcf57fe5b14618de557816000809050935093505050618df7565b6000618df082616480565b9350935050505b9250929050565b6000618e4083836040518060400160405280601781526020017f6d756c7469706c69636174696f6e206f766572666c6f77000000000000000000815250619069565b905092915050565b6000838311158290618ef5576040517f08c379a00000000000000000000000000000000000000000000000000000000081526004018080602001828103825283818151815260200191508051906020019080838360005b83811015618eba578082015181840152602081019050618e9f565b50505050905090810190601f168015618ee75780820380516001836020036101000a031916815260200191505b509250505060405180910390fd5b5082840390509392505050565b618f0a61914e565b6040518060200160405280618f23856000015185618dfe565b815250905092915050565b6000808385019050848110158390618fe1576040517f08c379a00000000000000000000000000000000000000000000000000000000081526004018080602001828103825283818151815260200191508051906020019080838360005b83811015618fa6578082015181840152602081019050618f8b565b50505050905090810190601f168015618fd35780820380516001836020036101000a031916815260200191505b509250505060405180910390fd5b50809150509392505050565b6000618ff761914e565b60008061900c670de0b6b3a764000087617044565b915091506000600381111561901d57fe5b82600381111561902957fe5b1461904d578160405180602001604052806000815250809050935093505050619062565b61905b8186600001516163ac565b9350935050505b9250929050565b6000808414806190795750600083145b156190875760009050619147565b600083850290508385828161909857fe5b04148390619141576040517f08c379a00000000000000000000000000000000000000000000000000000000081526004018080602001828103825283818151815260200191508051906020019080838360005b838110156191065780820151818401526020810190506190eb565b50505050905090810190601f1680156191335780820380516001836020036101000a031916815260200191505b509250505060405180910390fd5b50809150505b9392505050565b6040518060200160405280600081525090565b828054600181600116156101000203166002900490600052602060002090601f016020900481019282601f106191a257805160ff19168380011785556191d0565b828001600101855582156191d0579182015b828111156191cf5782518255916020019190600101906191b4565b5b5090506191dd919061936c565b5090565b604051806101200160405280600060038111156191fa57fe5b815260200160008152602001600081526020016000815260200160008152602001600081526020016000815260200160008152602001600081525090565b6040518061010001604052806000601081111561925157fe5b81526020016000600381111561926357fe5b81526020016000815260200160008152602001600081526020016000815260200160008152602001600081525090565b6040518060e00160405280600060108111156192ab57fe5b8152602001600060038111156192bd57fe5b815260200160008152602001600081526020016000815260200160008152602001600081525090565b6040518060e00160405280600060108111156192fe57fe5b81526020016000600381111561931057fe5b815260200160008152602001600081526020016000815260200160008152602001600081525090565b60405180608001604052806000600381111561935157fe5b81526020016000815260200160008152602001600081525090565b61938e91905b8082111561938a576000816000905550600101619372565b5090565b9056fe6f6e6c792061646d696e206d617920696e697469616c697a6520746865206d61726b65746d61726b6574206d6179206f6e6c7920626520696e697469616c697a6564206f6e63654345726332303a3a7377656570546f6b656e3a2063616e206e6f7420737765657020756e6465726c79696e6720746f6b656e54686572652073686f756c64206265206e6f206c697175696469747920696e204c656e64696e67204d61726b65744c697175696469747920696e204e6f7465204c656e64696e67204d61726b657420697320616c7761797320666c6173686564416e79204c697175696469747920696e20746865204c656e64696e67204d61726b657420697320666c6173686564696e697469616c2065786368616e67652072617465206d7573742062652067726561746572207468616e207a65726f2e6f6e6c79207468652061646d696e206d6179207365742074686520636f6d702d6c696b652064656c656761746573657474696e6720696e7465726573742072617465206d6f64656c206661696c65644d494e545f4e45575f4143434f554e545f42414c414e43455f43414c43554c4154494f4e5f4641494c45444163636f756e74616e7420686173206e6f74206265656e20696e697469616c697a6564626f72726f7742616c616e636553746f7265643a20626f72726f7742616c616e636553746f726564496e7465726e616c206661696c656452455041595f424f52524f575f4e45575f4143434f554e545f424f52524f575f42414c414e43455f43414c43554c4154494f4e5f4641494c454452455041595f424f52524f575f4e45575f544f54414c5f42414c414e43455f43414c43554c4154494f4e5f4641494c45444c49515549444154455f434f4d5054524f4c4c45525f43414c43554c4154455f414d4f554e545f5345495a455f4641494c4544494d504f535349424c45204558545241204c495155494449545920494e204e4f5445204c454e44494e47204d41524b455465786368616e67655261746553746f7265643a2065786368616e67655261746553746f726564496e7465726e616c206661696c65644d494e545f4e45575f544f54414c5f535550504c595f43414c43554c4154494f4e5f4641494c45446572726f722c204c656e64696e674d61726b6574204c697175696469747920697320696e636f72726563746f6e65206f662072656465656d546f6b656e73496e206f722072656465656d416d6f756e74496e206d757374206265207a65726f72656475636520726573657276657320756e657870656374656420756e646572666c6f7754686572652073686f756c64206265206e6f206c697175696469747920696e20746865204c656e64696e674d61726b6574a265627a7a723158207d494d5b14e7f91a82020efac017aeb7353af35edea9e9ff877f30d78bec165e64736f6c63430005100032",
  "linkReferences": {},
  "deployedLinkReferences": {}
}